{"src/Owner.sol":{"Owner":{"abi":[{"inputs":[],"stateMutability":"nonpayable","type":"constructor"},{"inputs":[],"name":"getCollectionId","outputs":[{"internalType":"int256","name":"","type":"int256"}],"stateMutability":"view","type":"function"}],"devdoc":{"kind":"dev","methods":{},"version":1},"evm":{"bytecode":{"linkReferences":{},"object":"608060405234801561001057600080fd5b50336000806101000a81548173ffffffffffffffffffffffffffffffffffffffff021916908373ffffffffffffffffffffffffffffffffffffffff16021790555060b78061005f6000396000f3fe6080604052348015600f57600080fd5b506004361060285760003560e01c80637c8e7bfe14602d575b600080fd5b60336047565b604051603e91906068565b60405180910390f35b6000600154905090565b6000819050919050565b6062816051565b82525050565b6000602082019050607b6000830184605b565b9291505056fea2646970667358221220c16c1108ded8205f9edd4285b97369b574e91af56ae5288edb6d6961ecce9c7a64736f6c63430008140033","opcodes":"PUSH1 0x80 PUSH1 0x40 MSTORE CALLVALUE DUP1 ISZERO PUSH2 0x10 JUMPI PUSH1 0x0 DUP1 REVERT JUMPDEST POP CALLER PUSH1 0x0 DUP1 PUSH2 0x100 EXP DUP2 SLOAD DUP2 PUSH20 0xFFFFFFFFFFFFFFFFFFFFFFFFFFFFFFFFFFFFFFFF MUL NOT AND SWAP1 DUP4 PUSH20 0xFFFFFFFFFFFFFFFFFFFFFFFFFFFFFFFFFFFFFFFF AND MUL OR SWAP1 SSTORE POP PUSH1 0xB7 DUP1 PUSH2 0x5F PUSH1 0x0 CODECOPY PUSH1 0x0 RETURN INVALID PUSH1 0x80 PUSH1 0x40 MSTORE CALLVALUE DUP1 ISZERO PUSH1 0xF JUMPI PUSH1 0x0 DUP1 REVERT JUMPDEST POP PUSH1 0x4 CALLDATASIZE LT PUSH1 0x28 JUMPI PUSH1 0x0 CALLDATALOAD PUSH1 0xE0 SHR DUP1 PUSH4 0x7C8E7BFE EQ PUSH1 0x2D JUMPI JUMPDEST PUSH1 0x0 DUP1 REVERT JUMPDEST PUSH1 0x33 PUSH1 0x47 JUMP JUMPDEST PUSH1 0x40 MLOAD PUSH1 0x3E SWAP2 SWAP1 PUSH1 0x68 JUMP JUMPDEST PUSH1 0x40 MLOAD DUP1 SWAP2 SUB SWAP1 RETURN JUMPDEST PUSH1 0x0 PUSH1 0x1 SLOAD SWAP1 POP SWAP1 JUMP JUMPDEST PUSH1 0x0 DUP2 SWAP1 POP SWAP2 SWAP1 POP JUMP JUMPDEST PUSH1 0x62 DUP2 PUSH1 0x51 JUMP JUMPDEST DUP3 MSTORE POP POP JUMP JUMPDEST PUSH1 0x0 PUSH1 0x20 DUP3 ADD SWAP1 POP PUSH1 0x7B PUSH1 0x0 DUP4 ADD DUP5 PUSH1 0x5B JUMP JUMPDEST SWAP3 SWAP2 POP POP JUMP INVALID LOG2 PUSH5 0x6970667358 0x22 SLT KECCAK256 0xC1 PUSH13 0x1108DED8205F9EDD4285B97369 0xB5 PUSH21 0xE91AF56AE5288EDB6D6961ECCE9C7A64736F6C6343 STOP ADDMOD EQ STOP CALLER "},"gasEstimates":{"creation":{"codeDepositCost":"36600","executionCost":"24353","totalCost":"60953"},"external":{"getCollectionId()":"2415"}},"methodIdentifiers":{"getCollectionId()":"7c8e7bfe"}},"storageLayout":{"storage":[{"astId":3615,"contract":"src/Owner.sol:Owner","label":"owner","offset":0,"slot":"0","type":"t_address"},{"astId":3617,"contract":"src/Owner.sol:Owner","label":"collectionId","offset":0,"slot":"1","type":"t_int256"}],"types":{"t_address":{"encoding":"inplace","label":"address","numberOfBytes":"20"},"t_int256":{"encoding":"inplace","label":"int256","numberOfBytes":"32"}}},"userdoc":{"kind":"user","methods":{},"version":1}}}}