{"src/GameCollection.sol":{"GameCollection":{"abi":[{"inputs":[{"internalType":"string","name":"_name","type":"string"},{"internalType":"uint256","name":"_cardCount","type":"uint256"}],"stateMutability":"nonpayable","type":"constructor"},{"inputs":[{"internalType":"uint256","name":"id","type":"uint256"},{"internalType":"string","name":"imgLink","type":"string"}],"name":"addCard","outputs":[],"stateMutability":"nonpayable","type":"function"},{"inputs":[{"internalType":"address","name":"owner","type":"address"}],"name":"balanceOf","outputs":[{"internalType":"uint256","name":"","type":"uint256"}],"stateMutability":"view","type":"function"},{"inputs":[],"name":"cardCount","outputs":[{"internalType":"uint256","name":"","type":"uint256"}],"stateMutability":"view","type":"function"},{"inputs":[{"internalType":"uint256","name":"","type":"uint256"}],"name":"cards","outputs":[{"internalType":"contract Card","name":"","type":"address"}],"stateMutability":"view","type":"function"},{"inputs":[{"internalType":"uint256","name":"tokenId","type":"uint256"}],"name":"getCard","outputs":[{"internalType":"contract Card","name":"","type":"address"}],"stateMutability":"view","type":"function"},{"inputs":[],"name":"getCardCount","outputs":[{"internalType":"uint256","name":"","type":"uint256"}],"stateMutability":"view","type":"function"},{"inputs":[],"name":"getName","outputs":[{"internalType":"string","name":"","type":"string"}],"stateMutability":"view","type":"function"},{"inputs":[{"internalType":"uint256","name":"tokenId","type":"uint256"}],"name":"isCardInCollection","outputs":[{"internalType":"bool","name":"","type":"bool"}],"stateMutability":"view","type":"function"},{"inputs":[{"internalType":"address","name":"to","type":"address"},{"internalType":"uint256","name":"tokenId","type":"uint256"}],"name":"mint","outputs":[],"stateMutability":"nonpayable","type":"function"},{"inputs":[{"internalType":"address","name":"to","type":"address"}],"name":"mint","outputs":[],"stateMutability":"nonpayable","type":"function"},{"inputs":[{"internalType":"address","name":"to","type":"address"},{"internalType":"uint256","name":"quantity","type":"uint256"}],"name":"mintSomeCards","outputs":[],"stateMutability":"nonpayable","type":"function"},{"inputs":[],"name":"name","outputs":[{"internalType":"string","name":"","type":"string"}],"stateMutability":"view","type":"function"},{"inputs":[{"internalType":"uint256","name":"tokenId","type":"uint256"}],"name":"ownerOf","outputs":[{"internalType":"address","name":"","type":"address"}],"stateMutability":"view","type":"function"}],"devdoc":{"kind":"dev","methods":{},"version":1},"evm":{"bytecode":{"linkReferences":{},"object":"60806040523480156200001157600080fd5b506040516200268238038062002682833981810160405281019062000037919062000226565b8160009081620000489190620004cd565b50806001819055505050620005b4565b6000604051905090565b600080fd5b600080fd5b600080fd5b600080fd5b6000601f19601f8301169050919050565b7f4e487b7100000000000000000000000000000000000000000000000000000000600052604160045260246000fd5b620000c18262000076565b810181811067ffffffffffffffff82111715620000e357620000e262000087565b5b80604052505050565b6000620000f862000058565b9050620001068282620000b6565b919050565b600067ffffffffffffffff82111562000129576200012862000087565b5b620001348262000076565b9050602081019050919050565b60005b838110156200016157808201518184015260208101905062000144565b60008484015250505050565b6000620001846200017e846200010b565b620000ec565b905082815260208101848484011115620001a357620001a262000071565b5b620001b084828562000141565b509392505050565b600082601f830112620001d057620001cf6200006c565b5b8151620001e28482602086016200016d565b91505092915050565b6000819050919050565b6200020081620001eb565b81146200020c57600080fd5b50565b6000815190506200022081620001f5565b92915050565b6000806040838503121562000240576200023f62000062565b5b600083015167ffffffffffffffff81111562000261576200026062000067565b5b6200026f85828601620001b8565b925050602062000282858286016200020f565b9150509250929050565b600081519050919050565b7f4e487b7100000000000000000000000000000000000000000000000000000000600052602260045260246000fd5b60006002820490506001821680620002df57607f821691505b602082108103620002f557620002f462000297565b5b50919050565b60008190508160005260206000209050919050565b60006020601f8301049050919050565b600082821b905092915050565b6000600883026200035f7fffffffffffffffffffffffffffffffffffffffffffffffffffffffffffffffff8262000320565b6200036b868362000320565b95508019841693508086168417925050509392505050565b6000819050919050565b6000620003ae620003a8620003a284620001eb565b62000383565b620001eb565b9050919050565b6000819050919050565b620003ca836200038d565b620003e2620003d982620003b5565b8484546200032d565b825550505050565b600090565b620003f9620003ea565b62000406818484620003bf565b505050565b5b818110156200042e5762000422600082620003ef565b6001810190506200040c565b5050565b601f8211156200047d576200044781620002fb565b620004528462000310565b8101602085101562000462578190505b6200047a620004718562000310565b8301826200040b565b50505b505050565b600082821c905092915050565b6000620004a26000198460080262000482565b1980831691505092915050565b6000620004bd83836200048f565b9150826002028217905092915050565b620004d8826200028c565b67ffffffffffffffff811115620004f457620004f362000087565b5b620005008254620002c6565b6200050d82828562000432565b600060209050601f83116001811462000545576000841562000530578287015190505b6200053c8582620004af565b865550620005ac565b601f1984166200055586620002fb565b60005b828110156200057f5784890151825560018201915060208501945060208101905062000558565b868310156200059f57848901516200059b601f8916826200048f565b8355505b6001600288020188555050505b505050505050565b6120be80620005c46000396000f3fe60806040523480156200001157600080fd5b5060043610620000e25760003560e01c806370a0823111620000995780639188d312116200006f5780639188d3121462000251578063a9aa75ef1462000287578063aa93d70214620002bd578063f92906ff14620002dd57620000e2565b806370a0823114620001c35780637d62013014620001f95780638dc10768146200021b57620000e2565b806306fdde0314620000e757806317d7de7c14620001095780631b6cde10146200012b57806340c10f19146200014d5780636352211e146200016d5780636a62784214620001a3575b600080fd5b620000f1620002fd565b60405162000100919062000dc6565b60405180910390f35b6200011362000393565b60405162000122919062000dc6565b60405180910390f35b620001356200042d565b60405162000144919062000e05565b60405180910390f35b6200016b600480360381019062000165919062000ecc565b62000433565b005b6200018b600480360381019062000185919062000f13565b6200068e565b6040516200019a919062000f56565b60405180910390f35b620001c16004803603810190620001bb919062000f73565b62000818565b005b620001e16004803603810190620001db919062000f73565b620009c1565b604051620001f0919062000e05565b60405180910390f35b6200020362000adf565b60405162000212919062000e05565b60405180910390f35b62000239600480360381019062000233919062000f13565b62000ae9565b60405162000248919062001010565b60405180910390f35b6200026f600480360381019062000269919062000f13565b62000b1c565b6040516200027e919062001010565b60405180910390f35b620002a560048036038101906200029f919062000f13565b62000b59565b604051620002b491906200104a565b60405180910390f35b620002db6004803603810190620002d59190620011b8565b62000c44565b005b620002fb6004803603810190620002f5919062000ecc565b62000cec565b005b600080546200030c906200124d565b80601f01602080910402602001604051908101604052809291908181526020018280546200033a906200124d565b80156200038b5780601f106200035f576101008083540402835291602001916200038b565b820191906000526020600020905b8154815290600101906020018083116200036d57829003601f168201915b505050505081565b606060008054620003a4906200124d565b80601f0160208091040260200160405190810160405280929190818152602001828054620003d2906200124d565b8015620004235780601f10620003f75761010080835404028352916020019162000423565b820191906000526020600020905b8154815290600101906020018083116200040557829003601f168201915b5050505050905090565b60015481565b60005b6001548110156200068957600073ffffffffffffffffffffffffffffffffffffffff166002600083815260200190815260200160002060009054906101000a900473ffffffffffffffffffffffffffffffffffffffff1673ffffffffffffffffffffffffffffffffffffffff16638da5cb5b6040518163ffffffff1660e01b8152600401602060405180830381865afa158015620004d8573d6000803e3d6000fd5b505050506040513d601f19601f82011682018060405250810190620004fe919062001299565b73ffffffffffffffffffffffffffffffffffffffff16148015620005c55750816002600083815260200190815260200160002060009054906101000a900473ffffffffffffffffffffffffffffffffffffffff1673ffffffffffffffffffffffffffffffffffffffff16635d1ca6316040518163ffffffff1660e01b8152600401602060405180830381865afa1580156200059d573d6000803e3d6000fd5b505050506040513d601f19601f82011682018060405250810190620005c39190620012e2565b145b1562000673576002600082815260200190815260200160002060009054906101000a900473ffffffffffffffffffffffffffffffffffffffff1673ffffffffffffffffffffffffffffffffffffffff1663f2fde38b846040518263ffffffff1660e01b815260040162000639919062000f56565b600060405180830381600087803b1580156200065457600080fd5b505af115801562000669573d6000803e3d6000fd5b5050505062000689565b8080620006809062001343565b91505062000436565b505050565b600080600090505b6001548110156200081157826002600083815260200190815260200160002060009054906101000a900473ffffffffffffffffffffffffffffffffffffffff1673ffffffffffffffffffffffffffffffffffffffff16635d1ca6316040518163ffffffff1660e01b8152600401602060405180830381865afa15801562000721573d6000803e3d6000fd5b505050506040513d601f19601f82011682018060405250810190620007479190620012e2565b03620007fb576002600082815260200190815260200160002060009054906101000a900473ffffffffffffffffffffffffffffffffffffffff1673ffffffffffffffffffffffffffffffffffffffff16638da5cb5b6040518163ffffffff1660e01b8152600401602060405180830381865afa158015620007cc573d6000803e3d6000fd5b505050506040513d601f19601f82011682018060405250810190620007f2919062001299565b91505062000813565b8080620008089062001343565b91505062000696565b505b919050565b60005b600154811015620009bd57600073ffffffffffffffffffffffffffffffffffffffff166002600083815260200190815260200160002060009054906101000a900473ffffffffffffffffffffffffffffffffffffffff1673ffffffffffffffffffffffffffffffffffffffff16638da5cb5b6040518163ffffffff1660e01b8152600401602060405180830381865afa158015620008bd573d6000803e3d6000fd5b505050506040513d601f19601f82011682018060405250810190620008e3919062001299565b73ffffffffffffffffffffffffffffffffffffffff1603620009a7576002600082815260200190815260200160002060009054906101000a900473ffffffffffffffffffffffffffffffffffffffff1673ffffffffffffffffffffffffffffffffffffffff1663f2fde38b836040518263ffffffff1660e01b81526004016200096d919062000f56565b600060405180830381600087803b1580156200098857600080fd5b505af11580156200099d573d6000803e3d6000fd5b50505050620009bd565b8080620009b49062001343565b9150506200081b565b5050565b6000806000905060005b60015481101562000ad5578373ffffffffffffffffffffffffffffffffffffffff166002600083815260200190815260200160002060009054906101000a900473ffffffffffffffffffffffffffffffffffffffff1673ffffffffffffffffffffffffffffffffffffffff16638da5cb5b6040518163ffffffff1660e01b8152600401602060405180830381865afa15801562000a6c573d6000803e3d6000fd5b505050506040513d601f19601f8201168201806040525081019062000a92919062001299565b73ffffffffffffffffffffffffffffffffffffffff160362000abf57818062000abb9062001343565b9250505b808062000acc9062001343565b915050620009cb565b5080915050919050565b6000600154905090565b60026020528060005260406000206000915054906101000a900473ffffffffffffffffffffffffffffffffffffffff1681565b60006002600083815260200190815260200160002060009054906101000a900473ffffffffffffffffffffffffffffffffffffffff169050919050565b600080600090505b60015481101562000c3957826002600083815260200190815260200160002060009054906101000a900473ffffffffffffffffffffffffffffffffffffffff1673ffffffffffffffffffffffffffffffffffffffff16635d1ca6316040518163ffffffff1660e01b8152600401602060405180830381865afa15801562000bec573d6000803e3d6000fd5b505050506040513d601f19601f8201168201806040525081019062000c129190620012e2565b0362000c2357600191505062000c3f565b808062000c309062001343565b91505062000b61565b50600090505b919050565b818160405162000c549062000d1e565b62000c6192919062001390565b604051809103906000f08015801562000c7e573d6000803e3d6000fd5b50600260006001600081548092919062000c989062001343565b91905055815260200190815260200160002060006101000a81548173ffffffffffffffffffffffffffffffffffffffff021916908373ffffffffffffffffffffffffffffffffffffffff1602179055505050565b60005b8181101562000d195762000d038362000818565b808062000d109062001343565b91505062000cef565b505050565b610cc480620013c583390190565b600081519050919050565b600082825260208201905092915050565b60005b8381101562000d6857808201518184015260208101905062000d4b565b60008484015250505050565b6000601f19601f8301169050919050565b600062000d928262000d2c565b62000d9e818562000d37565b935062000db081856020860162000d48565b62000dbb8162000d74565b840191505092915050565b6000602082019050818103600083015262000de2818462000d85565b905092915050565b6000819050919050565b62000dff8162000dea565b82525050565b600060208201905062000e1c600083018462000df4565b92915050565b6000604051905090565b600080fd5b600080fd5b600073ffffffffffffffffffffffffffffffffffffffff82169050919050565b600062000e638262000e36565b9050919050565b62000e758162000e56565b811462000e8157600080fd5b50565b60008135905062000e958162000e6a565b92915050565b62000ea68162000dea565b811462000eb257600080fd5b50565b60008135905062000ec68162000e9b565b92915050565b6000806040838503121562000ee65762000ee562000e2c565b5b600062000ef68582860162000e84565b925050602062000f098582860162000eb5565b9150509250929050565b60006020828403121562000f2c5762000f2b62000e2c565b5b600062000f3c8482850162000eb5565b91505092915050565b62000f508162000e56565b82525050565b600060208201905062000f6d600083018462000f45565b92915050565b60006020828403121562000f8c5762000f8b62000e2c565b5b600062000f9c8482850162000e84565b91505092915050565b6000819050919050565b600062000fd062000fca62000fc48462000e36565b62000fa5565b62000e36565b9050919050565b600062000fe48262000faf565b9050919050565b600062000ff88262000fd7565b9050919050565b6200100a8162000feb565b82525050565b600060208201905062001027600083018462000fff565b92915050565b60008115159050919050565b62001044816200102d565b82525050565b600060208201905062001061600083018462001039565b92915050565b600080fd5b600080fd5b7f4e487b7100000000000000000000000000000000000000000000000000000000600052604160045260246000fd5b620010ab8262000d74565b810181811067ffffffffffffffff82111715620010cd57620010cc62001071565b5b80604052505050565b6000620010e262000e22565b9050620010f08282620010a0565b919050565b600067ffffffffffffffff82111562001113576200111262001071565b5b6200111e8262000d74565b9050602081019050919050565b82818337600083830152505050565b6000620011516200114b84620010f5565b620010d6565b90508281526020810184848401111562001170576200116f6200106c565b5b6200117d8482856200112b565b509392505050565b600082601f8301126200119d576200119c62001067565b5b8135620011af8482602086016200113a565b91505092915050565b60008060408385031215620011d257620011d162000e2c565b5b6000620011e28582860162000eb5565b925050602083013567ffffffffffffffff81111562001206576200120562000e31565b5b620012148582860162001185565b9150509250929050565b7f4e487b7100000000000000000000000000000000000000000000000000000000600052602260045260246000fd5b600060028204905060018216806200126657607f821691505b6020821081036200127c576200127b6200121e565b5b50919050565b600081519050620012938162000e6a565b92915050565b600060208284031215620012b257620012b162000e2c565b5b6000620012c28482850162001282565b91505092915050565b600081519050620012dc8162000e9b565b92915050565b600060208284031215620012fb57620012fa62000e2c565b5b60006200130b84828501620012cb565b91505092915050565b7f4e487b7100000000000000000000000000000000000000000000000000000000600052601160045260246000fd5b6000620013508262000dea565b91507fffffffffffffffffffffffffffffffffffffffffffffffffffffffffffffffff820362001385576200138462001314565b5b600182019050919050565b6000604082019050620013a7600083018562000df4565b8181036020830152620013bb818462000d85565b9050939250505056fe60806040523480156200001157600080fd5b5060405162000cc438038062000cc4833981810160405281019062000037919062000372565b33600073ffffffffffffffffffffffffffffffffffffffff168173ffffffffffffffffffffffffffffffffffffffff1603620000ad5760006040517f1e4fbdf7000000000000000000000000000000000000000000000000000000008152600401620000a491906200041d565b60405180910390fd5b620000be81620000e060201b60201c565b50816001819055508060029081620000d791906200067b565b50505062000762565b60008060009054906101000a900473ffffffffffffffffffffffffffffffffffffffff169050816000806101000a81548173ffffffffffffffffffffffffffffffffffffffff021916908373ffffffffffffffffffffffffffffffffffffffff1602179055508173ffffffffffffffffffffffffffffffffffffffff168173ffffffffffffffffffffffffffffffffffffffff167f8be0079c531659141344cd1fd0a4f28419497f9722a3daafe3b4186f6b6457e060405160405180910390a35050565b6000604051905090565b600080fd5b600080fd5b6000819050919050565b620001cd81620001b8565b8114620001d957600080fd5b50565b600081519050620001ed81620001c2565b92915050565b600080fd5b600080fd5b6000601f19601f8301169050919050565b7f4e487b7100000000000000000000000000000000000000000000000000000000600052604160045260246000fd5b6200024882620001fd565b810181811067ffffffffffffffff821117156200026a57620002696200020e565b5b80604052505050565b60006200027f620001a4565b90506200028d82826200023d565b919050565b600067ffffffffffffffff821115620002b057620002af6200020e565b5b620002bb82620001fd565b9050602081019050919050565b60005b83811015620002e8578082015181840152602081019050620002cb565b60008484015250505050565b60006200030b620003058462000292565b62000273565b9050828152602081018484840111156200032a5762000329620001f8565b5b62000337848285620002c8565b509392505050565b600082601f830112620003575762000356620001f3565b5b815162000369848260208601620002f4565b91505092915050565b600080604083850312156200038c576200038b620001ae565b5b60006200039c85828601620001dc565b925050602083015167ffffffffffffffff811115620003c057620003bf620001b3565b5b620003ce858286016200033f565b9150509250929050565b600073ffffffffffffffffffffffffffffffffffffffff82169050919050565b60006200040582620003d8565b9050919050565b6200041781620003f8565b82525050565b60006020820190506200043460008301846200040c565b92915050565b600081519050919050565b7f4e487b7100000000000000000000000000000000000000000000000000000000600052602260045260246000fd5b600060028204905060018216806200048d57607f821691505b602082108103620004a357620004a262000445565b5b50919050565b60008190508160005260206000209050919050565b60006020601f8301049050919050565b600082821b905092915050565b6000600883026200050d7fffffffffffffffffffffffffffffffffffffffffffffffffffffffffffffffff82620004ce565b620005198683620004ce565b95508019841693508086168417925050509392505050565b6000819050919050565b60006200055c620005566200055084620001b8565b62000531565b620001b8565b9050919050565b6000819050919050565b62000578836200053b565b62000590620005878262000563565b848454620004db565b825550505050565b600090565b620005a762000598565b620005b48184846200056d565b505050565b5b81811015620005dc57620005d06000826200059d565b600181019050620005ba565b5050565b601f8211156200062b57620005f581620004a9565b6200060084620004be565b8101602085101562000610578190505b620006286200061f85620004be565b830182620005b9565b50505b505050565b600082821c905092915050565b6000620006506000198460080262000630565b1980831691505092915050565b60006200066b83836200063d565b9150826002028217905092915050565b62000686826200043a565b67ffffffffffffffff811115620006a257620006a16200020e565b5b620006ae825462000474565b620006bb828285620005e0565b600060209050601f831160018114620006f35760008415620006de578287015190505b620006ea85826200065d565b8655506200075a565b601f1984166200070386620004a9565b60005b828110156200072d5784890151825560018201915060208501945060208101905062000706565b868310156200074d578489015162000749601f8916826200063d565b8355505b6001600288020188555050505b505050505050565b61055280620007726000396000f3fe608060405234801561001057600080fd5b50600436106100575760003560e01c80635d1ca6311461005c578063715018a61461007a5780637802dff5146100845780638da5cb5b146100a2578063f2fde38b146100c0575b600080fd5b6100646100dc565b6040516100719190610335565b60405180910390f35b6100826100e6565b005b61008c6100fa565b60405161009991906103e0565b60405180910390f35b6100aa61018c565b6040516100b79190610443565b60405180910390f35b6100da60048036038101906100d5919061048f565b6101b5565b005b6000600154905090565b6100ee6101c9565b6100f86000610250565b565b606060028054610109906104eb565b80601f0160208091040260200160405190810160405280929190818152602001828054610135906104eb565b80156101825780601f1061015757610100808354040283529160200191610182565b820191906000526020600020905b81548152906001019060200180831161016557829003601f168201915b5050505050905090565b60008060009054906101000a900473ffffffffffffffffffffffffffffffffffffffff16905090565b6101bd6101c9565b6101c6816101b5565b50565b6101d1610314565b73ffffffffffffffffffffffffffffffffffffffff166101ef61018c565b73ffffffffffffffffffffffffffffffffffffffff161461024e57610212610314565b6040517f118cdaa70000000000000000000000000000000000000000000000000000000081526004016102459190610443565b60405180910390fd5b565b60008060009054906101000a900473ffffffffffffffffffffffffffffffffffffffff169050816000806101000a81548173ffffffffffffffffffffffffffffffffffffffff021916908373ffffffffffffffffffffffffffffffffffffffff1602179055508173ffffffffffffffffffffffffffffffffffffffff168173ffffffffffffffffffffffffffffffffffffffff167f8be0079c531659141344cd1fd0a4f28419497f9722a3daafe3b4186f6b6457e060405160405180910390a35050565b600033905090565b6000819050919050565b61032f8161031c565b82525050565b600060208201905061034a6000830184610326565b92915050565b600081519050919050565b600082825260208201905092915050565b60005b8381101561038a57808201518184015260208101905061036f565b60008484015250505050565b6000601f19601f8301169050919050565b60006103b282610350565b6103bc818561035b565b93506103cc81856020860161036c565b6103d581610396565b840191505092915050565b600060208201905081810360008301526103fa81846103a7565b905092915050565b600073ffffffffffffffffffffffffffffffffffffffff82169050919050565b600061042d82610402565b9050919050565b61043d81610422565b82525050565b60006020820190506104586000830184610434565b92915050565b600080fd5b61046c81610422565b811461047757600080fd5b50565b60008135905061048981610463565b92915050565b6000602082840312156104a5576104a461045e565b5b60006104b38482850161047a565b91505092915050565b7f4e487b7100000000000000000000000000000000000000000000000000000000600052602260045260246000fd5b6000600282049050600182168061050357607f821691505b602082108103610516576105156104bc565b5b5091905056fea2646970667358221220c9055a330222893d1592b6ba51a425feae93b76700fc1cf31e7c593035fd370d64736f6c63430008140033a26469706673582212205d2eff3a6afb4b31ee29993c53541514f33fc14b38083eaf5bce9a1d25c8f49864736f6c63430008140033","opcodes":"PUSH1 0x80 PUSH1 0x40 MSTORE CALLVALUE DUP1 ISZERO PUSH3 0x11 JUMPI PUSH1 0x0 DUP1 REVERT JUMPDEST POP PUSH1 0x40 MLOAD PUSH3 0x2682 CODESIZE SUB DUP1 PUSH3 0x2682 DUP4 CODECOPY DUP2 DUP2 ADD PUSH1 0x40 MSTORE DUP2 ADD SWAP1 PUSH3 0x37 SWAP2 SWAP1 PUSH3 0x226 JUMP JUMPDEST DUP2 PUSH1 0x0 SWAP1 DUP2 PUSH3 0x48 SWAP2 SWAP1 PUSH3 0x4CD JUMP JUMPDEST POP DUP1 PUSH1 0x1 DUP2 SWAP1 SSTORE POP POP POP PUSH3 0x5B4 JUMP JUMPDEST PUSH1 0x0 PUSH1 0x40 MLOAD SWAP1 POP SWAP1 JUMP JUMPDEST PUSH1 0x0 DUP1 REVERT JUMPDEST PUSH1 0x0 DUP1 REVERT JUMPDEST PUSH1 0x0 DUP1 REVERT JUMPDEST PUSH1 0x0 DUP1 REVERT JUMPDEST PUSH1 0x0 PUSH1 0x1F NOT PUSH1 0x1F DUP4 ADD AND SWAP1 POP SWAP2 SWAP1 POP JUMP JUMPDEST PUSH32 0x4E487B7100000000000000000000000000000000000000000000000000000000 PUSH1 0x0 MSTORE PUSH1 0x41 PUSH1 0x4 MSTORE PUSH1 0x24 PUSH1 0x0 REVERT JUMPDEST PUSH3 0xC1 DUP3 PUSH3 0x76 JUMP JUMPDEST DUP2 ADD DUP2 DUP2 LT PUSH8 0xFFFFFFFFFFFFFFFF DUP3 GT OR ISZERO PUSH3 0xE3 JUMPI PUSH3 0xE2 PUSH3 0x87 JUMP JUMPDEST JUMPDEST DUP1 PUSH1 0x40 MSTORE POP POP POP JUMP JUMPDEST PUSH1 0x0 PUSH3 0xF8 PUSH3 0x58 JUMP JUMPDEST SWAP1 POP PUSH3 0x106 DUP3 DUP3 PUSH3 0xB6 JUMP JUMPDEST SWAP2 SWAP1 POP JUMP JUMPDEST PUSH1 0x0 PUSH8 0xFFFFFFFFFFFFFFFF DUP3 GT ISZERO PUSH3 0x129 JUMPI PUSH3 0x128 PUSH3 0x87 JUMP JUMPDEST JUMPDEST PUSH3 0x134 DUP3 PUSH3 0x76 JUMP JUMPDEST SWAP1 POP PUSH1 0x20 DUP2 ADD SWAP1 POP SWAP2 SWAP1 POP JUMP JUMPDEST PUSH1 0x0 JUMPDEST DUP4 DUP2 LT ISZERO PUSH3 0x161 JUMPI DUP1 DUP3 ADD MLOAD DUP2 DUP5 ADD MSTORE PUSH1 0x20 DUP2 ADD SWAP1 POP PUSH3 0x144 JUMP JUMPDEST PUSH1 0x0 DUP5 DUP5 ADD MSTORE POP POP POP POP JUMP JUMPDEST PUSH1 0x0 PUSH3 0x184 PUSH3 0x17E DUP5 PUSH3 0x10B JUMP JUMPDEST PUSH3 0xEC JUMP JUMPDEST SWAP1 POP DUP3 DUP2 MSTORE PUSH1 0x20 DUP2 ADD DUP5 DUP5 DUP5 ADD GT ISZERO PUSH3 0x1A3 JUMPI PUSH3 0x1A2 PUSH3 0x71 JUMP JUMPDEST JUMPDEST PUSH3 0x1B0 DUP5 DUP3 DUP6 PUSH3 0x141 JUMP JUMPDEST POP SWAP4 SWAP3 POP POP POP JUMP JUMPDEST PUSH1 0x0 DUP3 PUSH1 0x1F DUP4 ADD SLT PUSH3 0x1D0 JUMPI PUSH3 0x1CF PUSH3 0x6C JUMP JUMPDEST JUMPDEST DUP2 MLOAD PUSH3 0x1E2 DUP5 DUP3 PUSH1 0x20 DUP7 ADD PUSH3 0x16D JUMP JUMPDEST SWAP2 POP POP SWAP3 SWAP2 POP POP JUMP JUMPDEST PUSH1 0x0 DUP2 SWAP1 POP SWAP2 SWAP1 POP JUMP JUMPDEST PUSH3 0x200 DUP2 PUSH3 0x1EB JUMP JUMPDEST DUP2 EQ PUSH3 0x20C JUMPI PUSH1 0x0 DUP1 REVERT JUMPDEST POP JUMP JUMPDEST PUSH1 0x0 DUP2 MLOAD SWAP1 POP PUSH3 0x220 DUP2 PUSH3 0x1F5 JUMP JUMPDEST SWAP3 SWAP2 POP POP JUMP JUMPDEST PUSH1 0x0 DUP1 PUSH1 0x40 DUP4 DUP6 SUB SLT ISZERO PUSH3 0x240 JUMPI PUSH3 0x23F PUSH3 0x62 JUMP JUMPDEST JUMPDEST PUSH1 0x0 DUP4 ADD MLOAD PUSH8 0xFFFFFFFFFFFFFFFF DUP2 GT ISZERO PUSH3 0x261 JUMPI PUSH3 0x260 PUSH3 0x67 JUMP JUMPDEST JUMPDEST PUSH3 0x26F DUP6 DUP3 DUP7 ADD PUSH3 0x1B8 JUMP JUMPDEST SWAP3 POP POP PUSH1 0x20 PUSH3 0x282 DUP6 DUP3 DUP7 ADD PUSH3 0x20F JUMP JUMPDEST SWAP2 POP POP SWAP3 POP SWAP3 SWAP1 POP JUMP JUMPDEST PUSH1 0x0 DUP2 MLOAD SWAP1 POP SWAP2 SWAP1 POP JUMP JUMPDEST PUSH32 0x4E487B7100000000000000000000000000000000000000000000000000000000 PUSH1 0x0 MSTORE PUSH1 0x22 PUSH1 0x4 MSTORE PUSH1 0x24 PUSH1 0x0 REVERT JUMPDEST PUSH1 0x0 PUSH1 0x2 DUP3 DIV SWAP1 POP PUSH1 0x1 DUP3 AND DUP1 PUSH3 0x2DF JUMPI PUSH1 0x7F DUP3 AND SWAP2 POP JUMPDEST PUSH1 0x20 DUP3 LT DUP2 SUB PUSH3 0x2F5 JUMPI PUSH3 0x2F4 PUSH3 0x297 JUMP JUMPDEST JUMPDEST POP SWAP2 SWAP1 POP JUMP JUMPDEST PUSH1 0x0 DUP2 SWAP1 POP DUP2 PUSH1 0x0 MSTORE PUSH1 0x20 PUSH1 0x0 KECCAK256 SWAP1 POP SWAP2 SWAP1 POP JUMP JUMPDEST PUSH1 0x0 PUSH1 0x20 PUSH1 0x1F DUP4 ADD DIV SWAP1 POP SWAP2 SWAP1 POP JUMP JUMPDEST PUSH1 0x0 DUP3 DUP3 SHL SWAP1 POP SWAP3 SWAP2 POP POP JUMP JUMPDEST PUSH1 0x0 PUSH1 0x8 DUP4 MUL PUSH3 0x35F PUSH32 0xFFFFFFFFFFFFFFFFFFFFFFFFFFFFFFFFFFFFFFFFFFFFFFFFFFFFFFFFFFFFFFFF DUP3 PUSH3 0x320 JUMP JUMPDEST PUSH3 0x36B DUP7 DUP4 PUSH3 0x320 JUMP JUMPDEST SWAP6 POP DUP1 NOT DUP5 AND SWAP4 POP DUP1 DUP7 AND DUP5 OR SWAP3 POP POP POP SWAP4 SWAP3 POP POP POP JUMP JUMPDEST PUSH1 0x0 DUP2 SWAP1 POP SWAP2 SWAP1 POP JUMP JUMPDEST PUSH1 0x0 PUSH3 0x3AE PUSH3 0x3A8 PUSH3 0x3A2 DUP5 PUSH3 0x1EB JUMP JUMPDEST PUSH3 0x383 JUMP JUMPDEST PUSH3 0x1EB JUMP JUMPDEST SWAP1 POP SWAP2 SWAP1 POP JUMP JUMPDEST PUSH1 0x0 DUP2 SWAP1 POP SWAP2 SWAP1 POP JUMP JUMPDEST PUSH3 0x3CA DUP4 PUSH3 0x38D JUMP JUMPDEST PUSH3 0x3E2 PUSH3 0x3D9 DUP3 PUSH3 0x3B5 JUMP JUMPDEST DUP5 DUP5 SLOAD PUSH3 0x32D JUMP JUMPDEST DUP3 SSTORE POP POP POP POP JUMP JUMPDEST PUSH1 0x0 SWAP1 JUMP JUMPDEST PUSH3 0x3F9 PUSH3 0x3EA JUMP JUMPDEST PUSH3 0x406 DUP2 DUP5 DUP5 PUSH3 0x3BF JUMP JUMPDEST POP POP POP JUMP JUMPDEST JUMPDEST DUP2 DUP2 LT ISZERO PUSH3 0x42E JUMPI PUSH3 0x422 PUSH1 0x0 DUP3 PUSH3 0x3EF JUMP JUMPDEST PUSH1 0x1 DUP2 ADD SWAP1 POP PUSH3 0x40C JUMP JUMPDEST POP POP JUMP JUMPDEST PUSH1 0x1F DUP3 GT ISZERO PUSH3 0x47D JUMPI PUSH3 0x447 DUP2 PUSH3 0x2FB JUMP JUMPDEST PUSH3 0x452 DUP5 PUSH3 0x310 JUMP JUMPDEST DUP2 ADD PUSH1 0x20 DUP6 LT ISZERO PUSH3 0x462 JUMPI DUP2 SWAP1 POP JUMPDEST PUSH3 0x47A PUSH3 0x471 DUP6 PUSH3 0x310 JUMP JUMPDEST DUP4 ADD DUP3 PUSH3 0x40B JUMP JUMPDEST POP POP JUMPDEST POP POP POP JUMP JUMPDEST PUSH1 0x0 DUP3 DUP3 SHR SWAP1 POP SWAP3 SWAP2 POP POP JUMP JUMPDEST PUSH1 0x0 PUSH3 0x4A2 PUSH1 0x0 NOT DUP5 PUSH1 0x8 MUL PUSH3 0x482 JUMP JUMPDEST NOT DUP1 DUP4 AND SWAP2 POP POP SWAP3 SWAP2 POP POP JUMP JUMPDEST PUSH1 0x0 PUSH3 0x4BD DUP4 DUP4 PUSH3 0x48F JUMP JUMPDEST SWAP2 POP DUP3 PUSH1 0x2 MUL DUP3 OR SWAP1 POP SWAP3 SWAP2 POP POP JUMP JUMPDEST PUSH3 0x4D8 DUP3 PUSH3 0x28C JUMP JUMPDEST PUSH8 0xFFFFFFFFFFFFFFFF DUP2 GT ISZERO PUSH3 0x4F4 JUMPI PUSH3 0x4F3 PUSH3 0x87 JUMP JUMPDEST JUMPDEST PUSH3 0x500 DUP3 SLOAD PUSH3 0x2C6 JUMP JUMPDEST PUSH3 0x50D DUP3 DUP3 DUP6 PUSH3 0x432 JUMP JUMPDEST PUSH1 0x0 PUSH1 0x20 SWAP1 POP PUSH1 0x1F DUP4 GT PUSH1 0x1 DUP2 EQ PUSH3 0x545 JUMPI PUSH1 0x0 DUP5 ISZERO PUSH3 0x530 JUMPI DUP3 DUP8 ADD MLOAD SWAP1 POP JUMPDEST PUSH3 0x53C DUP6 DUP3 PUSH3 0x4AF JUMP JUMPDEST DUP7 SSTORE POP PUSH3 0x5AC JUMP JUMPDEST PUSH1 0x1F NOT DUP5 AND PUSH3 0x555 DUP7 PUSH3 0x2FB JUMP JUMPDEST PUSH1 0x0 JUMPDEST DUP3 DUP2 LT ISZERO PUSH3 0x57F JUMPI DUP5 DUP10 ADD MLOAD DUP3 SSTORE PUSH1 0x1 DUP3 ADD SWAP2 POP PUSH1 0x20 DUP6 ADD SWAP5 POP PUSH1 0x20 DUP2 ADD SWAP1 POP PUSH3 0x558 JUMP JUMPDEST DUP7 DUP4 LT ISZERO PUSH3 0x59F JUMPI DUP5 DUP10 ADD MLOAD PUSH3 0x59B PUSH1 0x1F DUP10 AND DUP3 PUSH3 0x48F JUMP JUMPDEST DUP4 SSTORE POP JUMPDEST PUSH1 0x1 PUSH1 0x2 DUP9 MUL ADD DUP9 SSTORE POP POP POP JUMPDEST POP POP POP POP POP POP JUMP JUMPDEST PUSH2 0x20BE DUP1 PUSH3 0x5C4 PUSH1 0x0 CODECOPY PUSH1 0x0 RETURN INVALID PUSH1 0x80 PUSH1 0x40 MSTORE CALLVALUE DUP1 ISZERO PUSH3 0x11 JUMPI PUSH1 0x0 DUP1 REVERT JUMPDEST POP PUSH1 0x4 CALLDATASIZE LT PUSH3 0xE2 JUMPI PUSH1 0x0 CALLDATALOAD PUSH1 0xE0 SHR DUP1 PUSH4 0x70A08231 GT PUSH3 0x99 JUMPI DUP1 PUSH4 0x9188D312 GT PUSH3 0x6F JUMPI DUP1 PUSH4 0x9188D312 EQ PUSH3 0x251 JUMPI DUP1 PUSH4 0xA9AA75EF EQ PUSH3 0x287 JUMPI DUP1 PUSH4 0xAA93D702 EQ PUSH3 0x2BD JUMPI DUP1 PUSH4 0xF92906FF EQ PUSH3 0x2DD JUMPI PUSH3 0xE2 JUMP JUMPDEST DUP1 PUSH4 0x70A08231 EQ PUSH3 0x1C3 JUMPI DUP1 PUSH4 0x7D620130 EQ PUSH3 0x1F9 JUMPI DUP1 PUSH4 0x8DC10768 EQ PUSH3 0x21B JUMPI PUSH3 0xE2 JUMP JUMPDEST DUP1 PUSH4 0x6FDDE03 EQ PUSH3 0xE7 JUMPI DUP1 PUSH4 0x17D7DE7C EQ PUSH3 0x109 JUMPI DUP1 PUSH4 0x1B6CDE10 EQ PUSH3 0x12B JUMPI DUP1 PUSH4 0x40C10F19 EQ PUSH3 0x14D JUMPI DUP1 PUSH4 0x6352211E EQ PUSH3 0x16D JUMPI DUP1 PUSH4 0x6A627842 EQ PUSH3 0x1A3 JUMPI JUMPDEST PUSH1 0x0 DUP1 REVERT JUMPDEST PUSH3 0xF1 PUSH3 0x2FD JUMP JUMPDEST PUSH1 0x40 MLOAD PUSH3 0x100 SWAP2 SWAP1 PUSH3 0xDC6 JUMP JUMPDEST PUSH1 0x40 MLOAD DUP1 SWAP2 SUB SWAP1 RETURN JUMPDEST PUSH3 0x113 PUSH3 0x393 JUMP JUMPDEST PUSH1 0x40 MLOAD PUSH3 0x122 SWAP2 SWAP1 PUSH3 0xDC6 JUMP JUMPDEST PUSH1 0x40 MLOAD DUP1 SWAP2 SUB SWAP1 RETURN JUMPDEST PUSH3 0x135 PUSH3 0x42D JUMP JUMPDEST PUSH1 0x40 MLOAD PUSH3 0x144 SWAP2 SWAP1 PUSH3 0xE05 JUMP JUMPDEST PUSH1 0x40 MLOAD DUP1 SWAP2 SUB SWAP1 RETURN JUMPDEST PUSH3 0x16B PUSH1 0x4 DUP1 CALLDATASIZE SUB DUP2 ADD SWAP1 PUSH3 0x165 SWAP2 SWAP1 PUSH3 0xECC JUMP JUMPDEST PUSH3 0x433 JUMP JUMPDEST STOP JUMPDEST PUSH3 0x18B PUSH1 0x4 DUP1 CALLDATASIZE SUB DUP2 ADD SWAP1 PUSH3 0x185 SWAP2 SWAP1 PUSH3 0xF13 JUMP JUMPDEST PUSH3 0x68E JUMP JUMPDEST PUSH1 0x40 MLOAD PUSH3 0x19A SWAP2 SWAP1 PUSH3 0xF56 JUMP JUMPDEST PUSH1 0x40 MLOAD DUP1 SWAP2 SUB SWAP1 RETURN JUMPDEST PUSH3 0x1C1 PUSH1 0x4 DUP1 CALLDATASIZE SUB DUP2 ADD SWAP1 PUSH3 0x1BB SWAP2 SWAP1 PUSH3 0xF73 JUMP JUMPDEST PUSH3 0x818 JUMP JUMPDEST STOP JUMPDEST PUSH3 0x1E1 PUSH1 0x4 DUP1 CALLDATASIZE SUB DUP2 ADD SWAP1 PUSH3 0x1DB SWAP2 SWAP1 PUSH3 0xF73 JUMP JUMPDEST PUSH3 0x9C1 JUMP JUMPDEST PUSH1 0x40 MLOAD PUSH3 0x1F0 SWAP2 SWAP1 PUSH3 0xE05 JUMP JUMPDEST PUSH1 0x40 MLOAD DUP1 SWAP2 SUB SWAP1 RETURN JUMPDEST PUSH3 0x203 PUSH3 0xADF JUMP JUMPDEST PUSH1 0x40 MLOAD PUSH3 0x212 SWAP2 SWAP1 PUSH3 0xE05 JUMP JUMPDEST PUSH1 0x40 MLOAD DUP1 SWAP2 SUB SWAP1 RETURN JUMPDEST PUSH3 0x239 PUSH1 0x4 DUP1 CALLDATASIZE SUB DUP2 ADD SWAP1 PUSH3 0x233 SWAP2 SWAP1 PUSH3 0xF13 JUMP JUMPDEST PUSH3 0xAE9 JUMP JUMPDEST PUSH1 0x40 MLOAD PUSH3 0x248 SWAP2 SWAP1 PUSH3 0x1010 JUMP JUMPDEST PUSH1 0x40 MLOAD DUP1 SWAP2 SUB SWAP1 RETURN JUMPDEST PUSH3 0x26F PUSH1 0x4 DUP1 CALLDATASIZE SUB DUP2 ADD SWAP1 PUSH3 0x269 SWAP2 SWAP1 PUSH3 0xF13 JUMP JUMPDEST PUSH3 0xB1C JUMP JUMPDEST PUSH1 0x40 MLOAD PUSH3 0x27E SWAP2 SWAP1 PUSH3 0x1010 JUMP JUMPDEST PUSH1 0x40 MLOAD DUP1 SWAP2 SUB SWAP1 RETURN JUMPDEST PUSH3 0x2A5 PUSH1 0x4 DUP1 CALLDATASIZE SUB DUP2 ADD SWAP1 PUSH3 0x29F SWAP2 SWAP1 PUSH3 0xF13 JUMP JUMPDEST PUSH3 0xB59 JUMP JUMPDEST PUSH1 0x40 MLOAD PUSH3 0x2B4 SWAP2 SWAP1 PUSH3 0x104A JUMP JUMPDEST PUSH1 0x40 MLOAD DUP1 SWAP2 SUB SWAP1 RETURN JUMPDEST PUSH3 0x2DB PUSH1 0x4 DUP1 CALLDATASIZE SUB DUP2 ADD SWAP1 PUSH3 0x2D5 SWAP2 SWAP1 PUSH3 0x11B8 JUMP JUMPDEST PUSH3 0xC44 JUMP JUMPDEST STOP JUMPDEST PUSH3 0x2FB PUSH1 0x4 DUP1 CALLDATASIZE SUB DUP2 ADD SWAP1 PUSH3 0x2F5 SWAP2 SWAP1 PUSH3 0xECC JUMP JUMPDEST PUSH3 0xCEC JUMP JUMPDEST STOP JUMPDEST PUSH1 0x0 DUP1 SLOAD PUSH3 0x30C SWAP1 PUSH3 0x124D JUMP JUMPDEST DUP1 PUSH1 0x1F ADD PUSH1 0x20 DUP1 SWAP2 DIV MUL PUSH1 0x20 ADD PUSH1 0x40 MLOAD SWAP1 DUP2 ADD PUSH1 0x40 MSTORE DUP1 SWAP3 SWAP2 SWAP1 DUP2 DUP2 MSTORE PUSH1 0x20 ADD DUP3 DUP1 SLOAD PUSH3 0x33A SWAP1 PUSH3 0x124D JUMP JUMPDEST DUP1 ISZERO PUSH3 0x38B JUMPI DUP1 PUSH1 0x1F LT PUSH3 0x35F JUMPI PUSH2 0x100 DUP1 DUP4 SLOAD DIV MUL DUP4 MSTORE SWAP2 PUSH1 0x20 ADD SWAP2 PUSH3 0x38B JUMP JUMPDEST DUP3 ADD SWAP2 SWAP1 PUSH1 0x0 MSTORE PUSH1 0x20 PUSH1 0x0 KECCAK256 SWAP1 JUMPDEST DUP2 SLOAD DUP2 MSTORE SWAP1 PUSH1 0x1 ADD SWAP1 PUSH1 0x20 ADD DUP1 DUP4 GT PUSH3 0x36D JUMPI DUP3 SWAP1 SUB PUSH1 0x1F AND DUP3 ADD SWAP2 JUMPDEST POP POP POP POP POP DUP2 JUMP JUMPDEST PUSH1 0x60 PUSH1 0x0 DUP1 SLOAD PUSH3 0x3A4 SWAP1 PUSH3 0x124D JUMP JUMPDEST DUP1 PUSH1 0x1F ADD PUSH1 0x20 DUP1 SWAP2 DIV MUL PUSH1 0x20 ADD PUSH1 0x40 MLOAD SWAP1 DUP2 ADD PUSH1 0x40 MSTORE DUP1 SWAP3 SWAP2 SWAP1 DUP2 DUP2 MSTORE PUSH1 0x20 ADD DUP3 DUP1 SLOAD PUSH3 0x3D2 SWAP1 PUSH3 0x124D JUMP JUMPDEST DUP1 ISZERO PUSH3 0x423 JUMPI DUP1 PUSH1 0x1F LT PUSH3 0x3F7 JUMPI PUSH2 0x100 DUP1 DUP4 SLOAD DIV MUL DUP4 MSTORE SWAP2 PUSH1 0x20 ADD SWAP2 PUSH3 0x423 JUMP JUMPDEST DUP3 ADD SWAP2 SWAP1 PUSH1 0x0 MSTORE PUSH1 0x20 PUSH1 0x0 KECCAK256 SWAP1 JUMPDEST DUP2 SLOAD DUP2 MSTORE SWAP1 PUSH1 0x1 ADD SWAP1 PUSH1 0x20 ADD DUP1 DUP4 GT PUSH3 0x405 JUMPI DUP3 SWAP1 SUB PUSH1 0x1F AND DUP3 ADD SWAP2 JUMPDEST POP POP POP POP POP SWAP1 POP SWAP1 JUMP JUMPDEST PUSH1 0x1 SLOAD DUP2 JUMP JUMPDEST PUSH1 0x0 JUMPDEST PUSH1 0x1 SLOAD DUP2 LT ISZERO PUSH3 0x689 JUMPI PUSH1 0x0 PUSH20 0xFFFFFFFFFFFFFFFFFFFFFFFFFFFFFFFFFFFFFFFF AND PUSH1 0x2 PUSH1 0x0 DUP4 DUP2 MSTORE PUSH1 0x20 ADD SWAP1 DUP2 MSTORE PUSH1 0x20 ADD PUSH1 0x0 KECCAK256 PUSH1 0x0 SWAP1 SLOAD SWAP1 PUSH2 0x100 EXP SWAP1 DIV PUSH20 0xFFFFFFFFFFFFFFFFFFFFFFFFFFFFFFFFFFFFFFFF AND PUSH20 0xFFFFFFFFFFFFFFFFFFFFFFFFFFFFFFFFFFFFFFFF AND PUSH4 0x8DA5CB5B PUSH1 0x40 MLOAD DUP2 PUSH4 0xFFFFFFFF AND PUSH1 0xE0 SHL DUP2 MSTORE PUSH1 0x4 ADD PUSH1 0x20 PUSH1 0x40 MLOAD DUP1 DUP4 SUB DUP2 DUP7 GAS STATICCALL ISZERO DUP1 ISZERO PUSH3 0x4D8 JUMPI RETURNDATASIZE PUSH1 0x0 DUP1 RETURNDATACOPY RETURNDATASIZE PUSH1 0x0 REVERT JUMPDEST POP POP POP POP PUSH1 0x40 MLOAD RETURNDATASIZE PUSH1 0x1F NOT PUSH1 0x1F DUP3 ADD AND DUP3 ADD DUP1 PUSH1 0x40 MSTORE POP DUP2 ADD SWAP1 PUSH3 0x4FE SWAP2 SWAP1 PUSH3 0x1299 JUMP JUMPDEST PUSH20 0xFFFFFFFFFFFFFFFFFFFFFFFFFFFFFFFFFFFFFFFF AND EQ DUP1 ISZERO PUSH3 0x5C5 JUMPI POP DUP2 PUSH1 0x2 PUSH1 0x0 DUP4 DUP2 MSTORE PUSH1 0x20 ADD SWAP1 DUP2 MSTORE PUSH1 0x20 ADD PUSH1 0x0 KECCAK256 PUSH1 0x0 SWAP1 SLOAD SWAP1 PUSH2 0x100 EXP SWAP1 DIV PUSH20 0xFFFFFFFFFFFFFFFFFFFFFFFFFFFFFFFFFFFFFFFF AND PUSH20 0xFFFFFFFFFFFFFFFFFFFFFFFFFFFFFFFFFFFFFFFF AND PUSH4 0x5D1CA631 PUSH1 0x40 MLOAD DUP2 PUSH4 0xFFFFFFFF AND PUSH1 0xE0 SHL DUP2 MSTORE PUSH1 0x4 ADD PUSH1 0x20 PUSH1 0x40 MLOAD DUP1 DUP4 SUB DUP2 DUP7 GAS STATICCALL ISZERO DUP1 ISZERO PUSH3 0x59D JUMPI RETURNDATASIZE PUSH1 0x0 DUP1 RETURNDATACOPY RETURNDATASIZE PUSH1 0x0 REVERT JUMPDEST POP POP POP POP PUSH1 0x40 MLOAD RETURNDATASIZE PUSH1 0x1F NOT PUSH1 0x1F DUP3 ADD AND DUP3 ADD DUP1 PUSH1 0x40 MSTORE POP DUP2 ADD SWAP1 PUSH3 0x5C3 SWAP2 SWAP1 PUSH3 0x12E2 JUMP JUMPDEST EQ JUMPDEST ISZERO PUSH3 0x673 JUMPI PUSH1 0x2 PUSH1 0x0 DUP3 DUP2 MSTORE PUSH1 0x20 ADD SWAP1 DUP2 MSTORE PUSH1 0x20 ADD PUSH1 0x0 KECCAK256 PUSH1 0x0 SWAP1 SLOAD SWAP1 PUSH2 0x100 EXP SWAP1 DIV PUSH20 0xFFFFFFFFFFFFFFFFFFFFFFFFFFFFFFFFFFFFFFFF AND PUSH20 0xFFFFFFFFFFFFFFFFFFFFFFFFFFFFFFFFFFFFFFFF AND PUSH4 0xF2FDE38B DUP5 PUSH1 0x40 MLOAD DUP3 PUSH4 0xFFFFFFFF AND PUSH1 0xE0 SHL DUP2 MSTORE PUSH1 0x4 ADD PUSH3 0x639 SWAP2 SWAP1 PUSH3 0xF56 JUMP JUMPDEST PUSH1 0x0 PUSH1 0x40 MLOAD DUP1 DUP4 SUB DUP2 PUSH1 0x0 DUP8 DUP1 EXTCODESIZE ISZERO DUP1 ISZERO PUSH3 0x654 JUMPI PUSH1 0x0 DUP1 REVERT JUMPDEST POP GAS CALL ISZERO DUP1 ISZERO PUSH3 0x669 JUMPI RETURNDATASIZE PUSH1 0x0 DUP1 RETURNDATACOPY RETURNDATASIZE PUSH1 0x0 REVERT JUMPDEST POP POP POP POP PUSH3 0x689 JUMP JUMPDEST DUP1 DUP1 PUSH3 0x680 SWAP1 PUSH3 0x1343 JUMP JUMPDEST SWAP2 POP POP PUSH3 0x436 JUMP JUMPDEST POP POP POP JUMP JUMPDEST PUSH1 0x0 DUP1 PUSH1 0x0 SWAP1 POP JUMPDEST PUSH1 0x1 SLOAD DUP2 LT ISZERO PUSH3 0x811 JUMPI DUP3 PUSH1 0x2 PUSH1 0x0 DUP4 DUP2 MSTORE PUSH1 0x20 ADD SWAP1 DUP2 MSTORE PUSH1 0x20 ADD PUSH1 0x0 KECCAK256 PUSH1 0x0 SWAP1 SLOAD SWAP1 PUSH2 0x100 EXP SWAP1 DIV PUSH20 0xFFFFFFFFFFFFFFFFFFFFFFFFFFFFFFFFFFFFFFFF AND PUSH20 0xFFFFFFFFFFFFFFFFFFFFFFFFFFFFFFFFFFFFFFFF AND PUSH4 0x5D1CA631 PUSH1 0x40 MLOAD DUP2 PUSH4 0xFFFFFFFF AND PUSH1 0xE0 SHL DUP2 MSTORE PUSH1 0x4 ADD PUSH1 0x20 PUSH1 0x40 MLOAD DUP1 DUP4 SUB DUP2 DUP7 GAS STATICCALL ISZERO DUP1 ISZERO PUSH3 0x721 JUMPI RETURNDATASIZE PUSH1 0x0 DUP1 RETURNDATACOPY RETURNDATASIZE PUSH1 0x0 REVERT JUMPDEST POP POP POP POP PUSH1 0x40 MLOAD RETURNDATASIZE PUSH1 0x1F NOT PUSH1 0x1F DUP3 ADD AND DUP3 ADD DUP1 PUSH1 0x40 MSTORE POP DUP2 ADD SWAP1 PUSH3 0x747 SWAP2 SWAP1 PUSH3 0x12E2 JUMP JUMPDEST SUB PUSH3 0x7FB JUMPI PUSH1 0x2 PUSH1 0x0 DUP3 DUP2 MSTORE PUSH1 0x20 ADD SWAP1 DUP2 MSTORE PUSH1 0x20 ADD PUSH1 0x0 KECCAK256 PUSH1 0x0 SWAP1 SLOAD SWAP1 PUSH2 0x100 EXP SWAP1 DIV PUSH20 0xFFFFFFFFFFFFFFFFFFFFFFFFFFFFFFFFFFFFFFFF AND PUSH20 0xFFFFFFFFFFFFFFFFFFFFFFFFFFFFFFFFFFFFFFFF AND PUSH4 0x8DA5CB5B PUSH1 0x40 MLOAD DUP2 PUSH4 0xFFFFFFFF AND PUSH1 0xE0 SHL DUP2 MSTORE PUSH1 0x4 ADD PUSH1 0x20 PUSH1 0x40 MLOAD DUP1 DUP4 SUB DUP2 DUP7 GAS STATICCALL ISZERO DUP1 ISZERO PUSH3 0x7CC JUMPI RETURNDATASIZE PUSH1 0x0 DUP1 RETURNDATACOPY RETURNDATASIZE PUSH1 0x0 REVERT JUMPDEST POP POP POP POP PUSH1 0x40 MLOAD RETURNDATASIZE PUSH1 0x1F NOT PUSH1 0x1F DUP3 ADD AND DUP3 ADD DUP1 PUSH1 0x40 MSTORE POP DUP2 ADD SWAP1 PUSH3 0x7F2 SWAP2 SWAP1 PUSH3 0x1299 JUMP JUMPDEST SWAP2 POP POP PUSH3 0x813 JUMP JUMPDEST DUP1 DUP1 PUSH3 0x808 SWAP1 PUSH3 0x1343 JUMP JUMPDEST SWAP2 POP POP PUSH3 0x696 JUMP JUMPDEST POP JUMPDEST SWAP2 SWAP1 POP JUMP JUMPDEST PUSH1 0x0 JUMPDEST PUSH1 0x1 SLOAD DUP2 LT ISZERO PUSH3 0x9BD JUMPI PUSH1 0x0 PUSH20 0xFFFFFFFFFFFFFFFFFFFFFFFFFFFFFFFFFFFFFFFF AND PUSH1 0x2 PUSH1 0x0 DUP4 DUP2 MSTORE PUSH1 0x20 ADD SWAP1 DUP2 MSTORE PUSH1 0x20 ADD PUSH1 0x0 KECCAK256 PUSH1 0x0 SWAP1 SLOAD SWAP1 PUSH2 0x100 EXP SWAP1 DIV PUSH20 0xFFFFFFFFFFFFFFFFFFFFFFFFFFFFFFFFFFFFFFFF AND PUSH20 0xFFFFFFFFFFFFFFFFFFFFFFFFFFFFFFFFFFFFFFFF AND PUSH4 0x8DA5CB5B PUSH1 0x40 MLOAD DUP2 PUSH4 0xFFFFFFFF AND PUSH1 0xE0 SHL DUP2 MSTORE PUSH1 0x4 ADD PUSH1 0x20 PUSH1 0x40 MLOAD DUP1 DUP4 SUB DUP2 DUP7 GAS STATICCALL ISZERO DUP1 ISZERO PUSH3 0x8BD JUMPI RETURNDATASIZE PUSH1 0x0 DUP1 RETURNDATACOPY RETURNDATASIZE PUSH1 0x0 REVERT JUMPDEST POP POP POP POP PUSH1 0x40 MLOAD RETURNDATASIZE PUSH1 0x1F NOT PUSH1 0x1F DUP3 ADD AND DUP3 ADD DUP1 PUSH1 0x40 MSTORE POP DUP2 ADD SWAP1 PUSH3 0x8E3 SWAP2 SWAP1 PUSH3 0x1299 JUMP JUMPDEST PUSH20 0xFFFFFFFFFFFFFFFFFFFFFFFFFFFFFFFFFFFFFFFF AND SUB PUSH3 0x9A7 JUMPI PUSH1 0x2 PUSH1 0x0 DUP3 DUP2 MSTORE PUSH1 0x20 ADD SWAP1 DUP2 MSTORE PUSH1 0x20 ADD PUSH1 0x0 KECCAK256 PUSH1 0x0 SWAP1 SLOAD SWAP1 PUSH2 0x100 EXP SWAP1 DIV PUSH20 0xFFFFFFFFFFFFFFFFFFFFFFFFFFFFFFFFFFFFFFFF AND PUSH20 0xFFFFFFFFFFFFFFFFFFFFFFFFFFFFFFFFFFFFFFFF AND PUSH4 0xF2FDE38B DUP4 PUSH1 0x40 MLOAD DUP3 PUSH4 0xFFFFFFFF AND PUSH1 0xE0 SHL DUP2 MSTORE PUSH1 0x4 ADD PUSH3 0x96D SWAP2 SWAP1 PUSH3 0xF56 JUMP JUMPDEST PUSH1 0x0 PUSH1 0x40 MLOAD DUP1 DUP4 SUB DUP2 PUSH1 0x0 DUP8 DUP1 EXTCODESIZE ISZERO DUP1 ISZERO PUSH3 0x988 JUMPI PUSH1 0x0 DUP1 REVERT JUMPDEST POP GAS CALL ISZERO DUP1 ISZERO PUSH3 0x99D JUMPI RETURNDATASIZE PUSH1 0x0 DUP1 RETURNDATACOPY RETURNDATASIZE PUSH1 0x0 REVERT JUMPDEST POP POP POP POP PUSH3 0x9BD JUMP JUMPDEST DUP1 DUP1 PUSH3 0x9B4 SWAP1 PUSH3 0x1343 JUMP JUMPDEST SWAP2 POP POP PUSH3 0x81B JUMP JUMPDEST POP POP JUMP JUMPDEST PUSH1 0x0 DUP1 PUSH1 0x0 SWAP1 POP PUSH1 0x0 JUMPDEST PUSH1 0x1 SLOAD DUP2 LT ISZERO PUSH3 0xAD5 JUMPI DUP4 PUSH20 0xFFFFFFFFFFFFFFFFFFFFFFFFFFFFFFFFFFFFFFFF AND PUSH1 0x2 PUSH1 0x0 DUP4 DUP2 MSTORE PUSH1 0x20 ADD SWAP1 DUP2 MSTORE PUSH1 0x20 ADD PUSH1 0x0 KECCAK256 PUSH1 0x0 SWAP1 SLOAD SWAP1 PUSH2 0x100 EXP SWAP1 DIV PUSH20 0xFFFFFFFFFFFFFFFFFFFFFFFFFFFFFFFFFFFFFFFF AND PUSH20 0xFFFFFFFFFFFFFFFFFFFFFFFFFFFFFFFFFFFFFFFF AND PUSH4 0x8DA5CB5B PUSH1 0x40 MLOAD DUP2 PUSH4 0xFFFFFFFF AND PUSH1 0xE0 SHL DUP2 MSTORE PUSH1 0x4 ADD PUSH1 0x20 PUSH1 0x40 MLOAD DUP1 DUP4 SUB DUP2 DUP7 GAS STATICCALL ISZERO DUP1 ISZERO PUSH3 0xA6C JUMPI RETURNDATASIZE PUSH1 0x0 DUP1 RETURNDATACOPY RETURNDATASIZE PUSH1 0x0 REVERT JUMPDEST POP POP POP POP PUSH1 0x40 MLOAD RETURNDATASIZE PUSH1 0x1F NOT PUSH1 0x1F DUP3 ADD AND DUP3 ADD DUP1 PUSH1 0x40 MSTORE POP DUP2 ADD SWAP1 PUSH3 0xA92 SWAP2 SWAP1 PUSH3 0x1299 JUMP JUMPDEST PUSH20 0xFFFFFFFFFFFFFFFFFFFFFFFFFFFFFFFFFFFFFFFF AND SUB PUSH3 0xABF JUMPI DUP2 DUP1 PUSH3 0xABB SWAP1 PUSH3 0x1343 JUMP JUMPDEST SWAP3 POP POP JUMPDEST DUP1 DUP1 PUSH3 0xACC SWAP1 PUSH3 0x1343 JUMP JUMPDEST SWAP2 POP POP PUSH3 0x9CB JUMP JUMPDEST POP DUP1 SWAP2 POP POP SWAP2 SWAP1 POP JUMP JUMPDEST PUSH1 0x0 PUSH1 0x1 SLOAD SWAP1 POP SWAP1 JUMP JUMPDEST PUSH1 0x2 PUSH1 0x20 MSTORE DUP1 PUSH1 0x0 MSTORE PUSH1 0x40 PUSH1 0x0 KECCAK256 PUSH1 0x0 SWAP2 POP SLOAD SWAP1 PUSH2 0x100 EXP SWAP1 DIV PUSH20 0xFFFFFFFFFFFFFFFFFFFFFFFFFFFFFFFFFFFFFFFF AND DUP2 JUMP JUMPDEST PUSH1 0x0 PUSH1 0x2 PUSH1 0x0 DUP4 DUP2 MSTORE PUSH1 0x20 ADD SWAP1 DUP2 MSTORE PUSH1 0x20 ADD PUSH1 0x0 KECCAK256 PUSH1 0x0 SWAP1 SLOAD SWAP1 PUSH2 0x100 EXP SWAP1 DIV PUSH20 0xFFFFFFFFFFFFFFFFFFFFFFFFFFFFFFFFFFFFFFFF AND SWAP1 POP SWAP2 SWAP1 POP JUMP JUMPDEST PUSH1 0x0 DUP1 PUSH1 0x0 SWAP1 POP JUMPDEST PUSH1 0x1 SLOAD DUP2 LT ISZERO PUSH3 0xC39 JUMPI DUP3 PUSH1 0x2 PUSH1 0x0 DUP4 DUP2 MSTORE PUSH1 0x20 ADD SWAP1 DUP2 MSTORE PUSH1 0x20 ADD PUSH1 0x0 KECCAK256 PUSH1 0x0 SWAP1 SLOAD SWAP1 PUSH2 0x100 EXP SWAP1 DIV PUSH20 0xFFFFFFFFFFFFFFFFFFFFFFFFFFFFFFFFFFFFFFFF AND PUSH20 0xFFFFFFFFFFFFFFFFFFFFFFFFFFFFFFFFFFFFFFFF AND PUSH4 0x5D1CA631 PUSH1 0x40 MLOAD DUP2 PUSH4 0xFFFFFFFF AND PUSH1 0xE0 SHL DUP2 MSTORE PUSH1 0x4 ADD PUSH1 0x20 PUSH1 0x40 MLOAD DUP1 DUP4 SUB DUP2 DUP7 GAS STATICCALL ISZERO DUP1 ISZERO PUSH3 0xBEC JUMPI RETURNDATASIZE PUSH1 0x0 DUP1 RETURNDATACOPY RETURNDATASIZE PUSH1 0x0 REVERT JUMPDEST POP POP POP POP PUSH1 0x40 MLOAD RETURNDATASIZE PUSH1 0x1F NOT PUSH1 0x1F DUP3 ADD AND DUP3 ADD DUP1 PUSH1 0x40 MSTORE POP DUP2 ADD SWAP1 PUSH3 0xC12 SWAP2 SWAP1 PUSH3 0x12E2 JUMP JUMPDEST SUB PUSH3 0xC23 JUMPI PUSH1 0x1 SWAP2 POP POP PUSH3 0xC3F JUMP JUMPDEST DUP1 DUP1 PUSH3 0xC30 SWAP1 PUSH3 0x1343 JUMP JUMPDEST SWAP2 POP POP PUSH3 0xB61 JUMP JUMPDEST POP PUSH1 0x0 SWAP1 POP JUMPDEST SWAP2 SWAP1 POP JUMP JUMPDEST DUP2 DUP2 PUSH1 0x40 MLOAD PUSH3 0xC54 SWAP1 PUSH3 0xD1E JUMP JUMPDEST PUSH3 0xC61 SWAP3 SWAP2 SWAP1 PUSH3 0x1390 JUMP JUMPDEST PUSH1 0x40 MLOAD DUP1 SWAP2 SUB SWAP1 PUSH1 0x0 CREATE DUP1 ISZERO DUP1 ISZERO PUSH3 0xC7E JUMPI RETURNDATASIZE PUSH1 0x0 DUP1 RETURNDATACOPY RETURNDATASIZE PUSH1 0x0 REVERT JUMPDEST POP PUSH1 0x2 PUSH1 0x0 PUSH1 0x1 PUSH1 0x0 DUP2 SLOAD DUP1 SWAP3 SWAP2 SWAP1 PUSH3 0xC98 SWAP1 PUSH3 0x1343 JUMP JUMPDEST SWAP2 SWAP1 POP SSTORE DUP2 MSTORE PUSH1 0x20 ADD SWAP1 DUP2 MSTORE PUSH1 0x20 ADD PUSH1 0x0 KECCAK256 PUSH1 0x0 PUSH2 0x100 EXP DUP2 SLOAD DUP2 PUSH20 0xFFFFFFFFFFFFFFFFFFFFFFFFFFFFFFFFFFFFFFFF MUL NOT AND SWAP1 DUP4 PUSH20 0xFFFFFFFFFFFFFFFFFFFFFFFFFFFFFFFFFFFFFFFF AND MUL OR SWAP1 SSTORE POP POP POP JUMP JUMPDEST PUSH1 0x0 JUMPDEST DUP2 DUP2 LT ISZERO PUSH3 0xD19 JUMPI PUSH3 0xD03 DUP4 PUSH3 0x818 JUMP JUMPDEST DUP1 DUP1 PUSH3 0xD10 SWAP1 PUSH3 0x1343 JUMP JUMPDEST SWAP2 POP POP PUSH3 0xCEF JUMP JUMPDEST POP POP POP JUMP JUMPDEST PUSH2 0xCC4 DUP1 PUSH3 0x13C5 DUP4 CODECOPY ADD SWAP1 JUMP JUMPDEST PUSH1 0x0 DUP2 MLOAD SWAP1 POP SWAP2 SWAP1 POP JUMP JUMPDEST PUSH1 0x0 DUP3 DUP3 MSTORE PUSH1 0x20 DUP3 ADD SWAP1 POP SWAP3 SWAP2 POP POP JUMP JUMPDEST PUSH1 0x0 JUMPDEST DUP4 DUP2 LT ISZERO PUSH3 0xD68 JUMPI DUP1 DUP3 ADD MLOAD DUP2 DUP5 ADD MSTORE PUSH1 0x20 DUP2 ADD SWAP1 POP PUSH3 0xD4B JUMP JUMPDEST PUSH1 0x0 DUP5 DUP5 ADD MSTORE POP POP POP POP JUMP JUMPDEST PUSH1 0x0 PUSH1 0x1F NOT PUSH1 0x1F DUP4 ADD AND SWAP1 POP SWAP2 SWAP1 POP JUMP JUMPDEST PUSH1 0x0 PUSH3 0xD92 DUP3 PUSH3 0xD2C JUMP JUMPDEST PUSH3 0xD9E DUP2 DUP6 PUSH3 0xD37 JUMP JUMPDEST SWAP4 POP PUSH3 0xDB0 DUP2 DUP6 PUSH1 0x20 DUP7 ADD PUSH3 0xD48 JUMP JUMPDEST PUSH3 0xDBB DUP2 PUSH3 0xD74 JUMP JUMPDEST DUP5 ADD SWAP2 POP POP SWAP3 SWAP2 POP POP JUMP JUMPDEST PUSH1 0x0 PUSH1 0x20 DUP3 ADD SWAP1 POP DUP2 DUP2 SUB PUSH1 0x0 DUP4 ADD MSTORE PUSH3 0xDE2 DUP2 DUP5 PUSH3 0xD85 JUMP JUMPDEST SWAP1 POP SWAP3 SWAP2 POP POP JUMP JUMPDEST PUSH1 0x0 DUP2 SWAP1 POP SWAP2 SWAP1 POP JUMP JUMPDEST PUSH3 0xDFF DUP2 PUSH3 0xDEA JUMP JUMPDEST DUP3 MSTORE POP POP JUMP JUMPDEST PUSH1 0x0 PUSH1 0x20 DUP3 ADD SWAP1 POP PUSH3 0xE1C PUSH1 0x0 DUP4 ADD DUP5 PUSH3 0xDF4 JUMP JUMPDEST SWAP3 SWAP2 POP POP JUMP JUMPDEST PUSH1 0x0 PUSH1 0x40 MLOAD SWAP1 POP SWAP1 JUMP JUMPDEST PUSH1 0x0 DUP1 REVERT JUMPDEST PUSH1 0x0 DUP1 REVERT JUMPDEST PUSH1 0x0 PUSH20 0xFFFFFFFFFFFFFFFFFFFFFFFFFFFFFFFFFFFFFFFF DUP3 AND SWAP1 POP SWAP2 SWAP1 POP JUMP JUMPDEST PUSH1 0x0 PUSH3 0xE63 DUP3 PUSH3 0xE36 JUMP JUMPDEST SWAP1 POP SWAP2 SWAP1 POP JUMP JUMPDEST PUSH3 0xE75 DUP2 PUSH3 0xE56 JUMP JUMPDEST DUP2 EQ PUSH3 0xE81 JUMPI PUSH1 0x0 DUP1 REVERT JUMPDEST POP JUMP JUMPDEST PUSH1 0x0 DUP2 CALLDATALOAD SWAP1 POP PUSH3 0xE95 DUP2 PUSH3 0xE6A JUMP JUMPDEST SWAP3 SWAP2 POP POP JUMP JUMPDEST PUSH3 0xEA6 DUP2 PUSH3 0xDEA JUMP JUMPDEST DUP2 EQ PUSH3 0xEB2 JUMPI PUSH1 0x0 DUP1 REVERT JUMPDEST POP JUMP JUMPDEST PUSH1 0x0 DUP2 CALLDATALOAD SWAP1 POP PUSH3 0xEC6 DUP2 PUSH3 0xE9B JUMP JUMPDEST SWAP3 SWAP2 POP POP JUMP JUMPDEST PUSH1 0x0 DUP1 PUSH1 0x40 DUP4 DUP6 SUB SLT ISZERO PUSH3 0xEE6 JUMPI PUSH3 0xEE5 PUSH3 0xE2C JUMP JUMPDEST JUMPDEST PUSH1 0x0 PUSH3 0xEF6 DUP6 DUP3 DUP7 ADD PUSH3 0xE84 JUMP JUMPDEST SWAP3 POP POP PUSH1 0x20 PUSH3 0xF09 DUP6 DUP3 DUP7 ADD PUSH3 0xEB5 JUMP JUMPDEST SWAP2 POP POP SWAP3 POP SWAP3 SWAP1 POP JUMP JUMPDEST PUSH1 0x0 PUSH1 0x20 DUP3 DUP5 SUB SLT ISZERO PUSH3 0xF2C JUMPI PUSH3 0xF2B PUSH3 0xE2C JUMP JUMPDEST JUMPDEST PUSH1 0x0 PUSH3 0xF3C DUP5 DUP3 DUP6 ADD PUSH3 0xEB5 JUMP JUMPDEST SWAP2 POP POP SWAP3 SWAP2 POP POP JUMP JUMPDEST PUSH3 0xF50 DUP2 PUSH3 0xE56 JUMP JUMPDEST DUP3 MSTORE POP POP JUMP JUMPDEST PUSH1 0x0 PUSH1 0x20 DUP3 ADD SWAP1 POP PUSH3 0xF6D PUSH1 0x0 DUP4 ADD DUP5 PUSH3 0xF45 JUMP JUMPDEST SWAP3 SWAP2 POP POP JUMP JUMPDEST PUSH1 0x0 PUSH1 0x20 DUP3 DUP5 SUB SLT ISZERO PUSH3 0xF8C JUMPI PUSH3 0xF8B PUSH3 0xE2C JUMP JUMPDEST JUMPDEST PUSH1 0x0 PUSH3 0xF9C DUP5 DUP3 DUP6 ADD PUSH3 0xE84 JUMP JUMPDEST SWAP2 POP POP SWAP3 SWAP2 POP POP JUMP JUMPDEST PUSH1 0x0 DUP2 SWAP1 POP SWAP2 SWAP1 POP JUMP JUMPDEST PUSH1 0x0 PUSH3 0xFD0 PUSH3 0xFCA PUSH3 0xFC4 DUP5 PUSH3 0xE36 JUMP JUMPDEST PUSH3 0xFA5 JUMP JUMPDEST PUSH3 0xE36 JUMP JUMPDEST SWAP1 POP SWAP2 SWAP1 POP JUMP JUMPDEST PUSH1 0x0 PUSH3 0xFE4 DUP3 PUSH3 0xFAF JUMP JUMPDEST SWAP1 POP SWAP2 SWAP1 POP JUMP JUMPDEST PUSH1 0x0 PUSH3 0xFF8 DUP3 PUSH3 0xFD7 JUMP JUMPDEST SWAP1 POP SWAP2 SWAP1 POP JUMP JUMPDEST PUSH3 0x100A DUP2 PUSH3 0xFEB JUMP JUMPDEST DUP3 MSTORE POP POP JUMP JUMPDEST PUSH1 0x0 PUSH1 0x20 DUP3 ADD SWAP1 POP PUSH3 0x1027 PUSH1 0x0 DUP4 ADD DUP5 PUSH3 0xFFF JUMP JUMPDEST SWAP3 SWAP2 POP POP JUMP JUMPDEST PUSH1 0x0 DUP2 ISZERO ISZERO SWAP1 POP SWAP2 SWAP1 POP JUMP JUMPDEST PUSH3 0x1044 DUP2 PUSH3 0x102D JUMP JUMPDEST DUP3 MSTORE POP POP JUMP JUMPDEST PUSH1 0x0 PUSH1 0x20 DUP3 ADD SWAP1 POP PUSH3 0x1061 PUSH1 0x0 DUP4 ADD DUP5 PUSH3 0x1039 JUMP JUMPDEST SWAP3 SWAP2 POP POP JUMP JUMPDEST PUSH1 0x0 DUP1 REVERT JUMPDEST PUSH1 0x0 DUP1 REVERT JUMPDEST PUSH32 0x4E487B7100000000000000000000000000000000000000000000000000000000 PUSH1 0x0 MSTORE PUSH1 0x41 PUSH1 0x4 MSTORE PUSH1 0x24 PUSH1 0x0 REVERT JUMPDEST PUSH3 0x10AB DUP3 PUSH3 0xD74 JUMP JUMPDEST DUP2 ADD DUP2 DUP2 LT PUSH8 0xFFFFFFFFFFFFFFFF DUP3 GT OR ISZERO PUSH3 0x10CD JUMPI PUSH3 0x10CC PUSH3 0x1071 JUMP JUMPDEST JUMPDEST DUP1 PUSH1 0x40 MSTORE POP POP POP JUMP JUMPDEST PUSH1 0x0 PUSH3 0x10E2 PUSH3 0xE22 JUMP JUMPDEST SWAP1 POP PUSH3 0x10F0 DUP3 DUP3 PUSH3 0x10A0 JUMP JUMPDEST SWAP2 SWAP1 POP JUMP JUMPDEST PUSH1 0x0 PUSH8 0xFFFFFFFFFFFFFFFF DUP3 GT ISZERO PUSH3 0x1113 JUMPI PUSH3 0x1112 PUSH3 0x1071 JUMP JUMPDEST JUMPDEST PUSH3 0x111E DUP3 PUSH3 0xD74 JUMP JUMPDEST SWAP1 POP PUSH1 0x20 DUP2 ADD SWAP1 POP SWAP2 SWAP1 POP JUMP JUMPDEST DUP3 DUP2 DUP4 CALLDATACOPY PUSH1 0x0 DUP4 DUP4 ADD MSTORE POP POP POP JUMP JUMPDEST PUSH1 0x0 PUSH3 0x1151 PUSH3 0x114B DUP5 PUSH3 0x10F5 JUMP JUMPDEST PUSH3 0x10D6 JUMP JUMPDEST SWAP1 POP DUP3 DUP2 MSTORE PUSH1 0x20 DUP2 ADD DUP5 DUP5 DUP5 ADD GT ISZERO PUSH3 0x1170 JUMPI PUSH3 0x116F PUSH3 0x106C JUMP JUMPDEST JUMPDEST PUSH3 0x117D DUP5 DUP3 DUP6 PUSH3 0x112B JUMP JUMPDEST POP SWAP4 SWAP3 POP POP POP JUMP JUMPDEST PUSH1 0x0 DUP3 PUSH1 0x1F DUP4 ADD SLT PUSH3 0x119D JUMPI PUSH3 0x119C PUSH3 0x1067 JUMP JUMPDEST JUMPDEST DUP2 CALLDATALOAD PUSH3 0x11AF DUP5 DUP3 PUSH1 0x20 DUP7 ADD PUSH3 0x113A JUMP JUMPDEST SWAP2 POP POP SWAP3 SWAP2 POP POP JUMP JUMPDEST PUSH1 0x0 DUP1 PUSH1 0x40 DUP4 DUP6 SUB SLT ISZERO PUSH3 0x11D2 JUMPI PUSH3 0x11D1 PUSH3 0xE2C JUMP JUMPDEST JUMPDEST PUSH1 0x0 PUSH3 0x11E2 DUP6 DUP3 DUP7 ADD PUSH3 0xEB5 JUMP JUMPDEST SWAP3 POP POP PUSH1 0x20 DUP4 ADD CALLDATALOAD PUSH8 0xFFFFFFFFFFFFFFFF DUP2 GT ISZERO PUSH3 0x1206 JUMPI PUSH3 0x1205 PUSH3 0xE31 JUMP JUMPDEST JUMPDEST PUSH3 0x1214 DUP6 DUP3 DUP7 ADD PUSH3 0x1185 JUMP JUMPDEST SWAP2 POP POP SWAP3 POP SWAP3 SWAP1 POP JUMP JUMPDEST PUSH32 0x4E487B7100000000000000000000000000000000000000000000000000000000 PUSH1 0x0 MSTORE PUSH1 0x22 PUSH1 0x4 MSTORE PUSH1 0x24 PUSH1 0x0 REVERT JUMPDEST PUSH1 0x0 PUSH1 0x2 DUP3 DIV SWAP1 POP PUSH1 0x1 DUP3 AND DUP1 PUSH3 0x1266 JUMPI PUSH1 0x7F DUP3 AND SWAP2 POP JUMPDEST PUSH1 0x20 DUP3 LT DUP2 SUB PUSH3 0x127C JUMPI PUSH3 0x127B PUSH3 0x121E JUMP JUMPDEST JUMPDEST POP SWAP2 SWAP1 POP JUMP JUMPDEST PUSH1 0x0 DUP2 MLOAD SWAP1 POP PUSH3 0x1293 DUP2 PUSH3 0xE6A JUMP JUMPDEST SWAP3 SWAP2 POP POP JUMP JUMPDEST PUSH1 0x0 PUSH1 0x20 DUP3 DUP5 SUB SLT ISZERO PUSH3 0x12B2 JUMPI PUSH3 0x12B1 PUSH3 0xE2C JUMP JUMPDEST JUMPDEST PUSH1 0x0 PUSH3 0x12C2 DUP5 DUP3 DUP6 ADD PUSH3 0x1282 JUMP JUMPDEST SWAP2 POP POP SWAP3 SWAP2 POP POP JUMP JUMPDEST PUSH1 0x0 DUP2 MLOAD SWAP1 POP PUSH3 0x12DC DUP2 PUSH3 0xE9B JUMP JUMPDEST SWAP3 SWAP2 POP POP JUMP JUMPDEST PUSH1 0x0 PUSH1 0x20 DUP3 DUP5 SUB SLT ISZERO PUSH3 0x12FB JUMPI PUSH3 0x12FA PUSH3 0xE2C JUMP JUMPDEST JUMPDEST PUSH1 0x0 PUSH3 0x130B DUP5 DUP3 DUP6 ADD PUSH3 0x12CB JUMP JUMPDEST SWAP2 POP POP SWAP3 SWAP2 POP POP JUMP JUMPDEST PUSH32 0x4E487B7100000000000000000000000000000000000000000000000000000000 PUSH1 0x0 MSTORE PUSH1 0x11 PUSH1 0x4 MSTORE PUSH1 0x24 PUSH1 0x0 REVERT JUMPDEST PUSH1 0x0 PUSH3 0x1350 DUP3 PUSH3 0xDEA JUMP JUMPDEST SWAP2 POP PUSH32 0xFFFFFFFFFFFFFFFFFFFFFFFFFFFFFFFFFFFFFFFFFFFFFFFFFFFFFFFFFFFFFFFF DUP3 SUB PUSH3 0x1385 JUMPI PUSH3 0x1384 PUSH3 0x1314 JUMP JUMPDEST JUMPDEST PUSH1 0x1 DUP3 ADD SWAP1 POP SWAP2 SWAP1 POP JUMP JUMPDEST PUSH1 0x0 PUSH1 0x40 DUP3 ADD SWAP1 POP PUSH3 0x13A7 PUSH1 0x0 DUP4 ADD DUP6 PUSH3 0xDF4 JUMP JUMPDEST DUP2 DUP2 SUB PUSH1 0x20 DUP4 ADD MSTORE PUSH3 0x13BB DUP2 DUP5 PUSH3 0xD85 JUMP JUMPDEST SWAP1 POP SWAP4 SWAP3 POP POP POP JUMP INVALID PUSH1 0x80 PUSH1 0x40 MSTORE CALLVALUE DUP1 ISZERO PUSH3 0x11 JUMPI PUSH1 0x0 DUP1 REVERT JUMPDEST POP PUSH1 0x40 MLOAD PUSH3 0xCC4 CODESIZE SUB DUP1 PUSH3 0xCC4 DUP4 CODECOPY DUP2 DUP2 ADD PUSH1 0x40 MSTORE DUP2 ADD SWAP1 PUSH3 0x37 SWAP2 SWAP1 PUSH3 0x372 JUMP JUMPDEST CALLER PUSH1 0x0 PUSH20 0xFFFFFFFFFFFFFFFFFFFFFFFFFFFFFFFFFFFFFFFF AND DUP2 PUSH20 0xFFFFFFFFFFFFFFFFFFFFFFFFFFFFFFFFFFFFFFFF AND SUB PUSH3 0xAD JUMPI PUSH1 0x0 PUSH1 0x40 MLOAD PUSH32 0x1E4FBDF700000000000000000000000000000000000000000000000000000000 DUP2 MSTORE PUSH1 0x4 ADD PUSH3 0xA4 SWAP2 SWAP1 PUSH3 0x41D JUMP JUMPDEST PUSH1 0x40 MLOAD DUP1 SWAP2 SUB SWAP1 REVERT JUMPDEST PUSH3 0xBE DUP2 PUSH3 0xE0 PUSH1 0x20 SHL PUSH1 0x20 SHR JUMP JUMPDEST POP DUP2 PUSH1 0x1 DUP2 SWAP1 SSTORE POP DUP1 PUSH1 0x2 SWAP1 DUP2 PUSH3 0xD7 SWAP2 SWAP1 PUSH3 0x67B JUMP JUMPDEST POP POP POP PUSH3 0x762 JUMP JUMPDEST PUSH1 0x0 DUP1 PUSH1 0x0 SWAP1 SLOAD SWAP1 PUSH2 0x100 EXP SWAP1 DIV PUSH20 0xFFFFFFFFFFFFFFFFFFFFFFFFFFFFFFFFFFFFFFFF AND SWAP1 POP DUP2 PUSH1 0x0 DUP1 PUSH2 0x100 EXP DUP2 SLOAD DUP2 PUSH20 0xFFFFFFFFFFFFFFFFFFFFFFFFFFFFFFFFFFFFFFFF MUL NOT AND SWAP1 DUP4 PUSH20 0xFFFFFFFFFFFFFFFFFFFFFFFFFFFFFFFFFFFFFFFF AND MUL OR SWAP1 SSTORE POP DUP2 PUSH20 0xFFFFFFFFFFFFFFFFFFFFFFFFFFFFFFFFFFFFFFFF AND DUP2 PUSH20 0xFFFFFFFFFFFFFFFFFFFFFFFFFFFFFFFFFFFFFFFF AND PUSH32 0x8BE0079C531659141344CD1FD0A4F28419497F9722A3DAAFE3B4186F6B6457E0 PUSH1 0x40 MLOAD PUSH1 0x40 MLOAD DUP1 SWAP2 SUB SWAP1 LOG3 POP POP JUMP JUMPDEST PUSH1 0x0 PUSH1 0x40 MLOAD SWAP1 POP SWAP1 JUMP JUMPDEST PUSH1 0x0 DUP1 REVERT JUMPDEST PUSH1 0x0 DUP1 REVERT JUMPDEST PUSH1 0x0 DUP2 SWAP1 POP SWAP2 SWAP1 POP JUMP JUMPDEST PUSH3 0x1CD DUP2 PUSH3 0x1B8 JUMP JUMPDEST DUP2 EQ PUSH3 0x1D9 JUMPI PUSH1 0x0 DUP1 REVERT JUMPDEST POP JUMP JUMPDEST PUSH1 0x0 DUP2 MLOAD SWAP1 POP PUSH3 0x1ED DUP2 PUSH3 0x1C2 JUMP JUMPDEST SWAP3 SWAP2 POP POP JUMP JUMPDEST PUSH1 0x0 DUP1 REVERT JUMPDEST PUSH1 0x0 DUP1 REVERT JUMPDEST PUSH1 0x0 PUSH1 0x1F NOT PUSH1 0x1F DUP4 ADD AND SWAP1 POP SWAP2 SWAP1 POP JUMP JUMPDEST PUSH32 0x4E487B7100000000000000000000000000000000000000000000000000000000 PUSH1 0x0 MSTORE PUSH1 0x41 PUSH1 0x4 MSTORE PUSH1 0x24 PUSH1 0x0 REVERT JUMPDEST PUSH3 0x248 DUP3 PUSH3 0x1FD JUMP JUMPDEST DUP2 ADD DUP2 DUP2 LT PUSH8 0xFFFFFFFFFFFFFFFF DUP3 GT OR ISZERO PUSH3 0x26A JUMPI PUSH3 0x269 PUSH3 0x20E JUMP JUMPDEST JUMPDEST DUP1 PUSH1 0x40 MSTORE POP POP POP JUMP JUMPDEST PUSH1 0x0 PUSH3 0x27F PUSH3 0x1A4 JUMP JUMPDEST SWAP1 POP PUSH3 0x28D DUP3 DUP3 PUSH3 0x23D JUMP JUMPDEST SWAP2 SWAP1 POP JUMP JUMPDEST PUSH1 0x0 PUSH8 0xFFFFFFFFFFFFFFFF DUP3 GT ISZERO PUSH3 0x2B0 JUMPI PUSH3 0x2AF PUSH3 0x20E JUMP JUMPDEST JUMPDEST PUSH3 0x2BB DUP3 PUSH3 0x1FD JUMP JUMPDEST SWAP1 POP PUSH1 0x20 DUP2 ADD SWAP1 POP SWAP2 SWAP1 POP JUMP JUMPDEST PUSH1 0x0 JUMPDEST DUP4 DUP2 LT ISZERO PUSH3 0x2E8 JUMPI DUP1 DUP3 ADD MLOAD DUP2 DUP5 ADD MSTORE PUSH1 0x20 DUP2 ADD SWAP1 POP PUSH3 0x2CB JUMP JUMPDEST PUSH1 0x0 DUP5 DUP5 ADD MSTORE POP POP POP POP JUMP JUMPDEST PUSH1 0x0 PUSH3 0x30B PUSH3 0x305 DUP5 PUSH3 0x292 JUMP JUMPDEST PUSH3 0x273 JUMP JUMPDEST SWAP1 POP DUP3 DUP2 MSTORE PUSH1 0x20 DUP2 ADD DUP5 DUP5 DUP5 ADD GT ISZERO PUSH3 0x32A JUMPI PUSH3 0x329 PUSH3 0x1F8 JUMP JUMPDEST JUMPDEST PUSH3 0x337 DUP5 DUP3 DUP6 PUSH3 0x2C8 JUMP JUMPDEST POP SWAP4 SWAP3 POP POP POP JUMP JUMPDEST PUSH1 0x0 DUP3 PUSH1 0x1F DUP4 ADD SLT PUSH3 0x357 JUMPI PUSH3 0x356 PUSH3 0x1F3 JUMP JUMPDEST JUMPDEST DUP2 MLOAD PUSH3 0x369 DUP5 DUP3 PUSH1 0x20 DUP7 ADD PUSH3 0x2F4 JUMP JUMPDEST SWAP2 POP POP SWAP3 SWAP2 POP POP JUMP JUMPDEST PUSH1 0x0 DUP1 PUSH1 0x40 DUP4 DUP6 SUB SLT ISZERO PUSH3 0x38C JUMPI PUSH3 0x38B PUSH3 0x1AE JUMP JUMPDEST JUMPDEST PUSH1 0x0 PUSH3 0x39C DUP6 DUP3 DUP7 ADD PUSH3 0x1DC JUMP JUMPDEST SWAP3 POP POP PUSH1 0x20 DUP4 ADD MLOAD PUSH8 0xFFFFFFFFFFFFFFFF DUP2 GT ISZERO PUSH3 0x3C0 JUMPI PUSH3 0x3BF PUSH3 0x1B3 JUMP JUMPDEST JUMPDEST PUSH3 0x3CE DUP6 DUP3 DUP7 ADD PUSH3 0x33F JUMP JUMPDEST SWAP2 POP POP SWAP3 POP SWAP3 SWAP1 POP JUMP JUMPDEST PUSH1 0x0 PUSH20 0xFFFFFFFFFFFFFFFFFFFFFFFFFFFFFFFFFFFFFFFF DUP3 AND SWAP1 POP SWAP2 SWAP1 POP JUMP JUMPDEST PUSH1 0x0 PUSH3 0x405 DUP3 PUSH3 0x3D8 JUMP JUMPDEST SWAP1 POP SWAP2 SWAP1 POP JUMP JUMPDEST PUSH3 0x417 DUP2 PUSH3 0x3F8 JUMP JUMPDEST DUP3 MSTORE POP POP JUMP JUMPDEST PUSH1 0x0 PUSH1 0x20 DUP3 ADD SWAP1 POP PUSH3 0x434 PUSH1 0x0 DUP4 ADD DUP5 PUSH3 0x40C JUMP JUMPDEST SWAP3 SWAP2 POP POP JUMP JUMPDEST PUSH1 0x0 DUP2 MLOAD SWAP1 POP SWAP2 SWAP1 POP JUMP JUMPDEST PUSH32 0x4E487B7100000000000000000000000000000000000000000000000000000000 PUSH1 0x0 MSTORE PUSH1 0x22 PUSH1 0x4 MSTORE PUSH1 0x24 PUSH1 0x0 REVERT JUMPDEST PUSH1 0x0 PUSH1 0x2 DUP3 DIV SWAP1 POP PUSH1 0x1 DUP3 AND DUP1 PUSH3 0x48D JUMPI PUSH1 0x7F DUP3 AND SWAP2 POP JUMPDEST PUSH1 0x20 DUP3 LT DUP2 SUB PUSH3 0x4A3 JUMPI PUSH3 0x4A2 PUSH3 0x445 JUMP JUMPDEST JUMPDEST POP SWAP2 SWAP1 POP JUMP JUMPDEST PUSH1 0x0 DUP2 SWAP1 POP DUP2 PUSH1 0x0 MSTORE PUSH1 0x20 PUSH1 0x0 KECCAK256 SWAP1 POP SWAP2 SWAP1 POP JUMP JUMPDEST PUSH1 0x0 PUSH1 0x20 PUSH1 0x1F DUP4 ADD DIV SWAP1 POP SWAP2 SWAP1 POP JUMP JUMPDEST PUSH1 0x0 DUP3 DUP3 SHL SWAP1 POP SWAP3 SWAP2 POP POP JUMP JUMPDEST PUSH1 0x0 PUSH1 0x8 DUP4 MUL PUSH3 0x50D PUSH32 0xFFFFFFFFFFFFFFFFFFFFFFFFFFFFFFFFFFFFFFFFFFFFFFFFFFFFFFFFFFFFFFFF DUP3 PUSH3 0x4CE JUMP JUMPDEST PUSH3 0x519 DUP7 DUP4 PUSH3 0x4CE JUMP JUMPDEST SWAP6 POP DUP1 NOT DUP5 AND SWAP4 POP DUP1 DUP7 AND DUP5 OR SWAP3 POP POP POP SWAP4 SWAP3 POP POP POP JUMP JUMPDEST PUSH1 0x0 DUP2 SWAP1 POP SWAP2 SWAP1 POP JUMP JUMPDEST PUSH1 0x0 PUSH3 0x55C PUSH3 0x556 PUSH3 0x550 DUP5 PUSH3 0x1B8 JUMP JUMPDEST PUSH3 0x531 JUMP JUMPDEST PUSH3 0x1B8 JUMP JUMPDEST SWAP1 POP SWAP2 SWAP1 POP JUMP JUMPDEST PUSH1 0x0 DUP2 SWAP1 POP SWAP2 SWAP1 POP JUMP JUMPDEST PUSH3 0x578 DUP4 PUSH3 0x53B JUMP JUMPDEST PUSH3 0x590 PUSH3 0x587 DUP3 PUSH3 0x563 JUMP JUMPDEST DUP5 DUP5 SLOAD PUSH3 0x4DB JUMP JUMPDEST DUP3 SSTORE POP POP POP POP JUMP JUMPDEST PUSH1 0x0 SWAP1 JUMP JUMPDEST PUSH3 0x5A7 PUSH3 0x598 JUMP JUMPDEST PUSH3 0x5B4 DUP2 DUP5 DUP5 PUSH3 0x56D JUMP JUMPDEST POP POP POP JUMP JUMPDEST JUMPDEST DUP2 DUP2 LT ISZERO PUSH3 0x5DC JUMPI PUSH3 0x5D0 PUSH1 0x0 DUP3 PUSH3 0x59D JUMP JUMPDEST PUSH1 0x1 DUP2 ADD SWAP1 POP PUSH3 0x5BA JUMP JUMPDEST POP POP JUMP JUMPDEST PUSH1 0x1F DUP3 GT ISZERO PUSH3 0x62B JUMPI PUSH3 0x5F5 DUP2 PUSH3 0x4A9 JUMP JUMPDEST PUSH3 0x600 DUP5 PUSH3 0x4BE JUMP JUMPDEST DUP2 ADD PUSH1 0x20 DUP6 LT ISZERO PUSH3 0x610 JUMPI DUP2 SWAP1 POP JUMPDEST PUSH3 0x628 PUSH3 0x61F DUP6 PUSH3 0x4BE JUMP JUMPDEST DUP4 ADD DUP3 PUSH3 0x5B9 JUMP JUMPDEST POP POP JUMPDEST POP POP POP JUMP JUMPDEST PUSH1 0x0 DUP3 DUP3 SHR SWAP1 POP SWAP3 SWAP2 POP POP JUMP JUMPDEST PUSH1 0x0 PUSH3 0x650 PUSH1 0x0 NOT DUP5 PUSH1 0x8 MUL PUSH3 0x630 JUMP JUMPDEST NOT DUP1 DUP4 AND SWAP2 POP POP SWAP3 SWAP2 POP POP JUMP JUMPDEST PUSH1 0x0 PUSH3 0x66B DUP4 DUP4 PUSH3 0x63D JUMP JUMPDEST SWAP2 POP DUP3 PUSH1 0x2 MUL DUP3 OR SWAP1 POP SWAP3 SWAP2 POP POP JUMP JUMPDEST PUSH3 0x686 DUP3 PUSH3 0x43A JUMP JUMPDEST PUSH8 0xFFFFFFFFFFFFFFFF DUP2 GT ISZERO PUSH3 0x6A2 JUMPI PUSH3 0x6A1 PUSH3 0x20E JUMP JUMPDEST JUMPDEST PUSH3 0x6AE DUP3 SLOAD PUSH3 0x474 JUMP JUMPDEST PUSH3 0x6BB DUP3 DUP3 DUP6 PUSH3 0x5E0 JUMP JUMPDEST PUSH1 0x0 PUSH1 0x20 SWAP1 POP PUSH1 0x1F DUP4 GT PUSH1 0x1 DUP2 EQ PUSH3 0x6F3 JUMPI PUSH1 0x0 DUP5 ISZERO PUSH3 0x6DE JUMPI DUP3 DUP8 ADD MLOAD SWAP1 POP JUMPDEST PUSH3 0x6EA DUP6 DUP3 PUSH3 0x65D JUMP JUMPDEST DUP7 SSTORE POP PUSH3 0x75A JUMP JUMPDEST PUSH1 0x1F NOT DUP5 AND PUSH3 0x703 DUP7 PUSH3 0x4A9 JUMP JUMPDEST PUSH1 0x0 JUMPDEST DUP3 DUP2 LT ISZERO PUSH3 0x72D JUMPI DUP5 DUP10 ADD MLOAD DUP3 SSTORE PUSH1 0x1 DUP3 ADD SWAP2 POP PUSH1 0x20 DUP6 ADD SWAP5 POP PUSH1 0x20 DUP2 ADD SWAP1 POP PUSH3 0x706 JUMP JUMPDEST DUP7 DUP4 LT ISZERO PUSH3 0x74D JUMPI DUP5 DUP10 ADD MLOAD PUSH3 0x749 PUSH1 0x1F DUP10 AND DUP3 PUSH3 0x63D JUMP JUMPDEST DUP4 SSTORE POP JUMPDEST PUSH1 0x1 PUSH1 0x2 DUP9 MUL ADD DUP9 SSTORE POP POP POP JUMPDEST POP POP POP POP POP POP JUMP JUMPDEST PUSH2 0x552 DUP1 PUSH3 0x772 PUSH1 0x0 CODECOPY PUSH1 0x0 RETURN INVALID PUSH1 0x80 PUSH1 0x40 MSTORE CALLVALUE DUP1 ISZERO PUSH2 0x10 JUMPI PUSH1 0x0 DUP1 REVERT JUMPDEST POP PUSH1 0x4 CALLDATASIZE LT PUSH2 0x57 JUMPI PUSH1 0x0 CALLDATALOAD PUSH1 0xE0 SHR DUP1 PUSH4 0x5D1CA631 EQ PUSH2 0x5C JUMPI DUP1 PUSH4 0x715018A6 EQ PUSH2 0x7A JUMPI DUP1 PUSH4 0x7802DFF5 EQ PUSH2 0x84 JUMPI DUP1 PUSH4 0x8DA5CB5B EQ PUSH2 0xA2 JUMPI DUP1 PUSH4 0xF2FDE38B EQ PUSH2 0xC0 JUMPI JUMPDEST PUSH1 0x0 DUP1 REVERT JUMPDEST PUSH2 0x64 PUSH2 0xDC JUMP JUMPDEST PUSH1 0x40 MLOAD PUSH2 0x71 SWAP2 SWAP1 PUSH2 0x335 JUMP JUMPDEST PUSH1 0x40 MLOAD DUP1 SWAP2 SUB SWAP1 RETURN JUMPDEST PUSH2 0x82 PUSH2 0xE6 JUMP JUMPDEST STOP JUMPDEST PUSH2 0x8C PUSH2 0xFA JUMP JUMPDEST PUSH1 0x40 MLOAD PUSH2 0x99 SWAP2 SWAP1 PUSH2 0x3E0 JUMP JUMPDEST PUSH1 0x40 MLOAD DUP1 SWAP2 SUB SWAP1 RETURN JUMPDEST PUSH2 0xAA PUSH2 0x18C JUMP JUMPDEST PUSH1 0x40 MLOAD PUSH2 0xB7 SWAP2 SWAP1 PUSH2 0x443 JUMP JUMPDEST PUSH1 0x40 MLOAD DUP1 SWAP2 SUB SWAP1 RETURN JUMPDEST PUSH2 0xDA PUSH1 0x4 DUP1 CALLDATASIZE SUB DUP2 ADD SWAP1 PUSH2 0xD5 SWAP2 SWAP1 PUSH2 0x48F JUMP JUMPDEST PUSH2 0x1B5 JUMP JUMPDEST STOP JUMPDEST PUSH1 0x0 PUSH1 0x1 SLOAD SWAP1 POP SWAP1 JUMP JUMPDEST PUSH2 0xEE PUSH2 0x1C9 JUMP JUMPDEST PUSH2 0xF8 PUSH1 0x0 PUSH2 0x250 JUMP JUMPDEST JUMP JUMPDEST PUSH1 0x60 PUSH1 0x2 DUP1 SLOAD PUSH2 0x109 SWAP1 PUSH2 0x4EB JUMP JUMPDEST DUP1 PUSH1 0x1F ADD PUSH1 0x20 DUP1 SWAP2 DIV MUL PUSH1 0x20 ADD PUSH1 0x40 MLOAD SWAP1 DUP2 ADD PUSH1 0x40 MSTORE DUP1 SWAP3 SWAP2 SWAP1 DUP2 DUP2 MSTORE PUSH1 0x20 ADD DUP3 DUP1 SLOAD PUSH2 0x135 SWAP1 PUSH2 0x4EB JUMP JUMPDEST DUP1 ISZERO PUSH2 0x182 JUMPI DUP1 PUSH1 0x1F LT PUSH2 0x157 JUMPI PUSH2 0x100 DUP1 DUP4 SLOAD DIV MUL DUP4 MSTORE SWAP2 PUSH1 0x20 ADD SWAP2 PUSH2 0x182 JUMP JUMPDEST DUP3 ADD SWAP2 SWAP1 PUSH1 0x0 MSTORE PUSH1 0x20 PUSH1 0x0 KECCAK256 SWAP1 JUMPDEST DUP2 SLOAD DUP2 MSTORE SWAP1 PUSH1 0x1 ADD SWAP1 PUSH1 0x20 ADD DUP1 DUP4 GT PUSH2 0x165 JUMPI DUP3 SWAP1 SUB PUSH1 0x1F AND DUP3 ADD SWAP2 JUMPDEST POP POP POP POP POP SWAP1 POP SWAP1 JUMP JUMPDEST PUSH1 0x0 DUP1 PUSH1 0x0 SWAP1 SLOAD SWAP1 PUSH2 0x100 EXP SWAP1 DIV PUSH20 0xFFFFFFFFFFFFFFFFFFFFFFFFFFFFFFFFFFFFFFFF AND SWAP1 POP SWAP1 JUMP JUMPDEST PUSH2 0x1BD PUSH2 0x1C9 JUMP JUMPDEST PUSH2 0x1C6 DUP2 PUSH2 0x1B5 JUMP JUMPDEST POP JUMP JUMPDEST PUSH2 0x1D1 PUSH2 0x314 JUMP JUMPDEST PUSH20 0xFFFFFFFFFFFFFFFFFFFFFFFFFFFFFFFFFFFFFFFF AND PUSH2 0x1EF PUSH2 0x18C JUMP JUMPDEST PUSH20 0xFFFFFFFFFFFFFFFFFFFFFFFFFFFFFFFFFFFFFFFF AND EQ PUSH2 0x24E JUMPI PUSH2 0x212 PUSH2 0x314 JUMP JUMPDEST PUSH1 0x40 MLOAD PUSH32 0x118CDAA700000000000000000000000000000000000000000000000000000000 DUP2 MSTORE PUSH1 0x4 ADD PUSH2 0x245 SWAP2 SWAP1 PUSH2 0x443 JUMP JUMPDEST PUSH1 0x40 MLOAD DUP1 SWAP2 SUB SWAP1 REVERT JUMPDEST JUMP JUMPDEST PUSH1 0x0 DUP1 PUSH1 0x0 SWAP1 SLOAD SWAP1 PUSH2 0x100 EXP SWAP1 DIV PUSH20 0xFFFFFFFFFFFFFFFFFFFFFFFFFFFFFFFFFFFFFFFF AND SWAP1 POP DUP2 PUSH1 0x0 DUP1 PUSH2 0x100 EXP DUP2 SLOAD DUP2 PUSH20 0xFFFFFFFFFFFFFFFFFFFFFFFFFFFFFFFFFFFFFFFF MUL NOT AND SWAP1 DUP4 PUSH20 0xFFFFFFFFFFFFFFFFFFFFFFFFFFFFFFFFFFFFFFFF AND MUL OR SWAP1 SSTORE POP DUP2 PUSH20 0xFFFFFFFFFFFFFFFFFFFFFFFFFFFFFFFFFFFFFFFF AND DUP2 PUSH20 0xFFFFFFFFFFFFFFFFFFFFFFFFFFFFFFFFFFFFFFFF AND PUSH32 0x8BE0079C531659141344CD1FD0A4F28419497F9722A3DAAFE3B4186F6B6457E0 PUSH1 0x40 MLOAD PUSH1 0x40 MLOAD DUP1 SWAP2 SUB SWAP1 LOG3 POP POP JUMP JUMPDEST PUSH1 0x0 CALLER SWAP1 POP SWAP1 JUMP JUMPDEST PUSH1 0x0 DUP2 SWAP1 POP SWAP2 SWAP1 POP JUMP JUMPDEST PUSH2 0x32F DUP2 PUSH2 0x31C JUMP JUMPDEST DUP3 MSTORE POP POP JUMP JUMPDEST PUSH1 0x0 PUSH1 0x20 DUP3 ADD SWAP1 POP PUSH2 0x34A PUSH1 0x0 DUP4 ADD DUP5 PUSH2 0x326 JUMP JUMPDEST SWAP3 SWAP2 POP POP JUMP JUMPDEST PUSH1 0x0 DUP2 MLOAD SWAP1 POP SWAP2 SWAP1 POP JUMP JUMPDEST PUSH1 0x0 DUP3 DUP3 MSTORE PUSH1 0x20 DUP3 ADD SWAP1 POP SWAP3 SWAP2 POP POP JUMP JUMPDEST PUSH1 0x0 JUMPDEST DUP4 DUP2 LT ISZERO PUSH2 0x38A JUMPI DUP1 DUP3 ADD MLOAD DUP2 DUP5 ADD MSTORE PUSH1 0x20 DUP2 ADD SWAP1 POP PUSH2 0x36F JUMP JUMPDEST PUSH1 0x0 DUP5 DUP5 ADD MSTORE POP POP POP POP JUMP JUMPDEST PUSH1 0x0 PUSH1 0x1F NOT PUSH1 0x1F DUP4 ADD AND SWAP1 POP SWAP2 SWAP1 POP JUMP JUMPDEST PUSH1 0x0 PUSH2 0x3B2 DUP3 PUSH2 0x350 JUMP JUMPDEST PUSH2 0x3BC DUP2 DUP6 PUSH2 0x35B JUMP JUMPDEST SWAP4 POP PUSH2 0x3CC DUP2 DUP6 PUSH1 0x20 DUP7 ADD PUSH2 0x36C JUMP JUMPDEST PUSH2 0x3D5 DUP2 PUSH2 0x396 JUMP JUMPDEST DUP5 ADD SWAP2 POP POP SWAP3 SWAP2 POP POP JUMP JUMPDEST PUSH1 0x0 PUSH1 0x20 DUP3 ADD SWAP1 POP DUP2 DUP2 SUB PUSH1 0x0 DUP4 ADD MSTORE PUSH2 0x3FA DUP2 DUP5 PUSH2 0x3A7 JUMP JUMPDEST SWAP1 POP SWAP3 SWAP2 POP POP JUMP JUMPDEST PUSH1 0x0 PUSH20 0xFFFFFFFFFFFFFFFFFFFFFFFFFFFFFFFFFFFFFFFF DUP3 AND SWAP1 POP SWAP2 SWAP1 POP JUMP JUMPDEST PUSH1 0x0 PUSH2 0x42D DUP3 PUSH2 0x402 JUMP JUMPDEST SWAP1 POP SWAP2 SWAP1 POP JUMP JUMPDEST PUSH2 0x43D DUP2 PUSH2 0x422 JUMP JUMPDEST DUP3 MSTORE POP POP JUMP JUMPDEST PUSH1 0x0 PUSH1 0x20 DUP3 ADD SWAP1 POP PUSH2 0x458 PUSH1 0x0 DUP4 ADD DUP5 PUSH2 0x434 JUMP JUMPDEST SWAP3 SWAP2 POP POP JUMP JUMPDEST PUSH1 0x0 DUP1 REVERT JUMPDEST PUSH2 0x46C DUP2 PUSH2 0x422 JUMP JUMPDEST DUP2 EQ PUSH2 0x477 JUMPI PUSH1 0x0 DUP1 REVERT JUMPDEST POP JUMP JUMPDEST PUSH1 0x0 DUP2 CALLDATALOAD SWAP1 POP PUSH2 0x489 DUP2 PUSH2 0x463 JUMP JUMPDEST SWAP3 SWAP2 POP POP JUMP JUMPDEST PUSH1 0x0 PUSH1 0x20 DUP3 DUP5 SUB SLT ISZERO PUSH2 0x4A5 JUMPI PUSH2 0x4A4 PUSH2 0x45E JUMP JUMPDEST JUMPDEST PUSH1 0x0 PUSH2 0x4B3 DUP5 DUP3 DUP6 ADD PUSH2 0x47A JUMP JUMPDEST SWAP2 POP POP SWAP3 SWAP2 POP POP JUMP JUMPDEST PUSH32 0x4E487B7100000000000000000000000000000000000000000000000000000000 PUSH1 0x0 MSTORE PUSH1 0x22 PUSH1 0x4 MSTORE PUSH1 0x24 PUSH1 0x0 REVERT JUMPDEST PUSH1 0x0 PUSH1 0x2 DUP3 DIV SWAP1 POP PUSH1 0x1 DUP3 AND DUP1 PUSH2 0x503 JUMPI PUSH1 0x7F DUP3 AND SWAP2 POP JUMPDEST PUSH1 0x20 DUP3 LT DUP2 SUB PUSH2 0x516 JUMPI PUSH2 0x515 PUSH2 0x4BC JUMP JUMPDEST JUMPDEST POP SWAP2 SWAP1 POP JUMP INVALID LOG2 PUSH5 0x6970667358 0x22 SLT KECCAK256 0xC9 SDIV GAS CALLER MUL 0x22 DUP10 RETURNDATASIZE ISZERO SWAP3 0xB6 0xBA MLOAD LOG4 0x25 INVALID 0xAE SWAP4 0xB7 PUSH8 0xFC1CF31E7C5930 CALLDATALOAD REVERT CALLDATACOPY 0xD PUSH5 0x736F6C6343 STOP ADDMOD EQ STOP CALLER LOG2 PUSH5 0x6970667358 0x22 SLT KECCAK256 0x5D 0x2E SELFDESTRUCT GASPRICE PUSH11 0xFB4B31EE29993C53541514 RETURN EXTCODEHASH 0xC1 0x4B CODESIZE ADDMOD RETURNDATACOPY 0xAF JUMPDEST 0xCE SWAP11 SAR 0x25 0xC8 DELEGATECALL SWAP9 PUSH5 0x736F6C6343 STOP ADDMOD EQ STOP CALLER "},"gasEstimates":{"creation":{"codeDepositCost":"1676400","executionCost":"infinite","totalCost":"infinite"},"external":{"addCard(uint256,string)":"infinite","balanceOf(address)":"infinite","cardCount()":"2474","cards(uint256)":"infinite","getCard(uint256)":"infinite","getCardCount()":"2482","getName()":"infinite","isCardInCollection(uint256)":"infinite","mint(address)":"infinite","mint(address,uint256)":"infinite","mintSomeCards(address,uint256)":"infinite","name()":"infinite","ownerOf(uint256)":"infinite"}},"methodIdentifiers":{"addCard(uint256,string)":"aa93d702","balanceOf(address)":"70a08231","cardCount()":"1b6cde10","cards(uint256)":"8dc10768","getCard(uint256)":"9188d312","getCardCount()":"7d620130","getName()":"17d7de7c","isCardInCollection(uint256)":"a9aa75ef","mint(address)":"6a627842","mint(address,uint256)":"40c10f19","mintSomeCards(address,uint256)":"f92906ff","name()":"06fdde03","ownerOf(uint256)":"6352211e"}},"storageLayout":{"storage":[{"astId":3304,"contract":"src/GameCollection.sol:GameCollection","label":"name","offset":0,"slot":"0","type":"t_string_storage"},{"astId":3306,"contract":"src/GameCollection.sol:GameCollection","label":"cardCount","offset":0,"slot":"1","type":"t_uint256"},{"astId":3311,"contract":"src/GameCollection.sol:GameCollection","label":"cards","offset":0,"slot":"2","type":"t_mapping(t_uint256,t_contract(Card)2987)"}],"types":{"t_contract(Card)2987":{"encoding":"inplace","label":"contract Card","numberOfBytes":"20"},"t_mapping(t_uint256,t_contract(Card)2987)":{"encoding":"mapping","key":"t_uint256","label":"mapping(uint256 => contract Card)","numberOfBytes":"32","value":"t_contract(Card)2987"},"t_string_storage":{"encoding":"bytes","label":"string","numberOfBytes":"32"},"t_uint256":{"encoding":"inplace","label":"uint256","numberOfBytes":"32"}}},"userdoc":{"kind":"user","methods":{},"version":1}}}}