{"src/CardOwnership.sol":{"CardOwnership":{"abi":[{"inputs":[],"stateMutability":"nonpayable","type":"constructor"},{"inputs":[{"internalType":"address","name":"sender","type":"address"},{"internalType":"uint256","name":"tokenId","type":"uint256"},{"internalType":"address","name":"owner","type":"address"}],"name":"ERC721IncorrectOwner","type":"error"},{"inputs":[{"internalType":"address","name":"operator","type":"address"},{"internalType":"uint256","name":"tokenId","type":"uint256"}],"name":"ERC721InsufficientApproval","type":"error"},{"inputs":[{"internalType":"address","name":"approver","type":"address"}],"name":"ERC721InvalidApprover","type":"error"},{"inputs":[{"internalType":"address","name":"operator","type":"address"}],"name":"ERC721InvalidOperator","type":"error"},{"inputs":[{"internalType":"address","name":"owner","type":"address"}],"name":"ERC721InvalidOwner","type":"error"},{"inputs":[{"internalType":"address","name":"receiver","type":"address"}],"name":"ERC721InvalidReceiver","type":"error"},{"inputs":[{"internalType":"address","name":"sender","type":"address"}],"name":"ERC721InvalidSender","type":"error"},{"inputs":[{"internalType":"uint256","name":"tokenId","type":"uint256"}],"name":"ERC721NonexistentToken","type":"error"},{"inputs":[{"internalType":"address","name":"owner","type":"address"}],"name":"OwnableInvalidOwner","type":"error"},{"inputs":[{"internalType":"address","name":"account","type":"address"}],"name":"OwnableUnauthorizedAccount","type":"error"},{"anonymous":false,"inputs":[{"indexed":true,"internalType":"address","name":"owner","type":"address"},{"indexed":true,"internalType":"address","name":"approved","type":"address"},{"indexed":true,"internalType":"uint256","name":"tokenId","type":"uint256"}],"name":"Approval","type":"event"},{"anonymous":false,"inputs":[{"indexed":true,"internalType":"address","name":"owner","type":"address"},{"indexed":true,"internalType":"address","name":"operator","type":"address"},{"indexed":false,"internalType":"bool","name":"approved","type":"bool"}],"name":"ApprovalForAll","type":"event"},{"anonymous":false,"inputs":[{"indexed":true,"internalType":"address","name":"previousOwner","type":"address"},{"indexed":true,"internalType":"address","name":"newOwner","type":"address"}],"name":"OwnershipTransferred","type":"event"},{"anonymous":false,"inputs":[{"indexed":true,"internalType":"address","name":"from","type":"address"},{"indexed":true,"internalType":"address","name":"to","type":"address"},{"indexed":true,"internalType":"uint256","name":"tokenId","type":"uint256"}],"name":"Transfer","type":"event"},{"inputs":[{"internalType":"uint256","name":"cardNumber","type":"uint256"}],"name":"addACard","outputs":[{"internalType":"address","name":"","type":"address"}],"stateMutability":"nonpayable","type":"function"},{"inputs":[{"internalType":"address","name":"to","type":"address"},{"internalType":"uint256","name":"tokenId","type":"uint256"}],"name":"approve","outputs":[],"stateMutability":"nonpayable","type":"function"},{"inputs":[{"internalType":"address","name":"owner","type":"address"}],"name":"balanceOf","outputs":[{"internalType":"uint256","name":"","type":"uint256"}],"stateMutability":"view","type":"function"},{"inputs":[{"internalType":"uint256","name":"","type":"uint256"}],"name":"cardCollections","outputs":[{"internalType":"contract GameCollection","name":"","type":"address"}],"stateMutability":"view","type":"function"},{"inputs":[],"name":"collectionCount","outputs":[{"internalType":"uint256","name":"","type":"uint256"}],"stateMutability":"view","type":"function"},{"inputs":[{"internalType":"uint256","name":"tokenId","type":"uint256"}],"name":"getApproved","outputs":[{"internalType":"address","name":"","type":"address"}],"stateMutability":"view","type":"function"},{"inputs":[{"internalType":"uint256","name":"tokenId","type":"uint256"}],"name":"getCollectionNbForCard","outputs":[{"internalType":"int256","name":"","type":"int256"}],"stateMutability":"view","type":"function"},{"inputs":[{"internalType":"address","name":"owner","type":"address"},{"internalType":"address","name":"operator","type":"address"}],"name":"isApprovedForAll","outputs":[{"internalType":"bool","name":"","type":"bool"}],"stateMutability":"view","type":"function"},{"inputs":[{"internalType":"address","name":"to","type":"address"},{"internalType":"uint256","name":"tokenId","type":"uint256"},{"internalType":"uint256","name":"collectionNumber","type":"uint256"}],"name":"mint","outputs":[],"stateMutability":"nonpayable","type":"function"},{"inputs":[{"internalType":"address","name":"to","type":"address"},{"internalType":"uint256","name":"quantity","type":"uint256"},{"internalType":"uint256","name":"collectionNumber","type":"uint256"}],"name":"mintSomeCards","outputs":[],"stateMutability":"nonpayable","type":"function"},{"inputs":[],"name":"name","outputs":[{"internalType":"string","name":"","type":"string"}],"stateMutability":"view","type":"function"},{"inputs":[],"name":"owner","outputs":[{"internalType":"address","name":"","type":"address"}],"stateMutability":"view","type":"function"},{"inputs":[{"internalType":"uint256","name":"tokenId","type":"uint256"}],"name":"ownerOf","outputs":[{"internalType":"address","name":"","type":"address"}],"stateMutability":"view","type":"function"},{"inputs":[],"name":"renounceOwnership","outputs":[],"stateMutability":"nonpayable","type":"function"},{"inputs":[{"internalType":"address","name":"from","type":"address"},{"internalType":"address","name":"to","type":"address"},{"internalType":"uint256","name":"tokenId","type":"uint256"}],"name":"safeTransferFrom","outputs":[],"stateMutability":"nonpayable","type":"function"},{"inputs":[{"internalType":"address","name":"from","type":"address"},{"internalType":"address","name":"to","type":"address"},{"internalType":"uint256","name":"tokenId","type":"uint256"},{"internalType":"bytes","name":"data","type":"bytes"}],"name":"safeTransferFrom","outputs":[],"stateMutability":"nonpayable","type":"function"},{"inputs":[{"internalType":"address","name":"operator","type":"address"},{"internalType":"bool","name":"approved","type":"bool"}],"name":"setApprovalForAll","outputs":[],"stateMutability":"nonpayable","type":"function"},{"inputs":[{"internalType":"bytes4","name":"interfaceId","type":"bytes4"}],"name":"supportsInterface","outputs":[{"internalType":"bool","name":"","type":"bool"}],"stateMutability":"view","type":"function"},{"inputs":[],"name":"symbol","outputs":[{"internalType":"string","name":"","type":"string"}],"stateMutability":"view","type":"function"},{"inputs":[{"internalType":"uint256","name":"tokenId","type":"uint256"}],"name":"tokenURI","outputs":[{"internalType":"string","name":"","type":"string"}],"stateMutability":"view","type":"function"},{"inputs":[{"internalType":"address","name":"from","type":"address"},{"internalType":"address","name":"to","type":"address"},{"internalType":"uint256","name":"tokenId","type":"uint256"}],"name":"transferFrom","outputs":[],"stateMutability":"nonpayable","type":"function"},{"inputs":[{"internalType":"address","name":"newOwner","type":"address"}],"name":"transferOwnership","outputs":[],"stateMutability":"nonpayable","type":"function"}],"devdoc":{"errors":{"ERC721IncorrectOwner(address,uint256,address)":[{"details":"Indicates an error related to the ownership over a particular token. Used in transfers.","params":{"owner":"Address of the current owner of a token.","sender":"Address whose tokens are being transferred.","tokenId":"Identifier number of a token."}}],"ERC721InsufficientApproval(address,uint256)":[{"details":"Indicates a failure with the `operator`’s approval. Used in transfers.","params":{"operator":"Address that may be allowed to operate on tokens without being their owner.","tokenId":"Identifier number of a token."}}],"ERC721InvalidApprover(address)":[{"details":"Indicates a failure with the `approver` of a token to be approved. Used in approvals.","params":{"approver":"Address initiating an approval operation."}}],"ERC721InvalidOperator(address)":[{"details":"Indicates a failure with the `operator` to be approved. Used in approvals.","params":{"operator":"Address that may be allowed to operate on tokens without being their owner."}}],"ERC721InvalidOwner(address)":[{"details":"Indicates that an address can't be an owner. For example, `address(0)` is a forbidden owner in EIP-20. Used in balance queries.","params":{"owner":"Address of the current owner of a token."}}],"ERC721InvalidReceiver(address)":[{"details":"Indicates a failure with the token `receiver`. Used in transfers.","params":{"receiver":"Address to which tokens are being transferred."}}],"ERC721InvalidSender(address)":[{"details":"Indicates a failure with the token `sender`. Used in transfers.","params":{"sender":"Address whose tokens are being transferred."}}],"ERC721NonexistentToken(uint256)":[{"details":"Indicates a `tokenId` whose `owner` is the zero address.","params":{"tokenId":"Identifier number of a token."}}],"OwnableInvalidOwner(address)":[{"details":"The owner is not a valid owner account. (eg. `address(0)`)"}],"OwnableUnauthorizedAccount(address)":[{"details":"The caller account is not authorized to perform an operation."}]},"events":{"Approval(address,address,uint256)":{"details":"Emitted when `owner` enables `approved` to manage the `tokenId` token."},"ApprovalForAll(address,address,bool)":{"details":"Emitted when `owner` enables or disables (`approved`) `operator` to manage all of its assets."},"Transfer(address,address,uint256)":{"details":"Emitted when `tokenId` token is transferred from `from` to `to`."}},"kind":"dev","methods":{"approve(address,uint256)":{"details":"See {IERC721-approve}."},"balanceOf(address)":{"details":"See {IERC721-balanceOf}."},"getApproved(uint256)":{"details":"See {IERC721-getApproved}."},"isApprovedForAll(address,address)":{"details":"See {IERC721-isApprovedForAll}."},"name()":{"details":"See {IERC721Metadata-name}."},"owner()":{"details":"Returns the address of the current owner."},"ownerOf(uint256)":{"details":"See {IERC721-ownerOf}."},"renounceOwnership()":{"details":"Leaves the contract without owner. It will not be possible to call `onlyOwner` functions. Can only be called by the current owner. NOTE: Renouncing ownership will leave the contract without an owner, thereby disabling any functionality that is only available to the owner."},"safeTransferFrom(address,address,uint256)":{"details":"See {IERC721-safeTransferFrom}."},"safeTransferFrom(address,address,uint256,bytes)":{"details":"See {IERC721-safeTransferFrom}."},"setApprovalForAll(address,bool)":{"details":"See {IERC721-setApprovalForAll}."},"supportsInterface(bytes4)":{"details":"See {IERC165-supportsInterface}."},"symbol()":{"details":"See {IERC721Metadata-symbol}."},"tokenURI(uint256)":{"details":"See {IERC721Metadata-tokenURI}."},"transferFrom(address,address,uint256)":{"details":"See {IERC721-transferFrom}."},"transferOwnership(address)":{"details":"Transfers ownership of the contract to a new account (`newOwner`). Can only be called by the current owner."}},"version":1},"evm":{"bytecode":{"linkReferences":{},"object":"60806040523480156200001157600080fd5b506040518060400160405280600481526020017f43617264000000000000000000000000000000000000000000000000000000008152506040518060400160405280600481526020017f434152440000000000000000000000000000000000000000000000000000000081525033600073ffffffffffffffffffffffffffffffffffffffff168173ffffffffffffffffffffffffffffffffffffffff1603620000f45760006040517f1e4fbdf7000000000000000000000000000000000000000000000000000000008152600401620000eb91906200023b565b60405180910390fd5b62000105816200013260201b60201c565b508160019081620001179190620004d2565b508060029081620001299190620004d2565b505050620005b9565b60008060009054906101000a900473ffffffffffffffffffffffffffffffffffffffff169050816000806101000a81548173ffffffffffffffffffffffffffffffffffffffff021916908373ffffffffffffffffffffffffffffffffffffffff1602179055508173ffffffffffffffffffffffffffffffffffffffff168173ffffffffffffffffffffffffffffffffffffffff167f8be0079c531659141344cd1fd0a4f28419497f9722a3daafe3b4186f6b6457e060405160405180910390a35050565b600073ffffffffffffffffffffffffffffffffffffffff82169050919050565b60006200022382620001f6565b9050919050565b620002358162000216565b82525050565b60006020820190506200025260008301846200022a565b92915050565b600081519050919050565b7f4e487b7100000000000000000000000000000000000000000000000000000000600052604160045260246000fd5b7f4e487b7100000000000000000000000000000000000000000000000000000000600052602260045260246000fd5b60006002820490506001821680620002da57607f821691505b602082108103620002f057620002ef62000292565b5b50919050565b60008190508160005260206000209050919050565b60006020601f8301049050919050565b600082821b905092915050565b6000600883026200035a7fffffffffffffffffffffffffffffffffffffffffffffffffffffffffffffffff826200031b565b6200036686836200031b565b95508019841693508086168417925050509392505050565b6000819050919050565b6000819050919050565b6000620003b3620003ad620003a7846200037e565b62000388565b6200037e565b9050919050565b6000819050919050565b620003cf8362000392565b620003e7620003de82620003ba565b84845462000328565b825550505050565b600090565b620003fe620003ef565b6200040b818484620003c4565b505050565b5b81811015620004335762000427600082620003f4565b60018101905062000411565b5050565b601f82111562000482576200044c81620002f6565b62000457846200030b565b8101602085101562000467578190505b6200047f62000476856200030b565b83018262000410565b50505b505050565b600082821c905092915050565b6000620004a76000198460080262000487565b1980831691505092915050565b6000620004c2838362000494565b9150826002028217905092915050565b620004dd8262000258565b67ffffffffffffffff811115620004f957620004f862000263565b5b620005058254620002c1565b6200051282828562000437565b600060209050601f8311600181146200054a576000841562000535578287015190505b620005418582620004b4565b865550620005b1565b601f1984166200055a86620002f6565b60005b8281101562000584578489015182556001820191506020850194506020810190506200055d565b86831015620005a45784890151620005a0601f89168262000494565b8355505b6001600288020188555050505b505050505050565b61545980620005c96000396000f3fe60806040523480156200001157600080fd5b5060043610620001605760003560e01c80638da5cb5b11620000c9578063bf8741031162000087578063bf87410314620003db578063c87b56dd1462000411578063d57f966b1462000447578063e985e9c51462000469578063f2fde38b146200049f578063f7374d1114620004bf5762000160565b80638da5cb5b146200032157806395d89b411462000343578063a22cb4651462000365578063b88d4fde1462000385578063bc4f6def14620003a55762000160565b8063156e29f61162000123578063156e29f6146200024957806323b872dd146200026957806342842e0e14620002895780636352211e14620002a957806370a0823114620002df578063715018a614620003155762000160565b806301ffc9a7146200016557806306fdde03146200019b578063081812fc14620001bd578063095ea7b314620001f35780630abc4a781462000213575b600080fd5b6200018360048036038101906200017d919062001e70565b620004df565b60405162000192919062001ebf565b60405180910390f35b620001a5620005c5565b604051620001b4919062001f76565b60405180910390f35b620001db6004803603810190620001d5919062001fd5565b6200065f565b604051620001ea91906200204c565b60405180910390f35b6200021160048036038101906200020b91906200209a565b6200067f565b005b6200023160048036038101906200022b919062001fd5565b62000699565b604051620002409190620020fc565b60405180910390f35b62000267600480360381019062000261919062002119565b620007ae565b005b62000287600480360381019062000281919062002175565b6200089e565b005b620002a76004803603810190620002a1919062002175565b62000b80565b005b620002c76004803603810190620002c1919062001fd5565b62000ba2565b604051620002d691906200204c565b60405180910390f35b620002fd6004803603810190620002f79190620021d1565b62000ccd565b6040516200030c919062002214565b60405180910390f35b6200031f62000dc3565b005b6200032b62000ddb565b6040516200033a91906200204c565b60405180910390f35b6200034d62000e04565b6040516200035c919062001f76565b60405180910390f35b6200038360048036038101906200037d919062002262565b62000e9e565b005b620003a360048036038101906200039d9190620023fa565b62000eb8565b005b620003c36004803603810190620003bd919062001fd5565b62000ed9565b604051620003d29190620024f6565b60405180910390f35b620003f96004803603810190620003f3919062001fd5565b62000f0c565b6040516200040891906200204c565b60405180910390f35b6200042f600480360381019062000429919062001fd5565b6200111d565b6040516200043e919062001f76565b60405180910390f35b6200045162001190565b60405162000460919062002214565b60405180910390f35b62000487600480360381019062000481919062002513565b62001196565b60405162000496919062001ebf565b60405180910390f35b620004bd6004803603810190620004b79190620021d1565b6200122a565b005b620004dd6004803603810190620004d7919062002119565b620012b7565b005b60007f80ac58cd000000000000000000000000000000000000000000000000000000007bffffffffffffffffffffffffffffffffffffffffffffffffffffffff1916827bffffffffffffffffffffffffffffffffffffffffffffffffffffffff19161480620005ab57507f5b5e139f000000000000000000000000000000000000000000000000000000007bffffffffffffffffffffffffffffffffffffffffffffffffffffffff1916827bffffffffffffffffffffffffffffffffffffffffffffffffffffffff1916145b80620005be5750620005bd82620013a7565b5b9050919050565b606060018054620005d69062002589565b80601f0160208091040260200160405190810160405280929190818152602001828054620006049062002589565b8015620006555780601f10620006295761010080835404028352916020019162000655565b820191906000526020600020905b8154815290600101906020018083116200063757829003601f168201915b5050505050905090565b60006200066c8262001411565b5062000678826200149e565b9050919050565b6200069582826200068f620014db565b620014e3565b5050565b600080600090505b60085481121562000784576007600082815260200190815260200160002060009054906101000a900473ffffffffffffffffffffffffffffffffffffffff1673ffffffffffffffffffffffffffffffffffffffff1663a9aa75ef846040518263ffffffff1660e01b81526004016200071a919062002214565b602060405180830381865afa15801562000738573d6000803e3d6000fd5b505050506040513d601f19601f820116820180604052508101906200075e9190620025d5565b156200076e5780915050620007a9565b80806200077b9062002636565b915050620006a1565b507fffffffffffffffffffffffffffffffffffffffffffffffffffffffffffffffff90505b919050565b6008548110620007f5576040517f08c379a0000000000000000000000000000000000000000000000000000000008152600401620007ec90620026f9565b60405180910390fd5b6007600082815260200190815260200160002060009054906101000a900473ffffffffffffffffffffffffffffffffffffffff1673ffffffffffffffffffffffffffffffffffffffff166340c10f1984846040518363ffffffff1660e01b8152600401620008659291906200271b565b600060405180830381600087803b1580156200088057600080fd5b505af115801562000895573d6000803e3d6000fd5b50505050505050565b620008a98162000ba2565b73ffffffffffffffffffffffffffffffffffffffff168373ffffffffffffffffffffffffffffffffffffffff161462000919576040517f08c379a00000000000000000000000000000000000000000000000000000000081526004016200091090620027be565b60405180910390fd5b600073ffffffffffffffffffffffffffffffffffffffff168273ffffffffffffffffffffffffffffffffffffffff16036200098b576040517f08c379a0000000000000000000000000000000000000000000000000000000008152600401620009829062002856565b60405180910390fd5b6000620009988262000699565b90507fffffffffffffffffffffffffffffffffffffffffffffffffffffffffffffffff8103620009ff576040517f08c379a0000000000000000000000000000000000000000000000000000000008152600401620009f690620028ee565b60405180910390fd5b6007600082815260200190815260200160002060009054906101000a900473ffffffffffffffffffffffffffffffffffffffff1673ffffffffffffffffffffffffffffffffffffffff16639188d312836040518263ffffffff1660e01b815260040162000a6d919062002214565b602060405180830381865afa15801562000a8b573d6000803e3d6000fd5b505050506040513d601f19601f8201168201806040525081019062000ab1919062002955565b73ffffffffffffffffffffffffffffffffffffffff1663f2fde38b846040518263ffffffff1660e01b815260040162000aeb91906200204c565b600060405180830381600087803b15801562000b0657600080fd5b505af115801562000b1b573d6000803e3d6000fd5b50505050818373ffffffffffffffffffffffffffffffffffffffff168573ffffffffffffffffffffffffffffffffffffffff167fddf252ad1be2c89b69c2b068fc378daa952ba7f163c4a11628f55a4df523b3ef60405160405180910390a450505050565b62000b9d8383836040518060200160405280600081525062000eb8565b505050565b600080600090505b60085481101562000cc25760006007600083815260200190815260200160002060009054906101000a900473ffffffffffffffffffffffffffffffffffffffff1673ffffffffffffffffffffffffffffffffffffffff16636352211e856040518263ffffffff1660e01b815260040162000c25919062002214565b602060405180830381865afa15801562000c43573d6000803e3d6000fd5b505050506040513d601f19601f8201168201806040525081019062000c6991906200299e565b9050600073ffffffffffffffffffffffffffffffffffffffff168173ffffffffffffffffffffffffffffffffffffffff161462000cab57809250505062000cc8565b50808062000cb990620029d0565b91505062000baa565b50600090505b919050565b6000806000905060005b60085481101562000db9576007600082815260200190815260200160002060009054906101000a900473ffffffffffffffffffffffffffffffffffffffff1673ffffffffffffffffffffffffffffffffffffffff166370a08231856040518263ffffffff1660e01b815260040162000d5091906200204c565b602060405180830381865afa15801562000d6e573d6000803e3d6000fd5b505050506040513d601f19601f8201168201806040525081019062000d94919062002a34565b8262000da1919062002a66565b9150808062000db090620029d0565b91505062000cd7565b5080915050919050565b62000dcd620014f7565b62000dd9600062001587565b565b60008060009054906101000a900473ffffffffffffffffffffffffffffffffffffffff16905090565b60606002805462000e159062002589565b80601f016020809104026020016040519081016040528092919081815260200182805462000e439062002589565b801562000e945780601f1062000e685761010080835404028352916020019162000e94565b820191906000526020600020905b81548152906001019060200180831162000e7657829003601f168201915b5050505050905090565b62000eb462000eac620014db565b83836200164b565b5050565b62000ec58484846200089e565b62000ed384848484620017bf565b50505050565b60076020528060005260406000206000915054906101000a900473ffffffffffffffffffffffffffffffffffffffff1681565b600080600060405162000f1f9062001df1565b62000f2b919062002b34565b604051809103906000f08015801562000f48573d6000803e3d6000fd5b5090508060076000600854815260200190815260200160002060006101000a81548173ffffffffffffffffffffffffffffffffffffffff021916908373ffffffffffffffffffffffffffffffffffffffff1602179055506008600081548092919062000fb490620029d0565b91905055506007600080815260200190815260200160002060009054906101000a900473ffffffffffffffffffffffffffffffffffffffff1673ffffffffffffffffffffffffffffffffffffffff1663aa93d702846040518263ffffffff1660e01b815260040162001027919062002bdc565b600060405180830381600087803b1580156200104257600080fd5b505af115801562001057573d6000803e3d6000fd5b5050505060006007600080815260200190815260200160002060009054906101000a900473ffffffffffffffffffffffffffffffffffffffff1673ffffffffffffffffffffffffffffffffffffffff16639188d312856040518263ffffffff1660e01b8152600401620010cb919062002214565b602060405180830381865afa158015620010e9573d6000803e3d6000fd5b505050506040513d601f19601f820116820180604052508101906200110f919062002955565b905061029a92505050919050565b60606200112a8262001411565b5060006200113762001987565b9050600081511162001159576040518060200160405280600081525062001188565b8062001165846200199e565b6040516020016200117892919062002c50565b6040516020818303038152906040525b915050919050565b60085481565b6000600660008473ffffffffffffffffffffffffffffffffffffffff1673ffffffffffffffffffffffffffffffffffffffff16815260200190815260200160002060008373ffffffffffffffffffffffffffffffffffffffff1673ffffffffffffffffffffffffffffffffffffffff16815260200190815260200160002060009054906101000a900460ff16905092915050565b62001234620014f7565b600073ffffffffffffffffffffffffffffffffffffffff168173ffffffffffffffffffffffffffffffffffffffff1603620012a95760006040517f1e4fbdf7000000000000000000000000000000000000000000000000000000008152600401620012a091906200204c565b60405180910390fd5b620012b48162001587565b50565b6008548110620012fe576040517f08c379a0000000000000000000000000000000000000000000000000000000008152600401620012f590620026f9565b60405180910390fd5b6007600082815260200190815260200160002060009054906101000a900473ffffffffffffffffffffffffffffffffffffffff1673ffffffffffffffffffffffffffffffffffffffff1663f92906ff84846040518363ffffffff1660e01b81526004016200136e9291906200271b565b600060405180830381600087803b1580156200138957600080fd5b505af11580156200139e573d6000803e3d6000fd5b50505050505050565b60007f01ffc9a7000000000000000000000000000000000000000000000000000000007bffffffffffffffffffffffffffffffffffffffffffffffffffffffff1916827bffffffffffffffffffffffffffffffffffffffffffffffffffffffff1916149050919050565b6000806200141f8362001a77565b9050600073ffffffffffffffffffffffffffffffffffffffff168173ffffffffffffffffffffffffffffffffffffffff16036200149557826040517f7e2732890000000000000000000000000000000000000000000000000000000081526004016200148c919062002214565b60405180910390fd5b80915050919050565b60006005600083815260200190815260200160002060009054906101000a900473ffffffffffffffffffffffffffffffffffffffff169050919050565b600033905090565b620014f2838383600162001ab4565b505050565b62001501620014db565b73ffffffffffffffffffffffffffffffffffffffff166200152162000ddb565b73ffffffffffffffffffffffffffffffffffffffff1614620015855762001547620014db565b6040517f118cdaa70000000000000000000000000000000000000000000000000000000081526004016200157c91906200204c565b60405180910390fd5b565b60008060009054906101000a900473ffffffffffffffffffffffffffffffffffffffff169050816000806101000a81548173ffffffffffffffffffffffffffffffffffffffff021916908373ffffffffffffffffffffffffffffffffffffffff1602179055508173ffffffffffffffffffffffffffffffffffffffff168173ffffffffffffffffffffffffffffffffffffffff167f8be0079c531659141344cd1fd0a4f28419497f9722a3daafe3b4186f6b6457e060405160405180910390a35050565b600073ffffffffffffffffffffffffffffffffffffffff168273ffffffffffffffffffffffffffffffffffffffff1603620016bf57816040517f5b08ba18000000000000000000000000000000000000000000000000000000008152600401620016b691906200204c565b60405180910390fd5b80600660008573ffffffffffffffffffffffffffffffffffffffff1673ffffffffffffffffffffffffffffffffffffffff16815260200190815260200160002060008473ffffffffffffffffffffffffffffffffffffffff1673ffffffffffffffffffffffffffffffffffffffff16815260200190815260200160002060006101000a81548160ff0219169083151502179055508173ffffffffffffffffffffffffffffffffffffffff168373ffffffffffffffffffffffffffffffffffffffff167f17307eab39ab6107e8899845ad3d59bd9653f200f220920489ca2b5937696c3183604051620017b2919062001ebf565b60405180910390a3505050565b60008373ffffffffffffffffffffffffffffffffffffffff163b111562001981578273ffffffffffffffffffffffffffffffffffffffff1663150b7a0262001806620014db565b8685856040518563ffffffff1660e01b81526004016200182a949392919062002cd5565b6020604051808303816000875af19250505080156200186957506040513d601f19601f8201168201806040525081019062001866919062002d40565b60015b620018f3573d80600081146200189c576040519150601f19603f3d011682016040523d82523d6000602084013e620018a1565b606091505b506000815103620018eb57836040517f64a0ae92000000000000000000000000000000000000000000000000000000008152600401620018e291906200204c565b60405180910390fd5b805181602001fd5b63150b7a0260e01b7bffffffffffffffffffffffffffffffffffffffffffffffffffffffff1916817bffffffffffffffffffffffffffffffffffffffffffffffffffffffff1916146200197f57836040517f64a0ae920000000000000000000000000000000000000000000000000000000081526004016200197691906200204c565b60405180910390fd5b505b50505050565b606060405180602001604052806000815250905090565b606060006001620019af8462001c85565b01905060008167ffffffffffffffff811115620019d157620019d0620022b3565b5b6040519080825280601f01601f19166020018201604052801562001a045781602001600182028036833780820191505090505b509050600082602001820190505b60011562001a6c578080600190039150507f3031323334353637383961626364656600000000000000000000000000000000600a86061a8153600a858162001a5f5762001a5e62002d72565b5b0494506000850362001a12575b819350505050919050565b60006003600083815260200190815260200160002060009054906101000a900473ffffffffffffffffffffffffffffffffffffffff169050919050565b808062001aee5750600073ffffffffffffffffffffffffffffffffffffffff168273ffffffffffffffffffffffffffffffffffffffff1614155b1562001c2d57600062001b018462001411565b9050600073ffffffffffffffffffffffffffffffffffffffff168373ffffffffffffffffffffffffffffffffffffffff161415801562001b6d57508273ffffffffffffffffffffffffffffffffffffffff168173ffffffffffffffffffffffffffffffffffffffff1614155b801562001b83575062001b81818462001196565b155b1562001bc857826040517fa9fbf51f00000000000000000000000000000000000000000000000000000000815260040162001bbf91906200204c565b60405180910390fd5b811562001c2b57838573ffffffffffffffffffffffffffffffffffffffff168273ffffffffffffffffffffffffffffffffffffffff167f8c5be1e5ebec7d5bd14f71427d1e84f3dd0314c0f7b2291e5b200ac8c7c3b92560405160405180910390a45b505b836005600085815260200190815260200160002060006101000a81548173ffffffffffffffffffffffffffffffffffffffff021916908373ffffffffffffffffffffffffffffffffffffffff16021790555050505050565b600080600090507a184f03e93ff9f4daa797ed6e38ed64bf6a1f010000000000000000831062001ce7577a184f03e93ff9f4daa797ed6e38ed64bf6a1f010000000000000000838162001cdd5762001cdc62002d72565b5b0492506040810190505b6d04ee2d6d415b85acef8100000000831062001d28576d04ee2d6d415b85acef8100000000838162001d1e5762001d1d62002d72565b5b0492506020810190505b662386f26fc10000831062001d5b57662386f26fc10000838162001d515762001d5062002d72565b5b0492506010810190505b6305f5e100831062001d88576305f5e100838162001d7e5762001d7d62002d72565b5b0492506008810190505b612710831062001db157612710838162001da75762001da662002d72565b5b0492506004810190505b6064831062001dd8576064838162001dce5762001dcd62002d72565b5b0492506002810190505b600a831062001de8576001810190505b80915050919050565b6126828062002da283390190565b6000604051905090565b600080fd5b600080fd5b60007fffffffff0000000000000000000000000000000000000000000000000000000082169050919050565b62001e4a8162001e13565b811462001e5657600080fd5b50565b60008135905062001e6a8162001e3f565b92915050565b60006020828403121562001e895762001e8862001e09565b5b600062001e998482850162001e59565b91505092915050565b60008115159050919050565b62001eb98162001ea2565b82525050565b600060208201905062001ed6600083018462001eae565b92915050565b600081519050919050565b600082825260208201905092915050565b60005b8381101562001f1857808201518184015260208101905062001efb565b60008484015250505050565b6000601f19601f8301169050919050565b600062001f428262001edc565b62001f4e818562001ee7565b935062001f6081856020860162001ef8565b62001f6b8162001f24565b840191505092915050565b6000602082019050818103600083015262001f92818462001f35565b905092915050565b6000819050919050565b62001faf8162001f9a565b811462001fbb57600080fd5b50565b60008135905062001fcf8162001fa4565b92915050565b60006020828403121562001fee5762001fed62001e09565b5b600062001ffe8482850162001fbe565b91505092915050565b600073ffffffffffffffffffffffffffffffffffffffff82169050919050565b6000620020348262002007565b9050919050565b620020468162002027565b82525050565b60006020820190506200206360008301846200203b565b92915050565b620020748162002027565b81146200208057600080fd5b50565b600081359050620020948162002069565b92915050565b60008060408385031215620020b457620020b362001e09565b5b6000620020c48582860162002083565b9250506020620020d78582860162001fbe565b9150509250929050565b6000819050919050565b620020f681620020e1565b82525050565b6000602082019050620021136000830184620020eb565b92915050565b60008060006060848603121562002135576200213462001e09565b5b6000620021458682870162002083565b9350506020620021588682870162001fbe565b92505060406200216b8682870162001fbe565b9150509250925092565b60008060006060848603121562002191576200219062001e09565b5b6000620021a18682870162002083565b9350506020620021b48682870162002083565b9250506040620021c78682870162001fbe565b9150509250925092565b600060208284031215620021ea57620021e962001e09565b5b6000620021fa8482850162002083565b91505092915050565b6200220e8162001f9a565b82525050565b60006020820190506200222b600083018462002203565b92915050565b6200223c8162001ea2565b81146200224857600080fd5b50565b6000813590506200225c8162002231565b92915050565b600080604083850312156200227c576200227b62001e09565b5b60006200228c8582860162002083565b92505060206200229f858286016200224b565b9150509250929050565b600080fd5b600080fd5b7f4e487b7100000000000000000000000000000000000000000000000000000000600052604160045260246000fd5b620022ed8262001f24565b810181811067ffffffffffffffff821117156200230f576200230e620022b3565b5b80604052505050565b60006200232462001dff565b9050620023328282620022e2565b919050565b600067ffffffffffffffff821115620023555762002354620022b3565b5b620023608262001f24565b9050602081019050919050565b82818337600083830152505050565b6000620023936200238d8462002337565b62002318565b905082815260208101848484011115620023b257620023b1620022ae565b5b620023bf8482856200236d565b509392505050565b600082601f830112620023df57620023de620022a9565b5b8135620023f18482602086016200237c565b91505092915050565b6000806000806080858703121562002417576200241662001e09565b5b6000620024278782880162002083565b94505060206200243a8782880162002083565b93505060406200244d8782880162001fbe565b925050606085013567ffffffffffffffff81111562002471576200247062001e0e565b5b6200247f87828801620023c7565b91505092959194509250565b6000819050919050565b6000620024b6620024b0620024aa8462002007565b6200248b565b62002007565b9050919050565b6000620024ca8262002495565b9050919050565b6000620024de82620024bd565b9050919050565b620024f081620024d1565b82525050565b60006020820190506200250d6000830184620024e5565b92915050565b600080604083850312156200252d576200252c62001e09565b5b60006200253d8582860162002083565b9250506020620025508582860162002083565b9150509250929050565b7f4e487b7100000000000000000000000000000000000000000000000000000000600052602260045260246000fd5b60006002820490506001821680620025a257607f821691505b602082108103620025b857620025b76200255a565b5b50919050565b600081519050620025cf8162002231565b92915050565b600060208284031215620025ee57620025ed62001e09565b5b6000620025fe84828501620025be565b91505092915050565b7f4e487b7100000000000000000000000000000000000000000000000000000000600052601160045260246000fd5b60006200264382620020e1565b91507f7fffffffffffffffffffffffffffffffffffffffffffffffffffffffffffffff820362002678576200267762002607565b5b600182019050919050565b7f436172644f776e6572736869703a20636f6c6c656374696f6e20646f6573206e60008201527f6f74206578697374000000000000000000000000000000000000000000000000602082015250565b6000620026e160288362001ee7565b9150620026ee8262002683565b604082019050919050565b600060208201905081810360008301526200271481620026d2565b9050919050565b60006040820190506200273260008301856200203b565b62002741602083018462002203565b9392505050565b7f436172644f776e6572736869703a207472616e73666572206f6620746f6b656e60008201527f2074686174206973206e6f74206f776e00000000000000000000000000000000602082015250565b6000620027a660308362001ee7565b9150620027b38262002748565b604082019050919050565b60006020820190508181036000830152620027d98162002797565b9050919050565b7f436172644f776e6572736869703a207472616e7366657220746f20746865207a60008201527f65726f2061646472657373000000000000000000000000000000000000000000602082015250565b60006200283e602b8362001ee7565b91506200284b82620027e0565b604082019050919050565b6000602082019050818103600083015262002871816200282f565b9050919050565b7f436172644f776e6572736869703a206361726420646f6573206e6f742065786960008201527f7374000000000000000000000000000000000000000000000000000000000000602082015250565b6000620028d660228362001ee7565b9150620028e38262002878565b604082019050919050565b600060208201905081810360008301526200290981620028c7565b9050919050565b60006200291d8262002027565b9050919050565b6200292f8162002910565b81146200293b57600080fd5b50565b6000815190506200294f8162002924565b92915050565b6000602082840312156200296e576200296d62001e09565b5b60006200297e848285016200293e565b91505092915050565b600081519050620029988162002069565b92915050565b600060208284031215620029b757620029b662001e09565b5b6000620029c78482850162002987565b91505092915050565b6000620029dd8262001f9a565b91507fffffffffffffffffffffffffffffffffffffffffffffffffffffffffffffffff820362002a125762002a1162002607565b5b600182019050919050565b60008151905062002a2e8162001fa4565b92915050565b60006020828403121562002a4d5762002a4c62001e09565b5b600062002a5d8482850162002a1d565b91505092915050565b600062002a738262001f9a565b915062002a808362001f9a565b925082820190508082111562002a9b5762002a9a62002607565b5b92915050565b7f57697a6172640000000000000000000000000000000000000000000000000000600082015250565b600062002ad960068362001ee7565b915062002ae68262002aa1565b602082019050919050565b6000819050919050565b600062002b1c62002b1662002b108462002af1565b6200248b565b62001f9a565b9050919050565b62002b2e8162002afb565b82525050565b6000604082019050818103600083015262002b4f8162002aca565b905062002b60602083018462002b23565b92915050565b7f68747470733a2f2f696d616765732e706f6b656d6f6e7463672e696f2f78793160008201527f2f312e706e670000000000000000000000000000000000000000000000000000602082015250565b600062002bc460268362001ee7565b915062002bd18262002b66565b604082019050919050565b600060408201905062002bf3600083018462002203565b818103602083015262002c068162002bb5565b905092915050565b600081905092915050565b600062002c268262001edc565b62002c32818562002c0e565b935062002c4481856020860162001ef8565b80840191505092915050565b600062002c5e828562002c19565b915062002c6c828462002c19565b91508190509392505050565b600081519050919050565b600082825260208201905092915050565b600062002ca18262002c78565b62002cad818562002c83565b935062002cbf81856020860162001ef8565b62002cca8162001f24565b840191505092915050565b600060808201905062002cec60008301876200203b565b62002cfb60208301866200203b565b62002d0a604083018562002203565b818103606083015262002d1e818462002c94565b905095945050505050565b60008151905062002d3a8162001e3f565b92915050565b60006020828403121562002d595762002d5862001e09565b5b600062002d698482850162002d29565b91505092915050565b7f4e487b7100000000000000000000000000000000000000000000000000000000600052601260045260246000fdfe60806040523480156200001157600080fd5b506040516200268238038062002682833981810160405281019062000037919062000226565b8160009081620000489190620004cd565b50806001819055505050620005b4565b6000604051905090565b600080fd5b600080fd5b600080fd5b600080fd5b6000601f19601f8301169050919050565b7f4e487b7100000000000000000000000000000000000000000000000000000000600052604160045260246000fd5b620000c18262000076565b810181811067ffffffffffffffff82111715620000e357620000e262000087565b5b80604052505050565b6000620000f862000058565b9050620001068282620000b6565b919050565b600067ffffffffffffffff82111562000129576200012862000087565b5b620001348262000076565b9050602081019050919050565b60005b838110156200016157808201518184015260208101905062000144565b60008484015250505050565b6000620001846200017e846200010b565b620000ec565b905082815260208101848484011115620001a357620001a262000071565b5b620001b084828562000141565b509392505050565b600082601f830112620001d057620001cf6200006c565b5b8151620001e28482602086016200016d565b91505092915050565b6000819050919050565b6200020081620001eb565b81146200020c57600080fd5b50565b6000815190506200022081620001f5565b92915050565b6000806040838503121562000240576200023f62000062565b5b600083015167ffffffffffffffff81111562000261576200026062000067565b5b6200026f85828601620001b8565b925050602062000282858286016200020f565b9150509250929050565b600081519050919050565b7f4e487b7100000000000000000000000000000000000000000000000000000000600052602260045260246000fd5b60006002820490506001821680620002df57607f821691505b602082108103620002f557620002f462000297565b5b50919050565b60008190508160005260206000209050919050565b60006020601f8301049050919050565b600082821b905092915050565b6000600883026200035f7fffffffffffffffffffffffffffffffffffffffffffffffffffffffffffffffff8262000320565b6200036b868362000320565b95508019841693508086168417925050509392505050565b6000819050919050565b6000620003ae620003a8620003a284620001eb565b62000383565b620001eb565b9050919050565b6000819050919050565b620003ca836200038d565b620003e2620003d982620003b5565b8484546200032d565b825550505050565b600090565b620003f9620003ea565b62000406818484620003bf565b505050565b5b818110156200042e5762000422600082620003ef565b6001810190506200040c565b5050565b601f8211156200047d576200044781620002fb565b620004528462000310565b8101602085101562000462578190505b6200047a620004718562000310565b8301826200040b565b50505b505050565b600082821c905092915050565b6000620004a26000198460080262000482565b1980831691505092915050565b6000620004bd83836200048f565b9150826002028217905092915050565b620004d8826200028c565b67ffffffffffffffff811115620004f457620004f362000087565b5b620005008254620002c6565b6200050d82828562000432565b600060209050601f83116001811462000545576000841562000530578287015190505b6200053c8582620004af565b865550620005ac565b601f1984166200055586620002fb565b60005b828110156200057f5784890151825560018201915060208501945060208101905062000558565b868310156200059f57848901516200059b601f8916826200048f565b8355505b6001600288020188555050505b505050505050565b6120be80620005c46000396000f3fe60806040523480156200001157600080fd5b5060043610620000e25760003560e01c806370a0823111620000995780639188d312116200006f5780639188d3121462000251578063a9aa75ef1462000287578063aa93d70214620002bd578063f92906ff14620002dd57620000e2565b806370a0823114620001c35780637d62013014620001f95780638dc10768146200021b57620000e2565b806306fdde0314620000e757806317d7de7c14620001095780631b6cde10146200012b57806340c10f19146200014d5780636352211e146200016d5780636a62784214620001a3575b600080fd5b620000f1620002fd565b60405162000100919062000dc6565b60405180910390f35b6200011362000393565b60405162000122919062000dc6565b60405180910390f35b620001356200042d565b60405162000144919062000e05565b60405180910390f35b6200016b600480360381019062000165919062000ecc565b62000433565b005b6200018b600480360381019062000185919062000f13565b6200068e565b6040516200019a919062000f56565b60405180910390f35b620001c16004803603810190620001bb919062000f73565b62000818565b005b620001e16004803603810190620001db919062000f73565b620009c1565b604051620001f0919062000e05565b60405180910390f35b6200020362000adf565b60405162000212919062000e05565b60405180910390f35b62000239600480360381019062000233919062000f13565b62000ae9565b60405162000248919062001010565b60405180910390f35b6200026f600480360381019062000269919062000f13565b62000b1c565b6040516200027e919062001010565b60405180910390f35b620002a560048036038101906200029f919062000f13565b62000b59565b604051620002b491906200104a565b60405180910390f35b620002db6004803603810190620002d59190620011b8565b62000c44565b005b620002fb6004803603810190620002f5919062000ecc565b62000cec565b005b600080546200030c906200124d565b80601f01602080910402602001604051908101604052809291908181526020018280546200033a906200124d565b80156200038b5780601f106200035f576101008083540402835291602001916200038b565b820191906000526020600020905b8154815290600101906020018083116200036d57829003601f168201915b505050505081565b606060008054620003a4906200124d565b80601f0160208091040260200160405190810160405280929190818152602001828054620003d2906200124d565b8015620004235780601f10620003f75761010080835404028352916020019162000423565b820191906000526020600020905b8154815290600101906020018083116200040557829003601f168201915b5050505050905090565b60015481565b60005b6001548110156200068957600073ffffffffffffffffffffffffffffffffffffffff166002600083815260200190815260200160002060009054906101000a900473ffffffffffffffffffffffffffffffffffffffff1673ffffffffffffffffffffffffffffffffffffffff16638da5cb5b6040518163ffffffff1660e01b8152600401602060405180830381865afa158015620004d8573d6000803e3d6000fd5b505050506040513d601f19601f82011682018060405250810190620004fe919062001299565b73ffffffffffffffffffffffffffffffffffffffff16148015620005c55750816002600083815260200190815260200160002060009054906101000a900473ffffffffffffffffffffffffffffffffffffffff1673ffffffffffffffffffffffffffffffffffffffff16635d1ca6316040518163ffffffff1660e01b8152600401602060405180830381865afa1580156200059d573d6000803e3d6000fd5b505050506040513d601f19601f82011682018060405250810190620005c39190620012e2565b145b1562000673576002600082815260200190815260200160002060009054906101000a900473ffffffffffffffffffffffffffffffffffffffff1673ffffffffffffffffffffffffffffffffffffffff1663f2fde38b846040518263ffffffff1660e01b815260040162000639919062000f56565b600060405180830381600087803b1580156200065457600080fd5b505af115801562000669573d6000803e3d6000fd5b5050505062000689565b8080620006809062001343565b91505062000436565b505050565b600080600090505b6001548110156200081157826002600083815260200190815260200160002060009054906101000a900473ffffffffffffffffffffffffffffffffffffffff1673ffffffffffffffffffffffffffffffffffffffff16635d1ca6316040518163ffffffff1660e01b8152600401602060405180830381865afa15801562000721573d6000803e3d6000fd5b505050506040513d601f19601f82011682018060405250810190620007479190620012e2565b03620007fb576002600082815260200190815260200160002060009054906101000a900473ffffffffffffffffffffffffffffffffffffffff1673ffffffffffffffffffffffffffffffffffffffff16638da5cb5b6040518163ffffffff1660e01b8152600401602060405180830381865afa158015620007cc573d6000803e3d6000fd5b505050506040513d601f19601f82011682018060405250810190620007f2919062001299565b91505062000813565b8080620008089062001343565b91505062000696565b505b919050565b60005b600154811015620009bd57600073ffffffffffffffffffffffffffffffffffffffff166002600083815260200190815260200160002060009054906101000a900473ffffffffffffffffffffffffffffffffffffffff1673ffffffffffffffffffffffffffffffffffffffff16638da5cb5b6040518163ffffffff1660e01b8152600401602060405180830381865afa158015620008bd573d6000803e3d6000fd5b505050506040513d601f19601f82011682018060405250810190620008e3919062001299565b73ffffffffffffffffffffffffffffffffffffffff1603620009a7576002600082815260200190815260200160002060009054906101000a900473ffffffffffffffffffffffffffffffffffffffff1673ffffffffffffffffffffffffffffffffffffffff1663f2fde38b836040518263ffffffff1660e01b81526004016200096d919062000f56565b600060405180830381600087803b1580156200098857600080fd5b505af11580156200099d573d6000803e3d6000fd5b50505050620009bd565b8080620009b49062001343565b9150506200081b565b5050565b6000806000905060005b60015481101562000ad5578373ffffffffffffffffffffffffffffffffffffffff166002600083815260200190815260200160002060009054906101000a900473ffffffffffffffffffffffffffffffffffffffff1673ffffffffffffffffffffffffffffffffffffffff16638da5cb5b6040518163ffffffff1660e01b8152600401602060405180830381865afa15801562000a6c573d6000803e3d6000fd5b505050506040513d601f19601f8201168201806040525081019062000a92919062001299565b73ffffffffffffffffffffffffffffffffffffffff160362000abf57818062000abb9062001343565b9250505b808062000acc9062001343565b915050620009cb565b5080915050919050565b6000600154905090565b60026020528060005260406000206000915054906101000a900473ffffffffffffffffffffffffffffffffffffffff1681565b60006002600083815260200190815260200160002060009054906101000a900473ffffffffffffffffffffffffffffffffffffffff169050919050565b600080600090505b60015481101562000c3957826002600083815260200190815260200160002060009054906101000a900473ffffffffffffffffffffffffffffffffffffffff1673ffffffffffffffffffffffffffffffffffffffff16635d1ca6316040518163ffffffff1660e01b8152600401602060405180830381865afa15801562000bec573d6000803e3d6000fd5b505050506040513d601f19601f8201168201806040525081019062000c129190620012e2565b0362000c2357600191505062000c3f565b808062000c309062001343565b91505062000b61565b50600090505b919050565b818160405162000c549062000d1e565b62000c6192919062001390565b604051809103906000f08015801562000c7e573d6000803e3d6000fd5b50600260006001600081548092919062000c989062001343565b91905055815260200190815260200160002060006101000a81548173ffffffffffffffffffffffffffffffffffffffff021916908373ffffffffffffffffffffffffffffffffffffffff1602179055505050565b60005b8181101562000d195762000d038362000818565b808062000d109062001343565b91505062000cef565b505050565b610cc480620013c583390190565b600081519050919050565b600082825260208201905092915050565b60005b8381101562000d6857808201518184015260208101905062000d4b565b60008484015250505050565b6000601f19601f8301169050919050565b600062000d928262000d2c565b62000d9e818562000d37565b935062000db081856020860162000d48565b62000dbb8162000d74565b840191505092915050565b6000602082019050818103600083015262000de2818462000d85565b905092915050565b6000819050919050565b62000dff8162000dea565b82525050565b600060208201905062000e1c600083018462000df4565b92915050565b6000604051905090565b600080fd5b600080fd5b600073ffffffffffffffffffffffffffffffffffffffff82169050919050565b600062000e638262000e36565b9050919050565b62000e758162000e56565b811462000e8157600080fd5b50565b60008135905062000e958162000e6a565b92915050565b62000ea68162000dea565b811462000eb257600080fd5b50565b60008135905062000ec68162000e9b565b92915050565b6000806040838503121562000ee65762000ee562000e2c565b5b600062000ef68582860162000e84565b925050602062000f098582860162000eb5565b9150509250929050565b60006020828403121562000f2c5762000f2b62000e2c565b5b600062000f3c8482850162000eb5565b91505092915050565b62000f508162000e56565b82525050565b600060208201905062000f6d600083018462000f45565b92915050565b60006020828403121562000f8c5762000f8b62000e2c565b5b600062000f9c8482850162000e84565b91505092915050565b6000819050919050565b600062000fd062000fca62000fc48462000e36565b62000fa5565b62000e36565b9050919050565b600062000fe48262000faf565b9050919050565b600062000ff88262000fd7565b9050919050565b6200100a8162000feb565b82525050565b600060208201905062001027600083018462000fff565b92915050565b60008115159050919050565b62001044816200102d565b82525050565b600060208201905062001061600083018462001039565b92915050565b600080fd5b600080fd5b7f4e487b7100000000000000000000000000000000000000000000000000000000600052604160045260246000fd5b620010ab8262000d74565b810181811067ffffffffffffffff82111715620010cd57620010cc62001071565b5b80604052505050565b6000620010e262000e22565b9050620010f08282620010a0565b919050565b600067ffffffffffffffff82111562001113576200111262001071565b5b6200111e8262000d74565b9050602081019050919050565b82818337600083830152505050565b6000620011516200114b84620010f5565b620010d6565b90508281526020810184848401111562001170576200116f6200106c565b5b6200117d8482856200112b565b509392505050565b600082601f8301126200119d576200119c62001067565b5b8135620011af8482602086016200113a565b91505092915050565b60008060408385031215620011d257620011d162000e2c565b5b6000620011e28582860162000eb5565b925050602083013567ffffffffffffffff81111562001206576200120562000e31565b5b620012148582860162001185565b9150509250929050565b7f4e487b7100000000000000000000000000000000000000000000000000000000600052602260045260246000fd5b600060028204905060018216806200126657607f821691505b6020821081036200127c576200127b6200121e565b5b50919050565b600081519050620012938162000e6a565b92915050565b600060208284031215620012b257620012b162000e2c565b5b6000620012c28482850162001282565b91505092915050565b600081519050620012dc8162000e9b565b92915050565b600060208284031215620012fb57620012fa62000e2c565b5b60006200130b84828501620012cb565b91505092915050565b7f4e487b7100000000000000000000000000000000000000000000000000000000600052601160045260246000fd5b6000620013508262000dea565b91507fffffffffffffffffffffffffffffffffffffffffffffffffffffffffffffffff820362001385576200138462001314565b5b600182019050919050565b6000604082019050620013a7600083018562000df4565b8181036020830152620013bb818462000d85565b9050939250505056fe60806040523480156200001157600080fd5b5060405162000cc438038062000cc4833981810160405281019062000037919062000372565b33600073ffffffffffffffffffffffffffffffffffffffff168173ffffffffffffffffffffffffffffffffffffffff1603620000ad5760006040517f1e4fbdf7000000000000000000000000000000000000000000000000000000008152600401620000a491906200041d565b60405180910390fd5b620000be81620000e060201b60201c565b50816001819055508060029081620000d791906200067b565b50505062000762565b60008060009054906101000a900473ffffffffffffffffffffffffffffffffffffffff169050816000806101000a81548173ffffffffffffffffffffffffffffffffffffffff021916908373ffffffffffffffffffffffffffffffffffffffff1602179055508173ffffffffffffffffffffffffffffffffffffffff168173ffffffffffffffffffffffffffffffffffffffff167f8be0079c531659141344cd1fd0a4f28419497f9722a3daafe3b4186f6b6457e060405160405180910390a35050565b6000604051905090565b600080fd5b600080fd5b6000819050919050565b620001cd81620001b8565b8114620001d957600080fd5b50565b600081519050620001ed81620001c2565b92915050565b600080fd5b600080fd5b6000601f19601f8301169050919050565b7f4e487b7100000000000000000000000000000000000000000000000000000000600052604160045260246000fd5b6200024882620001fd565b810181811067ffffffffffffffff821117156200026a57620002696200020e565b5b80604052505050565b60006200027f620001a4565b90506200028d82826200023d565b919050565b600067ffffffffffffffff821115620002b057620002af6200020e565b5b620002bb82620001fd565b9050602081019050919050565b60005b83811015620002e8578082015181840152602081019050620002cb565b60008484015250505050565b60006200030b620003058462000292565b62000273565b9050828152602081018484840111156200032a5762000329620001f8565b5b62000337848285620002c8565b509392505050565b600082601f830112620003575762000356620001f3565b5b815162000369848260208601620002f4565b91505092915050565b600080604083850312156200038c576200038b620001ae565b5b60006200039c85828601620001dc565b925050602083015167ffffffffffffffff811115620003c057620003bf620001b3565b5b620003ce858286016200033f565b9150509250929050565b600073ffffffffffffffffffffffffffffffffffffffff82169050919050565b60006200040582620003d8565b9050919050565b6200041781620003f8565b82525050565b60006020820190506200043460008301846200040c565b92915050565b600081519050919050565b7f4e487b7100000000000000000000000000000000000000000000000000000000600052602260045260246000fd5b600060028204905060018216806200048d57607f821691505b602082108103620004a357620004a262000445565b5b50919050565b60008190508160005260206000209050919050565b60006020601f8301049050919050565b600082821b905092915050565b6000600883026200050d7fffffffffffffffffffffffffffffffffffffffffffffffffffffffffffffffff82620004ce565b620005198683620004ce565b95508019841693508086168417925050509392505050565b6000819050919050565b60006200055c620005566200055084620001b8565b62000531565b620001b8565b9050919050565b6000819050919050565b62000578836200053b565b62000590620005878262000563565b848454620004db565b825550505050565b600090565b620005a762000598565b620005b48184846200056d565b505050565b5b81811015620005dc57620005d06000826200059d565b600181019050620005ba565b5050565b601f8211156200062b57620005f581620004a9565b6200060084620004be565b8101602085101562000610578190505b620006286200061f85620004be565b830182620005b9565b50505b505050565b600082821c905092915050565b6000620006506000198460080262000630565b1980831691505092915050565b60006200066b83836200063d565b9150826002028217905092915050565b62000686826200043a565b67ffffffffffffffff811115620006a257620006a16200020e565b5b620006ae825462000474565b620006bb828285620005e0565b600060209050601f831160018114620006f35760008415620006de578287015190505b620006ea85826200065d565b8655506200075a565b601f1984166200070386620004a9565b60005b828110156200072d5784890151825560018201915060208501945060208101905062000706565b868310156200074d578489015162000749601f8916826200063d565b8355505b6001600288020188555050505b505050505050565b61055280620007726000396000f3fe608060405234801561001057600080fd5b50600436106100575760003560e01c80635d1ca6311461005c578063715018a61461007a5780637802dff5146100845780638da5cb5b146100a2578063f2fde38b146100c0575b600080fd5b6100646100dc565b6040516100719190610335565b60405180910390f35b6100826100e6565b005b61008c6100fa565b60405161009991906103e0565b60405180910390f35b6100aa61018c565b6040516100b79190610443565b60405180910390f35b6100da60048036038101906100d5919061048f565b6101b5565b005b6000600154905090565b6100ee6101c9565b6100f86000610250565b565b606060028054610109906104eb565b80601f0160208091040260200160405190810160405280929190818152602001828054610135906104eb565b80156101825780601f1061015757610100808354040283529160200191610182565b820191906000526020600020905b81548152906001019060200180831161016557829003601f168201915b5050505050905090565b60008060009054906101000a900473ffffffffffffffffffffffffffffffffffffffff16905090565b6101bd6101c9565b6101c6816101b5565b50565b6101d1610314565b73ffffffffffffffffffffffffffffffffffffffff166101ef61018c565b73ffffffffffffffffffffffffffffffffffffffff161461024e57610212610314565b6040517f118cdaa70000000000000000000000000000000000000000000000000000000081526004016102459190610443565b60405180910390fd5b565b60008060009054906101000a900473ffffffffffffffffffffffffffffffffffffffff169050816000806101000a81548173ffffffffffffffffffffffffffffffffffffffff021916908373ffffffffffffffffffffffffffffffffffffffff1602179055508173ffffffffffffffffffffffffffffffffffffffff168173ffffffffffffffffffffffffffffffffffffffff167f8be0079c531659141344cd1fd0a4f28419497f9722a3daafe3b4186f6b6457e060405160405180910390a35050565b600033905090565b6000819050919050565b61032f8161031c565b82525050565b600060208201905061034a6000830184610326565b92915050565b600081519050919050565b600082825260208201905092915050565b60005b8381101561038a57808201518184015260208101905061036f565b60008484015250505050565b6000601f19601f8301169050919050565b60006103b282610350565b6103bc818561035b565b93506103cc81856020860161036c565b6103d581610396565b840191505092915050565b600060208201905081810360008301526103fa81846103a7565b905092915050565b600073ffffffffffffffffffffffffffffffffffffffff82169050919050565b600061042d82610402565b9050919050565b61043d81610422565b82525050565b60006020820190506104586000830184610434565b92915050565b600080fd5b61046c81610422565b811461047757600080fd5b50565b60008135905061048981610463565b92915050565b6000602082840312156104a5576104a461045e565b5b60006104b38482850161047a565b91505092915050565b7f4e487b7100000000000000000000000000000000000000000000000000000000600052602260045260246000fd5b6000600282049050600182168061050357607f821691505b602082108103610516576105156104bc565b5b5091905056fea2646970667358221220c9055a330222893d1592b6ba51a425feae93b76700fc1cf31e7c593035fd370d64736f6c63430008140033a26469706673582212205d2eff3a6afb4b31ee29993c53541514f33fc14b38083eaf5bce9a1d25c8f49864736f6c63430008140033a2646970667358221220974c1b1e283699d1092638977022efdd9a344c631bba1f504bea576eab8d648164736f6c63430008140033","opcodes":"PUSH1 0x80 PUSH1 0x40 MSTORE CALLVALUE DUP1 ISZERO PUSH3 0x11 JUMPI PUSH1 0x0 DUP1 REVERT JUMPDEST POP PUSH1 0x40 MLOAD DUP1 PUSH1 0x40 ADD PUSH1 0x40 MSTORE DUP1 PUSH1 0x4 DUP2 MSTORE PUSH1 0x20 ADD PUSH32 0x4361726400000000000000000000000000000000000000000000000000000000 DUP2 MSTORE POP PUSH1 0x40 MLOAD DUP1 PUSH1 0x40 ADD PUSH1 0x40 MSTORE DUP1 PUSH1 0x4 DUP2 MSTORE PUSH1 0x20 ADD PUSH32 0x4341524400000000000000000000000000000000000000000000000000000000 DUP2 MSTORE POP CALLER PUSH1 0x0 PUSH20 0xFFFFFFFFFFFFFFFFFFFFFFFFFFFFFFFFFFFFFFFF AND DUP2 PUSH20 0xFFFFFFFFFFFFFFFFFFFFFFFFFFFFFFFFFFFFFFFF AND SUB PUSH3 0xF4 JUMPI PUSH1 0x0 PUSH1 0x40 MLOAD PUSH32 0x1E4FBDF700000000000000000000000000000000000000000000000000000000 DUP2 MSTORE PUSH1 0x4 ADD PUSH3 0xEB SWAP2 SWAP1 PUSH3 0x23B JUMP JUMPDEST PUSH1 0x40 MLOAD DUP1 SWAP2 SUB SWAP1 REVERT JUMPDEST PUSH3 0x105 DUP2 PUSH3 0x132 PUSH1 0x20 SHL PUSH1 0x20 SHR JUMP JUMPDEST POP DUP2 PUSH1 0x1 SWAP1 DUP2 PUSH3 0x117 SWAP2 SWAP1 PUSH3 0x4D2 JUMP JUMPDEST POP DUP1 PUSH1 0x2 SWAP1 DUP2 PUSH3 0x129 SWAP2 SWAP1 PUSH3 0x4D2 JUMP JUMPDEST POP POP POP PUSH3 0x5B9 JUMP JUMPDEST PUSH1 0x0 DUP1 PUSH1 0x0 SWAP1 SLOAD SWAP1 PUSH2 0x100 EXP SWAP1 DIV PUSH20 0xFFFFFFFFFFFFFFFFFFFFFFFFFFFFFFFFFFFFFFFF AND SWAP1 POP DUP2 PUSH1 0x0 DUP1 PUSH2 0x100 EXP DUP2 SLOAD DUP2 PUSH20 0xFFFFFFFFFFFFFFFFFFFFFFFFFFFFFFFFFFFFFFFF MUL NOT AND SWAP1 DUP4 PUSH20 0xFFFFFFFFFFFFFFFFFFFFFFFFFFFFFFFFFFFFFFFF AND MUL OR SWAP1 SSTORE POP DUP2 PUSH20 0xFFFFFFFFFFFFFFFFFFFFFFFFFFFFFFFFFFFFFFFF AND DUP2 PUSH20 0xFFFFFFFFFFFFFFFFFFFFFFFFFFFFFFFFFFFFFFFF AND PUSH32 0x8BE0079C531659141344CD1FD0A4F28419497F9722A3DAAFE3B4186F6B6457E0 PUSH1 0x40 MLOAD PUSH1 0x40 MLOAD DUP1 SWAP2 SUB SWAP1 LOG3 POP POP JUMP JUMPDEST PUSH1 0x0 PUSH20 0xFFFFFFFFFFFFFFFFFFFFFFFFFFFFFFFFFFFFFFFF DUP3 AND SWAP1 POP SWAP2 SWAP1 POP JUMP JUMPDEST PUSH1 0x0 PUSH3 0x223 DUP3 PUSH3 0x1F6 JUMP JUMPDEST SWAP1 POP SWAP2 SWAP1 POP JUMP JUMPDEST PUSH3 0x235 DUP2 PUSH3 0x216 JUMP JUMPDEST DUP3 MSTORE POP POP JUMP JUMPDEST PUSH1 0x0 PUSH1 0x20 DUP3 ADD SWAP1 POP PUSH3 0x252 PUSH1 0x0 DUP4 ADD DUP5 PUSH3 0x22A JUMP JUMPDEST SWAP3 SWAP2 POP POP JUMP JUMPDEST PUSH1 0x0 DUP2 MLOAD SWAP1 POP SWAP2 SWAP1 POP JUMP JUMPDEST PUSH32 0x4E487B7100000000000000000000000000000000000000000000000000000000 PUSH1 0x0 MSTORE PUSH1 0x41 PUSH1 0x4 MSTORE PUSH1 0x24 PUSH1 0x0 REVERT JUMPDEST PUSH32 0x4E487B7100000000000000000000000000000000000000000000000000000000 PUSH1 0x0 MSTORE PUSH1 0x22 PUSH1 0x4 MSTORE PUSH1 0x24 PUSH1 0x0 REVERT JUMPDEST PUSH1 0x0 PUSH1 0x2 DUP3 DIV SWAP1 POP PUSH1 0x1 DUP3 AND DUP1 PUSH3 0x2DA JUMPI PUSH1 0x7F DUP3 AND SWAP2 POP JUMPDEST PUSH1 0x20 DUP3 LT DUP2 SUB PUSH3 0x2F0 JUMPI PUSH3 0x2EF PUSH3 0x292 JUMP JUMPDEST JUMPDEST POP SWAP2 SWAP1 POP JUMP JUMPDEST PUSH1 0x0 DUP2 SWAP1 POP DUP2 PUSH1 0x0 MSTORE PUSH1 0x20 PUSH1 0x0 KECCAK256 SWAP1 POP SWAP2 SWAP1 POP JUMP JUMPDEST PUSH1 0x0 PUSH1 0x20 PUSH1 0x1F DUP4 ADD DIV SWAP1 POP SWAP2 SWAP1 POP JUMP JUMPDEST PUSH1 0x0 DUP3 DUP3 SHL SWAP1 POP SWAP3 SWAP2 POP POP JUMP JUMPDEST PUSH1 0x0 PUSH1 0x8 DUP4 MUL PUSH3 0x35A PUSH32 0xFFFFFFFFFFFFFFFFFFFFFFFFFFFFFFFFFFFFFFFFFFFFFFFFFFFFFFFFFFFFFFFF DUP3 PUSH3 0x31B JUMP JUMPDEST PUSH3 0x366 DUP7 DUP4 PUSH3 0x31B JUMP JUMPDEST SWAP6 POP DUP1 NOT DUP5 AND SWAP4 POP DUP1 DUP7 AND DUP5 OR SWAP3 POP POP POP SWAP4 SWAP3 POP POP POP JUMP JUMPDEST PUSH1 0x0 DUP2 SWAP1 POP SWAP2 SWAP1 POP JUMP JUMPDEST PUSH1 0x0 DUP2 SWAP1 POP SWAP2 SWAP1 POP JUMP JUMPDEST PUSH1 0x0 PUSH3 0x3B3 PUSH3 0x3AD PUSH3 0x3A7 DUP5 PUSH3 0x37E JUMP JUMPDEST PUSH3 0x388 JUMP JUMPDEST PUSH3 0x37E JUMP JUMPDEST SWAP1 POP SWAP2 SWAP1 POP JUMP JUMPDEST PUSH1 0x0 DUP2 SWAP1 POP SWAP2 SWAP1 POP JUMP JUMPDEST PUSH3 0x3CF DUP4 PUSH3 0x392 JUMP JUMPDEST PUSH3 0x3E7 PUSH3 0x3DE DUP3 PUSH3 0x3BA JUMP JUMPDEST DUP5 DUP5 SLOAD PUSH3 0x328 JUMP JUMPDEST DUP3 SSTORE POP POP POP POP JUMP JUMPDEST PUSH1 0x0 SWAP1 JUMP JUMPDEST PUSH3 0x3FE PUSH3 0x3EF JUMP JUMPDEST PUSH3 0x40B DUP2 DUP5 DUP5 PUSH3 0x3C4 JUMP JUMPDEST POP POP POP JUMP JUMPDEST JUMPDEST DUP2 DUP2 LT ISZERO PUSH3 0x433 JUMPI PUSH3 0x427 PUSH1 0x0 DUP3 PUSH3 0x3F4 JUMP JUMPDEST PUSH1 0x1 DUP2 ADD SWAP1 POP PUSH3 0x411 JUMP JUMPDEST POP POP JUMP JUMPDEST PUSH1 0x1F DUP3 GT ISZERO PUSH3 0x482 JUMPI PUSH3 0x44C DUP2 PUSH3 0x2F6 JUMP JUMPDEST PUSH3 0x457 DUP5 PUSH3 0x30B JUMP JUMPDEST DUP2 ADD PUSH1 0x20 DUP6 LT ISZERO PUSH3 0x467 JUMPI DUP2 SWAP1 POP JUMPDEST PUSH3 0x47F PUSH3 0x476 DUP6 PUSH3 0x30B JUMP JUMPDEST DUP4 ADD DUP3 PUSH3 0x410 JUMP JUMPDEST POP POP JUMPDEST POP POP POP JUMP JUMPDEST PUSH1 0x0 DUP3 DUP3 SHR SWAP1 POP SWAP3 SWAP2 POP POP JUMP JUMPDEST PUSH1 0x0 PUSH3 0x4A7 PUSH1 0x0 NOT DUP5 PUSH1 0x8 MUL PUSH3 0x487 JUMP JUMPDEST NOT DUP1 DUP4 AND SWAP2 POP POP SWAP3 SWAP2 POP POP JUMP JUMPDEST PUSH1 0x0 PUSH3 0x4C2 DUP4 DUP4 PUSH3 0x494 JUMP JUMPDEST SWAP2 POP DUP3 PUSH1 0x2 MUL DUP3 OR SWAP1 POP SWAP3 SWAP2 POP POP JUMP JUMPDEST PUSH3 0x4DD DUP3 PUSH3 0x258 JUMP JUMPDEST PUSH8 0xFFFFFFFFFFFFFFFF DUP2 GT ISZERO PUSH3 0x4F9 JUMPI PUSH3 0x4F8 PUSH3 0x263 JUMP JUMPDEST JUMPDEST PUSH3 0x505 DUP3 SLOAD PUSH3 0x2C1 JUMP JUMPDEST PUSH3 0x512 DUP3 DUP3 DUP6 PUSH3 0x437 JUMP JUMPDEST PUSH1 0x0 PUSH1 0x20 SWAP1 POP PUSH1 0x1F DUP4 GT PUSH1 0x1 DUP2 EQ PUSH3 0x54A JUMPI PUSH1 0x0 DUP5 ISZERO PUSH3 0x535 JUMPI DUP3 DUP8 ADD MLOAD SWAP1 POP JUMPDEST PUSH3 0x541 DUP6 DUP3 PUSH3 0x4B4 JUMP JUMPDEST DUP7 SSTORE POP PUSH3 0x5B1 JUMP JUMPDEST PUSH1 0x1F NOT DUP5 AND PUSH3 0x55A DUP7 PUSH3 0x2F6 JUMP JUMPDEST PUSH1 0x0 JUMPDEST DUP3 DUP2 LT ISZERO PUSH3 0x584 JUMPI DUP5 DUP10 ADD MLOAD DUP3 SSTORE PUSH1 0x1 DUP3 ADD SWAP2 POP PUSH1 0x20 DUP6 ADD SWAP5 POP PUSH1 0x20 DUP2 ADD SWAP1 POP PUSH3 0x55D JUMP JUMPDEST DUP7 DUP4 LT ISZERO PUSH3 0x5A4 JUMPI DUP5 DUP10 ADD MLOAD PUSH3 0x5A0 PUSH1 0x1F DUP10 AND DUP3 PUSH3 0x494 JUMP JUMPDEST DUP4 SSTORE POP JUMPDEST PUSH1 0x1 PUSH1 0x2 DUP9 MUL ADD DUP9 SSTORE POP POP POP JUMPDEST POP POP POP POP POP POP JUMP JUMPDEST PUSH2 0x5459 DUP1 PUSH3 0x5C9 PUSH1 0x0 CODECOPY PUSH1 0x0 RETURN INVALID PUSH1 0x80 PUSH1 0x40 MSTORE CALLVALUE DUP1 ISZERO PUSH3 0x11 JUMPI PUSH1 0x0 DUP1 REVERT JUMPDEST POP PUSH1 0x4 CALLDATASIZE LT PUSH3 0x160 JUMPI PUSH1 0x0 CALLDATALOAD PUSH1 0xE0 SHR DUP1 PUSH4 0x8DA5CB5B GT PUSH3 0xC9 JUMPI DUP1 PUSH4 0xBF874103 GT PUSH3 0x87 JUMPI DUP1 PUSH4 0xBF874103 EQ PUSH3 0x3DB JUMPI DUP1 PUSH4 0xC87B56DD EQ PUSH3 0x411 JUMPI DUP1 PUSH4 0xD57F966B EQ PUSH3 0x447 JUMPI DUP1 PUSH4 0xE985E9C5 EQ PUSH3 0x469 JUMPI DUP1 PUSH4 0xF2FDE38B EQ PUSH3 0x49F JUMPI DUP1 PUSH4 0xF7374D11 EQ PUSH3 0x4BF JUMPI PUSH3 0x160 JUMP JUMPDEST DUP1 PUSH4 0x8DA5CB5B EQ PUSH3 0x321 JUMPI DUP1 PUSH4 0x95D89B41 EQ PUSH3 0x343 JUMPI DUP1 PUSH4 0xA22CB465 EQ PUSH3 0x365 JUMPI DUP1 PUSH4 0xB88D4FDE EQ PUSH3 0x385 JUMPI DUP1 PUSH4 0xBC4F6DEF EQ PUSH3 0x3A5 JUMPI PUSH3 0x160 JUMP JUMPDEST DUP1 PUSH4 0x156E29F6 GT PUSH3 0x123 JUMPI DUP1 PUSH4 0x156E29F6 EQ PUSH3 0x249 JUMPI DUP1 PUSH4 0x23B872DD EQ PUSH3 0x269 JUMPI DUP1 PUSH4 0x42842E0E EQ PUSH3 0x289 JUMPI DUP1 PUSH4 0x6352211E EQ PUSH3 0x2A9 JUMPI DUP1 PUSH4 0x70A08231 EQ PUSH3 0x2DF JUMPI DUP1 PUSH4 0x715018A6 EQ PUSH3 0x315 JUMPI PUSH3 0x160 JUMP JUMPDEST DUP1 PUSH4 0x1FFC9A7 EQ PUSH3 0x165 JUMPI DUP1 PUSH4 0x6FDDE03 EQ PUSH3 0x19B JUMPI DUP1 PUSH4 0x81812FC EQ PUSH3 0x1BD JUMPI DUP1 PUSH4 0x95EA7B3 EQ PUSH3 0x1F3 JUMPI DUP1 PUSH4 0xABC4A78 EQ PUSH3 0x213 JUMPI JUMPDEST PUSH1 0x0 DUP1 REVERT JUMPDEST PUSH3 0x183 PUSH1 0x4 DUP1 CALLDATASIZE SUB DUP2 ADD SWAP1 PUSH3 0x17D SWAP2 SWAP1 PUSH3 0x1E70 JUMP JUMPDEST PUSH3 0x4DF JUMP JUMPDEST PUSH1 0x40 MLOAD PUSH3 0x192 SWAP2 SWAP1 PUSH3 0x1EBF JUMP JUMPDEST PUSH1 0x40 MLOAD DUP1 SWAP2 SUB SWAP1 RETURN JUMPDEST PUSH3 0x1A5 PUSH3 0x5C5 JUMP JUMPDEST PUSH1 0x40 MLOAD PUSH3 0x1B4 SWAP2 SWAP1 PUSH3 0x1F76 JUMP JUMPDEST PUSH1 0x40 MLOAD DUP1 SWAP2 SUB SWAP1 RETURN JUMPDEST PUSH3 0x1DB PUSH1 0x4 DUP1 CALLDATASIZE SUB DUP2 ADD SWAP1 PUSH3 0x1D5 SWAP2 SWAP1 PUSH3 0x1FD5 JUMP JUMPDEST PUSH3 0x65F JUMP JUMPDEST PUSH1 0x40 MLOAD PUSH3 0x1EA SWAP2 SWAP1 PUSH3 0x204C JUMP JUMPDEST PUSH1 0x40 MLOAD DUP1 SWAP2 SUB SWAP1 RETURN JUMPDEST PUSH3 0x211 PUSH1 0x4 DUP1 CALLDATASIZE SUB DUP2 ADD SWAP1 PUSH3 0x20B SWAP2 SWAP1 PUSH3 0x209A JUMP JUMPDEST PUSH3 0x67F JUMP JUMPDEST STOP JUMPDEST PUSH3 0x231 PUSH1 0x4 DUP1 CALLDATASIZE SUB DUP2 ADD SWAP1 PUSH3 0x22B SWAP2 SWAP1 PUSH3 0x1FD5 JUMP JUMPDEST PUSH3 0x699 JUMP JUMPDEST PUSH1 0x40 MLOAD PUSH3 0x240 SWAP2 SWAP1 PUSH3 0x20FC JUMP JUMPDEST PUSH1 0x40 MLOAD DUP1 SWAP2 SUB SWAP1 RETURN JUMPDEST PUSH3 0x267 PUSH1 0x4 DUP1 CALLDATASIZE SUB DUP2 ADD SWAP1 PUSH3 0x261 SWAP2 SWAP1 PUSH3 0x2119 JUMP JUMPDEST PUSH3 0x7AE JUMP JUMPDEST STOP JUMPDEST PUSH3 0x287 PUSH1 0x4 DUP1 CALLDATASIZE SUB DUP2 ADD SWAP1 PUSH3 0x281 SWAP2 SWAP1 PUSH3 0x2175 JUMP JUMPDEST PUSH3 0x89E JUMP JUMPDEST STOP JUMPDEST PUSH3 0x2A7 PUSH1 0x4 DUP1 CALLDATASIZE SUB DUP2 ADD SWAP1 PUSH3 0x2A1 SWAP2 SWAP1 PUSH3 0x2175 JUMP JUMPDEST PUSH3 0xB80 JUMP JUMPDEST STOP JUMPDEST PUSH3 0x2C7 PUSH1 0x4 DUP1 CALLDATASIZE SUB DUP2 ADD SWAP1 PUSH3 0x2C1 SWAP2 SWAP1 PUSH3 0x1FD5 JUMP JUMPDEST PUSH3 0xBA2 JUMP JUMPDEST PUSH1 0x40 MLOAD PUSH3 0x2D6 SWAP2 SWAP1 PUSH3 0x204C JUMP JUMPDEST PUSH1 0x40 MLOAD DUP1 SWAP2 SUB SWAP1 RETURN JUMPDEST PUSH3 0x2FD PUSH1 0x4 DUP1 CALLDATASIZE SUB DUP2 ADD SWAP1 PUSH3 0x2F7 SWAP2 SWAP1 PUSH3 0x21D1 JUMP JUMPDEST PUSH3 0xCCD JUMP JUMPDEST PUSH1 0x40 MLOAD PUSH3 0x30C SWAP2 SWAP1 PUSH3 0x2214 JUMP JUMPDEST PUSH1 0x40 MLOAD DUP1 SWAP2 SUB SWAP1 RETURN JUMPDEST PUSH3 0x31F PUSH3 0xDC3 JUMP JUMPDEST STOP JUMPDEST PUSH3 0x32B PUSH3 0xDDB JUMP JUMPDEST PUSH1 0x40 MLOAD PUSH3 0x33A SWAP2 SWAP1 PUSH3 0x204C JUMP JUMPDEST PUSH1 0x40 MLOAD DUP1 SWAP2 SUB SWAP1 RETURN JUMPDEST PUSH3 0x34D PUSH3 0xE04 JUMP JUMPDEST PUSH1 0x40 MLOAD PUSH3 0x35C SWAP2 SWAP1 PUSH3 0x1F76 JUMP JUMPDEST PUSH1 0x40 MLOAD DUP1 SWAP2 SUB SWAP1 RETURN JUMPDEST PUSH3 0x383 PUSH1 0x4 DUP1 CALLDATASIZE SUB DUP2 ADD SWAP1 PUSH3 0x37D SWAP2 SWAP1 PUSH3 0x2262 JUMP JUMPDEST PUSH3 0xE9E JUMP JUMPDEST STOP JUMPDEST PUSH3 0x3A3 PUSH1 0x4 DUP1 CALLDATASIZE SUB DUP2 ADD SWAP1 PUSH3 0x39D SWAP2 SWAP1 PUSH3 0x23FA JUMP JUMPDEST PUSH3 0xEB8 JUMP JUMPDEST STOP JUMPDEST PUSH3 0x3C3 PUSH1 0x4 DUP1 CALLDATASIZE SUB DUP2 ADD SWAP1 PUSH3 0x3BD SWAP2 SWAP1 PUSH3 0x1FD5 JUMP JUMPDEST PUSH3 0xED9 JUMP JUMPDEST PUSH1 0x40 MLOAD PUSH3 0x3D2 SWAP2 SWAP1 PUSH3 0x24F6 JUMP JUMPDEST PUSH1 0x40 MLOAD DUP1 SWAP2 SUB SWAP1 RETURN JUMPDEST PUSH3 0x3F9 PUSH1 0x4 DUP1 CALLDATASIZE SUB DUP2 ADD SWAP1 PUSH3 0x3F3 SWAP2 SWAP1 PUSH3 0x1FD5 JUMP JUMPDEST PUSH3 0xF0C JUMP JUMPDEST PUSH1 0x40 MLOAD PUSH3 0x408 SWAP2 SWAP1 PUSH3 0x204C JUMP JUMPDEST PUSH1 0x40 MLOAD DUP1 SWAP2 SUB SWAP1 RETURN JUMPDEST PUSH3 0x42F PUSH1 0x4 DUP1 CALLDATASIZE SUB DUP2 ADD SWAP1 PUSH3 0x429 SWAP2 SWAP1 PUSH3 0x1FD5 JUMP JUMPDEST PUSH3 0x111D JUMP JUMPDEST PUSH1 0x40 MLOAD PUSH3 0x43E SWAP2 SWAP1 PUSH3 0x1F76 JUMP JUMPDEST PUSH1 0x40 MLOAD DUP1 SWAP2 SUB SWAP1 RETURN JUMPDEST PUSH3 0x451 PUSH3 0x1190 JUMP JUMPDEST PUSH1 0x40 MLOAD PUSH3 0x460 SWAP2 SWAP1 PUSH3 0x2214 JUMP JUMPDEST PUSH1 0x40 MLOAD DUP1 SWAP2 SUB SWAP1 RETURN JUMPDEST PUSH3 0x487 PUSH1 0x4 DUP1 CALLDATASIZE SUB DUP2 ADD SWAP1 PUSH3 0x481 SWAP2 SWAP1 PUSH3 0x2513 JUMP JUMPDEST PUSH3 0x1196 JUMP JUMPDEST PUSH1 0x40 MLOAD PUSH3 0x496 SWAP2 SWAP1 PUSH3 0x1EBF JUMP JUMPDEST PUSH1 0x40 MLOAD DUP1 SWAP2 SUB SWAP1 RETURN JUMPDEST PUSH3 0x4BD PUSH1 0x4 DUP1 CALLDATASIZE SUB DUP2 ADD SWAP1 PUSH3 0x4B7 SWAP2 SWAP1 PUSH3 0x21D1 JUMP JUMPDEST PUSH3 0x122A JUMP JUMPDEST STOP JUMPDEST PUSH3 0x4DD PUSH1 0x4 DUP1 CALLDATASIZE SUB DUP2 ADD SWAP1 PUSH3 0x4D7 SWAP2 SWAP1 PUSH3 0x2119 JUMP JUMPDEST PUSH3 0x12B7 JUMP JUMPDEST STOP JUMPDEST PUSH1 0x0 PUSH32 0x80AC58CD00000000000000000000000000000000000000000000000000000000 PUSH28 0xFFFFFFFFFFFFFFFFFFFFFFFFFFFFFFFFFFFFFFFFFFFFFFFFFFFFFFFF NOT AND DUP3 PUSH28 0xFFFFFFFFFFFFFFFFFFFFFFFFFFFFFFFFFFFFFFFFFFFFFFFFFFFFFFFF NOT AND EQ DUP1 PUSH3 0x5AB JUMPI POP PUSH32 0x5B5E139F00000000000000000000000000000000000000000000000000000000 PUSH28 0xFFFFFFFFFFFFFFFFFFFFFFFFFFFFFFFFFFFFFFFFFFFFFFFFFFFFFFFF NOT AND DUP3 PUSH28 0xFFFFFFFFFFFFFFFFFFFFFFFFFFFFFFFFFFFFFFFFFFFFFFFFFFFFFFFF NOT AND EQ JUMPDEST DUP1 PUSH3 0x5BE JUMPI POP PUSH3 0x5BD DUP3 PUSH3 0x13A7 JUMP JUMPDEST JUMPDEST SWAP1 POP SWAP2 SWAP1 POP JUMP JUMPDEST PUSH1 0x60 PUSH1 0x1 DUP1 SLOAD PUSH3 0x5D6 SWAP1 PUSH3 0x2589 JUMP JUMPDEST DUP1 PUSH1 0x1F ADD PUSH1 0x20 DUP1 SWAP2 DIV MUL PUSH1 0x20 ADD PUSH1 0x40 MLOAD SWAP1 DUP2 ADD PUSH1 0x40 MSTORE DUP1 SWAP3 SWAP2 SWAP1 DUP2 DUP2 MSTORE PUSH1 0x20 ADD DUP3 DUP1 SLOAD PUSH3 0x604 SWAP1 PUSH3 0x2589 JUMP JUMPDEST DUP1 ISZERO PUSH3 0x655 JUMPI DUP1 PUSH1 0x1F LT PUSH3 0x629 JUMPI PUSH2 0x100 DUP1 DUP4 SLOAD DIV MUL DUP4 MSTORE SWAP2 PUSH1 0x20 ADD SWAP2 PUSH3 0x655 JUMP JUMPDEST DUP3 ADD SWAP2 SWAP1 PUSH1 0x0 MSTORE PUSH1 0x20 PUSH1 0x0 KECCAK256 SWAP1 JUMPDEST DUP2 SLOAD DUP2 MSTORE SWAP1 PUSH1 0x1 ADD SWAP1 PUSH1 0x20 ADD DUP1 DUP4 GT PUSH3 0x637 JUMPI DUP3 SWAP1 SUB PUSH1 0x1F AND DUP3 ADD SWAP2 JUMPDEST POP POP POP POP POP SWAP1 POP SWAP1 JUMP JUMPDEST PUSH1 0x0 PUSH3 0x66C DUP3 PUSH3 0x1411 JUMP JUMPDEST POP PUSH3 0x678 DUP3 PUSH3 0x149E JUMP JUMPDEST SWAP1 POP SWAP2 SWAP1 POP JUMP JUMPDEST PUSH3 0x695 DUP3 DUP3 PUSH3 0x68F PUSH3 0x14DB JUMP JUMPDEST PUSH3 0x14E3 JUMP JUMPDEST POP POP JUMP JUMPDEST PUSH1 0x0 DUP1 PUSH1 0x0 SWAP1 POP JUMPDEST PUSH1 0x8 SLOAD DUP2 SLT ISZERO PUSH3 0x784 JUMPI PUSH1 0x7 PUSH1 0x0 DUP3 DUP2 MSTORE PUSH1 0x20 ADD SWAP1 DUP2 MSTORE PUSH1 0x20 ADD PUSH1 0x0 KECCAK256 PUSH1 0x0 SWAP1 SLOAD SWAP1 PUSH2 0x100 EXP SWAP1 DIV PUSH20 0xFFFFFFFFFFFFFFFFFFFFFFFFFFFFFFFFFFFFFFFF AND PUSH20 0xFFFFFFFFFFFFFFFFFFFFFFFFFFFFFFFFFFFFFFFF AND PUSH4 0xA9AA75EF DUP5 PUSH1 0x40 MLOAD DUP3 PUSH4 0xFFFFFFFF AND PUSH1 0xE0 SHL DUP2 MSTORE PUSH1 0x4 ADD PUSH3 0x71A SWAP2 SWAP1 PUSH3 0x2214 JUMP JUMPDEST PUSH1 0x20 PUSH1 0x40 MLOAD DUP1 DUP4 SUB DUP2 DUP7 GAS STATICCALL ISZERO DUP1 ISZERO PUSH3 0x738 JUMPI RETURNDATASIZE PUSH1 0x0 DUP1 RETURNDATACOPY RETURNDATASIZE PUSH1 0x0 REVERT JUMPDEST POP POP POP POP PUSH1 0x40 MLOAD RETURNDATASIZE PUSH1 0x1F NOT PUSH1 0x1F DUP3 ADD AND DUP3 ADD DUP1 PUSH1 0x40 MSTORE POP DUP2 ADD SWAP1 PUSH3 0x75E SWAP2 SWAP1 PUSH3 0x25D5 JUMP JUMPDEST ISZERO PUSH3 0x76E JUMPI DUP1 SWAP2 POP POP PUSH3 0x7A9 JUMP JUMPDEST DUP1 DUP1 PUSH3 0x77B SWAP1 PUSH3 0x2636 JUMP JUMPDEST SWAP2 POP POP PUSH3 0x6A1 JUMP JUMPDEST POP PUSH32 0xFFFFFFFFFFFFFFFFFFFFFFFFFFFFFFFFFFFFFFFFFFFFFFFFFFFFFFFFFFFFFFFF SWAP1 POP JUMPDEST SWAP2 SWAP1 POP JUMP JUMPDEST PUSH1 0x8 SLOAD DUP2 LT PUSH3 0x7F5 JUMPI PUSH1 0x40 MLOAD PUSH32 0x8C379A000000000000000000000000000000000000000000000000000000000 DUP2 MSTORE PUSH1 0x4 ADD PUSH3 0x7EC SWAP1 PUSH3 0x26F9 JUMP JUMPDEST PUSH1 0x40 MLOAD DUP1 SWAP2 SUB SWAP1 REVERT JUMPDEST PUSH1 0x7 PUSH1 0x0 DUP3 DUP2 MSTORE PUSH1 0x20 ADD SWAP1 DUP2 MSTORE PUSH1 0x20 ADD PUSH1 0x0 KECCAK256 PUSH1 0x0 SWAP1 SLOAD SWAP1 PUSH2 0x100 EXP SWAP1 DIV PUSH20 0xFFFFFFFFFFFFFFFFFFFFFFFFFFFFFFFFFFFFFFFF AND PUSH20 0xFFFFFFFFFFFFFFFFFFFFFFFFFFFFFFFFFFFFFFFF AND PUSH4 0x40C10F19 DUP5 DUP5 PUSH1 0x40 MLOAD DUP4 PUSH4 0xFFFFFFFF AND PUSH1 0xE0 SHL DUP2 MSTORE PUSH1 0x4 ADD PUSH3 0x865 SWAP3 SWAP2 SWAP1 PUSH3 0x271B JUMP JUMPDEST PUSH1 0x0 PUSH1 0x40 MLOAD DUP1 DUP4 SUB DUP2 PUSH1 0x0 DUP8 DUP1 EXTCODESIZE ISZERO DUP1 ISZERO PUSH3 0x880 JUMPI PUSH1 0x0 DUP1 REVERT JUMPDEST POP GAS CALL ISZERO DUP1 ISZERO PUSH3 0x895 JUMPI RETURNDATASIZE PUSH1 0x0 DUP1 RETURNDATACOPY RETURNDATASIZE PUSH1 0x0 REVERT JUMPDEST POP POP POP POP POP POP POP JUMP JUMPDEST PUSH3 0x8A9 DUP2 PUSH3 0xBA2 JUMP JUMPDEST PUSH20 0xFFFFFFFFFFFFFFFFFFFFFFFFFFFFFFFFFFFFFFFF AND DUP4 PUSH20 0xFFFFFFFFFFFFFFFFFFFFFFFFFFFFFFFFFFFFFFFF AND EQ PUSH3 0x919 JUMPI PUSH1 0x40 MLOAD PUSH32 0x8C379A000000000000000000000000000000000000000000000000000000000 DUP2 MSTORE PUSH1 0x4 ADD PUSH3 0x910 SWAP1 PUSH3 0x27BE JUMP JUMPDEST PUSH1 0x40 MLOAD DUP1 SWAP2 SUB SWAP1 REVERT JUMPDEST PUSH1 0x0 PUSH20 0xFFFFFFFFFFFFFFFFFFFFFFFFFFFFFFFFFFFFFFFF AND DUP3 PUSH20 0xFFFFFFFFFFFFFFFFFFFFFFFFFFFFFFFFFFFFFFFF AND SUB PUSH3 0x98B JUMPI PUSH1 0x40 MLOAD PUSH32 0x8C379A000000000000000000000000000000000000000000000000000000000 DUP2 MSTORE PUSH1 0x4 ADD PUSH3 0x982 SWAP1 PUSH3 0x2856 JUMP JUMPDEST PUSH1 0x40 MLOAD DUP1 SWAP2 SUB SWAP1 REVERT JUMPDEST PUSH1 0x0 PUSH3 0x998 DUP3 PUSH3 0x699 JUMP JUMPDEST SWAP1 POP PUSH32 0xFFFFFFFFFFFFFFFFFFFFFFFFFFFFFFFFFFFFFFFFFFFFFFFFFFFFFFFFFFFFFFFF DUP2 SUB PUSH3 0x9FF JUMPI PUSH1 0x40 MLOAD PUSH32 0x8C379A000000000000000000000000000000000000000000000000000000000 DUP2 MSTORE PUSH1 0x4 ADD PUSH3 0x9F6 SWAP1 PUSH3 0x28EE JUMP JUMPDEST PUSH1 0x40 MLOAD DUP1 SWAP2 SUB SWAP1 REVERT JUMPDEST PUSH1 0x7 PUSH1 0x0 DUP3 DUP2 MSTORE PUSH1 0x20 ADD SWAP1 DUP2 MSTORE PUSH1 0x20 ADD PUSH1 0x0 KECCAK256 PUSH1 0x0 SWAP1 SLOAD SWAP1 PUSH2 0x100 EXP SWAP1 DIV PUSH20 0xFFFFFFFFFFFFFFFFFFFFFFFFFFFFFFFFFFFFFFFF AND PUSH20 0xFFFFFFFFFFFFFFFFFFFFFFFFFFFFFFFFFFFFFFFF AND PUSH4 0x9188D312 DUP4 PUSH1 0x40 MLOAD DUP3 PUSH4 0xFFFFFFFF AND PUSH1 0xE0 SHL DUP2 MSTORE PUSH1 0x4 ADD PUSH3 0xA6D SWAP2 SWAP1 PUSH3 0x2214 JUMP JUMPDEST PUSH1 0x20 PUSH1 0x40 MLOAD DUP1 DUP4 SUB DUP2 DUP7 GAS STATICCALL ISZERO DUP1 ISZERO PUSH3 0xA8B JUMPI RETURNDATASIZE PUSH1 0x0 DUP1 RETURNDATACOPY RETURNDATASIZE PUSH1 0x0 REVERT JUMPDEST POP POP POP POP PUSH1 0x40 MLOAD RETURNDATASIZE PUSH1 0x1F NOT PUSH1 0x1F DUP3 ADD AND DUP3 ADD DUP1 PUSH1 0x40 MSTORE POP DUP2 ADD SWAP1 PUSH3 0xAB1 SWAP2 SWAP1 PUSH3 0x2955 JUMP JUMPDEST PUSH20 0xFFFFFFFFFFFFFFFFFFFFFFFFFFFFFFFFFFFFFFFF AND PUSH4 0xF2FDE38B DUP5 PUSH1 0x40 MLOAD DUP3 PUSH4 0xFFFFFFFF AND PUSH1 0xE0 SHL DUP2 MSTORE PUSH1 0x4 ADD PUSH3 0xAEB SWAP2 SWAP1 PUSH3 0x204C JUMP JUMPDEST PUSH1 0x0 PUSH1 0x40 MLOAD DUP1 DUP4 SUB DUP2 PUSH1 0x0 DUP8 DUP1 EXTCODESIZE ISZERO DUP1 ISZERO PUSH3 0xB06 JUMPI PUSH1 0x0 DUP1 REVERT JUMPDEST POP GAS CALL ISZERO DUP1 ISZERO PUSH3 0xB1B JUMPI RETURNDATASIZE PUSH1 0x0 DUP1 RETURNDATACOPY RETURNDATASIZE PUSH1 0x0 REVERT JUMPDEST POP POP POP POP DUP2 DUP4 PUSH20 0xFFFFFFFFFFFFFFFFFFFFFFFFFFFFFFFFFFFFFFFF AND DUP6 PUSH20 0xFFFFFFFFFFFFFFFFFFFFFFFFFFFFFFFFFFFFFFFF AND PUSH32 0xDDF252AD1BE2C89B69C2B068FC378DAA952BA7F163C4A11628F55A4DF523B3EF PUSH1 0x40 MLOAD PUSH1 0x40 MLOAD DUP1 SWAP2 SUB SWAP1 LOG4 POP POP POP POP JUMP JUMPDEST PUSH3 0xB9D DUP4 DUP4 DUP4 PUSH1 0x40 MLOAD DUP1 PUSH1 0x20 ADD PUSH1 0x40 MSTORE DUP1 PUSH1 0x0 DUP2 MSTORE POP PUSH3 0xEB8 JUMP JUMPDEST POP POP POP JUMP JUMPDEST PUSH1 0x0 DUP1 PUSH1 0x0 SWAP1 POP JUMPDEST PUSH1 0x8 SLOAD DUP2 LT ISZERO PUSH3 0xCC2 JUMPI PUSH1 0x0 PUSH1 0x7 PUSH1 0x0 DUP4 DUP2 MSTORE PUSH1 0x20 ADD SWAP1 DUP2 MSTORE PUSH1 0x20 ADD PUSH1 0x0 KECCAK256 PUSH1 0x0 SWAP1 SLOAD SWAP1 PUSH2 0x100 EXP SWAP1 DIV PUSH20 0xFFFFFFFFFFFFFFFFFFFFFFFFFFFFFFFFFFFFFFFF AND PUSH20 0xFFFFFFFFFFFFFFFFFFFFFFFFFFFFFFFFFFFFFFFF AND PUSH4 0x6352211E DUP6 PUSH1 0x40 MLOAD DUP3 PUSH4 0xFFFFFFFF AND PUSH1 0xE0 SHL DUP2 MSTORE PUSH1 0x4 ADD PUSH3 0xC25 SWAP2 SWAP1 PUSH3 0x2214 JUMP JUMPDEST PUSH1 0x20 PUSH1 0x40 MLOAD DUP1 DUP4 SUB DUP2 DUP7 GAS STATICCALL ISZERO DUP1 ISZERO PUSH3 0xC43 JUMPI RETURNDATASIZE PUSH1 0x0 DUP1 RETURNDATACOPY RETURNDATASIZE PUSH1 0x0 REVERT JUMPDEST POP POP POP POP PUSH1 0x40 MLOAD RETURNDATASIZE PUSH1 0x1F NOT PUSH1 0x1F DUP3 ADD AND DUP3 ADD DUP1 PUSH1 0x40 MSTORE POP DUP2 ADD SWAP1 PUSH3 0xC69 SWAP2 SWAP1 PUSH3 0x299E JUMP JUMPDEST SWAP1 POP PUSH1 0x0 PUSH20 0xFFFFFFFFFFFFFFFFFFFFFFFFFFFFFFFFFFFFFFFF AND DUP2 PUSH20 0xFFFFFFFFFFFFFFFFFFFFFFFFFFFFFFFFFFFFFFFF AND EQ PUSH3 0xCAB JUMPI DUP1 SWAP3 POP POP POP PUSH3 0xCC8 JUMP JUMPDEST POP DUP1 DUP1 PUSH3 0xCB9 SWAP1 PUSH3 0x29D0 JUMP JUMPDEST SWAP2 POP POP PUSH3 0xBAA JUMP JUMPDEST POP PUSH1 0x0 SWAP1 POP JUMPDEST SWAP2 SWAP1 POP JUMP JUMPDEST PUSH1 0x0 DUP1 PUSH1 0x0 SWAP1 POP PUSH1 0x0 JUMPDEST PUSH1 0x8 SLOAD DUP2 LT ISZERO PUSH3 0xDB9 JUMPI PUSH1 0x7 PUSH1 0x0 DUP3 DUP2 MSTORE PUSH1 0x20 ADD SWAP1 DUP2 MSTORE PUSH1 0x20 ADD PUSH1 0x0 KECCAK256 PUSH1 0x0 SWAP1 SLOAD SWAP1 PUSH2 0x100 EXP SWAP1 DIV PUSH20 0xFFFFFFFFFFFFFFFFFFFFFFFFFFFFFFFFFFFFFFFF AND PUSH20 0xFFFFFFFFFFFFFFFFFFFFFFFFFFFFFFFFFFFFFFFF AND PUSH4 0x70A08231 DUP6 PUSH1 0x40 MLOAD DUP3 PUSH4 0xFFFFFFFF AND PUSH1 0xE0 SHL DUP2 MSTORE PUSH1 0x4 ADD PUSH3 0xD50 SWAP2 SWAP1 PUSH3 0x204C JUMP JUMPDEST PUSH1 0x20 PUSH1 0x40 MLOAD DUP1 DUP4 SUB DUP2 DUP7 GAS STATICCALL ISZERO DUP1 ISZERO PUSH3 0xD6E JUMPI RETURNDATASIZE PUSH1 0x0 DUP1 RETURNDATACOPY RETURNDATASIZE PUSH1 0x0 REVERT JUMPDEST POP POP POP POP PUSH1 0x40 MLOAD RETURNDATASIZE PUSH1 0x1F NOT PUSH1 0x1F DUP3 ADD AND DUP3 ADD DUP1 PUSH1 0x40 MSTORE POP DUP2 ADD SWAP1 PUSH3 0xD94 SWAP2 SWAP1 PUSH3 0x2A34 JUMP JUMPDEST DUP3 PUSH3 0xDA1 SWAP2 SWAP1 PUSH3 0x2A66 JUMP JUMPDEST SWAP2 POP DUP1 DUP1 PUSH3 0xDB0 SWAP1 PUSH3 0x29D0 JUMP JUMPDEST SWAP2 POP POP PUSH3 0xCD7 JUMP JUMPDEST POP DUP1 SWAP2 POP POP SWAP2 SWAP1 POP JUMP JUMPDEST PUSH3 0xDCD PUSH3 0x14F7 JUMP JUMPDEST PUSH3 0xDD9 PUSH1 0x0 PUSH3 0x1587 JUMP JUMPDEST JUMP JUMPDEST PUSH1 0x0 DUP1 PUSH1 0x0 SWAP1 SLOAD SWAP1 PUSH2 0x100 EXP SWAP1 DIV PUSH20 0xFFFFFFFFFFFFFFFFFFFFFFFFFFFFFFFFFFFFFFFF AND SWAP1 POP SWAP1 JUMP JUMPDEST PUSH1 0x60 PUSH1 0x2 DUP1 SLOAD PUSH3 0xE15 SWAP1 PUSH3 0x2589 JUMP JUMPDEST DUP1 PUSH1 0x1F ADD PUSH1 0x20 DUP1 SWAP2 DIV MUL PUSH1 0x20 ADD PUSH1 0x40 MLOAD SWAP1 DUP2 ADD PUSH1 0x40 MSTORE DUP1 SWAP3 SWAP2 SWAP1 DUP2 DUP2 MSTORE PUSH1 0x20 ADD DUP3 DUP1 SLOAD PUSH3 0xE43 SWAP1 PUSH3 0x2589 JUMP JUMPDEST DUP1 ISZERO PUSH3 0xE94 JUMPI DUP1 PUSH1 0x1F LT PUSH3 0xE68 JUMPI PUSH2 0x100 DUP1 DUP4 SLOAD DIV MUL DUP4 MSTORE SWAP2 PUSH1 0x20 ADD SWAP2 PUSH3 0xE94 JUMP JUMPDEST DUP3 ADD SWAP2 SWAP1 PUSH1 0x0 MSTORE PUSH1 0x20 PUSH1 0x0 KECCAK256 SWAP1 JUMPDEST DUP2 SLOAD DUP2 MSTORE SWAP1 PUSH1 0x1 ADD SWAP1 PUSH1 0x20 ADD DUP1 DUP4 GT PUSH3 0xE76 JUMPI DUP3 SWAP1 SUB PUSH1 0x1F AND DUP3 ADD SWAP2 JUMPDEST POP POP POP POP POP SWAP1 POP SWAP1 JUMP JUMPDEST PUSH3 0xEB4 PUSH3 0xEAC PUSH3 0x14DB JUMP JUMPDEST DUP4 DUP4 PUSH3 0x164B JUMP JUMPDEST POP POP JUMP JUMPDEST PUSH3 0xEC5 DUP5 DUP5 DUP5 PUSH3 0x89E JUMP JUMPDEST PUSH3 0xED3 DUP5 DUP5 DUP5 DUP5 PUSH3 0x17BF JUMP JUMPDEST POP POP POP POP JUMP JUMPDEST PUSH1 0x7 PUSH1 0x20 MSTORE DUP1 PUSH1 0x0 MSTORE PUSH1 0x40 PUSH1 0x0 KECCAK256 PUSH1 0x0 SWAP2 POP SLOAD SWAP1 PUSH2 0x100 EXP SWAP1 DIV PUSH20 0xFFFFFFFFFFFFFFFFFFFFFFFFFFFFFFFFFFFFFFFF AND DUP2 JUMP JUMPDEST PUSH1 0x0 DUP1 PUSH1 0x0 PUSH1 0x40 MLOAD PUSH3 0xF1F SWAP1 PUSH3 0x1DF1 JUMP JUMPDEST PUSH3 0xF2B SWAP2 SWAP1 PUSH3 0x2B34 JUMP JUMPDEST PUSH1 0x40 MLOAD DUP1 SWAP2 SUB SWAP1 PUSH1 0x0 CREATE DUP1 ISZERO DUP1 ISZERO PUSH3 0xF48 JUMPI RETURNDATASIZE PUSH1 0x0 DUP1 RETURNDATACOPY RETURNDATASIZE PUSH1 0x0 REVERT JUMPDEST POP SWAP1 POP DUP1 PUSH1 0x7 PUSH1 0x0 PUSH1 0x8 SLOAD DUP2 MSTORE PUSH1 0x20 ADD SWAP1 DUP2 MSTORE PUSH1 0x20 ADD PUSH1 0x0 KECCAK256 PUSH1 0x0 PUSH2 0x100 EXP DUP2 SLOAD DUP2 PUSH20 0xFFFFFFFFFFFFFFFFFFFFFFFFFFFFFFFFFFFFFFFF MUL NOT AND SWAP1 DUP4 PUSH20 0xFFFFFFFFFFFFFFFFFFFFFFFFFFFFFFFFFFFFFFFF AND MUL OR SWAP1 SSTORE POP PUSH1 0x8 PUSH1 0x0 DUP2 SLOAD DUP1 SWAP3 SWAP2 SWAP1 PUSH3 0xFB4 SWAP1 PUSH3 0x29D0 JUMP JUMPDEST SWAP2 SWAP1 POP SSTORE POP PUSH1 0x7 PUSH1 0x0 DUP1 DUP2 MSTORE PUSH1 0x20 ADD SWAP1 DUP2 MSTORE PUSH1 0x20 ADD PUSH1 0x0 KECCAK256 PUSH1 0x0 SWAP1 SLOAD SWAP1 PUSH2 0x100 EXP SWAP1 DIV PUSH20 0xFFFFFFFFFFFFFFFFFFFFFFFFFFFFFFFFFFFFFFFF AND PUSH20 0xFFFFFFFFFFFFFFFFFFFFFFFFFFFFFFFFFFFFFFFF AND PUSH4 0xAA93D702 DUP5 PUSH1 0x40 MLOAD DUP3 PUSH4 0xFFFFFFFF AND PUSH1 0xE0 SHL DUP2 MSTORE PUSH1 0x4 ADD PUSH3 0x1027 SWAP2 SWAP1 PUSH3 0x2BDC JUMP JUMPDEST PUSH1 0x0 PUSH1 0x40 MLOAD DUP1 DUP4 SUB DUP2 PUSH1 0x0 DUP8 DUP1 EXTCODESIZE ISZERO DUP1 ISZERO PUSH3 0x1042 JUMPI PUSH1 0x0 DUP1 REVERT JUMPDEST POP GAS CALL ISZERO DUP1 ISZERO PUSH3 0x1057 JUMPI RETURNDATASIZE PUSH1 0x0 DUP1 RETURNDATACOPY RETURNDATASIZE PUSH1 0x0 REVERT JUMPDEST POP POP POP POP PUSH1 0x0 PUSH1 0x7 PUSH1 0x0 DUP1 DUP2 MSTORE PUSH1 0x20 ADD SWAP1 DUP2 MSTORE PUSH1 0x20 ADD PUSH1 0x0 KECCAK256 PUSH1 0x0 SWAP1 SLOAD SWAP1 PUSH2 0x100 EXP SWAP1 DIV PUSH20 0xFFFFFFFFFFFFFFFFFFFFFFFFFFFFFFFFFFFFFFFF AND PUSH20 0xFFFFFFFFFFFFFFFFFFFFFFFFFFFFFFFFFFFFFFFF AND PUSH4 0x9188D312 DUP6 PUSH1 0x40 MLOAD DUP3 PUSH4 0xFFFFFFFF AND PUSH1 0xE0 SHL DUP2 MSTORE PUSH1 0x4 ADD PUSH3 0x10CB SWAP2 SWAP1 PUSH3 0x2214 JUMP JUMPDEST PUSH1 0x20 PUSH1 0x40 MLOAD DUP1 DUP4 SUB DUP2 DUP7 GAS STATICCALL ISZERO DUP1 ISZERO PUSH3 0x10E9 JUMPI RETURNDATASIZE PUSH1 0x0 DUP1 RETURNDATACOPY RETURNDATASIZE PUSH1 0x0 REVERT JUMPDEST POP POP POP POP PUSH1 0x40 MLOAD RETURNDATASIZE PUSH1 0x1F NOT PUSH1 0x1F DUP3 ADD AND DUP3 ADD DUP1 PUSH1 0x40 MSTORE POP DUP2 ADD SWAP1 PUSH3 0x110F SWAP2 SWAP1 PUSH3 0x2955 JUMP JUMPDEST SWAP1 POP PUSH2 0x29A SWAP3 POP POP POP SWAP2 SWAP1 POP JUMP JUMPDEST PUSH1 0x60 PUSH3 0x112A DUP3 PUSH3 0x1411 JUMP JUMPDEST POP PUSH1 0x0 PUSH3 0x1137 PUSH3 0x1987 JUMP JUMPDEST SWAP1 POP PUSH1 0x0 DUP2 MLOAD GT PUSH3 0x1159 JUMPI PUSH1 0x40 MLOAD DUP1 PUSH1 0x20 ADD PUSH1 0x40 MSTORE DUP1 PUSH1 0x0 DUP2 MSTORE POP PUSH3 0x1188 JUMP JUMPDEST DUP1 PUSH3 0x1165 DUP5 PUSH3 0x199E JUMP JUMPDEST PUSH1 0x40 MLOAD PUSH1 0x20 ADD PUSH3 0x1178 SWAP3 SWAP2 SWAP1 PUSH3 0x2C50 JUMP JUMPDEST PUSH1 0x40 MLOAD PUSH1 0x20 DUP2 DUP4 SUB SUB DUP2 MSTORE SWAP1 PUSH1 0x40 MSTORE JUMPDEST SWAP2 POP POP SWAP2 SWAP1 POP JUMP JUMPDEST PUSH1 0x8 SLOAD DUP2 JUMP JUMPDEST PUSH1 0x0 PUSH1 0x6 PUSH1 0x0 DUP5 PUSH20 0xFFFFFFFFFFFFFFFFFFFFFFFFFFFFFFFFFFFFFFFF AND PUSH20 0xFFFFFFFFFFFFFFFFFFFFFFFFFFFFFFFFFFFFFFFF AND DUP2 MSTORE PUSH1 0x20 ADD SWAP1 DUP2 MSTORE PUSH1 0x20 ADD PUSH1 0x0 KECCAK256 PUSH1 0x0 DUP4 PUSH20 0xFFFFFFFFFFFFFFFFFFFFFFFFFFFFFFFFFFFFFFFF AND PUSH20 0xFFFFFFFFFFFFFFFFFFFFFFFFFFFFFFFFFFFFFFFF AND DUP2 MSTORE PUSH1 0x20 ADD SWAP1 DUP2 MSTORE PUSH1 0x20 ADD PUSH1 0x0 KECCAK256 PUSH1 0x0 SWAP1 SLOAD SWAP1 PUSH2 0x100 EXP SWAP1 DIV PUSH1 0xFF AND SWAP1 POP SWAP3 SWAP2 POP POP JUMP JUMPDEST PUSH3 0x1234 PUSH3 0x14F7 JUMP JUMPDEST PUSH1 0x0 PUSH20 0xFFFFFFFFFFFFFFFFFFFFFFFFFFFFFFFFFFFFFFFF AND DUP2 PUSH20 0xFFFFFFFFFFFFFFFFFFFFFFFFFFFFFFFFFFFFFFFF AND SUB PUSH3 0x12A9 JUMPI PUSH1 0x0 PUSH1 0x40 MLOAD PUSH32 0x1E4FBDF700000000000000000000000000000000000000000000000000000000 DUP2 MSTORE PUSH1 0x4 ADD PUSH3 0x12A0 SWAP2 SWAP1 PUSH3 0x204C JUMP JUMPDEST PUSH1 0x40 MLOAD DUP1 SWAP2 SUB SWAP1 REVERT JUMPDEST PUSH3 0x12B4 DUP2 PUSH3 0x1587 JUMP JUMPDEST POP JUMP JUMPDEST PUSH1 0x8 SLOAD DUP2 LT PUSH3 0x12FE JUMPI PUSH1 0x40 MLOAD PUSH32 0x8C379A000000000000000000000000000000000000000000000000000000000 DUP2 MSTORE PUSH1 0x4 ADD PUSH3 0x12F5 SWAP1 PUSH3 0x26F9 JUMP JUMPDEST PUSH1 0x40 MLOAD DUP1 SWAP2 SUB SWAP1 REVERT JUMPDEST PUSH1 0x7 PUSH1 0x0 DUP3 DUP2 MSTORE PUSH1 0x20 ADD SWAP1 DUP2 MSTORE PUSH1 0x20 ADD PUSH1 0x0 KECCAK256 PUSH1 0x0 SWAP1 SLOAD SWAP1 PUSH2 0x100 EXP SWAP1 DIV PUSH20 0xFFFFFFFFFFFFFFFFFFFFFFFFFFFFFFFFFFFFFFFF AND PUSH20 0xFFFFFFFFFFFFFFFFFFFFFFFFFFFFFFFFFFFFFFFF AND PUSH4 0xF92906FF DUP5 DUP5 PUSH1 0x40 MLOAD DUP4 PUSH4 0xFFFFFFFF AND PUSH1 0xE0 SHL DUP2 MSTORE PUSH1 0x4 ADD PUSH3 0x136E SWAP3 SWAP2 SWAP1 PUSH3 0x271B JUMP JUMPDEST PUSH1 0x0 PUSH1 0x40 MLOAD DUP1 DUP4 SUB DUP2 PUSH1 0x0 DUP8 DUP1 EXTCODESIZE ISZERO DUP1 ISZERO PUSH3 0x1389 JUMPI PUSH1 0x0 DUP1 REVERT JUMPDEST POP GAS CALL ISZERO DUP1 ISZERO PUSH3 0x139E JUMPI RETURNDATASIZE PUSH1 0x0 DUP1 RETURNDATACOPY RETURNDATASIZE PUSH1 0x0 REVERT JUMPDEST POP POP POP POP POP POP POP JUMP JUMPDEST PUSH1 0x0 PUSH32 0x1FFC9A700000000000000000000000000000000000000000000000000000000 PUSH28 0xFFFFFFFFFFFFFFFFFFFFFFFFFFFFFFFFFFFFFFFFFFFFFFFFFFFFFFFF NOT AND DUP3 PUSH28 0xFFFFFFFFFFFFFFFFFFFFFFFFFFFFFFFFFFFFFFFFFFFFFFFFFFFFFFFF NOT AND EQ SWAP1 POP SWAP2 SWAP1 POP JUMP JUMPDEST PUSH1 0x0 DUP1 PUSH3 0x141F DUP4 PUSH3 0x1A77 JUMP JUMPDEST SWAP1 POP PUSH1 0x0 PUSH20 0xFFFFFFFFFFFFFFFFFFFFFFFFFFFFFFFFFFFFFFFF AND DUP2 PUSH20 0xFFFFFFFFFFFFFFFFFFFFFFFFFFFFFFFFFFFFFFFF AND SUB PUSH3 0x1495 JUMPI DUP3 PUSH1 0x40 MLOAD PUSH32 0x7E27328900000000000000000000000000000000000000000000000000000000 DUP2 MSTORE PUSH1 0x4 ADD PUSH3 0x148C SWAP2 SWAP1 PUSH3 0x2214 JUMP JUMPDEST PUSH1 0x40 MLOAD DUP1 SWAP2 SUB SWAP1 REVERT JUMPDEST DUP1 SWAP2 POP POP SWAP2 SWAP1 POP JUMP JUMPDEST PUSH1 0x0 PUSH1 0x5 PUSH1 0x0 DUP4 DUP2 MSTORE PUSH1 0x20 ADD SWAP1 DUP2 MSTORE PUSH1 0x20 ADD PUSH1 0x0 KECCAK256 PUSH1 0x0 SWAP1 SLOAD SWAP1 PUSH2 0x100 EXP SWAP1 DIV PUSH20 0xFFFFFFFFFFFFFFFFFFFFFFFFFFFFFFFFFFFFFFFF AND SWAP1 POP SWAP2 SWAP1 POP JUMP JUMPDEST PUSH1 0x0 CALLER SWAP1 POP SWAP1 JUMP JUMPDEST PUSH3 0x14F2 DUP4 DUP4 DUP4 PUSH1 0x1 PUSH3 0x1AB4 JUMP JUMPDEST POP POP POP JUMP JUMPDEST PUSH3 0x1501 PUSH3 0x14DB JUMP JUMPDEST PUSH20 0xFFFFFFFFFFFFFFFFFFFFFFFFFFFFFFFFFFFFFFFF AND PUSH3 0x1521 PUSH3 0xDDB JUMP JUMPDEST PUSH20 0xFFFFFFFFFFFFFFFFFFFFFFFFFFFFFFFFFFFFFFFF AND EQ PUSH3 0x1585 JUMPI PUSH3 0x1547 PUSH3 0x14DB JUMP JUMPDEST PUSH1 0x40 MLOAD PUSH32 0x118CDAA700000000000000000000000000000000000000000000000000000000 DUP2 MSTORE PUSH1 0x4 ADD PUSH3 0x157C SWAP2 SWAP1 PUSH3 0x204C JUMP JUMPDEST PUSH1 0x40 MLOAD DUP1 SWAP2 SUB SWAP1 REVERT JUMPDEST JUMP JUMPDEST PUSH1 0x0 DUP1 PUSH1 0x0 SWAP1 SLOAD SWAP1 PUSH2 0x100 EXP SWAP1 DIV PUSH20 0xFFFFFFFFFFFFFFFFFFFFFFFFFFFFFFFFFFFFFFFF AND SWAP1 POP DUP2 PUSH1 0x0 DUP1 PUSH2 0x100 EXP DUP2 SLOAD DUP2 PUSH20 0xFFFFFFFFFFFFFFFFFFFFFFFFFFFFFFFFFFFFFFFF MUL NOT AND SWAP1 DUP4 PUSH20 0xFFFFFFFFFFFFFFFFFFFFFFFFFFFFFFFFFFFFFFFF AND MUL OR SWAP1 SSTORE POP DUP2 PUSH20 0xFFFFFFFFFFFFFFFFFFFFFFFFFFFFFFFFFFFFFFFF AND DUP2 PUSH20 0xFFFFFFFFFFFFFFFFFFFFFFFFFFFFFFFFFFFFFFFF AND PUSH32 0x8BE0079C531659141344CD1FD0A4F28419497F9722A3DAAFE3B4186F6B6457E0 PUSH1 0x40 MLOAD PUSH1 0x40 MLOAD DUP1 SWAP2 SUB SWAP1 LOG3 POP POP JUMP JUMPDEST PUSH1 0x0 PUSH20 0xFFFFFFFFFFFFFFFFFFFFFFFFFFFFFFFFFFFFFFFF AND DUP3 PUSH20 0xFFFFFFFFFFFFFFFFFFFFFFFFFFFFFFFFFFFFFFFF AND SUB PUSH3 0x16BF JUMPI DUP2 PUSH1 0x40 MLOAD PUSH32 0x5B08BA1800000000000000000000000000000000000000000000000000000000 DUP2 MSTORE PUSH1 0x4 ADD PUSH3 0x16B6 SWAP2 SWAP1 PUSH3 0x204C JUMP JUMPDEST PUSH1 0x40 MLOAD DUP1 SWAP2 SUB SWAP1 REVERT JUMPDEST DUP1 PUSH1 0x6 PUSH1 0x0 DUP6 PUSH20 0xFFFFFFFFFFFFFFFFFFFFFFFFFFFFFFFFFFFFFFFF AND PUSH20 0xFFFFFFFFFFFFFFFFFFFFFFFFFFFFFFFFFFFFFFFF AND DUP2 MSTORE PUSH1 0x20 ADD SWAP1 DUP2 MSTORE PUSH1 0x20 ADD PUSH1 0x0 KECCAK256 PUSH1 0x0 DUP5 PUSH20 0xFFFFFFFFFFFFFFFFFFFFFFFFFFFFFFFFFFFFFFFF AND PUSH20 0xFFFFFFFFFFFFFFFFFFFFFFFFFFFFFFFFFFFFFFFF AND DUP2 MSTORE PUSH1 0x20 ADD SWAP1 DUP2 MSTORE PUSH1 0x20 ADD PUSH1 0x0 KECCAK256 PUSH1 0x0 PUSH2 0x100 EXP DUP2 SLOAD DUP2 PUSH1 0xFF MUL NOT AND SWAP1 DUP4 ISZERO ISZERO MUL OR SWAP1 SSTORE POP DUP2 PUSH20 0xFFFFFFFFFFFFFFFFFFFFFFFFFFFFFFFFFFFFFFFF AND DUP4 PUSH20 0xFFFFFFFFFFFFFFFFFFFFFFFFFFFFFFFFFFFFFFFF AND PUSH32 0x17307EAB39AB6107E8899845AD3D59BD9653F200F220920489CA2B5937696C31 DUP4 PUSH1 0x40 MLOAD PUSH3 0x17B2 SWAP2 SWAP1 PUSH3 0x1EBF JUMP JUMPDEST PUSH1 0x40 MLOAD DUP1 SWAP2 SUB SWAP1 LOG3 POP POP POP JUMP JUMPDEST PUSH1 0x0 DUP4 PUSH20 0xFFFFFFFFFFFFFFFFFFFFFFFFFFFFFFFFFFFFFFFF AND EXTCODESIZE GT ISZERO PUSH3 0x1981 JUMPI DUP3 PUSH20 0xFFFFFFFFFFFFFFFFFFFFFFFFFFFFFFFFFFFFFFFF AND PUSH4 0x150B7A02 PUSH3 0x1806 PUSH3 0x14DB JUMP JUMPDEST DUP7 DUP6 DUP6 PUSH1 0x40 MLOAD DUP6 PUSH4 0xFFFFFFFF AND PUSH1 0xE0 SHL DUP2 MSTORE PUSH1 0x4 ADD PUSH3 0x182A SWAP5 SWAP4 SWAP3 SWAP2 SWAP1 PUSH3 0x2CD5 JUMP JUMPDEST PUSH1 0x20 PUSH1 0x40 MLOAD DUP1 DUP4 SUB DUP2 PUSH1 0x0 DUP8 GAS CALL SWAP3 POP POP POP DUP1 ISZERO PUSH3 0x1869 JUMPI POP PUSH1 0x40 MLOAD RETURNDATASIZE PUSH1 0x1F NOT PUSH1 0x1F DUP3 ADD AND DUP3 ADD DUP1 PUSH1 0x40 MSTORE POP DUP2 ADD SWAP1 PUSH3 0x1866 SWAP2 SWAP1 PUSH3 0x2D40 JUMP JUMPDEST PUSH1 0x1 JUMPDEST PUSH3 0x18F3 JUMPI RETURNDATASIZE DUP1 PUSH1 0x0 DUP2 EQ PUSH3 0x189C JUMPI PUSH1 0x40 MLOAD SWAP2 POP PUSH1 0x1F NOT PUSH1 0x3F RETURNDATASIZE ADD AND DUP3 ADD PUSH1 0x40 MSTORE RETURNDATASIZE DUP3 MSTORE RETURNDATASIZE PUSH1 0x0 PUSH1 0x20 DUP5 ADD RETURNDATACOPY PUSH3 0x18A1 JUMP JUMPDEST PUSH1 0x60 SWAP2 POP JUMPDEST POP PUSH1 0x0 DUP2 MLOAD SUB PUSH3 0x18EB JUMPI DUP4 PUSH1 0x40 MLOAD PUSH32 0x64A0AE9200000000000000000000000000000000000000000000000000000000 DUP2 MSTORE PUSH1 0x4 ADD PUSH3 0x18E2 SWAP2 SWAP1 PUSH3 0x204C JUMP JUMPDEST PUSH1 0x40 MLOAD DUP1 SWAP2 SUB SWAP1 REVERT JUMPDEST DUP1 MLOAD DUP2 PUSH1 0x20 ADD REVERT JUMPDEST PUSH4 0x150B7A02 PUSH1 0xE0 SHL PUSH28 0xFFFFFFFFFFFFFFFFFFFFFFFFFFFFFFFFFFFFFFFFFFFFFFFFFFFFFFFF NOT AND DUP2 PUSH28 0xFFFFFFFFFFFFFFFFFFFFFFFFFFFFFFFFFFFFFFFFFFFFFFFFFFFFFFFF NOT AND EQ PUSH3 0x197F JUMPI DUP4 PUSH1 0x40 MLOAD PUSH32 0x64A0AE9200000000000000000000000000000000000000000000000000000000 DUP2 MSTORE PUSH1 0x4 ADD PUSH3 0x1976 SWAP2 SWAP1 PUSH3 0x204C JUMP JUMPDEST PUSH1 0x40 MLOAD DUP1 SWAP2 SUB SWAP1 REVERT JUMPDEST POP JUMPDEST POP POP POP POP JUMP JUMPDEST PUSH1 0x60 PUSH1 0x40 MLOAD DUP1 PUSH1 0x20 ADD PUSH1 0x40 MSTORE DUP1 PUSH1 0x0 DUP2 MSTORE POP SWAP1 POP SWAP1 JUMP JUMPDEST PUSH1 0x60 PUSH1 0x0 PUSH1 0x1 PUSH3 0x19AF DUP5 PUSH3 0x1C85 JUMP JUMPDEST ADD SWAP1 POP PUSH1 0x0 DUP2 PUSH8 0xFFFFFFFFFFFFFFFF DUP2 GT ISZERO PUSH3 0x19D1 JUMPI PUSH3 0x19D0 PUSH3 0x22B3 JUMP JUMPDEST JUMPDEST PUSH1 0x40 MLOAD SWAP1 DUP1 DUP3 MSTORE DUP1 PUSH1 0x1F ADD PUSH1 0x1F NOT AND PUSH1 0x20 ADD DUP3 ADD PUSH1 0x40 MSTORE DUP1 ISZERO PUSH3 0x1A04 JUMPI DUP2 PUSH1 0x20 ADD PUSH1 0x1 DUP3 MUL DUP1 CALLDATASIZE DUP4 CALLDATACOPY DUP1 DUP3 ADD SWAP2 POP POP SWAP1 POP JUMPDEST POP SWAP1 POP PUSH1 0x0 DUP3 PUSH1 0x20 ADD DUP3 ADD SWAP1 POP JUMPDEST PUSH1 0x1 ISZERO PUSH3 0x1A6C JUMPI DUP1 DUP1 PUSH1 0x1 SWAP1 SUB SWAP2 POP POP PUSH32 0x3031323334353637383961626364656600000000000000000000000000000000 PUSH1 0xA DUP7 MOD BYTE DUP2 MSTORE8 PUSH1 0xA DUP6 DUP2 PUSH3 0x1A5F JUMPI PUSH3 0x1A5E PUSH3 0x2D72 JUMP JUMPDEST JUMPDEST DIV SWAP5 POP PUSH1 0x0 DUP6 SUB PUSH3 0x1A12 JUMPI JUMPDEST DUP2 SWAP4 POP POP POP POP SWAP2 SWAP1 POP JUMP JUMPDEST PUSH1 0x0 PUSH1 0x3 PUSH1 0x0 DUP4 DUP2 MSTORE PUSH1 0x20 ADD SWAP1 DUP2 MSTORE PUSH1 0x20 ADD PUSH1 0x0 KECCAK256 PUSH1 0x0 SWAP1 SLOAD SWAP1 PUSH2 0x100 EXP SWAP1 DIV PUSH20 0xFFFFFFFFFFFFFFFFFFFFFFFFFFFFFFFFFFFFFFFF AND SWAP1 POP SWAP2 SWAP1 POP JUMP JUMPDEST DUP1 DUP1 PUSH3 0x1AEE JUMPI POP PUSH1 0x0 PUSH20 0xFFFFFFFFFFFFFFFFFFFFFFFFFFFFFFFFFFFFFFFF AND DUP3 PUSH20 0xFFFFFFFFFFFFFFFFFFFFFFFFFFFFFFFFFFFFFFFF AND EQ ISZERO JUMPDEST ISZERO PUSH3 0x1C2D JUMPI PUSH1 0x0 PUSH3 0x1B01 DUP5 PUSH3 0x1411 JUMP JUMPDEST SWAP1 POP PUSH1 0x0 PUSH20 0xFFFFFFFFFFFFFFFFFFFFFFFFFFFFFFFFFFFFFFFF AND DUP4 PUSH20 0xFFFFFFFFFFFFFFFFFFFFFFFFFFFFFFFFFFFFFFFF AND EQ ISZERO DUP1 ISZERO PUSH3 0x1B6D JUMPI POP DUP3 PUSH20 0xFFFFFFFFFFFFFFFFFFFFFFFFFFFFFFFFFFFFFFFF AND DUP2 PUSH20 0xFFFFFFFFFFFFFFFFFFFFFFFFFFFFFFFFFFFFFFFF AND EQ ISZERO JUMPDEST DUP1 ISZERO PUSH3 0x1B83 JUMPI POP PUSH3 0x1B81 DUP2 DUP5 PUSH3 0x1196 JUMP JUMPDEST ISZERO JUMPDEST ISZERO PUSH3 0x1BC8 JUMPI DUP3 PUSH1 0x40 MLOAD PUSH32 0xA9FBF51F00000000000000000000000000000000000000000000000000000000 DUP2 MSTORE PUSH1 0x4 ADD PUSH3 0x1BBF SWAP2 SWAP1 PUSH3 0x204C JUMP JUMPDEST PUSH1 0x40 MLOAD DUP1 SWAP2 SUB SWAP1 REVERT JUMPDEST DUP2 ISZERO PUSH3 0x1C2B JUMPI DUP4 DUP6 PUSH20 0xFFFFFFFFFFFFFFFFFFFFFFFFFFFFFFFFFFFFFFFF AND DUP3 PUSH20 0xFFFFFFFFFFFFFFFFFFFFFFFFFFFFFFFFFFFFFFFF AND PUSH32 0x8C5BE1E5EBEC7D5BD14F71427D1E84F3DD0314C0F7B2291E5B200AC8C7C3B925 PUSH1 0x40 MLOAD PUSH1 0x40 MLOAD DUP1 SWAP2 SUB SWAP1 LOG4 JUMPDEST POP JUMPDEST DUP4 PUSH1 0x5 PUSH1 0x0 DUP6 DUP2 MSTORE PUSH1 0x20 ADD SWAP1 DUP2 MSTORE PUSH1 0x20 ADD PUSH1 0x0 KECCAK256 PUSH1 0x0 PUSH2 0x100 EXP DUP2 SLOAD DUP2 PUSH20 0xFFFFFFFFFFFFFFFFFFFFFFFFFFFFFFFFFFFFFFFF MUL NOT AND SWAP1 DUP4 PUSH20 0xFFFFFFFFFFFFFFFFFFFFFFFFFFFFFFFFFFFFFFFF AND MUL OR SWAP1 SSTORE POP POP POP POP POP JUMP JUMPDEST PUSH1 0x0 DUP1 PUSH1 0x0 SWAP1 POP PUSH27 0x184F03E93FF9F4DAA797ED6E38ED64BF6A1F010000000000000000 DUP4 LT PUSH3 0x1CE7 JUMPI PUSH27 0x184F03E93FF9F4DAA797ED6E38ED64BF6A1F010000000000000000 DUP4 DUP2 PUSH3 0x1CDD JUMPI PUSH3 0x1CDC PUSH3 0x2D72 JUMP JUMPDEST JUMPDEST DIV SWAP3 POP PUSH1 0x40 DUP2 ADD SWAP1 POP JUMPDEST PUSH14 0x4EE2D6D415B85ACEF8100000000 DUP4 LT PUSH3 0x1D28 JUMPI PUSH14 0x4EE2D6D415B85ACEF8100000000 DUP4 DUP2 PUSH3 0x1D1E JUMPI PUSH3 0x1D1D PUSH3 0x2D72 JUMP JUMPDEST JUMPDEST DIV SWAP3 POP PUSH1 0x20 DUP2 ADD SWAP1 POP JUMPDEST PUSH7 0x2386F26FC10000 DUP4 LT PUSH3 0x1D5B JUMPI PUSH7 0x2386F26FC10000 DUP4 DUP2 PUSH3 0x1D51 JUMPI PUSH3 0x1D50 PUSH3 0x2D72 JUMP JUMPDEST JUMPDEST DIV SWAP3 POP PUSH1 0x10 DUP2 ADD SWAP1 POP JUMPDEST PUSH4 0x5F5E100 DUP4 LT PUSH3 0x1D88 JUMPI PUSH4 0x5F5E100 DUP4 DUP2 PUSH3 0x1D7E JUMPI PUSH3 0x1D7D PUSH3 0x2D72 JUMP JUMPDEST JUMPDEST DIV SWAP3 POP PUSH1 0x8 DUP2 ADD SWAP1 POP JUMPDEST PUSH2 0x2710 DUP4 LT PUSH3 0x1DB1 JUMPI PUSH2 0x2710 DUP4 DUP2 PUSH3 0x1DA7 JUMPI PUSH3 0x1DA6 PUSH3 0x2D72 JUMP JUMPDEST JUMPDEST DIV SWAP3 POP PUSH1 0x4 DUP2 ADD SWAP1 POP JUMPDEST PUSH1 0x64 DUP4 LT PUSH3 0x1DD8 JUMPI PUSH1 0x64 DUP4 DUP2 PUSH3 0x1DCE JUMPI PUSH3 0x1DCD PUSH3 0x2D72 JUMP JUMPDEST JUMPDEST DIV SWAP3 POP PUSH1 0x2 DUP2 ADD SWAP1 POP JUMPDEST PUSH1 0xA DUP4 LT PUSH3 0x1DE8 JUMPI PUSH1 0x1 DUP2 ADD SWAP1 POP JUMPDEST DUP1 SWAP2 POP POP SWAP2 SWAP1 POP JUMP JUMPDEST PUSH2 0x2682 DUP1 PUSH3 0x2DA2 DUP4 CODECOPY ADD SWAP1 JUMP JUMPDEST PUSH1 0x0 PUSH1 0x40 MLOAD SWAP1 POP SWAP1 JUMP JUMPDEST PUSH1 0x0 DUP1 REVERT JUMPDEST PUSH1 0x0 DUP1 REVERT JUMPDEST PUSH1 0x0 PUSH32 0xFFFFFFFF00000000000000000000000000000000000000000000000000000000 DUP3 AND SWAP1 POP SWAP2 SWAP1 POP JUMP JUMPDEST PUSH3 0x1E4A DUP2 PUSH3 0x1E13 JUMP JUMPDEST DUP2 EQ PUSH3 0x1E56 JUMPI PUSH1 0x0 DUP1 REVERT JUMPDEST POP JUMP JUMPDEST PUSH1 0x0 DUP2 CALLDATALOAD SWAP1 POP PUSH3 0x1E6A DUP2 PUSH3 0x1E3F JUMP JUMPDEST SWAP3 SWAP2 POP POP JUMP JUMPDEST PUSH1 0x0 PUSH1 0x20 DUP3 DUP5 SUB SLT ISZERO PUSH3 0x1E89 JUMPI PUSH3 0x1E88 PUSH3 0x1E09 JUMP JUMPDEST JUMPDEST PUSH1 0x0 PUSH3 0x1E99 DUP5 DUP3 DUP6 ADD PUSH3 0x1E59 JUMP JUMPDEST SWAP2 POP POP SWAP3 SWAP2 POP POP JUMP JUMPDEST PUSH1 0x0 DUP2 ISZERO ISZERO SWAP1 POP SWAP2 SWAP1 POP JUMP JUMPDEST PUSH3 0x1EB9 DUP2 PUSH3 0x1EA2 JUMP JUMPDEST DUP3 MSTORE POP POP JUMP JUMPDEST PUSH1 0x0 PUSH1 0x20 DUP3 ADD SWAP1 POP PUSH3 0x1ED6 PUSH1 0x0 DUP4 ADD DUP5 PUSH3 0x1EAE JUMP JUMPDEST SWAP3 SWAP2 POP POP JUMP JUMPDEST PUSH1 0x0 DUP2 MLOAD SWAP1 POP SWAP2 SWAP1 POP JUMP JUMPDEST PUSH1 0x0 DUP3 DUP3 MSTORE PUSH1 0x20 DUP3 ADD SWAP1 POP SWAP3 SWAP2 POP POP JUMP JUMPDEST PUSH1 0x0 JUMPDEST DUP4 DUP2 LT ISZERO PUSH3 0x1F18 JUMPI DUP1 DUP3 ADD MLOAD DUP2 DUP5 ADD MSTORE PUSH1 0x20 DUP2 ADD SWAP1 POP PUSH3 0x1EFB JUMP JUMPDEST PUSH1 0x0 DUP5 DUP5 ADD MSTORE POP POP POP POP JUMP JUMPDEST PUSH1 0x0 PUSH1 0x1F NOT PUSH1 0x1F DUP4 ADD AND SWAP1 POP SWAP2 SWAP1 POP JUMP JUMPDEST PUSH1 0x0 PUSH3 0x1F42 DUP3 PUSH3 0x1EDC JUMP JUMPDEST PUSH3 0x1F4E DUP2 DUP6 PUSH3 0x1EE7 JUMP JUMPDEST SWAP4 POP PUSH3 0x1F60 DUP2 DUP6 PUSH1 0x20 DUP7 ADD PUSH3 0x1EF8 JUMP JUMPDEST PUSH3 0x1F6B DUP2 PUSH3 0x1F24 JUMP JUMPDEST DUP5 ADD SWAP2 POP POP SWAP3 SWAP2 POP POP JUMP JUMPDEST PUSH1 0x0 PUSH1 0x20 DUP3 ADD SWAP1 POP DUP2 DUP2 SUB PUSH1 0x0 DUP4 ADD MSTORE PUSH3 0x1F92 DUP2 DUP5 PUSH3 0x1F35 JUMP JUMPDEST SWAP1 POP SWAP3 SWAP2 POP POP JUMP JUMPDEST PUSH1 0x0 DUP2 SWAP1 POP SWAP2 SWAP1 POP JUMP JUMPDEST PUSH3 0x1FAF DUP2 PUSH3 0x1F9A JUMP JUMPDEST DUP2 EQ PUSH3 0x1FBB JUMPI PUSH1 0x0 DUP1 REVERT JUMPDEST POP JUMP JUMPDEST PUSH1 0x0 DUP2 CALLDATALOAD SWAP1 POP PUSH3 0x1FCF DUP2 PUSH3 0x1FA4 JUMP JUMPDEST SWAP3 SWAP2 POP POP JUMP JUMPDEST PUSH1 0x0 PUSH1 0x20 DUP3 DUP5 SUB SLT ISZERO PUSH3 0x1FEE JUMPI PUSH3 0x1FED PUSH3 0x1E09 JUMP JUMPDEST JUMPDEST PUSH1 0x0 PUSH3 0x1FFE DUP5 DUP3 DUP6 ADD PUSH3 0x1FBE JUMP JUMPDEST SWAP2 POP POP SWAP3 SWAP2 POP POP JUMP JUMPDEST PUSH1 0x0 PUSH20 0xFFFFFFFFFFFFFFFFFFFFFFFFFFFFFFFFFFFFFFFF DUP3 AND SWAP1 POP SWAP2 SWAP1 POP JUMP JUMPDEST PUSH1 0x0 PUSH3 0x2034 DUP3 PUSH3 0x2007 JUMP JUMPDEST SWAP1 POP SWAP2 SWAP1 POP JUMP JUMPDEST PUSH3 0x2046 DUP2 PUSH3 0x2027 JUMP JUMPDEST DUP3 MSTORE POP POP JUMP JUMPDEST PUSH1 0x0 PUSH1 0x20 DUP3 ADD SWAP1 POP PUSH3 0x2063 PUSH1 0x0 DUP4 ADD DUP5 PUSH3 0x203B JUMP JUMPDEST SWAP3 SWAP2 POP POP JUMP JUMPDEST PUSH3 0x2074 DUP2 PUSH3 0x2027 JUMP JUMPDEST DUP2 EQ PUSH3 0x2080 JUMPI PUSH1 0x0 DUP1 REVERT JUMPDEST POP JUMP JUMPDEST PUSH1 0x0 DUP2 CALLDATALOAD SWAP1 POP PUSH3 0x2094 DUP2 PUSH3 0x2069 JUMP JUMPDEST SWAP3 SWAP2 POP POP JUMP JUMPDEST PUSH1 0x0 DUP1 PUSH1 0x40 DUP4 DUP6 SUB SLT ISZERO PUSH3 0x20B4 JUMPI PUSH3 0x20B3 PUSH3 0x1E09 JUMP JUMPDEST JUMPDEST PUSH1 0x0 PUSH3 0x20C4 DUP6 DUP3 DUP7 ADD PUSH3 0x2083 JUMP JUMPDEST SWAP3 POP POP PUSH1 0x20 PUSH3 0x20D7 DUP6 DUP3 DUP7 ADD PUSH3 0x1FBE JUMP JUMPDEST SWAP2 POP POP SWAP3 POP SWAP3 SWAP1 POP JUMP JUMPDEST PUSH1 0x0 DUP2 SWAP1 POP SWAP2 SWAP1 POP JUMP JUMPDEST PUSH3 0x20F6 DUP2 PUSH3 0x20E1 JUMP JUMPDEST DUP3 MSTORE POP POP JUMP JUMPDEST PUSH1 0x0 PUSH1 0x20 DUP3 ADD SWAP1 POP PUSH3 0x2113 PUSH1 0x0 DUP4 ADD DUP5 PUSH3 0x20EB JUMP JUMPDEST SWAP3 SWAP2 POP POP JUMP JUMPDEST PUSH1 0x0 DUP1 PUSH1 0x0 PUSH1 0x60 DUP5 DUP7 SUB SLT ISZERO PUSH3 0x2135 JUMPI PUSH3 0x2134 PUSH3 0x1E09 JUMP JUMPDEST JUMPDEST PUSH1 0x0 PUSH3 0x2145 DUP7 DUP3 DUP8 ADD PUSH3 0x2083 JUMP JUMPDEST SWAP4 POP POP PUSH1 0x20 PUSH3 0x2158 DUP7 DUP3 DUP8 ADD PUSH3 0x1FBE JUMP JUMPDEST SWAP3 POP POP PUSH1 0x40 PUSH3 0x216B DUP7 DUP3 DUP8 ADD PUSH3 0x1FBE JUMP JUMPDEST SWAP2 POP POP SWAP3 POP SWAP3 POP SWAP3 JUMP JUMPDEST PUSH1 0x0 DUP1 PUSH1 0x0 PUSH1 0x60 DUP5 DUP7 SUB SLT ISZERO PUSH3 0x2191 JUMPI PUSH3 0x2190 PUSH3 0x1E09 JUMP JUMPDEST JUMPDEST PUSH1 0x0 PUSH3 0x21A1 DUP7 DUP3 DUP8 ADD PUSH3 0x2083 JUMP JUMPDEST SWAP4 POP POP PUSH1 0x20 PUSH3 0x21B4 DUP7 DUP3 DUP8 ADD PUSH3 0x2083 JUMP JUMPDEST SWAP3 POP POP PUSH1 0x40 PUSH3 0x21C7 DUP7 DUP3 DUP8 ADD PUSH3 0x1FBE JUMP JUMPDEST SWAP2 POP POP SWAP3 POP SWAP3 POP SWAP3 JUMP JUMPDEST PUSH1 0x0 PUSH1 0x20 DUP3 DUP5 SUB SLT ISZERO PUSH3 0x21EA JUMPI PUSH3 0x21E9 PUSH3 0x1E09 JUMP JUMPDEST JUMPDEST PUSH1 0x0 PUSH3 0x21FA DUP5 DUP3 DUP6 ADD PUSH3 0x2083 JUMP JUMPDEST SWAP2 POP POP SWAP3 SWAP2 POP POP JUMP JUMPDEST PUSH3 0x220E DUP2 PUSH3 0x1F9A JUMP JUMPDEST DUP3 MSTORE POP POP JUMP JUMPDEST PUSH1 0x0 PUSH1 0x20 DUP3 ADD SWAP1 POP PUSH3 0x222B PUSH1 0x0 DUP4 ADD DUP5 PUSH3 0x2203 JUMP JUMPDEST SWAP3 SWAP2 POP POP JUMP JUMPDEST PUSH3 0x223C DUP2 PUSH3 0x1EA2 JUMP JUMPDEST DUP2 EQ PUSH3 0x2248 JUMPI PUSH1 0x0 DUP1 REVERT JUMPDEST POP JUMP JUMPDEST PUSH1 0x0 DUP2 CALLDATALOAD SWAP1 POP PUSH3 0x225C DUP2 PUSH3 0x2231 JUMP JUMPDEST SWAP3 SWAP2 POP POP JUMP JUMPDEST PUSH1 0x0 DUP1 PUSH1 0x40 DUP4 DUP6 SUB SLT ISZERO PUSH3 0x227C JUMPI PUSH3 0x227B PUSH3 0x1E09 JUMP JUMPDEST JUMPDEST PUSH1 0x0 PUSH3 0x228C DUP6 DUP3 DUP7 ADD PUSH3 0x2083 JUMP JUMPDEST SWAP3 POP POP PUSH1 0x20 PUSH3 0x229F DUP6 DUP3 DUP7 ADD PUSH3 0x224B JUMP JUMPDEST SWAP2 POP POP SWAP3 POP SWAP3 SWAP1 POP JUMP JUMPDEST PUSH1 0x0 DUP1 REVERT JUMPDEST PUSH1 0x0 DUP1 REVERT JUMPDEST PUSH32 0x4E487B7100000000000000000000000000000000000000000000000000000000 PUSH1 0x0 MSTORE PUSH1 0x41 PUSH1 0x4 MSTORE PUSH1 0x24 PUSH1 0x0 REVERT JUMPDEST PUSH3 0x22ED DUP3 PUSH3 0x1F24 JUMP JUMPDEST DUP2 ADD DUP2 DUP2 LT PUSH8 0xFFFFFFFFFFFFFFFF DUP3 GT OR ISZERO PUSH3 0x230F JUMPI PUSH3 0x230E PUSH3 0x22B3 JUMP JUMPDEST JUMPDEST DUP1 PUSH1 0x40 MSTORE POP POP POP JUMP JUMPDEST PUSH1 0x0 PUSH3 0x2324 PUSH3 0x1DFF JUMP JUMPDEST SWAP1 POP PUSH3 0x2332 DUP3 DUP3 PUSH3 0x22E2 JUMP JUMPDEST SWAP2 SWAP1 POP JUMP JUMPDEST PUSH1 0x0 PUSH8 0xFFFFFFFFFFFFFFFF DUP3 GT ISZERO PUSH3 0x2355 JUMPI PUSH3 0x2354 PUSH3 0x22B3 JUMP JUMPDEST JUMPDEST PUSH3 0x2360 DUP3 PUSH3 0x1F24 JUMP JUMPDEST SWAP1 POP PUSH1 0x20 DUP2 ADD SWAP1 POP SWAP2 SWAP1 POP JUMP JUMPDEST DUP3 DUP2 DUP4 CALLDATACOPY PUSH1 0x0 DUP4 DUP4 ADD MSTORE POP POP POP JUMP JUMPDEST PUSH1 0x0 PUSH3 0x2393 PUSH3 0x238D DUP5 PUSH3 0x2337 JUMP JUMPDEST PUSH3 0x2318 JUMP JUMPDEST SWAP1 POP DUP3 DUP2 MSTORE PUSH1 0x20 DUP2 ADD DUP5 DUP5 DUP5 ADD GT ISZERO PUSH3 0x23B2 JUMPI PUSH3 0x23B1 PUSH3 0x22AE JUMP JUMPDEST JUMPDEST PUSH3 0x23BF DUP5 DUP3 DUP6 PUSH3 0x236D JUMP JUMPDEST POP SWAP4 SWAP3 POP POP POP JUMP JUMPDEST PUSH1 0x0 DUP3 PUSH1 0x1F DUP4 ADD SLT PUSH3 0x23DF JUMPI PUSH3 0x23DE PUSH3 0x22A9 JUMP JUMPDEST JUMPDEST DUP2 CALLDATALOAD PUSH3 0x23F1 DUP5 DUP3 PUSH1 0x20 DUP7 ADD PUSH3 0x237C JUMP JUMPDEST SWAP2 POP POP SWAP3 SWAP2 POP POP JUMP JUMPDEST PUSH1 0x0 DUP1 PUSH1 0x0 DUP1 PUSH1 0x80 DUP6 DUP8 SUB SLT ISZERO PUSH3 0x2417 JUMPI PUSH3 0x2416 PUSH3 0x1E09 JUMP JUMPDEST JUMPDEST PUSH1 0x0 PUSH3 0x2427 DUP8 DUP3 DUP9 ADD PUSH3 0x2083 JUMP JUMPDEST SWAP5 POP POP PUSH1 0x20 PUSH3 0x243A DUP8 DUP3 DUP9 ADD PUSH3 0x2083 JUMP JUMPDEST SWAP4 POP POP PUSH1 0x40 PUSH3 0x244D DUP8 DUP3 DUP9 ADD PUSH3 0x1FBE JUMP JUMPDEST SWAP3 POP POP PUSH1 0x60 DUP6 ADD CALLDATALOAD PUSH8 0xFFFFFFFFFFFFFFFF DUP2 GT ISZERO PUSH3 0x2471 JUMPI PUSH3 0x2470 PUSH3 0x1E0E JUMP JUMPDEST JUMPDEST PUSH3 0x247F DUP8 DUP3 DUP9 ADD PUSH3 0x23C7 JUMP JUMPDEST SWAP2 POP POP SWAP3 SWAP6 SWAP2 SWAP5 POP SWAP3 POP JUMP JUMPDEST PUSH1 0x0 DUP2 SWAP1 POP SWAP2 SWAP1 POP JUMP JUMPDEST PUSH1 0x0 PUSH3 0x24B6 PUSH3 0x24B0 PUSH3 0x24AA DUP5 PUSH3 0x2007 JUMP JUMPDEST PUSH3 0x248B JUMP JUMPDEST PUSH3 0x2007 JUMP JUMPDEST SWAP1 POP SWAP2 SWAP1 POP JUMP JUMPDEST PUSH1 0x0 PUSH3 0x24CA DUP3 PUSH3 0x2495 JUMP JUMPDEST SWAP1 POP SWAP2 SWAP1 POP JUMP JUMPDEST PUSH1 0x0 PUSH3 0x24DE DUP3 PUSH3 0x24BD JUMP JUMPDEST SWAP1 POP SWAP2 SWAP1 POP JUMP JUMPDEST PUSH3 0x24F0 DUP2 PUSH3 0x24D1 JUMP JUMPDEST DUP3 MSTORE POP POP JUMP JUMPDEST PUSH1 0x0 PUSH1 0x20 DUP3 ADD SWAP1 POP PUSH3 0x250D PUSH1 0x0 DUP4 ADD DUP5 PUSH3 0x24E5 JUMP JUMPDEST SWAP3 SWAP2 POP POP JUMP JUMPDEST PUSH1 0x0 DUP1 PUSH1 0x40 DUP4 DUP6 SUB SLT ISZERO PUSH3 0x252D JUMPI PUSH3 0x252C PUSH3 0x1E09 JUMP JUMPDEST JUMPDEST PUSH1 0x0 PUSH3 0x253D DUP6 DUP3 DUP7 ADD PUSH3 0x2083 JUMP JUMPDEST SWAP3 POP POP PUSH1 0x20 PUSH3 0x2550 DUP6 DUP3 DUP7 ADD PUSH3 0x2083 JUMP JUMPDEST SWAP2 POP POP SWAP3 POP SWAP3 SWAP1 POP JUMP JUMPDEST PUSH32 0x4E487B7100000000000000000000000000000000000000000000000000000000 PUSH1 0x0 MSTORE PUSH1 0x22 PUSH1 0x4 MSTORE PUSH1 0x24 PUSH1 0x0 REVERT JUMPDEST PUSH1 0x0 PUSH1 0x2 DUP3 DIV SWAP1 POP PUSH1 0x1 DUP3 AND DUP1 PUSH3 0x25A2 JUMPI PUSH1 0x7F DUP3 AND SWAP2 POP JUMPDEST PUSH1 0x20 DUP3 LT DUP2 SUB PUSH3 0x25B8 JUMPI PUSH3 0x25B7 PUSH3 0x255A JUMP JUMPDEST JUMPDEST POP SWAP2 SWAP1 POP JUMP JUMPDEST PUSH1 0x0 DUP2 MLOAD SWAP1 POP PUSH3 0x25CF DUP2 PUSH3 0x2231 JUMP JUMPDEST SWAP3 SWAP2 POP POP JUMP JUMPDEST PUSH1 0x0 PUSH1 0x20 DUP3 DUP5 SUB SLT ISZERO PUSH3 0x25EE JUMPI PUSH3 0x25ED PUSH3 0x1E09 JUMP JUMPDEST JUMPDEST PUSH1 0x0 PUSH3 0x25FE DUP5 DUP3 DUP6 ADD PUSH3 0x25BE JUMP JUMPDEST SWAP2 POP POP SWAP3 SWAP2 POP POP JUMP JUMPDEST PUSH32 0x4E487B7100000000000000000000000000000000000000000000000000000000 PUSH1 0x0 MSTORE PUSH1 0x11 PUSH1 0x4 MSTORE PUSH1 0x24 PUSH1 0x0 REVERT JUMPDEST PUSH1 0x0 PUSH3 0x2643 DUP3 PUSH3 0x20E1 JUMP JUMPDEST SWAP2 POP PUSH32 0x7FFFFFFFFFFFFFFFFFFFFFFFFFFFFFFFFFFFFFFFFFFFFFFFFFFFFFFFFFFFFFFF DUP3 SUB PUSH3 0x2678 JUMPI PUSH3 0x2677 PUSH3 0x2607 JUMP JUMPDEST JUMPDEST PUSH1 0x1 DUP3 ADD SWAP1 POP SWAP2 SWAP1 POP JUMP JUMPDEST PUSH32 0x436172644F776E6572736869703A20636F6C6C656374696F6E20646F6573206E PUSH1 0x0 DUP3 ADD MSTORE PUSH32 0x6F74206578697374000000000000000000000000000000000000000000000000 PUSH1 0x20 DUP3 ADD MSTORE POP JUMP JUMPDEST PUSH1 0x0 PUSH3 0x26E1 PUSH1 0x28 DUP4 PUSH3 0x1EE7 JUMP JUMPDEST SWAP2 POP PUSH3 0x26EE DUP3 PUSH3 0x2683 JUMP JUMPDEST PUSH1 0x40 DUP3 ADD SWAP1 POP SWAP2 SWAP1 POP JUMP JUMPDEST PUSH1 0x0 PUSH1 0x20 DUP3 ADD SWAP1 POP DUP2 DUP2 SUB PUSH1 0x0 DUP4 ADD MSTORE PUSH3 0x2714 DUP2 PUSH3 0x26D2 JUMP JUMPDEST SWAP1 POP SWAP2 SWAP1 POP JUMP JUMPDEST PUSH1 0x0 PUSH1 0x40 DUP3 ADD SWAP1 POP PUSH3 0x2732 PUSH1 0x0 DUP4 ADD DUP6 PUSH3 0x203B JUMP JUMPDEST PUSH3 0x2741 PUSH1 0x20 DUP4 ADD DUP5 PUSH3 0x2203 JUMP JUMPDEST SWAP4 SWAP3 POP POP POP JUMP JUMPDEST PUSH32 0x436172644F776E6572736869703A207472616E73666572206F6620746F6B656E PUSH1 0x0 DUP3 ADD MSTORE PUSH32 0x2074686174206973206E6F74206F776E00000000000000000000000000000000 PUSH1 0x20 DUP3 ADD MSTORE POP JUMP JUMPDEST PUSH1 0x0 PUSH3 0x27A6 PUSH1 0x30 DUP4 PUSH3 0x1EE7 JUMP JUMPDEST SWAP2 POP PUSH3 0x27B3 DUP3 PUSH3 0x2748 JUMP JUMPDEST PUSH1 0x40 DUP3 ADD SWAP1 POP SWAP2 SWAP1 POP JUMP JUMPDEST PUSH1 0x0 PUSH1 0x20 DUP3 ADD SWAP1 POP DUP2 DUP2 SUB PUSH1 0x0 DUP4 ADD MSTORE PUSH3 0x27D9 DUP2 PUSH3 0x2797 JUMP JUMPDEST SWAP1 POP SWAP2 SWAP1 POP JUMP JUMPDEST PUSH32 0x436172644F776E6572736869703A207472616E7366657220746F20746865207A PUSH1 0x0 DUP3 ADD MSTORE PUSH32 0x65726F2061646472657373000000000000000000000000000000000000000000 PUSH1 0x20 DUP3 ADD MSTORE POP JUMP JUMPDEST PUSH1 0x0 PUSH3 0x283E PUSH1 0x2B DUP4 PUSH3 0x1EE7 JUMP JUMPDEST SWAP2 POP PUSH3 0x284B DUP3 PUSH3 0x27E0 JUMP JUMPDEST PUSH1 0x40 DUP3 ADD SWAP1 POP SWAP2 SWAP1 POP JUMP JUMPDEST PUSH1 0x0 PUSH1 0x20 DUP3 ADD SWAP1 POP DUP2 DUP2 SUB PUSH1 0x0 DUP4 ADD MSTORE PUSH3 0x2871 DUP2 PUSH3 0x282F JUMP JUMPDEST SWAP1 POP SWAP2 SWAP1 POP JUMP JUMPDEST PUSH32 0x436172644F776E6572736869703A206361726420646F6573206E6F7420657869 PUSH1 0x0 DUP3 ADD MSTORE PUSH32 0x7374000000000000000000000000000000000000000000000000000000000000 PUSH1 0x20 DUP3 ADD MSTORE POP JUMP JUMPDEST PUSH1 0x0 PUSH3 0x28D6 PUSH1 0x22 DUP4 PUSH3 0x1EE7 JUMP JUMPDEST SWAP2 POP PUSH3 0x28E3 DUP3 PUSH3 0x2878 JUMP JUMPDEST PUSH1 0x40 DUP3 ADD SWAP1 POP SWAP2 SWAP1 POP JUMP JUMPDEST PUSH1 0x0 PUSH1 0x20 DUP3 ADD SWAP1 POP DUP2 DUP2 SUB PUSH1 0x0 DUP4 ADD MSTORE PUSH3 0x2909 DUP2 PUSH3 0x28C7 JUMP JUMPDEST SWAP1 POP SWAP2 SWAP1 POP JUMP JUMPDEST PUSH1 0x0 PUSH3 0x291D DUP3 PUSH3 0x2027 JUMP JUMPDEST SWAP1 POP SWAP2 SWAP1 POP JUMP JUMPDEST PUSH3 0x292F DUP2 PUSH3 0x2910 JUMP JUMPDEST DUP2 EQ PUSH3 0x293B JUMPI PUSH1 0x0 DUP1 REVERT JUMPDEST POP JUMP JUMPDEST PUSH1 0x0 DUP2 MLOAD SWAP1 POP PUSH3 0x294F DUP2 PUSH3 0x2924 JUMP JUMPDEST SWAP3 SWAP2 POP POP JUMP JUMPDEST PUSH1 0x0 PUSH1 0x20 DUP3 DUP5 SUB SLT ISZERO PUSH3 0x296E JUMPI PUSH3 0x296D PUSH3 0x1E09 JUMP JUMPDEST JUMPDEST PUSH1 0x0 PUSH3 0x297E DUP5 DUP3 DUP6 ADD PUSH3 0x293E JUMP JUMPDEST SWAP2 POP POP SWAP3 SWAP2 POP POP JUMP JUMPDEST PUSH1 0x0 DUP2 MLOAD SWAP1 POP PUSH3 0x2998 DUP2 PUSH3 0x2069 JUMP JUMPDEST SWAP3 SWAP2 POP POP JUMP JUMPDEST PUSH1 0x0 PUSH1 0x20 DUP3 DUP5 SUB SLT ISZERO PUSH3 0x29B7 JUMPI PUSH3 0x29B6 PUSH3 0x1E09 JUMP JUMPDEST JUMPDEST PUSH1 0x0 PUSH3 0x29C7 DUP5 DUP3 DUP6 ADD PUSH3 0x2987 JUMP JUMPDEST SWAP2 POP POP SWAP3 SWAP2 POP POP JUMP JUMPDEST PUSH1 0x0 PUSH3 0x29DD DUP3 PUSH3 0x1F9A JUMP JUMPDEST SWAP2 POP PUSH32 0xFFFFFFFFFFFFFFFFFFFFFFFFFFFFFFFFFFFFFFFFFFFFFFFFFFFFFFFFFFFFFFFF DUP3 SUB PUSH3 0x2A12 JUMPI PUSH3 0x2A11 PUSH3 0x2607 JUMP JUMPDEST JUMPDEST PUSH1 0x1 DUP3 ADD SWAP1 POP SWAP2 SWAP1 POP JUMP JUMPDEST PUSH1 0x0 DUP2 MLOAD SWAP1 POP PUSH3 0x2A2E DUP2 PUSH3 0x1FA4 JUMP JUMPDEST SWAP3 SWAP2 POP POP JUMP JUMPDEST PUSH1 0x0 PUSH1 0x20 DUP3 DUP5 SUB SLT ISZERO PUSH3 0x2A4D JUMPI PUSH3 0x2A4C PUSH3 0x1E09 JUMP JUMPDEST JUMPDEST PUSH1 0x0 PUSH3 0x2A5D DUP5 DUP3 DUP6 ADD PUSH3 0x2A1D JUMP JUMPDEST SWAP2 POP POP SWAP3 SWAP2 POP POP JUMP JUMPDEST PUSH1 0x0 PUSH3 0x2A73 DUP3 PUSH3 0x1F9A JUMP JUMPDEST SWAP2 POP PUSH3 0x2A80 DUP4 PUSH3 0x1F9A JUMP JUMPDEST SWAP3 POP DUP3 DUP3 ADD SWAP1 POP DUP1 DUP3 GT ISZERO PUSH3 0x2A9B JUMPI PUSH3 0x2A9A PUSH3 0x2607 JUMP JUMPDEST JUMPDEST SWAP3 SWAP2 POP POP JUMP JUMPDEST PUSH32 0x57697A6172640000000000000000000000000000000000000000000000000000 PUSH1 0x0 DUP3 ADD MSTORE POP JUMP JUMPDEST PUSH1 0x0 PUSH3 0x2AD9 PUSH1 0x6 DUP4 PUSH3 0x1EE7 JUMP JUMPDEST SWAP2 POP PUSH3 0x2AE6 DUP3 PUSH3 0x2AA1 JUMP JUMPDEST PUSH1 0x20 DUP3 ADD SWAP1 POP SWAP2 SWAP1 POP JUMP JUMPDEST PUSH1 0x0 DUP2 SWAP1 POP SWAP2 SWAP1 POP JUMP JUMPDEST PUSH1 0x0 PUSH3 0x2B1C PUSH3 0x2B16 PUSH3 0x2B10 DUP5 PUSH3 0x2AF1 JUMP JUMPDEST PUSH3 0x248B JUMP JUMPDEST PUSH3 0x1F9A JUMP JUMPDEST SWAP1 POP SWAP2 SWAP1 POP JUMP JUMPDEST PUSH3 0x2B2E DUP2 PUSH3 0x2AFB JUMP JUMPDEST DUP3 MSTORE POP POP JUMP JUMPDEST PUSH1 0x0 PUSH1 0x40 DUP3 ADD SWAP1 POP DUP2 DUP2 SUB PUSH1 0x0 DUP4 ADD MSTORE PUSH3 0x2B4F DUP2 PUSH3 0x2ACA JUMP JUMPDEST SWAP1 POP PUSH3 0x2B60 PUSH1 0x20 DUP4 ADD DUP5 PUSH3 0x2B23 JUMP JUMPDEST SWAP3 SWAP2 POP POP JUMP JUMPDEST PUSH32 0x68747470733A2F2F696D616765732E706F6B656D6F6E7463672E696F2F787931 PUSH1 0x0 DUP3 ADD MSTORE PUSH32 0x2F312E706E670000000000000000000000000000000000000000000000000000 PUSH1 0x20 DUP3 ADD MSTORE POP JUMP JUMPDEST PUSH1 0x0 PUSH3 0x2BC4 PUSH1 0x26 DUP4 PUSH3 0x1EE7 JUMP JUMPDEST SWAP2 POP PUSH3 0x2BD1 DUP3 PUSH3 0x2B66 JUMP JUMPDEST PUSH1 0x40 DUP3 ADD SWAP1 POP SWAP2 SWAP1 POP JUMP JUMPDEST PUSH1 0x0 PUSH1 0x40 DUP3 ADD SWAP1 POP PUSH3 0x2BF3 PUSH1 0x0 DUP4 ADD DUP5 PUSH3 0x2203 JUMP JUMPDEST DUP2 DUP2 SUB PUSH1 0x20 DUP4 ADD MSTORE PUSH3 0x2C06 DUP2 PUSH3 0x2BB5 JUMP JUMPDEST SWAP1 POP SWAP3 SWAP2 POP POP JUMP JUMPDEST PUSH1 0x0 DUP2 SWAP1 POP SWAP3 SWAP2 POP POP JUMP JUMPDEST PUSH1 0x0 PUSH3 0x2C26 DUP3 PUSH3 0x1EDC JUMP JUMPDEST PUSH3 0x2C32 DUP2 DUP6 PUSH3 0x2C0E JUMP JUMPDEST SWAP4 POP PUSH3 0x2C44 DUP2 DUP6 PUSH1 0x20 DUP7 ADD PUSH3 0x1EF8 JUMP JUMPDEST DUP1 DUP5 ADD SWAP2 POP POP SWAP3 SWAP2 POP POP JUMP JUMPDEST PUSH1 0x0 PUSH3 0x2C5E DUP3 DUP6 PUSH3 0x2C19 JUMP JUMPDEST SWAP2 POP PUSH3 0x2C6C DUP3 DUP5 PUSH3 0x2C19 JUMP JUMPDEST SWAP2 POP DUP2 SWAP1 POP SWAP4 SWAP3 POP POP POP JUMP JUMPDEST PUSH1 0x0 DUP2 MLOAD SWAP1 POP SWAP2 SWAP1 POP JUMP JUMPDEST PUSH1 0x0 DUP3 DUP3 MSTORE PUSH1 0x20 DUP3 ADD SWAP1 POP SWAP3 SWAP2 POP POP JUMP JUMPDEST PUSH1 0x0 PUSH3 0x2CA1 DUP3 PUSH3 0x2C78 JUMP JUMPDEST PUSH3 0x2CAD DUP2 DUP6 PUSH3 0x2C83 JUMP JUMPDEST SWAP4 POP PUSH3 0x2CBF DUP2 DUP6 PUSH1 0x20 DUP7 ADD PUSH3 0x1EF8 JUMP JUMPDEST PUSH3 0x2CCA DUP2 PUSH3 0x1F24 JUMP JUMPDEST DUP5 ADD SWAP2 POP POP SWAP3 SWAP2 POP POP JUMP JUMPDEST PUSH1 0x0 PUSH1 0x80 DUP3 ADD SWAP1 POP PUSH3 0x2CEC PUSH1 0x0 DUP4 ADD DUP8 PUSH3 0x203B JUMP JUMPDEST PUSH3 0x2CFB PUSH1 0x20 DUP4 ADD DUP7 PUSH3 0x203B JUMP JUMPDEST PUSH3 0x2D0A PUSH1 0x40 DUP4 ADD DUP6 PUSH3 0x2203 JUMP JUMPDEST DUP2 DUP2 SUB PUSH1 0x60 DUP4 ADD MSTORE PUSH3 0x2D1E DUP2 DUP5 PUSH3 0x2C94 JUMP JUMPDEST SWAP1 POP SWAP6 SWAP5 POP POP POP POP POP JUMP JUMPDEST PUSH1 0x0 DUP2 MLOAD SWAP1 POP PUSH3 0x2D3A DUP2 PUSH3 0x1E3F JUMP JUMPDEST SWAP3 SWAP2 POP POP JUMP JUMPDEST PUSH1 0x0 PUSH1 0x20 DUP3 DUP5 SUB SLT ISZERO PUSH3 0x2D59 JUMPI PUSH3 0x2D58 PUSH3 0x1E09 JUMP JUMPDEST JUMPDEST PUSH1 0x0 PUSH3 0x2D69 DUP5 DUP3 DUP6 ADD PUSH3 0x2D29 JUMP JUMPDEST SWAP2 POP POP SWAP3 SWAP2 POP POP JUMP JUMPDEST PUSH32 0x4E487B7100000000000000000000000000000000000000000000000000000000 PUSH1 0x0 MSTORE PUSH1 0x12 PUSH1 0x4 MSTORE PUSH1 0x24 PUSH1 0x0 REVERT INVALID PUSH1 0x80 PUSH1 0x40 MSTORE CALLVALUE DUP1 ISZERO PUSH3 0x11 JUMPI PUSH1 0x0 DUP1 REVERT JUMPDEST POP PUSH1 0x40 MLOAD PUSH3 0x2682 CODESIZE SUB DUP1 PUSH3 0x2682 DUP4 CODECOPY DUP2 DUP2 ADD PUSH1 0x40 MSTORE DUP2 ADD SWAP1 PUSH3 0x37 SWAP2 SWAP1 PUSH3 0x226 JUMP JUMPDEST DUP2 PUSH1 0x0 SWAP1 DUP2 PUSH3 0x48 SWAP2 SWAP1 PUSH3 0x4CD JUMP JUMPDEST POP DUP1 PUSH1 0x1 DUP2 SWAP1 SSTORE POP POP POP PUSH3 0x5B4 JUMP JUMPDEST PUSH1 0x0 PUSH1 0x40 MLOAD SWAP1 POP SWAP1 JUMP JUMPDEST PUSH1 0x0 DUP1 REVERT JUMPDEST PUSH1 0x0 DUP1 REVERT JUMPDEST PUSH1 0x0 DUP1 REVERT JUMPDEST PUSH1 0x0 DUP1 REVERT JUMPDEST PUSH1 0x0 PUSH1 0x1F NOT PUSH1 0x1F DUP4 ADD AND SWAP1 POP SWAP2 SWAP1 POP JUMP JUMPDEST PUSH32 0x4E487B7100000000000000000000000000000000000000000000000000000000 PUSH1 0x0 MSTORE PUSH1 0x41 PUSH1 0x4 MSTORE PUSH1 0x24 PUSH1 0x0 REVERT JUMPDEST PUSH3 0xC1 DUP3 PUSH3 0x76 JUMP JUMPDEST DUP2 ADD DUP2 DUP2 LT PUSH8 0xFFFFFFFFFFFFFFFF DUP3 GT OR ISZERO PUSH3 0xE3 JUMPI PUSH3 0xE2 PUSH3 0x87 JUMP JUMPDEST JUMPDEST DUP1 PUSH1 0x40 MSTORE POP POP POP JUMP JUMPDEST PUSH1 0x0 PUSH3 0xF8 PUSH3 0x58 JUMP JUMPDEST SWAP1 POP PUSH3 0x106 DUP3 DUP3 PUSH3 0xB6 JUMP JUMPDEST SWAP2 SWAP1 POP JUMP JUMPDEST PUSH1 0x0 PUSH8 0xFFFFFFFFFFFFFFFF DUP3 GT ISZERO PUSH3 0x129 JUMPI PUSH3 0x128 PUSH3 0x87 JUMP JUMPDEST JUMPDEST PUSH3 0x134 DUP3 PUSH3 0x76 JUMP JUMPDEST SWAP1 POP PUSH1 0x20 DUP2 ADD SWAP1 POP SWAP2 SWAP1 POP JUMP JUMPDEST PUSH1 0x0 JUMPDEST DUP4 DUP2 LT ISZERO PUSH3 0x161 JUMPI DUP1 DUP3 ADD MLOAD DUP2 DUP5 ADD MSTORE PUSH1 0x20 DUP2 ADD SWAP1 POP PUSH3 0x144 JUMP JUMPDEST PUSH1 0x0 DUP5 DUP5 ADD MSTORE POP POP POP POP JUMP JUMPDEST PUSH1 0x0 PUSH3 0x184 PUSH3 0x17E DUP5 PUSH3 0x10B JUMP JUMPDEST PUSH3 0xEC JUMP JUMPDEST SWAP1 POP DUP3 DUP2 MSTORE PUSH1 0x20 DUP2 ADD DUP5 DUP5 DUP5 ADD GT ISZERO PUSH3 0x1A3 JUMPI PUSH3 0x1A2 PUSH3 0x71 JUMP JUMPDEST JUMPDEST PUSH3 0x1B0 DUP5 DUP3 DUP6 PUSH3 0x141 JUMP JUMPDEST POP SWAP4 SWAP3 POP POP POP JUMP JUMPDEST PUSH1 0x0 DUP3 PUSH1 0x1F DUP4 ADD SLT PUSH3 0x1D0 JUMPI PUSH3 0x1CF PUSH3 0x6C JUMP JUMPDEST JUMPDEST DUP2 MLOAD PUSH3 0x1E2 DUP5 DUP3 PUSH1 0x20 DUP7 ADD PUSH3 0x16D JUMP JUMPDEST SWAP2 POP POP SWAP3 SWAP2 POP POP JUMP JUMPDEST PUSH1 0x0 DUP2 SWAP1 POP SWAP2 SWAP1 POP JUMP JUMPDEST PUSH3 0x200 DUP2 PUSH3 0x1EB JUMP JUMPDEST DUP2 EQ PUSH3 0x20C JUMPI PUSH1 0x0 DUP1 REVERT JUMPDEST POP JUMP JUMPDEST PUSH1 0x0 DUP2 MLOAD SWAP1 POP PUSH3 0x220 DUP2 PUSH3 0x1F5 JUMP JUMPDEST SWAP3 SWAP2 POP POP JUMP JUMPDEST PUSH1 0x0 DUP1 PUSH1 0x40 DUP4 DUP6 SUB SLT ISZERO PUSH3 0x240 JUMPI PUSH3 0x23F PUSH3 0x62 JUMP JUMPDEST JUMPDEST PUSH1 0x0 DUP4 ADD MLOAD PUSH8 0xFFFFFFFFFFFFFFFF DUP2 GT ISZERO PUSH3 0x261 JUMPI PUSH3 0x260 PUSH3 0x67 JUMP JUMPDEST JUMPDEST PUSH3 0x26F DUP6 DUP3 DUP7 ADD PUSH3 0x1B8 JUMP JUMPDEST SWAP3 POP POP PUSH1 0x20 PUSH3 0x282 DUP6 DUP3 DUP7 ADD PUSH3 0x20F JUMP JUMPDEST SWAP2 POP POP SWAP3 POP SWAP3 SWAP1 POP JUMP JUMPDEST PUSH1 0x0 DUP2 MLOAD SWAP1 POP SWAP2 SWAP1 POP JUMP JUMPDEST PUSH32 0x4E487B7100000000000000000000000000000000000000000000000000000000 PUSH1 0x0 MSTORE PUSH1 0x22 PUSH1 0x4 MSTORE PUSH1 0x24 PUSH1 0x0 REVERT JUMPDEST PUSH1 0x0 PUSH1 0x2 DUP3 DIV SWAP1 POP PUSH1 0x1 DUP3 AND DUP1 PUSH3 0x2DF JUMPI PUSH1 0x7F DUP3 AND SWAP2 POP JUMPDEST PUSH1 0x20 DUP3 LT DUP2 SUB PUSH3 0x2F5 JUMPI PUSH3 0x2F4 PUSH3 0x297 JUMP JUMPDEST JUMPDEST POP SWAP2 SWAP1 POP JUMP JUMPDEST PUSH1 0x0 DUP2 SWAP1 POP DUP2 PUSH1 0x0 MSTORE PUSH1 0x20 PUSH1 0x0 KECCAK256 SWAP1 POP SWAP2 SWAP1 POP JUMP JUMPDEST PUSH1 0x0 PUSH1 0x20 PUSH1 0x1F DUP4 ADD DIV SWAP1 POP SWAP2 SWAP1 POP JUMP JUMPDEST PUSH1 0x0 DUP3 DUP3 SHL SWAP1 POP SWAP3 SWAP2 POP POP JUMP JUMPDEST PUSH1 0x0 PUSH1 0x8 DUP4 MUL PUSH3 0x35F PUSH32 0xFFFFFFFFFFFFFFFFFFFFFFFFFFFFFFFFFFFFFFFFFFFFFFFFFFFFFFFFFFFFFFFF DUP3 PUSH3 0x320 JUMP JUMPDEST PUSH3 0x36B DUP7 DUP4 PUSH3 0x320 JUMP JUMPDEST SWAP6 POP DUP1 NOT DUP5 AND SWAP4 POP DUP1 DUP7 AND DUP5 OR SWAP3 POP POP POP SWAP4 SWAP3 POP POP POP JUMP JUMPDEST PUSH1 0x0 DUP2 SWAP1 POP SWAP2 SWAP1 POP JUMP JUMPDEST PUSH1 0x0 PUSH3 0x3AE PUSH3 0x3A8 PUSH3 0x3A2 DUP5 PUSH3 0x1EB JUMP JUMPDEST PUSH3 0x383 JUMP JUMPDEST PUSH3 0x1EB JUMP JUMPDEST SWAP1 POP SWAP2 SWAP1 POP JUMP JUMPDEST PUSH1 0x0 DUP2 SWAP1 POP SWAP2 SWAP1 POP JUMP JUMPDEST PUSH3 0x3CA DUP4 PUSH3 0x38D JUMP JUMPDEST PUSH3 0x3E2 PUSH3 0x3D9 DUP3 PUSH3 0x3B5 JUMP JUMPDEST DUP5 DUP5 SLOAD PUSH3 0x32D JUMP JUMPDEST DUP3 SSTORE POP POP POP POP JUMP JUMPDEST PUSH1 0x0 SWAP1 JUMP JUMPDEST PUSH3 0x3F9 PUSH3 0x3EA JUMP JUMPDEST PUSH3 0x406 DUP2 DUP5 DUP5 PUSH3 0x3BF JUMP JUMPDEST POP POP POP JUMP JUMPDEST JUMPDEST DUP2 DUP2 LT ISZERO PUSH3 0x42E JUMPI PUSH3 0x422 PUSH1 0x0 DUP3 PUSH3 0x3EF JUMP JUMPDEST PUSH1 0x1 DUP2 ADD SWAP1 POP PUSH3 0x40C JUMP JUMPDEST POP POP JUMP JUMPDEST PUSH1 0x1F DUP3 GT ISZERO PUSH3 0x47D JUMPI PUSH3 0x447 DUP2 PUSH3 0x2FB JUMP JUMPDEST PUSH3 0x452 DUP5 PUSH3 0x310 JUMP JUMPDEST DUP2 ADD PUSH1 0x20 DUP6 LT ISZERO PUSH3 0x462 JUMPI DUP2 SWAP1 POP JUMPDEST PUSH3 0x47A PUSH3 0x471 DUP6 PUSH3 0x310 JUMP JUMPDEST DUP4 ADD DUP3 PUSH3 0x40B JUMP JUMPDEST POP POP JUMPDEST POP POP POP JUMP JUMPDEST PUSH1 0x0 DUP3 DUP3 SHR SWAP1 POP SWAP3 SWAP2 POP POP JUMP JUMPDEST PUSH1 0x0 PUSH3 0x4A2 PUSH1 0x0 NOT DUP5 PUSH1 0x8 MUL PUSH3 0x482 JUMP JUMPDEST NOT DUP1 DUP4 AND SWAP2 POP POP SWAP3 SWAP2 POP POP JUMP JUMPDEST PUSH1 0x0 PUSH3 0x4BD DUP4 DUP4 PUSH3 0x48F JUMP JUMPDEST SWAP2 POP DUP3 PUSH1 0x2 MUL DUP3 OR SWAP1 POP SWAP3 SWAP2 POP POP JUMP JUMPDEST PUSH3 0x4D8 DUP3 PUSH3 0x28C JUMP JUMPDEST PUSH8 0xFFFFFFFFFFFFFFFF DUP2 GT ISZERO PUSH3 0x4F4 JUMPI PUSH3 0x4F3 PUSH3 0x87 JUMP JUMPDEST JUMPDEST PUSH3 0x500 DUP3 SLOAD PUSH3 0x2C6 JUMP JUMPDEST PUSH3 0x50D DUP3 DUP3 DUP6 PUSH3 0x432 JUMP JUMPDEST PUSH1 0x0 PUSH1 0x20 SWAP1 POP PUSH1 0x1F DUP4 GT PUSH1 0x1 DUP2 EQ PUSH3 0x545 JUMPI PUSH1 0x0 DUP5 ISZERO PUSH3 0x530 JUMPI DUP3 DUP8 ADD MLOAD SWAP1 POP JUMPDEST PUSH3 0x53C DUP6 DUP3 PUSH3 0x4AF JUMP JUMPDEST DUP7 SSTORE POP PUSH3 0x5AC JUMP JUMPDEST PUSH1 0x1F NOT DUP5 AND PUSH3 0x555 DUP7 PUSH3 0x2FB JUMP JUMPDEST PUSH1 0x0 JUMPDEST DUP3 DUP2 LT ISZERO PUSH3 0x57F JUMPI DUP5 DUP10 ADD MLOAD DUP3 SSTORE PUSH1 0x1 DUP3 ADD SWAP2 POP PUSH1 0x20 DUP6 ADD SWAP5 POP PUSH1 0x20 DUP2 ADD SWAP1 POP PUSH3 0x558 JUMP JUMPDEST DUP7 DUP4 LT ISZERO PUSH3 0x59F JUMPI DUP5 DUP10 ADD MLOAD PUSH3 0x59B PUSH1 0x1F DUP10 AND DUP3 PUSH3 0x48F JUMP JUMPDEST DUP4 SSTORE POP JUMPDEST PUSH1 0x1 PUSH1 0x2 DUP9 MUL ADD DUP9 SSTORE POP POP POP JUMPDEST POP POP POP POP POP POP JUMP JUMPDEST PUSH2 0x20BE DUP1 PUSH3 0x5C4 PUSH1 0x0 CODECOPY PUSH1 0x0 RETURN INVALID PUSH1 0x80 PUSH1 0x40 MSTORE CALLVALUE DUP1 ISZERO PUSH3 0x11 JUMPI PUSH1 0x0 DUP1 REVERT JUMPDEST POP PUSH1 0x4 CALLDATASIZE LT PUSH3 0xE2 JUMPI PUSH1 0x0 CALLDATALOAD PUSH1 0xE0 SHR DUP1 PUSH4 0x70A08231 GT PUSH3 0x99 JUMPI DUP1 PUSH4 0x9188D312 GT PUSH3 0x6F JUMPI DUP1 PUSH4 0x9188D312 EQ PUSH3 0x251 JUMPI DUP1 PUSH4 0xA9AA75EF EQ PUSH3 0x287 JUMPI DUP1 PUSH4 0xAA93D702 EQ PUSH3 0x2BD JUMPI DUP1 PUSH4 0xF92906FF EQ PUSH3 0x2DD JUMPI PUSH3 0xE2 JUMP JUMPDEST DUP1 PUSH4 0x70A08231 EQ PUSH3 0x1C3 JUMPI DUP1 PUSH4 0x7D620130 EQ PUSH3 0x1F9 JUMPI DUP1 PUSH4 0x8DC10768 EQ PUSH3 0x21B JUMPI PUSH3 0xE2 JUMP JUMPDEST DUP1 PUSH4 0x6FDDE03 EQ PUSH3 0xE7 JUMPI DUP1 PUSH4 0x17D7DE7C EQ PUSH3 0x109 JUMPI DUP1 PUSH4 0x1B6CDE10 EQ PUSH3 0x12B JUMPI DUP1 PUSH4 0x40C10F19 EQ PUSH3 0x14D JUMPI DUP1 PUSH4 0x6352211E EQ PUSH3 0x16D JUMPI DUP1 PUSH4 0x6A627842 EQ PUSH3 0x1A3 JUMPI JUMPDEST PUSH1 0x0 DUP1 REVERT JUMPDEST PUSH3 0xF1 PUSH3 0x2FD JUMP JUMPDEST PUSH1 0x40 MLOAD PUSH3 0x100 SWAP2 SWAP1 PUSH3 0xDC6 JUMP JUMPDEST PUSH1 0x40 MLOAD DUP1 SWAP2 SUB SWAP1 RETURN JUMPDEST PUSH3 0x113 PUSH3 0x393 JUMP JUMPDEST PUSH1 0x40 MLOAD PUSH3 0x122 SWAP2 SWAP1 PUSH3 0xDC6 JUMP JUMPDEST PUSH1 0x40 MLOAD DUP1 SWAP2 SUB SWAP1 RETURN JUMPDEST PUSH3 0x135 PUSH3 0x42D JUMP JUMPDEST PUSH1 0x40 MLOAD PUSH3 0x144 SWAP2 SWAP1 PUSH3 0xE05 JUMP JUMPDEST PUSH1 0x40 MLOAD DUP1 SWAP2 SUB SWAP1 RETURN JUMPDEST PUSH3 0x16B PUSH1 0x4 DUP1 CALLDATASIZE SUB DUP2 ADD SWAP1 PUSH3 0x165 SWAP2 SWAP1 PUSH3 0xECC JUMP JUMPDEST PUSH3 0x433 JUMP JUMPDEST STOP JUMPDEST PUSH3 0x18B PUSH1 0x4 DUP1 CALLDATASIZE SUB DUP2 ADD SWAP1 PUSH3 0x185 SWAP2 SWAP1 PUSH3 0xF13 JUMP JUMPDEST PUSH3 0x68E JUMP JUMPDEST PUSH1 0x40 MLOAD PUSH3 0x19A SWAP2 SWAP1 PUSH3 0xF56 JUMP JUMPDEST PUSH1 0x40 MLOAD DUP1 SWAP2 SUB SWAP1 RETURN JUMPDEST PUSH3 0x1C1 PUSH1 0x4 DUP1 CALLDATASIZE SUB DUP2 ADD SWAP1 PUSH3 0x1BB SWAP2 SWAP1 PUSH3 0xF73 JUMP JUMPDEST PUSH3 0x818 JUMP JUMPDEST STOP JUMPDEST PUSH3 0x1E1 PUSH1 0x4 DUP1 CALLDATASIZE SUB DUP2 ADD SWAP1 PUSH3 0x1DB SWAP2 SWAP1 PUSH3 0xF73 JUMP JUMPDEST PUSH3 0x9C1 JUMP JUMPDEST PUSH1 0x40 MLOAD PUSH3 0x1F0 SWAP2 SWAP1 PUSH3 0xE05 JUMP JUMPDEST PUSH1 0x40 MLOAD DUP1 SWAP2 SUB SWAP1 RETURN JUMPDEST PUSH3 0x203 PUSH3 0xADF JUMP JUMPDEST PUSH1 0x40 MLOAD PUSH3 0x212 SWAP2 SWAP1 PUSH3 0xE05 JUMP JUMPDEST PUSH1 0x40 MLOAD DUP1 SWAP2 SUB SWAP1 RETURN JUMPDEST PUSH3 0x239 PUSH1 0x4 DUP1 CALLDATASIZE SUB DUP2 ADD SWAP1 PUSH3 0x233 SWAP2 SWAP1 PUSH3 0xF13 JUMP JUMPDEST PUSH3 0xAE9 JUMP JUMPDEST PUSH1 0x40 MLOAD PUSH3 0x248 SWAP2 SWAP1 PUSH3 0x1010 JUMP JUMPDEST PUSH1 0x40 MLOAD DUP1 SWAP2 SUB SWAP1 RETURN JUMPDEST PUSH3 0x26F PUSH1 0x4 DUP1 CALLDATASIZE SUB DUP2 ADD SWAP1 PUSH3 0x269 SWAP2 SWAP1 PUSH3 0xF13 JUMP JUMPDEST PUSH3 0xB1C JUMP JUMPDEST PUSH1 0x40 MLOAD PUSH3 0x27E SWAP2 SWAP1 PUSH3 0x1010 JUMP JUMPDEST PUSH1 0x40 MLOAD DUP1 SWAP2 SUB SWAP1 RETURN JUMPDEST PUSH3 0x2A5 PUSH1 0x4 DUP1 CALLDATASIZE SUB DUP2 ADD SWAP1 PUSH3 0x29F SWAP2 SWAP1 PUSH3 0xF13 JUMP JUMPDEST PUSH3 0xB59 JUMP JUMPDEST PUSH1 0x40 MLOAD PUSH3 0x2B4 SWAP2 SWAP1 PUSH3 0x104A JUMP JUMPDEST PUSH1 0x40 MLOAD DUP1 SWAP2 SUB SWAP1 RETURN JUMPDEST PUSH3 0x2DB PUSH1 0x4 DUP1 CALLDATASIZE SUB DUP2 ADD SWAP1 PUSH3 0x2D5 SWAP2 SWAP1 PUSH3 0x11B8 JUMP JUMPDEST PUSH3 0xC44 JUMP JUMPDEST STOP JUMPDEST PUSH3 0x2FB PUSH1 0x4 DUP1 CALLDATASIZE SUB DUP2 ADD SWAP1 PUSH3 0x2F5 SWAP2 SWAP1 PUSH3 0xECC JUMP JUMPDEST PUSH3 0xCEC JUMP JUMPDEST STOP JUMPDEST PUSH1 0x0 DUP1 SLOAD PUSH3 0x30C SWAP1 PUSH3 0x124D JUMP JUMPDEST DUP1 PUSH1 0x1F ADD PUSH1 0x20 DUP1 SWAP2 DIV MUL PUSH1 0x20 ADD PUSH1 0x40 MLOAD SWAP1 DUP2 ADD PUSH1 0x40 MSTORE DUP1 SWAP3 SWAP2 SWAP1 DUP2 DUP2 MSTORE PUSH1 0x20 ADD DUP3 DUP1 SLOAD PUSH3 0x33A SWAP1 PUSH3 0x124D JUMP JUMPDEST DUP1 ISZERO PUSH3 0x38B JUMPI DUP1 PUSH1 0x1F LT PUSH3 0x35F JUMPI PUSH2 0x100 DUP1 DUP4 SLOAD DIV MUL DUP4 MSTORE SWAP2 PUSH1 0x20 ADD SWAP2 PUSH3 0x38B JUMP JUMPDEST DUP3 ADD SWAP2 SWAP1 PUSH1 0x0 MSTORE PUSH1 0x20 PUSH1 0x0 KECCAK256 SWAP1 JUMPDEST DUP2 SLOAD DUP2 MSTORE SWAP1 PUSH1 0x1 ADD SWAP1 PUSH1 0x20 ADD DUP1 DUP4 GT PUSH3 0x36D JUMPI DUP3 SWAP1 SUB PUSH1 0x1F AND DUP3 ADD SWAP2 JUMPDEST POP POP POP POP POP DUP2 JUMP JUMPDEST PUSH1 0x60 PUSH1 0x0 DUP1 SLOAD PUSH3 0x3A4 SWAP1 PUSH3 0x124D JUMP JUMPDEST DUP1 PUSH1 0x1F ADD PUSH1 0x20 DUP1 SWAP2 DIV MUL PUSH1 0x20 ADD PUSH1 0x40 MLOAD SWAP1 DUP2 ADD PUSH1 0x40 MSTORE DUP1 SWAP3 SWAP2 SWAP1 DUP2 DUP2 MSTORE PUSH1 0x20 ADD DUP3 DUP1 SLOAD PUSH3 0x3D2 SWAP1 PUSH3 0x124D JUMP JUMPDEST DUP1 ISZERO PUSH3 0x423 JUMPI DUP1 PUSH1 0x1F LT PUSH3 0x3F7 JUMPI PUSH2 0x100 DUP1 DUP4 SLOAD DIV MUL DUP4 MSTORE SWAP2 PUSH1 0x20 ADD SWAP2 PUSH3 0x423 JUMP JUMPDEST DUP3 ADD SWAP2 SWAP1 PUSH1 0x0 MSTORE PUSH1 0x20 PUSH1 0x0 KECCAK256 SWAP1 JUMPDEST DUP2 SLOAD DUP2 MSTORE SWAP1 PUSH1 0x1 ADD SWAP1 PUSH1 0x20 ADD DUP1 DUP4 GT PUSH3 0x405 JUMPI DUP3 SWAP1 SUB PUSH1 0x1F AND DUP3 ADD SWAP2 JUMPDEST POP POP POP POP POP SWAP1 POP SWAP1 JUMP JUMPDEST PUSH1 0x1 SLOAD DUP2 JUMP JUMPDEST PUSH1 0x0 JUMPDEST PUSH1 0x1 SLOAD DUP2 LT ISZERO PUSH3 0x689 JUMPI PUSH1 0x0 PUSH20 0xFFFFFFFFFFFFFFFFFFFFFFFFFFFFFFFFFFFFFFFF AND PUSH1 0x2 PUSH1 0x0 DUP4 DUP2 MSTORE PUSH1 0x20 ADD SWAP1 DUP2 MSTORE PUSH1 0x20 ADD PUSH1 0x0 KECCAK256 PUSH1 0x0 SWAP1 SLOAD SWAP1 PUSH2 0x100 EXP SWAP1 DIV PUSH20 0xFFFFFFFFFFFFFFFFFFFFFFFFFFFFFFFFFFFFFFFF AND PUSH20 0xFFFFFFFFFFFFFFFFFFFFFFFFFFFFFFFFFFFFFFFF AND PUSH4 0x8DA5CB5B PUSH1 0x40 MLOAD DUP2 PUSH4 0xFFFFFFFF AND PUSH1 0xE0 SHL DUP2 MSTORE PUSH1 0x4 ADD PUSH1 0x20 PUSH1 0x40 MLOAD DUP1 DUP4 SUB DUP2 DUP7 GAS STATICCALL ISZERO DUP1 ISZERO PUSH3 0x4D8 JUMPI RETURNDATASIZE PUSH1 0x0 DUP1 RETURNDATACOPY RETURNDATASIZE PUSH1 0x0 REVERT JUMPDEST POP POP POP POP PUSH1 0x40 MLOAD RETURNDATASIZE PUSH1 0x1F NOT PUSH1 0x1F DUP3 ADD AND DUP3 ADD DUP1 PUSH1 0x40 MSTORE POP DUP2 ADD SWAP1 PUSH3 0x4FE SWAP2 SWAP1 PUSH3 0x1299 JUMP JUMPDEST PUSH20 0xFFFFFFFFFFFFFFFFFFFFFFFFFFFFFFFFFFFFFFFF AND EQ DUP1 ISZERO PUSH3 0x5C5 JUMPI POP DUP2 PUSH1 0x2 PUSH1 0x0 DUP4 DUP2 MSTORE PUSH1 0x20 ADD SWAP1 DUP2 MSTORE PUSH1 0x20 ADD PUSH1 0x0 KECCAK256 PUSH1 0x0 SWAP1 SLOAD SWAP1 PUSH2 0x100 EXP SWAP1 DIV PUSH20 0xFFFFFFFFFFFFFFFFFFFFFFFFFFFFFFFFFFFFFFFF AND PUSH20 0xFFFFFFFFFFFFFFFFFFFFFFFFFFFFFFFFFFFFFFFF AND PUSH4 0x5D1CA631 PUSH1 0x40 MLOAD DUP2 PUSH4 0xFFFFFFFF AND PUSH1 0xE0 SHL DUP2 MSTORE PUSH1 0x4 ADD PUSH1 0x20 PUSH1 0x40 MLOAD DUP1 DUP4 SUB DUP2 DUP7 GAS STATICCALL ISZERO DUP1 ISZERO PUSH3 0x59D JUMPI RETURNDATASIZE PUSH1 0x0 DUP1 RETURNDATACOPY RETURNDATASIZE PUSH1 0x0 REVERT JUMPDEST POP POP POP POP PUSH1 0x40 MLOAD RETURNDATASIZE PUSH1 0x1F NOT PUSH1 0x1F DUP3 ADD AND DUP3 ADD DUP1 PUSH1 0x40 MSTORE POP DUP2 ADD SWAP1 PUSH3 0x5C3 SWAP2 SWAP1 PUSH3 0x12E2 JUMP JUMPDEST EQ JUMPDEST ISZERO PUSH3 0x673 JUMPI PUSH1 0x2 PUSH1 0x0 DUP3 DUP2 MSTORE PUSH1 0x20 ADD SWAP1 DUP2 MSTORE PUSH1 0x20 ADD PUSH1 0x0 KECCAK256 PUSH1 0x0 SWAP1 SLOAD SWAP1 PUSH2 0x100 EXP SWAP1 DIV PUSH20 0xFFFFFFFFFFFFFFFFFFFFFFFFFFFFFFFFFFFFFFFF AND PUSH20 0xFFFFFFFFFFFFFFFFFFFFFFFFFFFFFFFFFFFFFFFF AND PUSH4 0xF2FDE38B DUP5 PUSH1 0x40 MLOAD DUP3 PUSH4 0xFFFFFFFF AND PUSH1 0xE0 SHL DUP2 MSTORE PUSH1 0x4 ADD PUSH3 0x639 SWAP2 SWAP1 PUSH3 0xF56 JUMP JUMPDEST PUSH1 0x0 PUSH1 0x40 MLOAD DUP1 DUP4 SUB DUP2 PUSH1 0x0 DUP8 DUP1 EXTCODESIZE ISZERO DUP1 ISZERO PUSH3 0x654 JUMPI PUSH1 0x0 DUP1 REVERT JUMPDEST POP GAS CALL ISZERO DUP1 ISZERO PUSH3 0x669 JUMPI RETURNDATASIZE PUSH1 0x0 DUP1 RETURNDATACOPY RETURNDATASIZE PUSH1 0x0 REVERT JUMPDEST POP POP POP POP PUSH3 0x689 JUMP JUMPDEST DUP1 DUP1 PUSH3 0x680 SWAP1 PUSH3 0x1343 JUMP JUMPDEST SWAP2 POP POP PUSH3 0x436 JUMP JUMPDEST POP POP POP JUMP JUMPDEST PUSH1 0x0 DUP1 PUSH1 0x0 SWAP1 POP JUMPDEST PUSH1 0x1 SLOAD DUP2 LT ISZERO PUSH3 0x811 JUMPI DUP3 PUSH1 0x2 PUSH1 0x0 DUP4 DUP2 MSTORE PUSH1 0x20 ADD SWAP1 DUP2 MSTORE PUSH1 0x20 ADD PUSH1 0x0 KECCAK256 PUSH1 0x0 SWAP1 SLOAD SWAP1 PUSH2 0x100 EXP SWAP1 DIV PUSH20 0xFFFFFFFFFFFFFFFFFFFFFFFFFFFFFFFFFFFFFFFF AND PUSH20 0xFFFFFFFFFFFFFFFFFFFFFFFFFFFFFFFFFFFFFFFF AND PUSH4 0x5D1CA631 PUSH1 0x40 MLOAD DUP2 PUSH4 0xFFFFFFFF AND PUSH1 0xE0 SHL DUP2 MSTORE PUSH1 0x4 ADD PUSH1 0x20 PUSH1 0x40 MLOAD DUP1 DUP4 SUB DUP2 DUP7 GAS STATICCALL ISZERO DUP1 ISZERO PUSH3 0x721 JUMPI RETURNDATASIZE PUSH1 0x0 DUP1 RETURNDATACOPY RETURNDATASIZE PUSH1 0x0 REVERT JUMPDEST POP POP POP POP PUSH1 0x40 MLOAD RETURNDATASIZE PUSH1 0x1F NOT PUSH1 0x1F DUP3 ADD AND DUP3 ADD DUP1 PUSH1 0x40 MSTORE POP DUP2 ADD SWAP1 PUSH3 0x747 SWAP2 SWAP1 PUSH3 0x12E2 JUMP JUMPDEST SUB PUSH3 0x7FB JUMPI PUSH1 0x2 PUSH1 0x0 DUP3 DUP2 MSTORE PUSH1 0x20 ADD SWAP1 DUP2 MSTORE PUSH1 0x20 ADD PUSH1 0x0 KECCAK256 PUSH1 0x0 SWAP1 SLOAD SWAP1 PUSH2 0x100 EXP SWAP1 DIV PUSH20 0xFFFFFFFFFFFFFFFFFFFFFFFFFFFFFFFFFFFFFFFF AND PUSH20 0xFFFFFFFFFFFFFFFFFFFFFFFFFFFFFFFFFFFFFFFF AND PUSH4 0x8DA5CB5B PUSH1 0x40 MLOAD DUP2 PUSH4 0xFFFFFFFF AND PUSH1 0xE0 SHL DUP2 MSTORE PUSH1 0x4 ADD PUSH1 0x20 PUSH1 0x40 MLOAD DUP1 DUP4 SUB DUP2 DUP7 GAS STATICCALL ISZERO DUP1 ISZERO PUSH3 0x7CC JUMPI RETURNDATASIZE PUSH1 0x0 DUP1 RETURNDATACOPY RETURNDATASIZE PUSH1 0x0 REVERT JUMPDEST POP POP POP POP PUSH1 0x40 MLOAD RETURNDATASIZE PUSH1 0x1F NOT PUSH1 0x1F DUP3 ADD AND DUP3 ADD DUP1 PUSH1 0x40 MSTORE POP DUP2 ADD SWAP1 PUSH3 0x7F2 SWAP2 SWAP1 PUSH3 0x1299 JUMP JUMPDEST SWAP2 POP POP PUSH3 0x813 JUMP JUMPDEST DUP1 DUP1 PUSH3 0x808 SWAP1 PUSH3 0x1343 JUMP JUMPDEST SWAP2 POP POP PUSH3 0x696 JUMP JUMPDEST POP JUMPDEST SWAP2 SWAP1 POP JUMP JUMPDEST PUSH1 0x0 JUMPDEST PUSH1 0x1 SLOAD DUP2 LT ISZERO PUSH3 0x9BD JUMPI PUSH1 0x0 PUSH20 0xFFFFFFFFFFFFFFFFFFFFFFFFFFFFFFFFFFFFFFFF AND PUSH1 0x2 PUSH1 0x0 DUP4 DUP2 MSTORE PUSH1 0x20 ADD SWAP1 DUP2 MSTORE PUSH1 0x20 ADD PUSH1 0x0 KECCAK256 PUSH1 0x0 SWAP1 SLOAD SWAP1 PUSH2 0x100 EXP SWAP1 DIV PUSH20 0xFFFFFFFFFFFFFFFFFFFFFFFFFFFFFFFFFFFFFFFF AND PUSH20 0xFFFFFFFFFFFFFFFFFFFFFFFFFFFFFFFFFFFFFFFF AND PUSH4 0x8DA5CB5B PUSH1 0x40 MLOAD DUP2 PUSH4 0xFFFFFFFF AND PUSH1 0xE0 SHL DUP2 MSTORE PUSH1 0x4 ADD PUSH1 0x20 PUSH1 0x40 MLOAD DUP1 DUP4 SUB DUP2 DUP7 GAS STATICCALL ISZERO DUP1 ISZERO PUSH3 0x8BD JUMPI RETURNDATASIZE PUSH1 0x0 DUP1 RETURNDATACOPY RETURNDATASIZE PUSH1 0x0 REVERT JUMPDEST POP POP POP POP PUSH1 0x40 MLOAD RETURNDATASIZE PUSH1 0x1F NOT PUSH1 0x1F DUP3 ADD AND DUP3 ADD DUP1 PUSH1 0x40 MSTORE POP DUP2 ADD SWAP1 PUSH3 0x8E3 SWAP2 SWAP1 PUSH3 0x1299 JUMP JUMPDEST PUSH20 0xFFFFFFFFFFFFFFFFFFFFFFFFFFFFFFFFFFFFFFFF AND SUB PUSH3 0x9A7 JUMPI PUSH1 0x2 PUSH1 0x0 DUP3 DUP2 MSTORE PUSH1 0x20 ADD SWAP1 DUP2 MSTORE PUSH1 0x20 ADD PUSH1 0x0 KECCAK256 PUSH1 0x0 SWAP1 SLOAD SWAP1 PUSH2 0x100 EXP SWAP1 DIV PUSH20 0xFFFFFFFFFFFFFFFFFFFFFFFFFFFFFFFFFFFFFFFF AND PUSH20 0xFFFFFFFFFFFFFFFFFFFFFFFFFFFFFFFFFFFFFFFF AND PUSH4 0xF2FDE38B DUP4 PUSH1 0x40 MLOAD DUP3 PUSH4 0xFFFFFFFF AND PUSH1 0xE0 SHL DUP2 MSTORE PUSH1 0x4 ADD PUSH3 0x96D SWAP2 SWAP1 PUSH3 0xF56 JUMP JUMPDEST PUSH1 0x0 PUSH1 0x40 MLOAD DUP1 DUP4 SUB DUP2 PUSH1 0x0 DUP8 DUP1 EXTCODESIZE ISZERO DUP1 ISZERO PUSH3 0x988 JUMPI PUSH1 0x0 DUP1 REVERT JUMPDEST POP GAS CALL ISZERO DUP1 ISZERO PUSH3 0x99D JUMPI RETURNDATASIZE PUSH1 0x0 DUP1 RETURNDATACOPY RETURNDATASIZE PUSH1 0x0 REVERT JUMPDEST POP POP POP POP PUSH3 0x9BD JUMP JUMPDEST DUP1 DUP1 PUSH3 0x9B4 SWAP1 PUSH3 0x1343 JUMP JUMPDEST SWAP2 POP POP PUSH3 0x81B JUMP JUMPDEST POP POP JUMP JUMPDEST PUSH1 0x0 DUP1 PUSH1 0x0 SWAP1 POP PUSH1 0x0 JUMPDEST PUSH1 0x1 SLOAD DUP2 LT ISZERO PUSH3 0xAD5 JUMPI DUP4 PUSH20 0xFFFFFFFFFFFFFFFFFFFFFFFFFFFFFFFFFFFFFFFF AND PUSH1 0x2 PUSH1 0x0 DUP4 DUP2 MSTORE PUSH1 0x20 ADD SWAP1 DUP2 MSTORE PUSH1 0x20 ADD PUSH1 0x0 KECCAK256 PUSH1 0x0 SWAP1 SLOAD SWAP1 PUSH2 0x100 EXP SWAP1 DIV PUSH20 0xFFFFFFFFFFFFFFFFFFFFFFFFFFFFFFFFFFFFFFFF AND PUSH20 0xFFFFFFFFFFFFFFFFFFFFFFFFFFFFFFFFFFFFFFFF AND PUSH4 0x8DA5CB5B PUSH1 0x40 MLOAD DUP2 PUSH4 0xFFFFFFFF AND PUSH1 0xE0 SHL DUP2 MSTORE PUSH1 0x4 ADD PUSH1 0x20 PUSH1 0x40 MLOAD DUP1 DUP4 SUB DUP2 DUP7 GAS STATICCALL ISZERO DUP1 ISZERO PUSH3 0xA6C JUMPI RETURNDATASIZE PUSH1 0x0 DUP1 RETURNDATACOPY RETURNDATASIZE PUSH1 0x0 REVERT JUMPDEST POP POP POP POP PUSH1 0x40 MLOAD RETURNDATASIZE PUSH1 0x1F NOT PUSH1 0x1F DUP3 ADD AND DUP3 ADD DUP1 PUSH1 0x40 MSTORE POP DUP2 ADD SWAP1 PUSH3 0xA92 SWAP2 SWAP1 PUSH3 0x1299 JUMP JUMPDEST PUSH20 0xFFFFFFFFFFFFFFFFFFFFFFFFFFFFFFFFFFFFFFFF AND SUB PUSH3 0xABF JUMPI DUP2 DUP1 PUSH3 0xABB SWAP1 PUSH3 0x1343 JUMP JUMPDEST SWAP3 POP POP JUMPDEST DUP1 DUP1 PUSH3 0xACC SWAP1 PUSH3 0x1343 JUMP JUMPDEST SWAP2 POP POP PUSH3 0x9CB JUMP JUMPDEST POP DUP1 SWAP2 POP POP SWAP2 SWAP1 POP JUMP JUMPDEST PUSH1 0x0 PUSH1 0x1 SLOAD SWAP1 POP SWAP1 JUMP JUMPDEST PUSH1 0x2 PUSH1 0x20 MSTORE DUP1 PUSH1 0x0 MSTORE PUSH1 0x40 PUSH1 0x0 KECCAK256 PUSH1 0x0 SWAP2 POP SLOAD SWAP1 PUSH2 0x100 EXP SWAP1 DIV PUSH20 0xFFFFFFFFFFFFFFFFFFFFFFFFFFFFFFFFFFFFFFFF AND DUP2 JUMP JUMPDEST PUSH1 0x0 PUSH1 0x2 PUSH1 0x0 DUP4 DUP2 MSTORE PUSH1 0x20 ADD SWAP1 DUP2 MSTORE PUSH1 0x20 ADD PUSH1 0x0 KECCAK256 PUSH1 0x0 SWAP1 SLOAD SWAP1 PUSH2 0x100 EXP SWAP1 DIV PUSH20 0xFFFFFFFFFFFFFFFFFFFFFFFFFFFFFFFFFFFFFFFF AND SWAP1 POP SWAP2 SWAP1 POP JUMP JUMPDEST PUSH1 0x0 DUP1 PUSH1 0x0 SWAP1 POP JUMPDEST PUSH1 0x1 SLOAD DUP2 LT ISZERO PUSH3 0xC39 JUMPI DUP3 PUSH1 0x2 PUSH1 0x0 DUP4 DUP2 MSTORE PUSH1 0x20 ADD SWAP1 DUP2 MSTORE PUSH1 0x20 ADD PUSH1 0x0 KECCAK256 PUSH1 0x0 SWAP1 SLOAD SWAP1 PUSH2 0x100 EXP SWAP1 DIV PUSH20 0xFFFFFFFFFFFFFFFFFFFFFFFFFFFFFFFFFFFFFFFF AND PUSH20 0xFFFFFFFFFFFFFFFFFFFFFFFFFFFFFFFFFFFFFFFF AND PUSH4 0x5D1CA631 PUSH1 0x40 MLOAD DUP2 PUSH4 0xFFFFFFFF AND PUSH1 0xE0 SHL DUP2 MSTORE PUSH1 0x4 ADD PUSH1 0x20 PUSH1 0x40 MLOAD DUP1 DUP4 SUB DUP2 DUP7 GAS STATICCALL ISZERO DUP1 ISZERO PUSH3 0xBEC JUMPI RETURNDATASIZE PUSH1 0x0 DUP1 RETURNDATACOPY RETURNDATASIZE PUSH1 0x0 REVERT JUMPDEST POP POP POP POP PUSH1 0x40 MLOAD RETURNDATASIZE PUSH1 0x1F NOT PUSH1 0x1F DUP3 ADD AND DUP3 ADD DUP1 PUSH1 0x40 MSTORE POP DUP2 ADD SWAP1 PUSH3 0xC12 SWAP2 SWAP1 PUSH3 0x12E2 JUMP JUMPDEST SUB PUSH3 0xC23 JUMPI PUSH1 0x1 SWAP2 POP POP PUSH3 0xC3F JUMP JUMPDEST DUP1 DUP1 PUSH3 0xC30 SWAP1 PUSH3 0x1343 JUMP JUMPDEST SWAP2 POP POP PUSH3 0xB61 JUMP JUMPDEST POP PUSH1 0x0 SWAP1 POP JUMPDEST SWAP2 SWAP1 POP JUMP JUMPDEST DUP2 DUP2 PUSH1 0x40 MLOAD PUSH3 0xC54 SWAP1 PUSH3 0xD1E JUMP JUMPDEST PUSH3 0xC61 SWAP3 SWAP2 SWAP1 PUSH3 0x1390 JUMP JUMPDEST PUSH1 0x40 MLOAD DUP1 SWAP2 SUB SWAP1 PUSH1 0x0 CREATE DUP1 ISZERO DUP1 ISZERO PUSH3 0xC7E JUMPI RETURNDATASIZE PUSH1 0x0 DUP1 RETURNDATACOPY RETURNDATASIZE PUSH1 0x0 REVERT JUMPDEST POP PUSH1 0x2 PUSH1 0x0 PUSH1 0x1 PUSH1 0x0 DUP2 SLOAD DUP1 SWAP3 SWAP2 SWAP1 PUSH3 0xC98 SWAP1 PUSH3 0x1343 JUMP JUMPDEST SWAP2 SWAP1 POP SSTORE DUP2 MSTORE PUSH1 0x20 ADD SWAP1 DUP2 MSTORE PUSH1 0x20 ADD PUSH1 0x0 KECCAK256 PUSH1 0x0 PUSH2 0x100 EXP DUP2 SLOAD DUP2 PUSH20 0xFFFFFFFFFFFFFFFFFFFFFFFFFFFFFFFFFFFFFFFF MUL NOT AND SWAP1 DUP4 PUSH20 0xFFFFFFFFFFFFFFFFFFFFFFFFFFFFFFFFFFFFFFFF AND MUL OR SWAP1 SSTORE POP POP POP JUMP JUMPDEST PUSH1 0x0 JUMPDEST DUP2 DUP2 LT ISZERO PUSH3 0xD19 JUMPI PUSH3 0xD03 DUP4 PUSH3 0x818 JUMP JUMPDEST DUP1 DUP1 PUSH3 0xD10 SWAP1 PUSH3 0x1343 JUMP JUMPDEST SWAP2 POP POP PUSH3 0xCEF JUMP JUMPDEST POP POP POP JUMP JUMPDEST PUSH2 0xCC4 DUP1 PUSH3 0x13C5 DUP4 CODECOPY ADD SWAP1 JUMP JUMPDEST PUSH1 0x0 DUP2 MLOAD SWAP1 POP SWAP2 SWAP1 POP JUMP JUMPDEST PUSH1 0x0 DUP3 DUP3 MSTORE PUSH1 0x20 DUP3 ADD SWAP1 POP SWAP3 SWAP2 POP POP JUMP JUMPDEST PUSH1 0x0 JUMPDEST DUP4 DUP2 LT ISZERO PUSH3 0xD68 JUMPI DUP1 DUP3 ADD MLOAD DUP2 DUP5 ADD MSTORE PUSH1 0x20 DUP2 ADD SWAP1 POP PUSH3 0xD4B JUMP JUMPDEST PUSH1 0x0 DUP5 DUP5 ADD MSTORE POP POP POP POP JUMP JUMPDEST PUSH1 0x0 PUSH1 0x1F NOT PUSH1 0x1F DUP4 ADD AND SWAP1 POP SWAP2 SWAP1 POP JUMP JUMPDEST PUSH1 0x0 PUSH3 0xD92 DUP3 PUSH3 0xD2C JUMP JUMPDEST PUSH3 0xD9E DUP2 DUP6 PUSH3 0xD37 JUMP JUMPDEST SWAP4 POP PUSH3 0xDB0 DUP2 DUP6 PUSH1 0x20 DUP7 ADD PUSH3 0xD48 JUMP JUMPDEST PUSH3 0xDBB DUP2 PUSH3 0xD74 JUMP JUMPDEST DUP5 ADD SWAP2 POP POP SWAP3 SWAP2 POP POP JUMP JUMPDEST PUSH1 0x0 PUSH1 0x20 DUP3 ADD SWAP1 POP DUP2 DUP2 SUB PUSH1 0x0 DUP4 ADD MSTORE PUSH3 0xDE2 DUP2 DUP5 PUSH3 0xD85 JUMP JUMPDEST SWAP1 POP SWAP3 SWAP2 POP POP JUMP JUMPDEST PUSH1 0x0 DUP2 SWAP1 POP SWAP2 SWAP1 POP JUMP JUMPDEST PUSH3 0xDFF DUP2 PUSH3 0xDEA JUMP JUMPDEST DUP3 MSTORE POP POP JUMP JUMPDEST PUSH1 0x0 PUSH1 0x20 DUP3 ADD SWAP1 POP PUSH3 0xE1C PUSH1 0x0 DUP4 ADD DUP5 PUSH3 0xDF4 JUMP JUMPDEST SWAP3 SWAP2 POP POP JUMP JUMPDEST PUSH1 0x0 PUSH1 0x40 MLOAD SWAP1 POP SWAP1 JUMP JUMPDEST PUSH1 0x0 DUP1 REVERT JUMPDEST PUSH1 0x0 DUP1 REVERT JUMPDEST PUSH1 0x0 PUSH20 0xFFFFFFFFFFFFFFFFFFFFFFFFFFFFFFFFFFFFFFFF DUP3 AND SWAP1 POP SWAP2 SWAP1 POP JUMP JUMPDEST PUSH1 0x0 PUSH3 0xE63 DUP3 PUSH3 0xE36 JUMP JUMPDEST SWAP1 POP SWAP2 SWAP1 POP JUMP JUMPDEST PUSH3 0xE75 DUP2 PUSH3 0xE56 JUMP JUMPDEST DUP2 EQ PUSH3 0xE81 JUMPI PUSH1 0x0 DUP1 REVERT JUMPDEST POP JUMP JUMPDEST PUSH1 0x0 DUP2 CALLDATALOAD SWAP1 POP PUSH3 0xE95 DUP2 PUSH3 0xE6A JUMP JUMPDEST SWAP3 SWAP2 POP POP JUMP JUMPDEST PUSH3 0xEA6 DUP2 PUSH3 0xDEA JUMP JUMPDEST DUP2 EQ PUSH3 0xEB2 JUMPI PUSH1 0x0 DUP1 REVERT JUMPDEST POP JUMP JUMPDEST PUSH1 0x0 DUP2 CALLDATALOAD SWAP1 POP PUSH3 0xEC6 DUP2 PUSH3 0xE9B JUMP JUMPDEST SWAP3 SWAP2 POP POP JUMP JUMPDEST PUSH1 0x0 DUP1 PUSH1 0x40 DUP4 DUP6 SUB SLT ISZERO PUSH3 0xEE6 JUMPI PUSH3 0xEE5 PUSH3 0xE2C JUMP JUMPDEST JUMPDEST PUSH1 0x0 PUSH3 0xEF6 DUP6 DUP3 DUP7 ADD PUSH3 0xE84 JUMP JUMPDEST SWAP3 POP POP PUSH1 0x20 PUSH3 0xF09 DUP6 DUP3 DUP7 ADD PUSH3 0xEB5 JUMP JUMPDEST SWAP2 POP POP SWAP3 POP SWAP3 SWAP1 POP JUMP JUMPDEST PUSH1 0x0 PUSH1 0x20 DUP3 DUP5 SUB SLT ISZERO PUSH3 0xF2C JUMPI PUSH3 0xF2B PUSH3 0xE2C JUMP JUMPDEST JUMPDEST PUSH1 0x0 PUSH3 0xF3C DUP5 DUP3 DUP6 ADD PUSH3 0xEB5 JUMP JUMPDEST SWAP2 POP POP SWAP3 SWAP2 POP POP JUMP JUMPDEST PUSH3 0xF50 DUP2 PUSH3 0xE56 JUMP JUMPDEST DUP3 MSTORE POP POP JUMP JUMPDEST PUSH1 0x0 PUSH1 0x20 DUP3 ADD SWAP1 POP PUSH3 0xF6D PUSH1 0x0 DUP4 ADD DUP5 PUSH3 0xF45 JUMP JUMPDEST SWAP3 SWAP2 POP POP JUMP JUMPDEST PUSH1 0x0 PUSH1 0x20 DUP3 DUP5 SUB SLT ISZERO PUSH3 0xF8C JUMPI PUSH3 0xF8B PUSH3 0xE2C JUMP JUMPDEST JUMPDEST PUSH1 0x0 PUSH3 0xF9C DUP5 DUP3 DUP6 ADD PUSH3 0xE84 JUMP JUMPDEST SWAP2 POP POP SWAP3 SWAP2 POP POP JUMP JUMPDEST PUSH1 0x0 DUP2 SWAP1 POP SWAP2 SWAP1 POP JUMP JUMPDEST PUSH1 0x0 PUSH3 0xFD0 PUSH3 0xFCA PUSH3 0xFC4 DUP5 PUSH3 0xE36 JUMP JUMPDEST PUSH3 0xFA5 JUMP JUMPDEST PUSH3 0xE36 JUMP JUMPDEST SWAP1 POP SWAP2 SWAP1 POP JUMP JUMPDEST PUSH1 0x0 PUSH3 0xFE4 DUP3 PUSH3 0xFAF JUMP JUMPDEST SWAP1 POP SWAP2 SWAP1 POP JUMP JUMPDEST PUSH1 0x0 PUSH3 0xFF8 DUP3 PUSH3 0xFD7 JUMP JUMPDEST SWAP1 POP SWAP2 SWAP1 POP JUMP JUMPDEST PUSH3 0x100A DUP2 PUSH3 0xFEB JUMP JUMPDEST DUP3 MSTORE POP POP JUMP JUMPDEST PUSH1 0x0 PUSH1 0x20 DUP3 ADD SWAP1 POP PUSH3 0x1027 PUSH1 0x0 DUP4 ADD DUP5 PUSH3 0xFFF JUMP JUMPDEST SWAP3 SWAP2 POP POP JUMP JUMPDEST PUSH1 0x0 DUP2 ISZERO ISZERO SWAP1 POP SWAP2 SWAP1 POP JUMP JUMPDEST PUSH3 0x1044 DUP2 PUSH3 0x102D JUMP JUMPDEST DUP3 MSTORE POP POP JUMP JUMPDEST PUSH1 0x0 PUSH1 0x20 DUP3 ADD SWAP1 POP PUSH3 0x1061 PUSH1 0x0 DUP4 ADD DUP5 PUSH3 0x1039 JUMP JUMPDEST SWAP3 SWAP2 POP POP JUMP JUMPDEST PUSH1 0x0 DUP1 REVERT JUMPDEST PUSH1 0x0 DUP1 REVERT JUMPDEST PUSH32 0x4E487B7100000000000000000000000000000000000000000000000000000000 PUSH1 0x0 MSTORE PUSH1 0x41 PUSH1 0x4 MSTORE PUSH1 0x24 PUSH1 0x0 REVERT JUMPDEST PUSH3 0x10AB DUP3 PUSH3 0xD74 JUMP JUMPDEST DUP2 ADD DUP2 DUP2 LT PUSH8 0xFFFFFFFFFFFFFFFF DUP3 GT OR ISZERO PUSH3 0x10CD JUMPI PUSH3 0x10CC PUSH3 0x1071 JUMP JUMPDEST JUMPDEST DUP1 PUSH1 0x40 MSTORE POP POP POP JUMP JUMPDEST PUSH1 0x0 PUSH3 0x10E2 PUSH3 0xE22 JUMP JUMPDEST SWAP1 POP PUSH3 0x10F0 DUP3 DUP3 PUSH3 0x10A0 JUMP JUMPDEST SWAP2 SWAP1 POP JUMP JUMPDEST PUSH1 0x0 PUSH8 0xFFFFFFFFFFFFFFFF DUP3 GT ISZERO PUSH3 0x1113 JUMPI PUSH3 0x1112 PUSH3 0x1071 JUMP JUMPDEST JUMPDEST PUSH3 0x111E DUP3 PUSH3 0xD74 JUMP JUMPDEST SWAP1 POP PUSH1 0x20 DUP2 ADD SWAP1 POP SWAP2 SWAP1 POP JUMP JUMPDEST DUP3 DUP2 DUP4 CALLDATACOPY PUSH1 0x0 DUP4 DUP4 ADD MSTORE POP POP POP JUMP JUMPDEST PUSH1 0x0 PUSH3 0x1151 PUSH3 0x114B DUP5 PUSH3 0x10F5 JUMP JUMPDEST PUSH3 0x10D6 JUMP JUMPDEST SWAP1 POP DUP3 DUP2 MSTORE PUSH1 0x20 DUP2 ADD DUP5 DUP5 DUP5 ADD GT ISZERO PUSH3 0x1170 JUMPI PUSH3 0x116F PUSH3 0x106C JUMP JUMPDEST JUMPDEST PUSH3 0x117D DUP5 DUP3 DUP6 PUSH3 0x112B JUMP JUMPDEST POP SWAP4 SWAP3 POP POP POP JUMP JUMPDEST PUSH1 0x0 DUP3 PUSH1 0x1F DUP4 ADD SLT PUSH3 0x119D JUMPI PUSH3 0x119C PUSH3 0x1067 JUMP JUMPDEST JUMPDEST DUP2 CALLDATALOAD PUSH3 0x11AF DUP5 DUP3 PUSH1 0x20 DUP7 ADD PUSH3 0x113A JUMP JUMPDEST SWAP2 POP POP SWAP3 SWAP2 POP POP JUMP JUMPDEST PUSH1 0x0 DUP1 PUSH1 0x40 DUP4 DUP6 SUB SLT ISZERO PUSH3 0x11D2 JUMPI PUSH3 0x11D1 PUSH3 0xE2C JUMP JUMPDEST JUMPDEST PUSH1 0x0 PUSH3 0x11E2 DUP6 DUP3 DUP7 ADD PUSH3 0xEB5 JUMP JUMPDEST SWAP3 POP POP PUSH1 0x20 DUP4 ADD CALLDATALOAD PUSH8 0xFFFFFFFFFFFFFFFF DUP2 GT ISZERO PUSH3 0x1206 JUMPI PUSH3 0x1205 PUSH3 0xE31 JUMP JUMPDEST JUMPDEST PUSH3 0x1214 DUP6 DUP3 DUP7 ADD PUSH3 0x1185 JUMP JUMPDEST SWAP2 POP POP SWAP3 POP SWAP3 SWAP1 POP JUMP JUMPDEST PUSH32 0x4E487B7100000000000000000000000000000000000000000000000000000000 PUSH1 0x0 MSTORE PUSH1 0x22 PUSH1 0x4 MSTORE PUSH1 0x24 PUSH1 0x0 REVERT JUMPDEST PUSH1 0x0 PUSH1 0x2 DUP3 DIV SWAP1 POP PUSH1 0x1 DUP3 AND DUP1 PUSH3 0x1266 JUMPI PUSH1 0x7F DUP3 AND SWAP2 POP JUMPDEST PUSH1 0x20 DUP3 LT DUP2 SUB PUSH3 0x127C JUMPI PUSH3 0x127B PUSH3 0x121E JUMP JUMPDEST JUMPDEST POP SWAP2 SWAP1 POP JUMP JUMPDEST PUSH1 0x0 DUP2 MLOAD SWAP1 POP PUSH3 0x1293 DUP2 PUSH3 0xE6A JUMP JUMPDEST SWAP3 SWAP2 POP POP JUMP JUMPDEST PUSH1 0x0 PUSH1 0x20 DUP3 DUP5 SUB SLT ISZERO PUSH3 0x12B2 JUMPI PUSH3 0x12B1 PUSH3 0xE2C JUMP JUMPDEST JUMPDEST PUSH1 0x0 PUSH3 0x12C2 DUP5 DUP3 DUP6 ADD PUSH3 0x1282 JUMP JUMPDEST SWAP2 POP POP SWAP3 SWAP2 POP POP JUMP JUMPDEST PUSH1 0x0 DUP2 MLOAD SWAP1 POP PUSH3 0x12DC DUP2 PUSH3 0xE9B JUMP JUMPDEST SWAP3 SWAP2 POP POP JUMP JUMPDEST PUSH1 0x0 PUSH1 0x20 DUP3 DUP5 SUB SLT ISZERO PUSH3 0x12FB JUMPI PUSH3 0x12FA PUSH3 0xE2C JUMP JUMPDEST JUMPDEST PUSH1 0x0 PUSH3 0x130B DUP5 DUP3 DUP6 ADD PUSH3 0x12CB JUMP JUMPDEST SWAP2 POP POP SWAP3 SWAP2 POP POP JUMP JUMPDEST PUSH32 0x4E487B7100000000000000000000000000000000000000000000000000000000 PUSH1 0x0 MSTORE PUSH1 0x11 PUSH1 0x4 MSTORE PUSH1 0x24 PUSH1 0x0 REVERT JUMPDEST PUSH1 0x0 PUSH3 0x1350 DUP3 PUSH3 0xDEA JUMP JUMPDEST SWAP2 POP PUSH32 0xFFFFFFFFFFFFFFFFFFFFFFFFFFFFFFFFFFFFFFFFFFFFFFFFFFFFFFFFFFFFFFFF DUP3 SUB PUSH3 0x1385 JUMPI PUSH3 0x1384 PUSH3 0x1314 JUMP JUMPDEST JUMPDEST PUSH1 0x1 DUP3 ADD SWAP1 POP SWAP2 SWAP1 POP JUMP JUMPDEST PUSH1 0x0 PUSH1 0x40 DUP3 ADD SWAP1 POP PUSH3 0x13A7 PUSH1 0x0 DUP4 ADD DUP6 PUSH3 0xDF4 JUMP JUMPDEST DUP2 DUP2 SUB PUSH1 0x20 DUP4 ADD MSTORE PUSH3 0x13BB DUP2 DUP5 PUSH3 0xD85 JUMP JUMPDEST SWAP1 POP SWAP4 SWAP3 POP POP POP JUMP INVALID PUSH1 0x80 PUSH1 0x40 MSTORE CALLVALUE DUP1 ISZERO PUSH3 0x11 JUMPI PUSH1 0x0 DUP1 REVERT JUMPDEST POP PUSH1 0x40 MLOAD PUSH3 0xCC4 CODESIZE SUB DUP1 PUSH3 0xCC4 DUP4 CODECOPY DUP2 DUP2 ADD PUSH1 0x40 MSTORE DUP2 ADD SWAP1 PUSH3 0x37 SWAP2 SWAP1 PUSH3 0x372 JUMP JUMPDEST CALLER PUSH1 0x0 PUSH20 0xFFFFFFFFFFFFFFFFFFFFFFFFFFFFFFFFFFFFFFFF AND DUP2 PUSH20 0xFFFFFFFFFFFFFFFFFFFFFFFFFFFFFFFFFFFFFFFF AND SUB PUSH3 0xAD JUMPI PUSH1 0x0 PUSH1 0x40 MLOAD PUSH32 0x1E4FBDF700000000000000000000000000000000000000000000000000000000 DUP2 MSTORE PUSH1 0x4 ADD PUSH3 0xA4 SWAP2 SWAP1 PUSH3 0x41D JUMP JUMPDEST PUSH1 0x40 MLOAD DUP1 SWAP2 SUB SWAP1 REVERT JUMPDEST PUSH3 0xBE DUP2 PUSH3 0xE0 PUSH1 0x20 SHL PUSH1 0x20 SHR JUMP JUMPDEST POP DUP2 PUSH1 0x1 DUP2 SWAP1 SSTORE POP DUP1 PUSH1 0x2 SWAP1 DUP2 PUSH3 0xD7 SWAP2 SWAP1 PUSH3 0x67B JUMP JUMPDEST POP POP POP PUSH3 0x762 JUMP JUMPDEST PUSH1 0x0 DUP1 PUSH1 0x0 SWAP1 SLOAD SWAP1 PUSH2 0x100 EXP SWAP1 DIV PUSH20 0xFFFFFFFFFFFFFFFFFFFFFFFFFFFFFFFFFFFFFFFF AND SWAP1 POP DUP2 PUSH1 0x0 DUP1 PUSH2 0x100 EXP DUP2 SLOAD DUP2 PUSH20 0xFFFFFFFFFFFFFFFFFFFFFFFFFFFFFFFFFFFFFFFF MUL NOT AND SWAP1 DUP4 PUSH20 0xFFFFFFFFFFFFFFFFFFFFFFFFFFFFFFFFFFFFFFFF AND MUL OR SWAP1 SSTORE POP DUP2 PUSH20 0xFFFFFFFFFFFFFFFFFFFFFFFFFFFFFFFFFFFFFFFF AND DUP2 PUSH20 0xFFFFFFFFFFFFFFFFFFFFFFFFFFFFFFFFFFFFFFFF AND PUSH32 0x8BE0079C531659141344CD1FD0A4F28419497F9722A3DAAFE3B4186F6B6457E0 PUSH1 0x40 MLOAD PUSH1 0x40 MLOAD DUP1 SWAP2 SUB SWAP1 LOG3 POP POP JUMP JUMPDEST PUSH1 0x0 PUSH1 0x40 MLOAD SWAP1 POP SWAP1 JUMP JUMPDEST PUSH1 0x0 DUP1 REVERT JUMPDEST PUSH1 0x0 DUP1 REVERT JUMPDEST PUSH1 0x0 DUP2 SWAP1 POP SWAP2 SWAP1 POP JUMP JUMPDEST PUSH3 0x1CD DUP2 PUSH3 0x1B8 JUMP JUMPDEST DUP2 EQ PUSH3 0x1D9 JUMPI PUSH1 0x0 DUP1 REVERT JUMPDEST POP JUMP JUMPDEST PUSH1 0x0 DUP2 MLOAD SWAP1 POP PUSH3 0x1ED DUP2 PUSH3 0x1C2 JUMP JUMPDEST SWAP3 SWAP2 POP POP JUMP JUMPDEST PUSH1 0x0 DUP1 REVERT JUMPDEST PUSH1 0x0 DUP1 REVERT JUMPDEST PUSH1 0x0 PUSH1 0x1F NOT PUSH1 0x1F DUP4 ADD AND SWAP1 POP SWAP2 SWAP1 POP JUMP JUMPDEST PUSH32 0x4E487B7100000000000000000000000000000000000000000000000000000000 PUSH1 0x0 MSTORE PUSH1 0x41 PUSH1 0x4 MSTORE PUSH1 0x24 PUSH1 0x0 REVERT JUMPDEST PUSH3 0x248 DUP3 PUSH3 0x1FD JUMP JUMPDEST DUP2 ADD DUP2 DUP2 LT PUSH8 0xFFFFFFFFFFFFFFFF DUP3 GT OR ISZERO PUSH3 0x26A JUMPI PUSH3 0x269 PUSH3 0x20E JUMP JUMPDEST JUMPDEST DUP1 PUSH1 0x40 MSTORE POP POP POP JUMP JUMPDEST PUSH1 0x0 PUSH3 0x27F PUSH3 0x1A4 JUMP JUMPDEST SWAP1 POP PUSH3 0x28D DUP3 DUP3 PUSH3 0x23D JUMP JUMPDEST SWAP2 SWAP1 POP JUMP JUMPDEST PUSH1 0x0 PUSH8 0xFFFFFFFFFFFFFFFF DUP3 GT ISZERO PUSH3 0x2B0 JUMPI PUSH3 0x2AF PUSH3 0x20E JUMP JUMPDEST JUMPDEST PUSH3 0x2BB DUP3 PUSH3 0x1FD JUMP JUMPDEST SWAP1 POP PUSH1 0x20 DUP2 ADD SWAP1 POP SWAP2 SWAP1 POP JUMP JUMPDEST PUSH1 0x0 JUMPDEST DUP4 DUP2 LT ISZERO PUSH3 0x2E8 JUMPI DUP1 DUP3 ADD MLOAD DUP2 DUP5 ADD MSTORE PUSH1 0x20 DUP2 ADD SWAP1 POP PUSH3 0x2CB JUMP JUMPDEST PUSH1 0x0 DUP5 DUP5 ADD MSTORE POP POP POP POP JUMP JUMPDEST PUSH1 0x0 PUSH3 0x30B PUSH3 0x305 DUP5 PUSH3 0x292 JUMP JUMPDEST PUSH3 0x273 JUMP JUMPDEST SWAP1 POP DUP3 DUP2 MSTORE PUSH1 0x20 DUP2 ADD DUP5 DUP5 DUP5 ADD GT ISZERO PUSH3 0x32A JUMPI PUSH3 0x329 PUSH3 0x1F8 JUMP JUMPDEST JUMPDEST PUSH3 0x337 DUP5 DUP3 DUP6 PUSH3 0x2C8 JUMP JUMPDEST POP SWAP4 SWAP3 POP POP POP JUMP JUMPDEST PUSH1 0x0 DUP3 PUSH1 0x1F DUP4 ADD SLT PUSH3 0x357 JUMPI PUSH3 0x356 PUSH3 0x1F3 JUMP JUMPDEST JUMPDEST DUP2 MLOAD PUSH3 0x369 DUP5 DUP3 PUSH1 0x20 DUP7 ADD PUSH3 0x2F4 JUMP JUMPDEST SWAP2 POP POP SWAP3 SWAP2 POP POP JUMP JUMPDEST PUSH1 0x0 DUP1 PUSH1 0x40 DUP4 DUP6 SUB SLT ISZERO PUSH3 0x38C JUMPI PUSH3 0x38B PUSH3 0x1AE JUMP JUMPDEST JUMPDEST PUSH1 0x0 PUSH3 0x39C DUP6 DUP3 DUP7 ADD PUSH3 0x1DC JUMP JUMPDEST SWAP3 POP POP PUSH1 0x20 DUP4 ADD MLOAD PUSH8 0xFFFFFFFFFFFFFFFF DUP2 GT ISZERO PUSH3 0x3C0 JUMPI PUSH3 0x3BF PUSH3 0x1B3 JUMP JUMPDEST JUMPDEST PUSH3 0x3CE DUP6 DUP3 DUP7 ADD PUSH3 0x33F JUMP JUMPDEST SWAP2 POP POP SWAP3 POP SWAP3 SWAP1 POP JUMP JUMPDEST PUSH1 0x0 PUSH20 0xFFFFFFFFFFFFFFFFFFFFFFFFFFFFFFFFFFFFFFFF DUP3 AND SWAP1 POP SWAP2 SWAP1 POP JUMP JUMPDEST PUSH1 0x0 PUSH3 0x405 DUP3 PUSH3 0x3D8 JUMP JUMPDEST SWAP1 POP SWAP2 SWAP1 POP JUMP JUMPDEST PUSH3 0x417 DUP2 PUSH3 0x3F8 JUMP JUMPDEST DUP3 MSTORE POP POP JUMP JUMPDEST PUSH1 0x0 PUSH1 0x20 DUP3 ADD SWAP1 POP PUSH3 0x434 PUSH1 0x0 DUP4 ADD DUP5 PUSH3 0x40C JUMP JUMPDEST SWAP3 SWAP2 POP POP JUMP JUMPDEST PUSH1 0x0 DUP2 MLOAD SWAP1 POP SWAP2 SWAP1 POP JUMP JUMPDEST PUSH32 0x4E487B7100000000000000000000000000000000000000000000000000000000 PUSH1 0x0 MSTORE PUSH1 0x22 PUSH1 0x4 MSTORE PUSH1 0x24 PUSH1 0x0 REVERT JUMPDEST PUSH1 0x0 PUSH1 0x2 DUP3 DIV SWAP1 POP PUSH1 0x1 DUP3 AND DUP1 PUSH3 0x48D JUMPI PUSH1 0x7F DUP3 AND SWAP2 POP JUMPDEST PUSH1 0x20 DUP3 LT DUP2 SUB PUSH3 0x4A3 JUMPI PUSH3 0x4A2 PUSH3 0x445 JUMP JUMPDEST JUMPDEST POP SWAP2 SWAP1 POP JUMP JUMPDEST PUSH1 0x0 DUP2 SWAP1 POP DUP2 PUSH1 0x0 MSTORE PUSH1 0x20 PUSH1 0x0 KECCAK256 SWAP1 POP SWAP2 SWAP1 POP JUMP JUMPDEST PUSH1 0x0 PUSH1 0x20 PUSH1 0x1F DUP4 ADD DIV SWAP1 POP SWAP2 SWAP1 POP JUMP JUMPDEST PUSH1 0x0 DUP3 DUP3 SHL SWAP1 POP SWAP3 SWAP2 POP POP JUMP JUMPDEST PUSH1 0x0 PUSH1 0x8 DUP4 MUL PUSH3 0x50D PUSH32 0xFFFFFFFFFFFFFFFFFFFFFFFFFFFFFFFFFFFFFFFFFFFFFFFFFFFFFFFFFFFFFFFF DUP3 PUSH3 0x4CE JUMP JUMPDEST PUSH3 0x519 DUP7 DUP4 PUSH3 0x4CE JUMP JUMPDEST SWAP6 POP DUP1 NOT DUP5 AND SWAP4 POP DUP1 DUP7 AND DUP5 OR SWAP3 POP POP POP SWAP4 SWAP3 POP POP POP JUMP JUMPDEST PUSH1 0x0 DUP2 SWAP1 POP SWAP2 SWAP1 POP JUMP JUMPDEST PUSH1 0x0 PUSH3 0x55C PUSH3 0x556 PUSH3 0x550 DUP5 PUSH3 0x1B8 JUMP JUMPDEST PUSH3 0x531 JUMP JUMPDEST PUSH3 0x1B8 JUMP JUMPDEST SWAP1 POP SWAP2 SWAP1 POP JUMP JUMPDEST PUSH1 0x0 DUP2 SWAP1 POP SWAP2 SWAP1 POP JUMP JUMPDEST PUSH3 0x578 DUP4 PUSH3 0x53B JUMP JUMPDEST PUSH3 0x590 PUSH3 0x587 DUP3 PUSH3 0x563 JUMP JUMPDEST DUP5 DUP5 SLOAD PUSH3 0x4DB JUMP JUMPDEST DUP3 SSTORE POP POP POP POP JUMP JUMPDEST PUSH1 0x0 SWAP1 JUMP JUMPDEST PUSH3 0x5A7 PUSH3 0x598 JUMP JUMPDEST PUSH3 0x5B4 DUP2 DUP5 DUP5 PUSH3 0x56D JUMP JUMPDEST POP POP POP JUMP JUMPDEST JUMPDEST DUP2 DUP2 LT ISZERO PUSH3 0x5DC JUMPI PUSH3 0x5D0 PUSH1 0x0 DUP3 PUSH3 0x59D JUMP JUMPDEST PUSH1 0x1 DUP2 ADD SWAP1 POP PUSH3 0x5BA JUMP JUMPDEST POP POP JUMP JUMPDEST PUSH1 0x1F DUP3 GT ISZERO PUSH3 0x62B JUMPI PUSH3 0x5F5 DUP2 PUSH3 0x4A9 JUMP JUMPDEST PUSH3 0x600 DUP5 PUSH3 0x4BE JUMP JUMPDEST DUP2 ADD PUSH1 0x20 DUP6 LT ISZERO PUSH3 0x610 JUMPI DUP2 SWAP1 POP JUMPDEST PUSH3 0x628 PUSH3 0x61F DUP6 PUSH3 0x4BE JUMP JUMPDEST DUP4 ADD DUP3 PUSH3 0x5B9 JUMP JUMPDEST POP POP JUMPDEST POP POP POP JUMP JUMPDEST PUSH1 0x0 DUP3 DUP3 SHR SWAP1 POP SWAP3 SWAP2 POP POP JUMP JUMPDEST PUSH1 0x0 PUSH3 0x650 PUSH1 0x0 NOT DUP5 PUSH1 0x8 MUL PUSH3 0x630 JUMP JUMPDEST NOT DUP1 DUP4 AND SWAP2 POP POP SWAP3 SWAP2 POP POP JUMP JUMPDEST PUSH1 0x0 PUSH3 0x66B DUP4 DUP4 PUSH3 0x63D JUMP JUMPDEST SWAP2 POP DUP3 PUSH1 0x2 MUL DUP3 OR SWAP1 POP SWAP3 SWAP2 POP POP JUMP JUMPDEST PUSH3 0x686 DUP3 PUSH3 0x43A JUMP JUMPDEST PUSH8 0xFFFFFFFFFFFFFFFF DUP2 GT ISZERO PUSH3 0x6A2 JUMPI PUSH3 0x6A1 PUSH3 0x20E JUMP JUMPDEST JUMPDEST PUSH3 0x6AE DUP3 SLOAD PUSH3 0x474 JUMP JUMPDEST PUSH3 0x6BB DUP3 DUP3 DUP6 PUSH3 0x5E0 JUMP JUMPDEST PUSH1 0x0 PUSH1 0x20 SWAP1 POP PUSH1 0x1F DUP4 GT PUSH1 0x1 DUP2 EQ PUSH3 0x6F3 JUMPI PUSH1 0x0 DUP5 ISZERO PUSH3 0x6DE JUMPI DUP3 DUP8 ADD MLOAD SWAP1 POP JUMPDEST PUSH3 0x6EA DUP6 DUP3 PUSH3 0x65D JUMP JUMPDEST DUP7 SSTORE POP PUSH3 0x75A JUMP JUMPDEST PUSH1 0x1F NOT DUP5 AND PUSH3 0x703 DUP7 PUSH3 0x4A9 JUMP JUMPDEST PUSH1 0x0 JUMPDEST DUP3 DUP2 LT ISZERO PUSH3 0x72D JUMPI DUP5 DUP10 ADD MLOAD DUP3 SSTORE PUSH1 0x1 DUP3 ADD SWAP2 POP PUSH1 0x20 DUP6 ADD SWAP5 POP PUSH1 0x20 DUP2 ADD SWAP1 POP PUSH3 0x706 JUMP JUMPDEST DUP7 DUP4 LT ISZERO PUSH3 0x74D JUMPI DUP5 DUP10 ADD MLOAD PUSH3 0x749 PUSH1 0x1F DUP10 AND DUP3 PUSH3 0x63D JUMP JUMPDEST DUP4 SSTORE POP JUMPDEST PUSH1 0x1 PUSH1 0x2 DUP9 MUL ADD DUP9 SSTORE POP POP POP JUMPDEST POP POP POP POP POP POP JUMP JUMPDEST PUSH2 0x552 DUP1 PUSH3 0x772 PUSH1 0x0 CODECOPY PUSH1 0x0 RETURN INVALID PUSH1 0x80 PUSH1 0x40 MSTORE CALLVALUE DUP1 ISZERO PUSH2 0x10 JUMPI PUSH1 0x0 DUP1 REVERT JUMPDEST POP PUSH1 0x4 CALLDATASIZE LT PUSH2 0x57 JUMPI PUSH1 0x0 CALLDATALOAD PUSH1 0xE0 SHR DUP1 PUSH4 0x5D1CA631 EQ PUSH2 0x5C JUMPI DUP1 PUSH4 0x715018A6 EQ PUSH2 0x7A JUMPI DUP1 PUSH4 0x7802DFF5 EQ PUSH2 0x84 JUMPI DUP1 PUSH4 0x8DA5CB5B EQ PUSH2 0xA2 JUMPI DUP1 PUSH4 0xF2FDE38B EQ PUSH2 0xC0 JUMPI JUMPDEST PUSH1 0x0 DUP1 REVERT JUMPDEST PUSH2 0x64 PUSH2 0xDC JUMP JUMPDEST PUSH1 0x40 MLOAD PUSH2 0x71 SWAP2 SWAP1 PUSH2 0x335 JUMP JUMPDEST PUSH1 0x40 MLOAD DUP1 SWAP2 SUB SWAP1 RETURN JUMPDEST PUSH2 0x82 PUSH2 0xE6 JUMP JUMPDEST STOP JUMPDEST PUSH2 0x8C PUSH2 0xFA JUMP JUMPDEST PUSH1 0x40 MLOAD PUSH2 0x99 SWAP2 SWAP1 PUSH2 0x3E0 JUMP JUMPDEST PUSH1 0x40 MLOAD DUP1 SWAP2 SUB SWAP1 RETURN JUMPDEST PUSH2 0xAA PUSH2 0x18C JUMP JUMPDEST PUSH1 0x40 MLOAD PUSH2 0xB7 SWAP2 SWAP1 PUSH2 0x443 JUMP JUMPDEST PUSH1 0x40 MLOAD DUP1 SWAP2 SUB SWAP1 RETURN JUMPDEST PUSH2 0xDA PUSH1 0x4 DUP1 CALLDATASIZE SUB DUP2 ADD SWAP1 PUSH2 0xD5 SWAP2 SWAP1 PUSH2 0x48F JUMP JUMPDEST PUSH2 0x1B5 JUMP JUMPDEST STOP JUMPDEST PUSH1 0x0 PUSH1 0x1 SLOAD SWAP1 POP SWAP1 JUMP JUMPDEST PUSH2 0xEE PUSH2 0x1C9 JUMP JUMPDEST PUSH2 0xF8 PUSH1 0x0 PUSH2 0x250 JUMP JUMPDEST JUMP JUMPDEST PUSH1 0x60 PUSH1 0x2 DUP1 SLOAD PUSH2 0x109 SWAP1 PUSH2 0x4EB JUMP JUMPDEST DUP1 PUSH1 0x1F ADD PUSH1 0x20 DUP1 SWAP2 DIV MUL PUSH1 0x20 ADD PUSH1 0x40 MLOAD SWAP1 DUP2 ADD PUSH1 0x40 MSTORE DUP1 SWAP3 SWAP2 SWAP1 DUP2 DUP2 MSTORE PUSH1 0x20 ADD DUP3 DUP1 SLOAD PUSH2 0x135 SWAP1 PUSH2 0x4EB JUMP JUMPDEST DUP1 ISZERO PUSH2 0x182 JUMPI DUP1 PUSH1 0x1F LT PUSH2 0x157 JUMPI PUSH2 0x100 DUP1 DUP4 SLOAD DIV MUL DUP4 MSTORE SWAP2 PUSH1 0x20 ADD SWAP2 PUSH2 0x182 JUMP JUMPDEST DUP3 ADD SWAP2 SWAP1 PUSH1 0x0 MSTORE PUSH1 0x20 PUSH1 0x0 KECCAK256 SWAP1 JUMPDEST DUP2 SLOAD DUP2 MSTORE SWAP1 PUSH1 0x1 ADD SWAP1 PUSH1 0x20 ADD DUP1 DUP4 GT PUSH2 0x165 JUMPI DUP3 SWAP1 SUB PUSH1 0x1F AND DUP3 ADD SWAP2 JUMPDEST POP POP POP POP POP SWAP1 POP SWAP1 JUMP JUMPDEST PUSH1 0x0 DUP1 PUSH1 0x0 SWAP1 SLOAD SWAP1 PUSH2 0x100 EXP SWAP1 DIV PUSH20 0xFFFFFFFFFFFFFFFFFFFFFFFFFFFFFFFFFFFFFFFF AND SWAP1 POP SWAP1 JUMP JUMPDEST PUSH2 0x1BD PUSH2 0x1C9 JUMP JUMPDEST PUSH2 0x1C6 DUP2 PUSH2 0x1B5 JUMP JUMPDEST POP JUMP JUMPDEST PUSH2 0x1D1 PUSH2 0x314 JUMP JUMPDEST PUSH20 0xFFFFFFFFFFFFFFFFFFFFFFFFFFFFFFFFFFFFFFFF AND PUSH2 0x1EF PUSH2 0x18C JUMP JUMPDEST PUSH20 0xFFFFFFFFFFFFFFFFFFFFFFFFFFFFFFFFFFFFFFFF AND EQ PUSH2 0x24E JUMPI PUSH2 0x212 PUSH2 0x314 JUMP JUMPDEST PUSH1 0x40 MLOAD PUSH32 0x118CDAA700000000000000000000000000000000000000000000000000000000 DUP2 MSTORE PUSH1 0x4 ADD PUSH2 0x245 SWAP2 SWAP1 PUSH2 0x443 JUMP JUMPDEST PUSH1 0x40 MLOAD DUP1 SWAP2 SUB SWAP1 REVERT JUMPDEST JUMP JUMPDEST PUSH1 0x0 DUP1 PUSH1 0x0 SWAP1 SLOAD SWAP1 PUSH2 0x100 EXP SWAP1 DIV PUSH20 0xFFFFFFFFFFFFFFFFFFFFFFFFFFFFFFFFFFFFFFFF AND SWAP1 POP DUP2 PUSH1 0x0 DUP1 PUSH2 0x100 EXP DUP2 SLOAD DUP2 PUSH20 0xFFFFFFFFFFFFFFFFFFFFFFFFFFFFFFFFFFFFFFFF MUL NOT AND SWAP1 DUP4 PUSH20 0xFFFFFFFFFFFFFFFFFFFFFFFFFFFFFFFFFFFFFFFF AND MUL OR SWAP1 SSTORE POP DUP2 PUSH20 0xFFFFFFFFFFFFFFFFFFFFFFFFFFFFFFFFFFFFFFFF AND DUP2 PUSH20 0xFFFFFFFFFFFFFFFFFFFFFFFFFFFFFFFFFFFFFFFF AND PUSH32 0x8BE0079C531659141344CD1FD0A4F28419497F9722A3DAAFE3B4186F6B6457E0 PUSH1 0x40 MLOAD PUSH1 0x40 MLOAD DUP1 SWAP2 SUB SWAP1 LOG3 POP POP JUMP JUMPDEST PUSH1 0x0 CALLER SWAP1 POP SWAP1 JUMP JUMPDEST PUSH1 0x0 DUP2 SWAP1 POP SWAP2 SWAP1 POP JUMP JUMPDEST PUSH2 0x32F DUP2 PUSH2 0x31C JUMP JUMPDEST DUP3 MSTORE POP POP JUMP JUMPDEST PUSH1 0x0 PUSH1 0x20 DUP3 ADD SWAP1 POP PUSH2 0x34A PUSH1 0x0 DUP4 ADD DUP5 PUSH2 0x326 JUMP JUMPDEST SWAP3 SWAP2 POP POP JUMP JUMPDEST PUSH1 0x0 DUP2 MLOAD SWAP1 POP SWAP2 SWAP1 POP JUMP JUMPDEST PUSH1 0x0 DUP3 DUP3 MSTORE PUSH1 0x20 DUP3 ADD SWAP1 POP SWAP3 SWAP2 POP POP JUMP JUMPDEST PUSH1 0x0 JUMPDEST DUP4 DUP2 LT ISZERO PUSH2 0x38A JUMPI DUP1 DUP3 ADD MLOAD DUP2 DUP5 ADD MSTORE PUSH1 0x20 DUP2 ADD SWAP1 POP PUSH2 0x36F JUMP JUMPDEST PUSH1 0x0 DUP5 DUP5 ADD MSTORE POP POP POP POP JUMP JUMPDEST PUSH1 0x0 PUSH1 0x1F NOT PUSH1 0x1F DUP4 ADD AND SWAP1 POP SWAP2 SWAP1 POP JUMP JUMPDEST PUSH1 0x0 PUSH2 0x3B2 DUP3 PUSH2 0x350 JUMP JUMPDEST PUSH2 0x3BC DUP2 DUP6 PUSH2 0x35B JUMP JUMPDEST SWAP4 POP PUSH2 0x3CC DUP2 DUP6 PUSH1 0x20 DUP7 ADD PUSH2 0x36C JUMP JUMPDEST PUSH2 0x3D5 DUP2 PUSH2 0x396 JUMP JUMPDEST DUP5 ADD SWAP2 POP POP SWAP3 SWAP2 POP POP JUMP JUMPDEST PUSH1 0x0 PUSH1 0x20 DUP3 ADD SWAP1 POP DUP2 DUP2 SUB PUSH1 0x0 DUP4 ADD MSTORE PUSH2 0x3FA DUP2 DUP5 PUSH2 0x3A7 JUMP JUMPDEST SWAP1 POP SWAP3 SWAP2 POP POP JUMP JUMPDEST PUSH1 0x0 PUSH20 0xFFFFFFFFFFFFFFFFFFFFFFFFFFFFFFFFFFFFFFFF DUP3 AND SWAP1 POP SWAP2 SWAP1 POP JUMP JUMPDEST PUSH1 0x0 PUSH2 0x42D DUP3 PUSH2 0x402 JUMP JUMPDEST SWAP1 POP SWAP2 SWAP1 POP JUMP JUMPDEST PUSH2 0x43D DUP2 PUSH2 0x422 JUMP JUMPDEST DUP3 MSTORE POP POP JUMP JUMPDEST PUSH1 0x0 PUSH1 0x20 DUP3 ADD SWAP1 POP PUSH2 0x458 PUSH1 0x0 DUP4 ADD DUP5 PUSH2 0x434 JUMP JUMPDEST SWAP3 SWAP2 POP POP JUMP JUMPDEST PUSH1 0x0 DUP1 REVERT JUMPDEST PUSH2 0x46C DUP2 PUSH2 0x422 JUMP JUMPDEST DUP2 EQ PUSH2 0x477 JUMPI PUSH1 0x0 DUP1 REVERT JUMPDEST POP JUMP JUMPDEST PUSH1 0x0 DUP2 CALLDATALOAD SWAP1 POP PUSH2 0x489 DUP2 PUSH2 0x463 JUMP JUMPDEST SWAP3 SWAP2 POP POP JUMP JUMPDEST PUSH1 0x0 PUSH1 0x20 DUP3 DUP5 SUB SLT ISZERO PUSH2 0x4A5 JUMPI PUSH2 0x4A4 PUSH2 0x45E JUMP JUMPDEST JUMPDEST PUSH1 0x0 PUSH2 0x4B3 DUP5 DUP3 DUP6 ADD PUSH2 0x47A JUMP JUMPDEST SWAP2 POP POP SWAP3 SWAP2 POP POP JUMP JUMPDEST PUSH32 0x4E487B7100000000000000000000000000000000000000000000000000000000 PUSH1 0x0 MSTORE PUSH1 0x22 PUSH1 0x4 MSTORE PUSH1 0x24 PUSH1 0x0 REVERT JUMPDEST PUSH1 0x0 PUSH1 0x2 DUP3 DIV SWAP1 POP PUSH1 0x1 DUP3 AND DUP1 PUSH2 0x503 JUMPI PUSH1 0x7F DUP3 AND SWAP2 POP JUMPDEST PUSH1 0x20 DUP3 LT DUP2 SUB PUSH2 0x516 JUMPI PUSH2 0x515 PUSH2 0x4BC JUMP JUMPDEST JUMPDEST POP SWAP2 SWAP1 POP JUMP INVALID LOG2 PUSH5 0x6970667358 0x22 SLT KECCAK256 0xC9 SDIV GAS CALLER MUL 0x22 DUP10 RETURNDATASIZE ISZERO SWAP3 0xB6 0xBA MLOAD LOG4 0x25 INVALID 0xAE SWAP4 0xB7 PUSH8 0xFC1CF31E7C5930 CALLDATALOAD REVERT CALLDATACOPY 0xD PUSH5 0x736F6C6343 STOP ADDMOD EQ STOP CALLER LOG2 PUSH5 0x6970667358 0x22 SLT KECCAK256 0x5D 0x2E SELFDESTRUCT GASPRICE PUSH11 0xFB4B31EE29993C53541514 RETURN EXTCODEHASH 0xC1 0x4B CODESIZE ADDMOD RETURNDATACOPY 0xAF JUMPDEST 0xCE SWAP11 SAR 0x25 0xC8 DELEGATECALL SWAP9 PUSH5 0x736F6C6343 STOP ADDMOD EQ STOP CALLER LOG2 PUSH5 0x6970667358 0x22 SLT KECCAK256 SWAP8 0x4C SHL 0x1E 0x28 CALLDATASIZE SWAP10 0xD1 MULMOD 0x26 CODESIZE SWAP8 PUSH17 0x22EFDD9A344C631BBA1F504BEA576EAB8D PUSH5 0x8164736F6C PUSH4 0x43000814 STOP CALLER "},"gasEstimates":{"creation":{"codeDepositCost":"4318600","executionCost":"infinite","totalCost":"infinite"},"external":{"addACard(uint256)":"infinite","approve(address,uint256)":"infinite","balanceOf(address)":"infinite","cardCollections(uint256)":"infinite","collectionCount()":"2495","getApproved(uint256)":"infinite","getCollectionNbForCard(uint256)":"infinite","isApprovedForAll(address,address)":"infinite","mint(address,uint256,uint256)":"infinite","mintSomeCards(address,uint256,uint256)":"infinite","name()":"infinite","owner()":"2545","ownerOf(uint256)":"infinite","renounceOwnership()":"infinite","safeTransferFrom(address,address,uint256)":"infinite","safeTransferFrom(address,address,uint256,bytes)":"infinite","setApprovalForAll(address,bool)":"infinite","supportsInterface(bytes4)":"797","symbol()":"infinite","tokenURI(uint256)":"infinite","transferFrom(address,address,uint256)":"infinite","transferOwnership(address)":"infinite"}},"methodIdentifiers":{"addACard(uint256)":"bf874103","approve(address,uint256)":"095ea7b3","balanceOf(address)":"70a08231","cardCollections(uint256)":"bc4f6def","collectionCount()":"d57f966b","getApproved(uint256)":"081812fc","getCollectionNbForCard(uint256)":"0abc4a78","isApprovedForAll(address,address)":"e985e9c5","mint(address,uint256,uint256)":"156e29f6","mintSomeCards(address,uint256,uint256)":"f7374d11","name()":"06fdde03","owner()":"8da5cb5b","ownerOf(uint256)":"6352211e","renounceOwnership()":"715018a6","safeTransferFrom(address,address,uint256)":"42842e0e","safeTransferFrom(address,address,uint256,bytes)":"b88d4fde","setApprovalForAll(address,bool)":"a22cb465","supportsInterface(bytes4)":"01ffc9a7","symbol()":"95d89b41","tokenURI(uint256)":"c87b56dd","transferFrom(address,address,uint256)":"23b872dd","transferOwnership(address)":"f2fde38b"}},"storageLayout":{"storage":[{"astId":8,"contract":"src/CardOwnership.sol:CardOwnership","label":"_owner","offset":0,"slot":"0","type":"t_address"},{"astId":317,"contract":"src/CardOwnership.sol:CardOwnership","label":"_name","offset":0,"slot":"1","type":"t_string_storage"},{"astId":319,"contract":"src/CardOwnership.sol:CardOwnership","label":"_symbol","offset":0,"slot":"2","type":"t_string_storage"},{"astId":323,"contract":"src/CardOwnership.sol:CardOwnership","label":"_owners","offset":0,"slot":"3","type":"t_mapping(t_uint256,t_address)"},{"astId":327,"contract":"src/CardOwnership.sol:CardOwnership","label":"_balances","offset":0,"slot":"4","type":"t_mapping(t_address,t_uint256)"},{"astId":331,"contract":"src/CardOwnership.sol:CardOwnership","label":"_tokenApprovals","offset":0,"slot":"5","type":"t_mapping(t_uint256,t_address)"},{"astId":337,"contract":"src/CardOwnership.sol:CardOwnership","label":"_operatorApprovals","offset":0,"slot":"6","type":"t_mapping(t_address,t_mapping(t_address,t_bool))"},{"astId":3002,"contract":"src/CardOwnership.sol:CardOwnership","label":"cardCollections","offset":0,"slot":"7","type":"t_mapping(t_uint256,t_contract(GameCollection)3593)"},{"astId":3004,"contract":"src/CardOwnership.sol:CardOwnership","label":"collectionCount","offset":0,"slot":"8","type":"t_uint256"}],"types":{"t_address":{"encoding":"inplace","label":"address","numberOfBytes":"20"},"t_bool":{"encoding":"inplace","label":"bool","numberOfBytes":"1"},"t_contract(GameCollection)3593":{"encoding":"inplace","label":"contract GameCollection","numberOfBytes":"20"},"t_mapping(t_address,t_bool)":{"encoding":"mapping","key":"t_address","label":"mapping(address => bool)","numberOfBytes":"32","value":"t_bool"},"t_mapping(t_address,t_mapping(t_address,t_bool))":{"encoding":"mapping","key":"t_address","label":"mapping(address => mapping(address => bool))","numberOfBytes":"32","value":"t_mapping(t_address,t_bool)"},"t_mapping(t_address,t_uint256)":{"encoding":"mapping","key":"t_address","label":"mapping(address => uint256)","numberOfBytes":"32","value":"t_uint256"},"t_mapping(t_uint256,t_address)":{"encoding":"mapping","key":"t_uint256","label":"mapping(uint256 => address)","numberOfBytes":"32","value":"t_address"},"t_mapping(t_uint256,t_contract(GameCollection)3593)":{"encoding":"mapping","key":"t_uint256","label":"mapping(uint256 => contract GameCollection)","numberOfBytes":"32","value":"t_contract(GameCollection)3593"},"t_string_storage":{"encoding":"bytes","label":"string","numberOfBytes":"32"},"t_uint256":{"encoding":"inplace","label":"uint256","numberOfBytes":"32"}}},"userdoc":{"kind":"user","methods":{},"version":1}}}}