{
  "_format": "hh-sol-artifact-1",
  "contractName": "UserCollection",
  "sourceName": "src/UserCollection.sol",
  "abi": [
    {
      "inputs": [],
      "stateMutability": "nonpayable",
      "type": "constructor"
    },
    {
      "inputs": [
        {
          "internalType": "contract Card",
          "name": "newCard",
          "type": "address"
        }
      ],
      "name": "addCard",
      "outputs": [],
      "stateMutability": "nonpayable",
      "type": "function"
    },
    {
      "inputs": [
        {
          "internalType": "int256",
          "name": "id",
          "type": "int256"
        }
      ],
      "name": "getCard",
      "outputs": [
        {
          "internalType": "contract Card",
          "name": "",
          "type": "address"
        }
      ],
      "stateMutability": "view",
      "type": "function"
    },
    {
      "inputs": [],
      "name": "getCardCount",
      "outputs": [
        {
          "internalType": "int256",
          "name": "",
          "type": "int256"
        }
      ],
      "stateMutability": "view",
      "type": "function"
    }
  ],
  "bytecode": "0x608060405234801561001057600080fd5b5060006001819055506103ba806100286000396000f3fe608060405234801561001057600080fd5b50600436106100415760003560e01c80633dc50952146100465780636d6d852b146100625780637d62013014610092575b600080fd5b610060600480360381019061005b91906101d9565b6100b0565b005b61007c6004803603810190610077919061023c565b61011e565b60405161008991906102c8565b60405180910390f35b61009a61015a565b6040516100a791906102f2565b60405180910390f35b80600080600154815260200190815260200160002060006101000a81548173ffffffffffffffffffffffffffffffffffffffff021916908373ffffffffffffffffffffffffffffffffffffffff160217905550600160008154809291906101169061033c565b919050555050565b600080600083815260200190815260200160002060009054906101000a900473ffffffffffffffffffffffffffffffffffffffff169050919050565b6000600154905090565b600080fd5b600073ffffffffffffffffffffffffffffffffffffffff82169050919050565b600061019482610169565b9050919050565b60006101a682610189565b9050919050565b6101b68161019b565b81146101c157600080fd5b50565b6000813590506101d3816101ad565b92915050565b6000602082840312156101ef576101ee610164565b5b60006101fd848285016101c4565b91505092915050565b6000819050919050565b61021981610206565b811461022457600080fd5b50565b60008135905061023681610210565b92915050565b60006020828403121561025257610251610164565b5b600061026084828501610227565b91505092915050565b6000819050919050565b600061028e61028961028484610169565b610269565b610169565b9050919050565b60006102a082610273565b9050919050565b60006102b282610295565b9050919050565b6102c2816102a7565b82525050565b60006020820190506102dd60008301846102b9565b92915050565b6102ec81610206565b82525050565b600060208201905061030760008301846102e3565b92915050565b7f4e487b7100000000000000000000000000000000000000000000000000000000600052601160045260246000fd5b600061034782610206565b91507f7fffffffffffffffffffffffffffffffffffffffffffffffffffffffffffffff82036103795761037861030d565b5b60018201905091905056fea2646970667358221220623548250ef450626aac69af18c7de433c618177feecdd99fd834ea3720b381364736f6c63430008140033",
  "linkReferences": {},
  "deployedLinkReferences": {}
}