{
  "_format": "hh-sol-artifact-1",
  "contractName": "GameCollection",
  "sourceName": "src/GameCollection.sol",
  "abi": [
    {
      "inputs": [
        {
          "internalType": "string",
          "name": "_name",
          "type": "string"
        },
        {
          "internalType": "uint256",
          "name": "_cardCount",
          "type": "uint256"
        }
      ],
      "stateMutability": "nonpayable",
      "type": "constructor"
    },
    {
      "inputs": [
        {
          "internalType": "uint256",
          "name": "id",
          "type": "uint256"
        },
        {
          "internalType": "string",
          "name": "imgLink",
          "type": "string"
        }
      ],
      "name": "addCard",
      "outputs": [],
      "stateMutability": "nonpayable",
      "type": "function"
    },
    {
      "inputs": [
        {
          "internalType": "address",
          "name": "owner",
          "type": "address"
        }
      ],
      "name": "balanceOf",
      "outputs": [
        {
          "internalType": "uint256",
          "name": "",
          "type": "uint256"
        }
      ],
      "stateMutability": "view",
      "type": "function"
    },
    {
      "inputs": [],
      "name": "cardCount",
      "outputs": [
        {
          "internalType": "uint256",
          "name": "",
          "type": "uint256"
        }
      ],
      "stateMutability": "view",
      "type": "function"
    },
    {
      "inputs": [
        {
          "internalType": "uint256",
          "name": "",
          "type": "uint256"
        }
      ],
      "name": "cards",
      "outputs": [
        {
          "internalType": "contract Card",
          "name": "",
          "type": "address"
        }
      ],
      "stateMutability": "view",
      "type": "function"
    },
    {
      "inputs": [
        {
          "internalType": "uint256",
          "name": "tokenId",
          "type": "uint256"
        }
      ],
      "name": "getCard",
      "outputs": [
        {
          "internalType": "contract Card",
          "name": "",
          "type": "address"
        }
      ],
      "stateMutability": "view",
      "type": "function"
    },
    {
      "inputs": [],
      "name": "getCardCount",
      "outputs": [
        {
          "internalType": "uint256",
          "name": "",
          "type": "uint256"
        }
      ],
      "stateMutability": "view",
      "type": "function"
    },
    {
      "inputs": [],
      "name": "getName",
      "outputs": [
        {
          "internalType": "string",
          "name": "",
          "type": "string"
        }
      ],
      "stateMutability": "view",
      "type": "function"
    },
    {
      "inputs": [
        {
          "internalType": "uint256",
          "name": "tokenId",
          "type": "uint256"
        }
      ],
      "name": "isCardInCollection",
      "outputs": [
        {
          "internalType": "bool",
          "name": "",
          "type": "bool"
        }
      ],
      "stateMutability": "view",
      "type": "function"
    },
    {
      "inputs": [
        {
          "internalType": "address",
          "name": "to",
          "type": "address"
        },
        {
          "internalType": "uint256",
          "name": "tokenId",
          "type": "uint256"
        }
      ],
      "name": "mint",
      "outputs": [],
      "stateMutability": "nonpayable",
      "type": "function"
    },
    {
      "inputs": [
        {
          "internalType": "address",
          "name": "to",
          "type": "address"
        }
      ],
      "name": "mint",
      "outputs": [],
      "stateMutability": "nonpayable",
      "type": "function"
    },
    {
      "inputs": [
        {
          "internalType": "address",
          "name": "to",
          "type": "address"
        },
        {
          "internalType": "uint256",
          "name": "quantity",
          "type": "uint256"
        }
      ],
      "name": "mintSomeCards",
      "outputs": [],
      "stateMutability": "nonpayable",
      "type": "function"
    },
    {
      "inputs": [],
      "name": "name",
      "outputs": [
        {
          "internalType": "string",
          "name": "",
          "type": "string"
        }
      ],
      "stateMutability": "view",
      "type": "function"
    },
    {
      "inputs": [
        {
          "internalType": "uint256",
          "name": "tokenId",
          "type": "uint256"
        }
      ],
      "name": "ownerOf",
      "outputs": [
        {
          "internalType": "address",
          "name": "",
          "type": "address"
        }
      ],
      "stateMutability": "view",
      "type": "function"
    }
  ],
  "bytecode": "0x60806040523480156200001157600080fd5b506040516200268238038062002682833981810160405281019062000037919062000226565b8160009081620000489190620004cd565b50806001819055505050620005b4565b6000604051905090565b600080fd5b600080fd5b600080fd5b600080fd5b6000601f19601f8301169050919050565b7f4e487b7100000000000000000000000000000000000000000000000000000000600052604160045260246000fd5b620000c18262000076565b810181811067ffffffffffffffff82111715620000e357620000e262000087565b5b80604052505050565b6000620000f862000058565b9050620001068282620000b6565b919050565b600067ffffffffffffffff82111562000129576200012862000087565b5b620001348262000076565b9050602081019050919050565b60005b838110156200016157808201518184015260208101905062000144565b60008484015250505050565b6000620001846200017e846200010b565b620000ec565b905082815260208101848484011115620001a357620001a262000071565b5b620001b084828562000141565b509392505050565b600082601f830112620001d057620001cf6200006c565b5b8151620001e28482602086016200016d565b91505092915050565b6000819050919050565b6200020081620001eb565b81146200020c57600080fd5b50565b6000815190506200022081620001f5565b92915050565b6000806040838503121562000240576200023f62000062565b5b600083015167ffffffffffffffff81111562000261576200026062000067565b5b6200026f85828601620001b8565b925050602062000282858286016200020f565b9150509250929050565b600081519050919050565b7f4e487b7100000000000000000000000000000000000000000000000000000000600052602260045260246000fd5b60006002820490506001821680620002df57607f821691505b602082108103620002f557620002f462000297565b5b50919050565b60008190508160005260206000209050919050565b60006020601f8301049050919050565b600082821b905092915050565b6000600883026200035f7fffffffffffffffffffffffffffffffffffffffffffffffffffffffffffffffff8262000320565b6200036b868362000320565b95508019841693508086168417925050509392505050565b6000819050919050565b6000620003ae620003a8620003a284620001eb565b62000383565b620001eb565b9050919050565b6000819050919050565b620003ca836200038d565b620003e2620003d982620003b5565b8484546200032d565b825550505050565b600090565b620003f9620003ea565b62000406818484620003bf565b505050565b5b818110156200042e5762000422600082620003ef565b6001810190506200040c565b5050565b601f8211156200047d576200044781620002fb565b620004528462000310565b8101602085101562000462578190505b6200047a620004718562000310565b8301826200040b565b50505b505050565b600082821c905092915050565b6000620004a26000198460080262000482565b1980831691505092915050565b6000620004bd83836200048f565b9150826002028217905092915050565b620004d8826200028c565b67ffffffffffffffff811115620004f457620004f362000087565b5b620005008254620002c6565b6200050d82828562000432565b600060209050601f83116001811462000545576000841562000530578287015190505b6200053c8582620004af565b865550620005ac565b601f1984166200055586620002fb565b60005b828110156200057f5784890151825560018201915060208501945060208101905062000558565b868310156200059f57848901516200059b601f8916826200048f565b8355505b6001600288020188555050505b505050505050565b6120be80620005c46000396000f3fe60806040523480156200001157600080fd5b5060043610620000e25760003560e01c806370a0823111620000995780639188d312116200006f5780639188d3121462000251578063a9aa75ef1462000287578063aa93d70214620002bd578063f92906ff14620002dd57620000e2565b806370a0823114620001c35780637d62013014620001f95780638dc10768146200021b57620000e2565b806306fdde0314620000e757806317d7de7c14620001095780631b6cde10146200012b57806340c10f19146200014d5780636352211e146200016d5780636a62784214620001a3575b600080fd5b620000f1620002fd565b60405162000100919062000dc6565b60405180910390f35b6200011362000393565b60405162000122919062000dc6565b60405180910390f35b620001356200042d565b60405162000144919062000e05565b60405180910390f35b6200016b600480360381019062000165919062000ecc565b62000433565b005b6200018b600480360381019062000185919062000f13565b6200068e565b6040516200019a919062000f56565b60405180910390f35b620001c16004803603810190620001bb919062000f73565b62000818565b005b620001e16004803603810190620001db919062000f73565b620009c1565b604051620001f0919062000e05565b60405180910390f35b6200020362000adf565b60405162000212919062000e05565b60405180910390f35b62000239600480360381019062000233919062000f13565b62000ae9565b60405162000248919062001010565b60405180910390f35b6200026f600480360381019062000269919062000f13565b62000b1c565b6040516200027e919062001010565b60405180910390f35b620002a560048036038101906200029f919062000f13565b62000b59565b604051620002b491906200104a565b60405180910390f35b620002db6004803603810190620002d59190620011b8565b62000c44565b005b620002fb6004803603810190620002f5919062000ecc565b62000cec565b005b600080546200030c906200124d565b80601f01602080910402602001604051908101604052809291908181526020018280546200033a906200124d565b80156200038b5780601f106200035f576101008083540402835291602001916200038b565b820191906000526020600020905b8154815290600101906020018083116200036d57829003601f168201915b505050505081565b606060008054620003a4906200124d565b80601f0160208091040260200160405190810160405280929190818152602001828054620003d2906200124d565b8015620004235780601f10620003f75761010080835404028352916020019162000423565b820191906000526020600020905b8154815290600101906020018083116200040557829003601f168201915b5050505050905090565b60015481565b60005b6001548110156200068957600073ffffffffffffffffffffffffffffffffffffffff166002600083815260200190815260200160002060009054906101000a900473ffffffffffffffffffffffffffffffffffffffff1673ffffffffffffffffffffffffffffffffffffffff16638da5cb5b6040518163ffffffff1660e01b8152600401602060405180830381865afa158015620004d8573d6000803e3d6000fd5b505050506040513d601f19601f82011682018060405250810190620004fe919062001299565b73ffffffffffffffffffffffffffffffffffffffff16148015620005c55750816002600083815260200190815260200160002060009054906101000a900473ffffffffffffffffffffffffffffffffffffffff1673ffffffffffffffffffffffffffffffffffffffff16635d1ca6316040518163ffffffff1660e01b8152600401602060405180830381865afa1580156200059d573d6000803e3d6000fd5b505050506040513d601f19601f82011682018060405250810190620005c39190620012e2565b145b1562000673576002600082815260200190815260200160002060009054906101000a900473ffffffffffffffffffffffffffffffffffffffff1673ffffffffffffffffffffffffffffffffffffffff1663f2fde38b846040518263ffffffff1660e01b815260040162000639919062000f56565b600060405180830381600087803b1580156200065457600080fd5b505af115801562000669573d6000803e3d6000fd5b5050505062000689565b8080620006809062001343565b91505062000436565b505050565b600080600090505b6001548110156200081157826002600083815260200190815260200160002060009054906101000a900473ffffffffffffffffffffffffffffffffffffffff1673ffffffffffffffffffffffffffffffffffffffff16635d1ca6316040518163ffffffff1660e01b8152600401602060405180830381865afa15801562000721573d6000803e3d6000fd5b505050506040513d601f19601f82011682018060405250810190620007479190620012e2565b03620007fb576002600082815260200190815260200160002060009054906101000a900473ffffffffffffffffffffffffffffffffffffffff1673ffffffffffffffffffffffffffffffffffffffff16638da5cb5b6040518163ffffffff1660e01b8152600401602060405180830381865afa158015620007cc573d6000803e3d6000fd5b505050506040513d601f19601f82011682018060405250810190620007f2919062001299565b91505062000813565b8080620008089062001343565b91505062000696565b505b919050565b60005b600154811015620009bd57600073ffffffffffffffffffffffffffffffffffffffff166002600083815260200190815260200160002060009054906101000a900473ffffffffffffffffffffffffffffffffffffffff1673ffffffffffffffffffffffffffffffffffffffff16638da5cb5b6040518163ffffffff1660e01b8152600401602060405180830381865afa158015620008bd573d6000803e3d6000fd5b505050506040513d601f19601f82011682018060405250810190620008e3919062001299565b73ffffffffffffffffffffffffffffffffffffffff1603620009a7576002600082815260200190815260200160002060009054906101000a900473ffffffffffffffffffffffffffffffffffffffff1673ffffffffffffffffffffffffffffffffffffffff1663f2fde38b836040518263ffffffff1660e01b81526004016200096d919062000f56565b600060405180830381600087803b1580156200098857600080fd5b505af11580156200099d573d6000803e3d6000fd5b50505050620009bd565b8080620009b49062001343565b9150506200081b565b5050565b6000806000905060005b60015481101562000ad5578373ffffffffffffffffffffffffffffffffffffffff166002600083815260200190815260200160002060009054906101000a900473ffffffffffffffffffffffffffffffffffffffff1673ffffffffffffffffffffffffffffffffffffffff16638da5cb5b6040518163ffffffff1660e01b8152600401602060405180830381865afa15801562000a6c573d6000803e3d6000fd5b505050506040513d601f19601f8201168201806040525081019062000a92919062001299565b73ffffffffffffffffffffffffffffffffffffffff160362000abf57818062000abb9062001343565b9250505b808062000acc9062001343565b915050620009cb565b5080915050919050565b6000600154905090565b60026020528060005260406000206000915054906101000a900473ffffffffffffffffffffffffffffffffffffffff1681565b60006002600083815260200190815260200160002060009054906101000a900473ffffffffffffffffffffffffffffffffffffffff169050919050565b600080600090505b60015481101562000c3957826002600083815260200190815260200160002060009054906101000a900473ffffffffffffffffffffffffffffffffffffffff1673ffffffffffffffffffffffffffffffffffffffff16635d1ca6316040518163ffffffff1660e01b8152600401602060405180830381865afa15801562000bec573d6000803e3d6000fd5b505050506040513d601f19601f8201168201806040525081019062000c129190620012e2565b0362000c2357600191505062000c3f565b808062000c309062001343565b91505062000b61565b50600090505b919050565b818160405162000c549062000d1e565b62000c6192919062001390565b604051809103906000f08015801562000c7e573d6000803e3d6000fd5b50600260006001600081548092919062000c989062001343565b91905055815260200190815260200160002060006101000a81548173ffffffffffffffffffffffffffffffffffffffff021916908373ffffffffffffffffffffffffffffffffffffffff1602179055505050565b60005b8181101562000d195762000d038362000818565b808062000d109062001343565b91505062000cef565b505050565b610cc480620013c583390190565b600081519050919050565b600082825260208201905092915050565b60005b8381101562000d6857808201518184015260208101905062000d4b565b60008484015250505050565b6000601f19601f8301169050919050565b600062000d928262000d2c565b62000d9e818562000d37565b935062000db081856020860162000d48565b62000dbb8162000d74565b840191505092915050565b6000602082019050818103600083015262000de2818462000d85565b905092915050565b6000819050919050565b62000dff8162000dea565b82525050565b600060208201905062000e1c600083018462000df4565b92915050565b6000604051905090565b600080fd5b600080fd5b600073ffffffffffffffffffffffffffffffffffffffff82169050919050565b600062000e638262000e36565b9050919050565b62000e758162000e56565b811462000e8157600080fd5b50565b60008135905062000e958162000e6a565b92915050565b62000ea68162000dea565b811462000eb257600080fd5b50565b60008135905062000ec68162000e9b565b92915050565b6000806040838503121562000ee65762000ee562000e2c565b5b600062000ef68582860162000e84565b925050602062000f098582860162000eb5565b9150509250929050565b60006020828403121562000f2c5762000f2b62000e2c565b5b600062000f3c8482850162000eb5565b91505092915050565b62000f508162000e56565b82525050565b600060208201905062000f6d600083018462000f45565b92915050565b60006020828403121562000f8c5762000f8b62000e2c565b5b600062000f9c8482850162000e84565b91505092915050565b6000819050919050565b600062000fd062000fca62000fc48462000e36565b62000fa5565b62000e36565b9050919050565b600062000fe48262000faf565b9050919050565b600062000ff88262000fd7565b9050919050565b6200100a8162000feb565b82525050565b600060208201905062001027600083018462000fff565b92915050565b60008115159050919050565b62001044816200102d565b82525050565b600060208201905062001061600083018462001039565b92915050565b600080fd5b600080fd5b7f4e487b7100000000000000000000000000000000000000000000000000000000600052604160045260246000fd5b620010ab8262000d74565b810181811067ffffffffffffffff82111715620010cd57620010cc62001071565b5b80604052505050565b6000620010e262000e22565b9050620010f08282620010a0565b919050565b600067ffffffffffffffff82111562001113576200111262001071565b5b6200111e8262000d74565b9050602081019050919050565b82818337600083830152505050565b6000620011516200114b84620010f5565b620010d6565b90508281526020810184848401111562001170576200116f6200106c565b5b6200117d8482856200112b565b509392505050565b600082601f8301126200119d576200119c62001067565b5b8135620011af8482602086016200113a565b91505092915050565b60008060408385031215620011d257620011d162000e2c565b5b6000620011e28582860162000eb5565b925050602083013567ffffffffffffffff81111562001206576200120562000e31565b5b620012148582860162001185565b9150509250929050565b7f4e487b7100000000000000000000000000000000000000000000000000000000600052602260045260246000fd5b600060028204905060018216806200126657607f821691505b6020821081036200127c576200127b6200121e565b5b50919050565b600081519050620012938162000e6a565b92915050565b600060208284031215620012b257620012b162000e2c565b5b6000620012c28482850162001282565b91505092915050565b600081519050620012dc8162000e9b565b92915050565b600060208284031215620012fb57620012fa62000e2c565b5b60006200130b84828501620012cb565b91505092915050565b7f4e487b7100000000000000000000000000000000000000000000000000000000600052601160045260246000fd5b6000620013508262000dea565b91507fffffffffffffffffffffffffffffffffffffffffffffffffffffffffffffffff820362001385576200138462001314565b5b600182019050919050565b6000604082019050620013a7600083018562000df4565b8181036020830152620013bb818462000d85565b9050939250505056fe60806040523480156200001157600080fd5b5060405162000cc438038062000cc4833981810160405281019062000037919062000372565b33600073ffffffffffffffffffffffffffffffffffffffff168173ffffffffffffffffffffffffffffffffffffffff1603620000ad5760006040517f1e4fbdf7000000000000000000000000000000000000000000000000000000008152600401620000a491906200041d565b60405180910390fd5b620000be81620000e060201b60201c565b50816001819055508060029081620000d791906200067b565b50505062000762565b60008060009054906101000a900473ffffffffffffffffffffffffffffffffffffffff169050816000806101000a81548173ffffffffffffffffffffffffffffffffffffffff021916908373ffffffffffffffffffffffffffffffffffffffff1602179055508173ffffffffffffffffffffffffffffffffffffffff168173ffffffffffffffffffffffffffffffffffffffff167f8be0079c531659141344cd1fd0a4f28419497f9722a3daafe3b4186f6b6457e060405160405180910390a35050565b6000604051905090565b600080fd5b600080fd5b6000819050919050565b620001cd81620001b8565b8114620001d957600080fd5b50565b600081519050620001ed81620001c2565b92915050565b600080fd5b600080fd5b6000601f19601f8301169050919050565b7f4e487b7100000000000000000000000000000000000000000000000000000000600052604160045260246000fd5b6200024882620001fd565b810181811067ffffffffffffffff821117156200026a57620002696200020e565b5b80604052505050565b60006200027f620001a4565b90506200028d82826200023d565b919050565b600067ffffffffffffffff821115620002b057620002af6200020e565b5b620002bb82620001fd565b9050602081019050919050565b60005b83811015620002e8578082015181840152602081019050620002cb565b60008484015250505050565b60006200030b620003058462000292565b62000273565b9050828152602081018484840111156200032a5762000329620001f8565b5b62000337848285620002c8565b509392505050565b600082601f830112620003575762000356620001f3565b5b815162000369848260208601620002f4565b91505092915050565b600080604083850312156200038c576200038b620001ae565b5b60006200039c85828601620001dc565b925050602083015167ffffffffffffffff811115620003c057620003bf620001b3565b5b620003ce858286016200033f565b9150509250929050565b600073ffffffffffffffffffffffffffffffffffffffff82169050919050565b60006200040582620003d8565b9050919050565b6200041781620003f8565b82525050565b60006020820190506200043460008301846200040c565b92915050565b600081519050919050565b7f4e487b7100000000000000000000000000000000000000000000000000000000600052602260045260246000fd5b600060028204905060018216806200048d57607f821691505b602082108103620004a357620004a262000445565b5b50919050565b60008190508160005260206000209050919050565b60006020601f8301049050919050565b600082821b905092915050565b6000600883026200050d7fffffffffffffffffffffffffffffffffffffffffffffffffffffffffffffffff82620004ce565b620005198683620004ce565b95508019841693508086168417925050509392505050565b6000819050919050565b60006200055c620005566200055084620001b8565b62000531565b620001b8565b9050919050565b6000819050919050565b62000578836200053b565b62000590620005878262000563565b848454620004db565b825550505050565b600090565b620005a762000598565b620005b48184846200056d565b505050565b5b81811015620005dc57620005d06000826200059d565b600181019050620005ba565b5050565b601f8211156200062b57620005f581620004a9565b6200060084620004be565b8101602085101562000610578190505b620006286200061f85620004be565b830182620005b9565b50505b505050565b600082821c905092915050565b6000620006506000198460080262000630565b1980831691505092915050565b60006200066b83836200063d565b9150826002028217905092915050565b62000686826200043a565b67ffffffffffffffff811115620006a257620006a16200020e565b5b620006ae825462000474565b620006bb828285620005e0565b600060209050601f831160018114620006f35760008415620006de578287015190505b620006ea85826200065d565b8655506200075a565b601f1984166200070386620004a9565b60005b828110156200072d5784890151825560018201915060208501945060208101905062000706565b868310156200074d578489015162000749601f8916826200063d565b8355505b6001600288020188555050505b505050505050565b61055280620007726000396000f3fe608060405234801561001057600080fd5b50600436106100575760003560e01c80635d1ca6311461005c578063715018a61461007a5780637802dff5146100845780638da5cb5b146100a2578063f2fde38b146100c0575b600080fd5b6100646100dc565b6040516100719190610335565b60405180910390f35b6100826100e6565b005b61008c6100fa565b60405161009991906103e0565b60405180910390f35b6100aa61018c565b6040516100b79190610443565b60405180910390f35b6100da60048036038101906100d5919061048f565b6101b5565b005b6000600154905090565b6100ee6101c9565b6100f86000610250565b565b606060028054610109906104eb565b80601f0160208091040260200160405190810160405280929190818152602001828054610135906104eb565b80156101825780601f1061015757610100808354040283529160200191610182565b820191906000526020600020905b81548152906001019060200180831161016557829003601f168201915b5050505050905090565b60008060009054906101000a900473ffffffffffffffffffffffffffffffffffffffff16905090565b6101bd6101c9565b6101c6816101b5565b50565b6101d1610314565b73ffffffffffffffffffffffffffffffffffffffff166101ef61018c565b73ffffffffffffffffffffffffffffffffffffffff161461024e57610212610314565b6040517f118cdaa70000000000000000000000000000000000000000000000000000000081526004016102459190610443565b60405180910390fd5b565b60008060009054906101000a900473ffffffffffffffffffffffffffffffffffffffff169050816000806101000a81548173ffffffffffffffffffffffffffffffffffffffff021916908373ffffffffffffffffffffffffffffffffffffffff1602179055508173ffffffffffffffffffffffffffffffffffffffff168173ffffffffffffffffffffffffffffffffffffffff167f8be0079c531659141344cd1fd0a4f28419497f9722a3daafe3b4186f6b6457e060405160405180910390a35050565b600033905090565b6000819050919050565b61032f8161031c565b82525050565b600060208201905061034a6000830184610326565b92915050565b600081519050919050565b600082825260208201905092915050565b60005b8381101561038a57808201518184015260208101905061036f565b60008484015250505050565b6000601f19601f8301169050919050565b60006103b282610350565b6103bc818561035b565b93506103cc81856020860161036c565b6103d581610396565b840191505092915050565b600060208201905081810360008301526103fa81846103a7565b905092915050565b600073ffffffffffffffffffffffffffffffffffffffff82169050919050565b600061042d82610402565b9050919050565b61043d81610422565b82525050565b60006020820190506104586000830184610434565b92915050565b600080fd5b61046c81610422565b811461047757600080fd5b50565b60008135905061048981610463565b92915050565b6000602082840312156104a5576104a461045e565b5b60006104b38482850161047a565b91505092915050565b7f4e487b7100000000000000000000000000000000000000000000000000000000600052602260045260246000fd5b6000600282049050600182168061050357607f821691505b602082108103610516576105156104bc565b5b5091905056fea2646970667358221220c9055a330222893d1592b6ba51a425feae93b76700fc1cf31e7c593035fd370d64736f6c63430008140033a26469706673582212205d2eff3a6afb4b31ee29993c53541514f33fc14b38083eaf5bce9a1d25c8f49864736f6c63430008140033",
  "linkReferences": {},
  "deployedLinkReferences": {}
}