{
  "_format": "hh-sol-artifact-1",
  "contractName": "Owner",
  "sourceName": "src/Owner.sol",
  "abi": [
    {
      "inputs": [],
      "stateMutability": "nonpayable",
      "type": "constructor"
    },
    {
      "inputs": [],
      "name": "getCollectionId",
      "outputs": [
        {
          "internalType": "int256",
          "name": "",
          "type": "int256"
        }
      ],
      "stateMutability": "view",
      "type": "function"
    }
  ],
  "bytecode": "0x608060405234801561001057600080fd5b50336000806101000a81548173ffffffffffffffffffffffffffffffffffffffff021916908373ffffffffffffffffffffffffffffffffffffffff16021790555060b78061005f6000396000f3fe6080604052348015600f57600080fd5b506004361060285760003560e01c80637c8e7bfe14602d575b600080fd5b60336047565b604051603e91906068565b60405180910390f35b6000600154905090565b6000819050919050565b6062816051565b82525050565b6000602082019050607b6000830184605b565b9291505056fea2646970667358221220c16c1108ded8205f9edd4285b97369b574e91af56ae5288edb6d6961ecce9c7a64736f6c63430008140033",
  "linkReferences": {},
  "deployedLinkReferences": {}
}