{
  "_format": "hh-sol-artifact-1",
  "contractName": "Main",
  "sourceName": "src/Main.sol",
  "abi": [
    {
      "inputs": [],
      "stateMutability": "nonpayable",
      "type": "constructor"
    },
    {
      "inputs": [
        {
          "internalType": "address",
          "name": "sender",
          "type": "address"
        },
        {
          "internalType": "uint256",
          "name": "tokenId",
          "type": "uint256"
        },
        {
          "internalType": "address",
          "name": "owner",
          "type": "address"
        }
      ],
      "name": "ERC721IncorrectOwner",
      "type": "error"
    },
    {
      "inputs": [
        {
          "internalType": "address",
          "name": "operator",
          "type": "address"
        },
        {
          "internalType": "uint256",
          "name": "tokenId",
          "type": "uint256"
        }
      ],
      "name": "ERC721InsufficientApproval",
      "type": "error"
    },
    {
      "inputs": [
        {
          "internalType": "address",
          "name": "approver",
          "type": "address"
        }
      ],
      "name": "ERC721InvalidApprover",
      "type": "error"
    },
    {
      "inputs": [
        {
          "internalType": "address",
          "name": "operator",
          "type": "address"
        }
      ],
      "name": "ERC721InvalidOperator",
      "type": "error"
    },
    {
      "inputs": [
        {
          "internalType": "address",
          "name": "owner",
          "type": "address"
        }
      ],
      "name": "ERC721InvalidOwner",
      "type": "error"
    },
    {
      "inputs": [
        {
          "internalType": "address",
          "name": "receiver",
          "type": "address"
        }
      ],
      "name": "ERC721InvalidReceiver",
      "type": "error"
    },
    {
      "inputs": [
        {
          "internalType": "address",
          "name": "sender",
          "type": "address"
        }
      ],
      "name": "ERC721InvalidSender",
      "type": "error"
    },
    {
      "inputs": [
        {
          "internalType": "uint256",
          "name": "tokenId",
          "type": "uint256"
        }
      ],
      "name": "ERC721NonexistentToken",
      "type": "error"
    },
    {
      "inputs": [
        {
          "internalType": "address",
          "name": "owner",
          "type": "address"
        }
      ],
      "name": "OwnableInvalidOwner",
      "type": "error"
    },
    {
      "inputs": [
        {
          "internalType": "address",
          "name": "account",
          "type": "address"
        }
      ],
      "name": "OwnableUnauthorizedAccount",
      "type": "error"
    },
    {
      "anonymous": false,
      "inputs": [
        {
          "indexed": true,
          "internalType": "address",
          "name": "owner",
          "type": "address"
        },
        {
          "indexed": true,
          "internalType": "address",
          "name": "approved",
          "type": "address"
        },
        {
          "indexed": true,
          "internalType": "uint256",
          "name": "tokenId",
          "type": "uint256"
        }
      ],
      "name": "Approval",
      "type": "event"
    },
    {
      "anonymous": false,
      "inputs": [
        {
          "indexed": true,
          "internalType": "address",
          "name": "owner",
          "type": "address"
        },
        {
          "indexed": true,
          "internalType": "address",
          "name": "operator",
          "type": "address"
        },
        {
          "indexed": false,
          "internalType": "bool",
          "name": "approved",
          "type": "bool"
        }
      ],
      "name": "ApprovalForAll",
      "type": "event"
    },
    {
      "anonymous": false,
      "inputs": [
        {
          "indexed": true,
          "internalType": "address",
          "name": "previousOwner",
          "type": "address"
        },
        {
          "indexed": true,
          "internalType": "address",
          "name": "newOwner",
          "type": "address"
        }
      ],
      "name": "OwnershipTransferred",
      "type": "event"
    },
    {
      "anonymous": false,
      "inputs": [
        {
          "indexed": true,
          "internalType": "address",
          "name": "from",
          "type": "address"
        },
        {
          "indexed": true,
          "internalType": "address",
          "name": "to",
          "type": "address"
        },
        {
          "indexed": true,
          "internalType": "uint256",
          "name": "tokenId",
          "type": "uint256"
        }
      ],
      "name": "Transfer",
      "type": "event"
    },
    {
      "inputs": [
        {
          "internalType": "uint256",
          "name": "cardNumber",
          "type": "uint256"
        }
      ],
      "name": "addACard",
      "outputs": [
        {
          "internalType": "address",
          "name": "",
          "type": "address"
        }
      ],
      "stateMutability": "nonpayable",
      "type": "function"
    },
    {
      "inputs": [
        {
          "internalType": "address",
          "name": "to",
          "type": "address"
        },
        {
          "internalType": "uint256",
          "name": "tokenId",
          "type": "uint256"
        }
      ],
      "name": "approve",
      "outputs": [],
      "stateMutability": "nonpayable",
      "type": "function"
    },
    {
      "inputs": [
        {
          "internalType": "address",
          "name": "owner",
          "type": "address"
        }
      ],
      "name": "balanceOf",
      "outputs": [
        {
          "internalType": "uint256",
          "name": "",
          "type": "uint256"
        }
      ],
      "stateMutability": "view",
      "type": "function"
    },
    {
      "inputs": [
        {
          "internalType": "uint256",
          "name": "",
          "type": "uint256"
        }
      ],
      "name": "cardCollections",
      "outputs": [
        {
          "internalType": "contract GameCollection",
          "name": "",
          "type": "address"
        }
      ],
      "stateMutability": "view",
      "type": "function"
    },
    {
      "inputs": [],
      "name": "collectionCount",
      "outputs": [
        {
          "internalType": "uint256",
          "name": "",
          "type": "uint256"
        }
      ],
      "stateMutability": "view",
      "type": "function"
    },
    {
      "inputs": [
        {
          "internalType": "string",
          "name": "name",
          "type": "string"
        },
        {
          "internalType": "int256",
          "name": "cardCount",
          "type": "int256"
        }
      ],
      "name": "createGameCollection",
      "outputs": [],
      "stateMutability": "nonpayable",
      "type": "function"
    },
    {
      "inputs": [
        {
          "internalType": "uint256",
          "name": "tokenId",
          "type": "uint256"
        }
      ],
      "name": "getApproved",
      "outputs": [
        {
          "internalType": "address",
          "name": "",
          "type": "address"
        }
      ],
      "stateMutability": "view",
      "type": "function"
    },
    {
      "inputs": [
        {
          "internalType": "uint256",
          "name": "tokenId",
          "type": "uint256"
        }
      ],
      "name": "getCollectionNbForCard",
      "outputs": [
        {
          "internalType": "int256",
          "name": "",
          "type": "int256"
        }
      ],
      "stateMutability": "view",
      "type": "function"
    },
    {
      "inputs": [
        {
          "internalType": "address",
          "name": "owner",
          "type": "address"
        },
        {
          "internalType": "address",
          "name": "operator",
          "type": "address"
        }
      ],
      "name": "isApprovedForAll",
      "outputs": [
        {
          "internalType": "bool",
          "name": "",
          "type": "bool"
        }
      ],
      "stateMutability": "view",
      "type": "function"
    },
    {
      "inputs": [
        {
          "internalType": "address",
          "name": "to",
          "type": "address"
        },
        {
          "internalType": "uint256",
          "name": "tokenId",
          "type": "uint256"
        },
        {
          "internalType": "uint256",
          "name": "collectionNumber",
          "type": "uint256"
        }
      ],
      "name": "mint",
      "outputs": [],
      "stateMutability": "nonpayable",
      "type": "function"
    },
    {
      "inputs": [
        {
          "internalType": "address",
          "name": "to",
          "type": "address"
        },
        {
          "internalType": "uint256",
          "name": "quantity",
          "type": "uint256"
        },
        {
          "internalType": "uint256",
          "name": "collectionNumber",
          "type": "uint256"
        }
      ],
      "name": "mintSomeCards",
      "outputs": [],
      "stateMutability": "nonpayable",
      "type": "function"
    },
    {
      "inputs": [],
      "name": "name",
      "outputs": [
        {
          "internalType": "string",
          "name": "",
          "type": "string"
        }
      ],
      "stateMutability": "view",
      "type": "function"
    },
    {
      "inputs": [],
      "name": "owner",
      "outputs": [
        {
          "internalType": "address",
          "name": "",
          "type": "address"
        }
      ],
      "stateMutability": "view",
      "type": "function"
    },
    {
      "inputs": [
        {
          "internalType": "uint256",
          "name": "tokenId",
          "type": "uint256"
        }
      ],
      "name": "ownerOf",
      "outputs": [
        {
          "internalType": "address",
          "name": "",
          "type": "address"
        }
      ],
      "stateMutability": "view",
      "type": "function"
    },
    {
      "inputs": [],
      "name": "renounceOwnership",
      "outputs": [],
      "stateMutability": "nonpayable",
      "type": "function"
    },
    {
      "inputs": [
        {
          "internalType": "address",
          "name": "from",
          "type": "address"
        },
        {
          "internalType": "address",
          "name": "to",
          "type": "address"
        },
        {
          "internalType": "uint256",
          "name": "tokenId",
          "type": "uint256"
        }
      ],
      "name": "safeTransferFrom",
      "outputs": [],
      "stateMutability": "nonpayable",
      "type": "function"
    },
    {
      "inputs": [
        {
          "internalType": "address",
          "name": "from",
          "type": "address"
        },
        {
          "internalType": "address",
          "name": "to",
          "type": "address"
        },
        {
          "internalType": "uint256",
          "name": "tokenId",
          "type": "uint256"
        },
        {
          "internalType": "bytes",
          "name": "data",
          "type": "bytes"
        }
      ],
      "name": "safeTransferFrom",
      "outputs": [],
      "stateMutability": "nonpayable",
      "type": "function"
    },
    {
      "inputs": [
        {
          "internalType": "address",
          "name": "operator",
          "type": "address"
        },
        {
          "internalType": "bool",
          "name": "approved",
          "type": "bool"
        }
      ],
      "name": "setApprovalForAll",
      "outputs": [],
      "stateMutability": "nonpayable",
      "type": "function"
    },
    {
      "inputs": [
        {
          "internalType": "bytes4",
          "name": "interfaceId",
          "type": "bytes4"
        }
      ],
      "name": "supportsInterface",
      "outputs": [
        {
          "internalType": "bool",
          "name": "",
          "type": "bool"
        }
      ],
      "stateMutability": "view",
      "type": "function"
    },
    {
      "inputs": [],
      "name": "symbol",
      "outputs": [
        {
          "internalType": "string",
          "name": "",
          "type": "string"
        }
      ],
      "stateMutability": "view",
      "type": "function"
    },
    {
      "inputs": [
        {
          "internalType": "uint256",
          "name": "tokenId",
          "type": "uint256"
        }
      ],
      "name": "tokenURI",
      "outputs": [
        {
          "internalType": "string",
          "name": "",
          "type": "string"
        }
      ],
      "stateMutability": "view",
      "type": "function"
    },
    {
      "inputs": [
        {
          "internalType": "address",
          "name": "from",
          "type": "address"
        },
        {
          "internalType": "address",
          "name": "to",
          "type": "address"
        },
        {
          "internalType": "uint256",
          "name": "tokenId",
          "type": "uint256"
        }
      ],
      "name": "transferFrom",
      "outputs": [],
      "stateMutability": "nonpayable",
      "type": "function"
    },
    {
      "inputs": [
        {
          "internalType": "address",
          "name": "newOwner",
          "type": "address"
        }
      ],
      "name": "transferOwnership",
      "outputs": [],
      "stateMutability": "nonpayable",
      "type": "function"
    }
  ],
  "bytecode": "0x60806040523480156200001157600080fd5b506040518060400160405280600481526020017f43617264000000000000000000000000000000000000000000000000000000008152506040518060400160405280600481526020017f434152440000000000000000000000000000000000000000000000000000000081525033600073ffffffffffffffffffffffffffffffffffffffff168173ffffffffffffffffffffffffffffffffffffffff1603620000f45760006040517f1e4fbdf7000000000000000000000000000000000000000000000000000000008152600401620000eb91906200027c565b60405180910390fd5b62000105816200017360201b60201c565b50816001908162000117919062000513565b50806002908162000129919062000513565b50505033600960006101000a81548173ffffffffffffffffffffffffffffffffffffffff021916908373ffffffffffffffffffffffffffffffffffffffff160217905550620005fa565b60008060009054906101000a900473ffffffffffffffffffffffffffffffffffffffff169050816000806101000a81548173ffffffffffffffffffffffffffffffffffffffff021916908373ffffffffffffffffffffffffffffffffffffffff1602179055508173ffffffffffffffffffffffffffffffffffffffff168173ffffffffffffffffffffffffffffffffffffffff167f8be0079c531659141344cd1fd0a4f28419497f9722a3daafe3b4186f6b6457e060405160405180910390a35050565b600073ffffffffffffffffffffffffffffffffffffffff82169050919050565b6000620002648262000237565b9050919050565b620002768162000257565b82525050565b60006020820190506200029360008301846200026b565b92915050565b600081519050919050565b7f4e487b7100000000000000000000000000000000000000000000000000000000600052604160045260246000fd5b7f4e487b7100000000000000000000000000000000000000000000000000000000600052602260045260246000fd5b600060028204905060018216806200031b57607f821691505b602082108103620003315762000330620002d3565b5b50919050565b60008190508160005260206000209050919050565b60006020601f8301049050919050565b600082821b905092915050565b6000600883026200039b7fffffffffffffffffffffffffffffffffffffffffffffffffffffffffffffffff826200035c565b620003a786836200035c565b95508019841693508086168417925050509392505050565b6000819050919050565b6000819050919050565b6000620003f4620003ee620003e884620003bf565b620003c9565b620003bf565b9050919050565b6000819050919050565b6200041083620003d3565b620004286200041f82620003fb565b84845462000369565b825550505050565b600090565b6200043f62000430565b6200044c81848462000405565b505050565b5b8181101562000474576200046860008262000435565b60018101905062000452565b5050565b601f821115620004c3576200048d8162000337565b62000498846200034c565b81016020851015620004a8578190505b620004c0620004b7856200034c565b83018262000451565b50505b505050565b600082821c905092915050565b6000620004e860001984600802620004c8565b1980831691505092915050565b6000620005038383620004d5565b9150826002028217905092915050565b6200051e8262000299565b67ffffffffffffffff8111156200053a5762000539620002a4565b5b62000546825462000302565b6200055382828562000478565b600060209050601f8311600181146200058b576000841562000576578287015190505b620005828582620004f5565b865550620005f2565b601f1984166200059b8662000337565b60005b82811015620005c5578489015182556001820191506020850194506020810190506200059e565b86831015620005e55784890151620005e1601f891682620004d5565b8355505b6001600288020188555050505b505050505050565b6156a8806200060a6000396000f3fe60806040523480156200001157600080fd5b50600436106200016c5760003560e01c8063715018a611620000d5578063bf8741031162000087578063bf8741031462000407578063c87b56dd146200043d578063d57f966b1462000473578063e985e9c51462000495578063f2fde38b14620004cb578063f7374d1114620004eb576200016c565b8063715018a614620003415780638da5cb5b146200034d57806395d89b41146200036f578063a22cb4651462000391578063b88d4fde14620003b1578063bc4f6def14620003d1576200016c565b8063156e29f6116200012f578063156e29f6146200025557806323b872dd146200027557806342842e0e14620002955780636352211e14620002b557806364f3767114620002eb57806370a08231146200030b576200016c565b806301ffc9a7146200017157806306fdde0314620001a7578063081812fc14620001c9578063095ea7b314620001ff5780630abc4a78146200021f575b600080fd5b6200018f600480360381019062000189919062001f52565b6200050b565b6040516200019e919062001fa1565b60405180910390f35b620001b1620005f1565b604051620001c0919062002058565b60405180910390f35b620001e76004803603810190620001e19190620020b7565b6200068b565b604051620001f691906200212e565b60405180910390f35b6200021d60048036038101906200021791906200217c565b620006ab565b005b6200023d6004803603810190620002379190620020b7565b620006c5565b6040516200024c9190620021de565b60405180910390f35b6200027360048036038101906200026d9190620021fb565b620007da565b005b6200029360048036038101906200028d919062002257565b620008ca565b005b620002b36004803603810190620002ad919062002257565b62000bac565b005b620002d36004803603810190620002cd9190620020b7565b62000bce565b604051620002e291906200212e565b60405180910390f35b62000309600480360381019062000303919062002352565b62000cf9565b005b620003296004803603810190620003239190620023bc565b62000daf565b604051620003389190620023ff565b60405180910390f35b6200034b62000ea5565b005b6200035762000ebd565b6040516200036691906200212e565b60405180910390f35b6200037962000ee6565b60405162000388919062002058565b60405180910390f35b620003af6004803603810190620003a991906200244d565b62000f80565b005b620003cf6004803603810190620003c99190620025e0565b62000f9a565b005b620003ef6004803603810190620003e99190620020b7565b62000fbb565b604051620003fe9190620026dc565b60405180910390f35b6200042560048036038101906200041f9190620020b7565b62000fee565b6040516200043491906200212e565b60405180910390f35b6200045b6004803603810190620004559190620020b7565b620011ff565b6040516200046a919062002058565b60405180910390f35b6200047d62001272565b6040516200048c9190620023ff565b60405180910390f35b620004b36004803603810190620004ad9190620026f9565b62001278565b604051620004c2919062001fa1565b60405180910390f35b620004e96004803603810190620004e39190620023bc565b6200130c565b005b620005096004803603810190620005039190620021fb565b62001399565b005b60007f80ac58cd000000000000000000000000000000000000000000000000000000007bffffffffffffffffffffffffffffffffffffffffffffffffffffffff1916827bffffffffffffffffffffffffffffffffffffffffffffffffffffffff19161480620005d757507f5b5e139f000000000000000000000000000000000000000000000000000000007bffffffffffffffffffffffffffffffffffffffffffffffffffffffff1916827bffffffffffffffffffffffffffffffffffffffffffffffffffffffff1916145b80620005ea5750620005e98262001489565b5b9050919050565b60606001805462000602906200276f565b80601f016020809104026020016040519081016040528092919081815260200182805462000630906200276f565b8015620006815780601f10620006555761010080835404028352916020019162000681565b820191906000526020600020905b8154815290600101906020018083116200066357829003601f168201915b5050505050905090565b60006200069882620014f3565b50620006a48262001580565b9050919050565b620006c18282620006bb620015bd565b620015c5565b5050565b600080600090505b600854811215620007b0576007600082815260200190815260200160002060009054906101000a900473ffffffffffffffffffffffffffffffffffffffff1673ffffffffffffffffffffffffffffffffffffffff1663a9aa75ef846040518263ffffffff1660e01b8152600401620007469190620023ff565b602060405180830381865afa15801562000764573d6000803e3d6000fd5b505050506040513d601f19601f820116820180604052508101906200078a9190620027bb565b156200079a5780915050620007d5565b8080620007a7906200281c565b915050620006cd565b507fffffffffffffffffffffffffffffffffffffffffffffffffffffffffffffffff90505b919050565b600854811062000821576040517f08c379a00000000000000000000000000000000000000000000000000000000081526004016200081890620028df565b60405180910390fd5b6007600082815260200190815260200160002060009054906101000a900473ffffffffffffffffffffffffffffffffffffffff1673ffffffffffffffffffffffffffffffffffffffff166340c10f1984846040518363ffffffff1660e01b81526004016200089192919062002901565b600060405180830381600087803b158015620008ac57600080fd5b505af1158015620008c1573d6000803e3d6000fd5b50505050505050565b620008d58162000bce565b73ffffffffffffffffffffffffffffffffffffffff168373ffffffffffffffffffffffffffffffffffffffff161462000945576040517f08c379a00000000000000000000000000000000000000000000000000000000081526004016200093c90620029a4565b60405180910390fd5b600073ffffffffffffffffffffffffffffffffffffffff168273ffffffffffffffffffffffffffffffffffffffff1603620009b7576040517f08c379a0000000000000000000000000000000000000000000000000000000008152600401620009ae9062002a3c565b60405180910390fd5b6000620009c482620006c5565b90507fffffffffffffffffffffffffffffffffffffffffffffffffffffffffffffffff810362000a2b576040517f08c379a000000000000000000000000000000000000000000000000000000000815260040162000a229062002ad4565b60405180910390fd5b6007600082815260200190815260200160002060009054906101000a900473ffffffffffffffffffffffffffffffffffffffff1673ffffffffffffffffffffffffffffffffffffffff16639188d312836040518263ffffffff1660e01b815260040162000a999190620023ff565b602060405180830381865afa15801562000ab7573d6000803e3d6000fd5b505050506040513d601f19601f8201168201806040525081019062000add919062002b3b565b73ffffffffffffffffffffffffffffffffffffffff1663f2fde38b846040518263ffffffff1660e01b815260040162000b1791906200212e565b600060405180830381600087803b15801562000b3257600080fd5b505af115801562000b47573d6000803e3d6000fd5b50505050818373ffffffffffffffffffffffffffffffffffffffff168573ffffffffffffffffffffffffffffffffffffffff167fddf252ad1be2c89b69c2b068fc378daa952ba7f163c4a11628f55a4df523b3ef60405160405180910390a450505050565b62000bc98383836040518060200160405280600081525062000f9a565b505050565b600080600090505b60085481101562000cee5760006007600083815260200190815260200160002060009054906101000a900473ffffffffffffffffffffffffffffffffffffffff1673ffffffffffffffffffffffffffffffffffffffff16636352211e856040518263ffffffff1660e01b815260040162000c519190620023ff565b602060405180830381865afa15801562000c6f573d6000803e3d6000fd5b505050506040513d601f19601f8201168201806040525081019062000c95919062002b84565b9050600073ffffffffffffffffffffffffffffffffffffffff168173ffffffffffffffffffffffffffffffffffffffff161462000cd757809250505062000cf4565b50808062000ce59062002bb6565b91505062000bd6565b50600090505b919050565b60008383600060405162000d0d9062001ed3565b62000d1b9392919062002c79565b604051809103906000f08015801562000d38573d6000803e3d6000fd5b5090508060076000600854815260200190815260200160002060006101000a81548173ffffffffffffffffffffffffffffffffffffffff021916908373ffffffffffffffffffffffffffffffffffffffff1602179055506008600081548092919062000da49062002bb6565b919050555050505050565b6000806000905060005b60085481101562000e9b576007600082815260200190815260200160002060009054906101000a900473ffffffffffffffffffffffffffffffffffffffff1673ffffffffffffffffffffffffffffffffffffffff166370a08231856040518263ffffffff1660e01b815260040162000e3291906200212e565b602060405180830381865afa15801562000e50573d6000803e3d6000fd5b505050506040513d601f19601f8201168201806040525081019062000e76919062002cc6565b8262000e83919062002cf8565b9150808062000e929062002bb6565b91505062000db9565b5080915050919050565b62000eaf620015d9565b62000ebb600062001669565b565b60008060009054906101000a900473ffffffffffffffffffffffffffffffffffffffff16905090565b60606002805462000ef7906200276f565b80601f016020809104026020016040519081016040528092919081815260200182805462000f25906200276f565b801562000f765780601f1062000f4a5761010080835404028352916020019162000f76565b820191906000526020600020905b81548152906001019060200180831162000f5857829003601f168201915b5050505050905090565b62000f9662000f8e620015bd565b83836200172d565b5050565b62000fa7848484620008ca565b62000fb584848484620018a1565b50505050565b60076020528060005260406000206000915054906101000a900473ffffffffffffffffffffffffffffffffffffffff1681565b6000806000604051620010019062001ed3565b6200100d919062002d83565b604051809103906000f0801580156200102a573d6000803e3d6000fd5b5090508060076000600854815260200190815260200160002060006101000a81548173ffffffffffffffffffffffffffffffffffffffff021916908373ffffffffffffffffffffffffffffffffffffffff16021790555060086000815480929190620010969062002bb6565b91905055506007600080815260200190815260200160002060009054906101000a900473ffffffffffffffffffffffffffffffffffffffff1673ffffffffffffffffffffffffffffffffffffffff1663aa93d702846040518263ffffffff1660e01b815260040162001109919062002e2b565b600060405180830381600087803b1580156200112457600080fd5b505af115801562001139573d6000803e3d6000fd5b5050505060006007600080815260200190815260200160002060009054906101000a900473ffffffffffffffffffffffffffffffffffffffff1673ffffffffffffffffffffffffffffffffffffffff16639188d312856040518263ffffffff1660e01b8152600401620011ad9190620023ff565b602060405180830381865afa158015620011cb573d6000803e3d6000fd5b505050506040513d601f19601f82011682018060405250810190620011f1919062002b3b565b905061029a92505050919050565b60606200120c82620014f3565b5060006200121962001a69565b905060008151116200123b57604051806020016040528060008152506200126a565b80620012478462001a80565b6040516020016200125a92919062002e9f565b6040516020818303038152906040525b915050919050565b60085481565b6000600660008473ffffffffffffffffffffffffffffffffffffffff1673ffffffffffffffffffffffffffffffffffffffff16815260200190815260200160002060008373ffffffffffffffffffffffffffffffffffffffff1673ffffffffffffffffffffffffffffffffffffffff16815260200190815260200160002060009054906101000a900460ff16905092915050565b62001316620015d9565b600073ffffffffffffffffffffffffffffffffffffffff168173ffffffffffffffffffffffffffffffffffffffff16036200138b5760006040517f1e4fbdf70000000000000000000000000000000000000000000000000000000081526004016200138291906200212e565b60405180910390fd5b620013968162001669565b50565b6008548110620013e0576040517f08c379a0000000000000000000000000000000000000000000000000000000008152600401620013d790620028df565b60405180910390fd5b6007600082815260200190815260200160002060009054906101000a900473ffffffffffffffffffffffffffffffffffffffff1673ffffffffffffffffffffffffffffffffffffffff1663f92906ff84846040518363ffffffff1660e01b81526004016200145092919062002901565b600060405180830381600087803b1580156200146b57600080fd5b505af115801562001480573d6000803e3d6000fd5b50505050505050565b60007f01ffc9a7000000000000000000000000000000000000000000000000000000007bffffffffffffffffffffffffffffffffffffffffffffffffffffffff1916827bffffffffffffffffffffffffffffffffffffffffffffffffffffffff1916149050919050565b600080620015018362001b59565b9050600073ffffffffffffffffffffffffffffffffffffffff168173ffffffffffffffffffffffffffffffffffffffff16036200157757826040517f7e2732890000000000000000000000000000000000000000000000000000000081526004016200156e9190620023ff565b60405180910390fd5b80915050919050565b60006005600083815260200190815260200160002060009054906101000a900473ffffffffffffffffffffffffffffffffffffffff169050919050565b600033905090565b620015d4838383600162001b96565b505050565b620015e3620015bd565b73ffffffffffffffffffffffffffffffffffffffff166200160362000ebd565b73ffffffffffffffffffffffffffffffffffffffff1614620016675762001629620015bd565b6040517f118cdaa70000000000000000000000000000000000000000000000000000000081526004016200165e91906200212e565b60405180910390fd5b565b60008060009054906101000a900473ffffffffffffffffffffffffffffffffffffffff169050816000806101000a81548173ffffffffffffffffffffffffffffffffffffffff021916908373ffffffffffffffffffffffffffffffffffffffff1602179055508173ffffffffffffffffffffffffffffffffffffffff168173ffffffffffffffffffffffffffffffffffffffff167f8be0079c531659141344cd1fd0a4f28419497f9722a3daafe3b4186f6b6457e060405160405180910390a35050565b600073ffffffffffffffffffffffffffffffffffffffff168273ffffffffffffffffffffffffffffffffffffffff1603620017a157816040517f5b08ba180000000000000000000000000000000000000000000000000000000081526004016200179891906200212e565b60405180910390fd5b80600660008573ffffffffffffffffffffffffffffffffffffffff1673ffffffffffffffffffffffffffffffffffffffff16815260200190815260200160002060008473ffffffffffffffffffffffffffffffffffffffff1673ffffffffffffffffffffffffffffffffffffffff16815260200190815260200160002060006101000a81548160ff0219169083151502179055508173ffffffffffffffffffffffffffffffffffffffff168373ffffffffffffffffffffffffffffffffffffffff167f17307eab39ab6107e8899845ad3d59bd9653f200f220920489ca2b5937696c318360405162001894919062001fa1565b60405180910390a3505050565b60008373ffffffffffffffffffffffffffffffffffffffff163b111562001a63578273ffffffffffffffffffffffffffffffffffffffff1663150b7a02620018e8620015bd565b8685856040518563ffffffff1660e01b81526004016200190c949392919062002f24565b6020604051808303816000875af19250505080156200194b57506040513d601f19601f8201168201806040525081019062001948919062002f8f565b60015b620019d5573d80600081146200197e576040519150601f19603f3d011682016040523d82523d6000602084013e62001983565b606091505b506000815103620019cd57836040517f64a0ae92000000000000000000000000000000000000000000000000000000008152600401620019c491906200212e565b60405180910390fd5b805181602001fd5b63150b7a0260e01b7bffffffffffffffffffffffffffffffffffffffffffffffffffffffff1916817bffffffffffffffffffffffffffffffffffffffffffffffffffffffff19161462001a6157836040517f64a0ae9200000000000000000000000000000000000000000000000000000000815260040162001a5891906200212e565b60405180910390fd5b505b50505050565b606060405180602001604052806000815250905090565b60606000600162001a918462001d67565b01905060008167ffffffffffffffff81111562001ab35762001ab262002499565b5b6040519080825280601f01601f19166020018201604052801562001ae65781602001600182028036833780820191505090505b509050600082602001820190505b60011562001b4e578080600190039150507f3031323334353637383961626364656600000000000000000000000000000000600a86061a8153600a858162001b415762001b4062002fc1565b5b0494506000850362001af4575b819350505050919050565b60006003600083815260200190815260200160002060009054906101000a900473ffffffffffffffffffffffffffffffffffffffff169050919050565b808062001bd05750600073ffffffffffffffffffffffffffffffffffffffff168273ffffffffffffffffffffffffffffffffffffffff1614155b1562001d0f57600062001be384620014f3565b9050600073ffffffffffffffffffffffffffffffffffffffff168373ffffffffffffffffffffffffffffffffffffffff161415801562001c4f57508273ffffffffffffffffffffffffffffffffffffffff168173ffffffffffffffffffffffffffffffffffffffff1614155b801562001c65575062001c63818462001278565b155b1562001caa57826040517fa9fbf51f00000000000000000000000000000000000000000000000000000000815260040162001ca191906200212e565b60405180910390fd5b811562001d0d57838573ffffffffffffffffffffffffffffffffffffffff168273ffffffffffffffffffffffffffffffffffffffff167f8c5be1e5ebec7d5bd14f71427d1e84f3dd0314c0f7b2291e5b200ac8c7c3b92560405160405180910390a45b505b836005600085815260200190815260200160002060006101000a81548173ffffffffffffffffffffffffffffffffffffffff021916908373ffffffffffffffffffffffffffffffffffffffff16021790555050505050565b600080600090507a184f03e93ff9f4daa797ed6e38ed64bf6a1f010000000000000000831062001dc9577a184f03e93ff9f4daa797ed6e38ed64bf6a1f010000000000000000838162001dbf5762001dbe62002fc1565b5b0492506040810190505b6d04ee2d6d415b85acef8100000000831062001e0a576d04ee2d6d415b85acef8100000000838162001e005762001dff62002fc1565b5b0492506020810190505b662386f26fc10000831062001e3d57662386f26fc10000838162001e335762001e3262002fc1565b5b0492506010810190505b6305f5e100831062001e6a576305f5e100838162001e605762001e5f62002fc1565b5b0492506008810190505b612710831062001e9357612710838162001e895762001e8862002fc1565b5b0492506004810190505b6064831062001eba576064838162001eb05762001eaf62002fc1565b5b0492506002810190505b600a831062001eca576001810190505b80915050919050565b6126828062002ff183390190565b6000604051905090565b600080fd5b600080fd5b60007fffffffff0000000000000000000000000000000000000000000000000000000082169050919050565b62001f2c8162001ef5565b811462001f3857600080fd5b50565b60008135905062001f4c8162001f21565b92915050565b60006020828403121562001f6b5762001f6a62001eeb565b5b600062001f7b8482850162001f3b565b91505092915050565b60008115159050919050565b62001f9b8162001f84565b82525050565b600060208201905062001fb8600083018462001f90565b92915050565b600081519050919050565b600082825260208201905092915050565b60005b8381101562001ffa57808201518184015260208101905062001fdd565b60008484015250505050565b6000601f19601f8301169050919050565b6000620020248262001fbe565b62002030818562001fc9565b93506200204281856020860162001fda565b6200204d8162002006565b840191505092915050565b6000602082019050818103600083015262002074818462002017565b905092915050565b6000819050919050565b62002091816200207c565b81146200209d57600080fd5b50565b600081359050620020b18162002086565b92915050565b600060208284031215620020d057620020cf62001eeb565b5b6000620020e084828501620020a0565b91505092915050565b600073ffffffffffffffffffffffffffffffffffffffff82169050919050565b60006200211682620020e9565b9050919050565b620021288162002109565b82525050565b60006020820190506200214560008301846200211d565b92915050565b620021568162002109565b81146200216257600080fd5b50565b60008135905062002176816200214b565b92915050565b6000806040838503121562002196576200219562001eeb565b5b6000620021a68582860162002165565b9250506020620021b985828601620020a0565b9150509250929050565b6000819050919050565b620021d881620021c3565b82525050565b6000602082019050620021f56000830184620021cd565b92915050565b60008060006060848603121562002217576200221662001eeb565b5b6000620022278682870162002165565b93505060206200223a86828701620020a0565b92505060406200224d86828701620020a0565b9150509250925092565b60008060006060848603121562002273576200227262001eeb565b5b6000620022838682870162002165565b9350506020620022968682870162002165565b9250506040620022a986828701620020a0565b9150509250925092565b600080fd5b600080fd5b600080fd5b60008083601f840112620022db57620022da620022b3565b5b8235905067ffffffffffffffff811115620022fb57620022fa620022b8565b5b6020830191508360018202830111156200231a5762002319620022bd565b5b9250929050565b6200232c81620021c3565b81146200233857600080fd5b50565b6000813590506200234c8162002321565b92915050565b6000806000604084860312156200236e576200236d62001eeb565b5b600084013567ffffffffffffffff8111156200238f576200238e62001ef0565b5b6200239d86828701620022c2565b93509350506020620023b2868287016200233b565b9150509250925092565b600060208284031215620023d557620023d462001eeb565b5b6000620023e58482850162002165565b91505092915050565b620023f9816200207c565b82525050565b6000602082019050620024166000830184620023ee565b92915050565b620024278162001f84565b81146200243357600080fd5b50565b60008135905062002447816200241c565b92915050565b6000806040838503121562002467576200246662001eeb565b5b6000620024778582860162002165565b92505060206200248a8582860162002436565b9150509250929050565b600080fd5b7f4e487b7100000000000000000000000000000000000000000000000000000000600052604160045260246000fd5b620024d38262002006565b810181811067ffffffffffffffff82111715620024f557620024f462002499565b5b80604052505050565b60006200250a62001ee1565b9050620025188282620024c8565b919050565b600067ffffffffffffffff8211156200253b576200253a62002499565b5b620025468262002006565b9050602081019050919050565b82818337600083830152505050565b60006200257962002573846200251d565b620024fe565b90508281526020810184848401111562002598576200259762002494565b5b620025a584828562002553565b509392505050565b600082601f830112620025c557620025c4620022b3565b5b8135620025d784826020860162002562565b91505092915050565b60008060008060808587031215620025fd57620025fc62001eeb565b5b60006200260d8782880162002165565b9450506020620026208782880162002165565b93505060406200263387828801620020a0565b925050606085013567ffffffffffffffff81111562002657576200265662001ef0565b5b6200266587828801620025ad565b91505092959194509250565b6000819050919050565b60006200269c620026966200269084620020e9565b62002671565b620020e9565b9050919050565b6000620026b0826200267b565b9050919050565b6000620026c482620026a3565b9050919050565b620026d681620026b7565b82525050565b6000602082019050620026f36000830184620026cb565b92915050565b6000806040838503121562002713576200271262001eeb565b5b6000620027238582860162002165565b9250506020620027368582860162002165565b9150509250929050565b7f4e487b7100000000000000000000000000000000000000000000000000000000600052602260045260246000fd5b600060028204905060018216806200278857607f821691505b6020821081036200279e576200279d62002740565b5b50919050565b600081519050620027b5816200241c565b92915050565b600060208284031215620027d457620027d362001eeb565b5b6000620027e484828501620027a4565b91505092915050565b7f4e487b7100000000000000000000000000000000000000000000000000000000600052601160045260246000fd5b60006200282982620021c3565b91507f7fffffffffffffffffffffffffffffffffffffffffffffffffffffffffffffff82036200285e576200285d620027ed565b5b600182019050919050565b7f436172644f776e6572736869703a20636f6c6c656374696f6e20646f6573206e60008201527f6f74206578697374000000000000000000000000000000000000000000000000602082015250565b6000620028c760288362001fc9565b9150620028d48262002869565b604082019050919050565b60006020820190508181036000830152620028fa81620028b8565b9050919050565b60006040820190506200291860008301856200211d565b620029276020830184620023ee565b9392505050565b7f436172644f776e6572736869703a207472616e73666572206f6620746f6b656e60008201527f2074686174206973206e6f74206f776e00000000000000000000000000000000602082015250565b60006200298c60308362001fc9565b915062002999826200292e565b604082019050919050565b60006020820190508181036000830152620029bf816200297d565b9050919050565b7f436172644f776e6572736869703a207472616e7366657220746f20746865207a60008201527f65726f2061646472657373000000000000000000000000000000000000000000602082015250565b600062002a24602b8362001fc9565b915062002a3182620029c6565b604082019050919050565b6000602082019050818103600083015262002a578162002a15565b9050919050565b7f436172644f776e6572736869703a206361726420646f6573206e6f742065786960008201527f7374000000000000000000000000000000000000000000000000000000000000602082015250565b600062002abc60228362001fc9565b915062002ac98262002a5e565b604082019050919050565b6000602082019050818103600083015262002aef8162002aad565b9050919050565b600062002b038262002109565b9050919050565b62002b158162002af6565b811462002b2157600080fd5b50565b60008151905062002b358162002b0a565b92915050565b60006020828403121562002b545762002b5362001eeb565b5b600062002b648482850162002b24565b91505092915050565b60008151905062002b7e816200214b565b92915050565b60006020828403121562002b9d5762002b9c62001eeb565b5b600062002bad8482850162002b6d565b91505092915050565b600062002bc3826200207c565b91507fffffffffffffffffffffffffffffffffffffffffffffffffffffffffffffffff820362002bf85762002bf7620027ed565b5b600182019050919050565b600062002c11838562001fc9565b935062002c2083858462002553565b62002c2b8362002006565b840190509392505050565b6000819050919050565b600062002c6162002c5b62002c558462002c36565b62002671565b6200207c565b9050919050565b62002c738162002c40565b82525050565b6000604082019050818103600083015262002c9681858762002c03565b905062002ca7602083018462002c68565b949350505050565b60008151905062002cc08162002086565b92915050565b60006020828403121562002cdf5762002cde62001eeb565b5b600062002cef8482850162002caf565b91505092915050565b600062002d05826200207c565b915062002d12836200207c565b925082820190508082111562002d2d5762002d2c620027ed565b5b92915050565b7f57697a6172640000000000000000000000000000000000000000000000000000600082015250565b600062002d6b60068362001fc9565b915062002d788262002d33565b602082019050919050565b6000604082019050818103600083015262002d9e8162002d5c565b905062002daf602083018462002c68565b92915050565b7f68747470733a2f2f696d616765732e706f6b656d6f6e7463672e696f2f78793160008201527f2f312e706e670000000000000000000000000000000000000000000000000000602082015250565b600062002e1360268362001fc9565b915062002e208262002db5565b604082019050919050565b600060408201905062002e426000830184620023ee565b818103602083015262002e558162002e04565b905092915050565b600081905092915050565b600062002e758262001fbe565b62002e81818562002e5d565b935062002e9381856020860162001fda565b80840191505092915050565b600062002ead828562002e68565b915062002ebb828462002e68565b91508190509392505050565b600081519050919050565b600082825260208201905092915050565b600062002ef08262002ec7565b62002efc818562002ed2565b935062002f0e81856020860162001fda565b62002f198162002006565b840191505092915050565b600060808201905062002f3b60008301876200211d565b62002f4a60208301866200211d565b62002f596040830185620023ee565b818103606083015262002f6d818462002ee3565b905095945050505050565b60008151905062002f898162001f21565b92915050565b60006020828403121562002fa85762002fa762001eeb565b5b600062002fb88482850162002f78565b91505092915050565b7f4e487b7100000000000000000000000000000000000000000000000000000000600052601260045260246000fdfe60806040523480156200001157600080fd5b506040516200268238038062002682833981810160405281019062000037919062000226565b8160009081620000489190620004cd565b50806001819055505050620005b4565b6000604051905090565b600080fd5b600080fd5b600080fd5b600080fd5b6000601f19601f8301169050919050565b7f4e487b7100000000000000000000000000000000000000000000000000000000600052604160045260246000fd5b620000c18262000076565b810181811067ffffffffffffffff82111715620000e357620000e262000087565b5b80604052505050565b6000620000f862000058565b9050620001068282620000b6565b919050565b600067ffffffffffffffff82111562000129576200012862000087565b5b620001348262000076565b9050602081019050919050565b60005b838110156200016157808201518184015260208101905062000144565b60008484015250505050565b6000620001846200017e846200010b565b620000ec565b905082815260208101848484011115620001a357620001a262000071565b5b620001b084828562000141565b509392505050565b600082601f830112620001d057620001cf6200006c565b5b8151620001e28482602086016200016d565b91505092915050565b6000819050919050565b6200020081620001eb565b81146200020c57600080fd5b50565b6000815190506200022081620001f5565b92915050565b6000806040838503121562000240576200023f62000062565b5b600083015167ffffffffffffffff81111562000261576200026062000067565b5b6200026f85828601620001b8565b925050602062000282858286016200020f565b9150509250929050565b600081519050919050565b7f4e487b7100000000000000000000000000000000000000000000000000000000600052602260045260246000fd5b60006002820490506001821680620002df57607f821691505b602082108103620002f557620002f462000297565b5b50919050565b60008190508160005260206000209050919050565b60006020601f8301049050919050565b600082821b905092915050565b6000600883026200035f7fffffffffffffffffffffffffffffffffffffffffffffffffffffffffffffffff8262000320565b6200036b868362000320565b95508019841693508086168417925050509392505050565b6000819050919050565b6000620003ae620003a8620003a284620001eb565b62000383565b620001eb565b9050919050565b6000819050919050565b620003ca836200038d565b620003e2620003d982620003b5565b8484546200032d565b825550505050565b600090565b620003f9620003ea565b62000406818484620003bf565b505050565b5b818110156200042e5762000422600082620003ef565b6001810190506200040c565b5050565b601f8211156200047d576200044781620002fb565b620004528462000310565b8101602085101562000462578190505b6200047a620004718562000310565b8301826200040b565b50505b505050565b600082821c905092915050565b6000620004a26000198460080262000482565b1980831691505092915050565b6000620004bd83836200048f565b9150826002028217905092915050565b620004d8826200028c565b67ffffffffffffffff811115620004f457620004f362000087565b5b620005008254620002c6565b6200050d82828562000432565b600060209050601f83116001811462000545576000841562000530578287015190505b6200053c8582620004af565b865550620005ac565b601f1984166200055586620002fb565b60005b828110156200057f5784890151825560018201915060208501945060208101905062000558565b868310156200059f57848901516200059b601f8916826200048f565b8355505b6001600288020188555050505b505050505050565b6120be80620005c46000396000f3fe60806040523480156200001157600080fd5b5060043610620000e25760003560e01c806370a0823111620000995780639188d312116200006f5780639188d3121462000251578063a9aa75ef1462000287578063aa93d70214620002bd578063f92906ff14620002dd57620000e2565b806370a0823114620001c35780637d62013014620001f95780638dc10768146200021b57620000e2565b806306fdde0314620000e757806317d7de7c14620001095780631b6cde10146200012b57806340c10f19146200014d5780636352211e146200016d5780636a62784214620001a3575b600080fd5b620000f1620002fd565b60405162000100919062000dc6565b60405180910390f35b6200011362000393565b60405162000122919062000dc6565b60405180910390f35b620001356200042d565b60405162000144919062000e05565b60405180910390f35b6200016b600480360381019062000165919062000ecc565b62000433565b005b6200018b600480360381019062000185919062000f13565b6200068e565b6040516200019a919062000f56565b60405180910390f35b620001c16004803603810190620001bb919062000f73565b62000818565b005b620001e16004803603810190620001db919062000f73565b620009c1565b604051620001f0919062000e05565b60405180910390f35b6200020362000adf565b60405162000212919062000e05565b60405180910390f35b62000239600480360381019062000233919062000f13565b62000ae9565b60405162000248919062001010565b60405180910390f35b6200026f600480360381019062000269919062000f13565b62000b1c565b6040516200027e919062001010565b60405180910390f35b620002a560048036038101906200029f919062000f13565b62000b59565b604051620002b491906200104a565b60405180910390f35b620002db6004803603810190620002d59190620011b8565b62000c44565b005b620002fb6004803603810190620002f5919062000ecc565b62000cec565b005b600080546200030c906200124d565b80601f01602080910402602001604051908101604052809291908181526020018280546200033a906200124d565b80156200038b5780601f106200035f576101008083540402835291602001916200038b565b820191906000526020600020905b8154815290600101906020018083116200036d57829003601f168201915b505050505081565b606060008054620003a4906200124d565b80601f0160208091040260200160405190810160405280929190818152602001828054620003d2906200124d565b8015620004235780601f10620003f75761010080835404028352916020019162000423565b820191906000526020600020905b8154815290600101906020018083116200040557829003601f168201915b5050505050905090565b60015481565b60005b6001548110156200068957600073ffffffffffffffffffffffffffffffffffffffff166002600083815260200190815260200160002060009054906101000a900473ffffffffffffffffffffffffffffffffffffffff1673ffffffffffffffffffffffffffffffffffffffff16638da5cb5b6040518163ffffffff1660e01b8152600401602060405180830381865afa158015620004d8573d6000803e3d6000fd5b505050506040513d601f19601f82011682018060405250810190620004fe919062001299565b73ffffffffffffffffffffffffffffffffffffffff16148015620005c55750816002600083815260200190815260200160002060009054906101000a900473ffffffffffffffffffffffffffffffffffffffff1673ffffffffffffffffffffffffffffffffffffffff16635d1ca6316040518163ffffffff1660e01b8152600401602060405180830381865afa1580156200059d573d6000803e3d6000fd5b505050506040513d601f19601f82011682018060405250810190620005c39190620012e2565b145b1562000673576002600082815260200190815260200160002060009054906101000a900473ffffffffffffffffffffffffffffffffffffffff1673ffffffffffffffffffffffffffffffffffffffff1663f2fde38b846040518263ffffffff1660e01b815260040162000639919062000f56565b600060405180830381600087803b1580156200065457600080fd5b505af115801562000669573d6000803e3d6000fd5b5050505062000689565b8080620006809062001343565b91505062000436565b505050565b600080600090505b6001548110156200081157826002600083815260200190815260200160002060009054906101000a900473ffffffffffffffffffffffffffffffffffffffff1673ffffffffffffffffffffffffffffffffffffffff16635d1ca6316040518163ffffffff1660e01b8152600401602060405180830381865afa15801562000721573d6000803e3d6000fd5b505050506040513d601f19601f82011682018060405250810190620007479190620012e2565b03620007fb576002600082815260200190815260200160002060009054906101000a900473ffffffffffffffffffffffffffffffffffffffff1673ffffffffffffffffffffffffffffffffffffffff16638da5cb5b6040518163ffffffff1660e01b8152600401602060405180830381865afa158015620007cc573d6000803e3d6000fd5b505050506040513d601f19601f82011682018060405250810190620007f2919062001299565b91505062000813565b8080620008089062001343565b91505062000696565b505b919050565b60005b600154811015620009bd57600073ffffffffffffffffffffffffffffffffffffffff166002600083815260200190815260200160002060009054906101000a900473ffffffffffffffffffffffffffffffffffffffff1673ffffffffffffffffffffffffffffffffffffffff16638da5cb5b6040518163ffffffff1660e01b8152600401602060405180830381865afa158015620008bd573d6000803e3d6000fd5b505050506040513d601f19601f82011682018060405250810190620008e3919062001299565b73ffffffffffffffffffffffffffffffffffffffff1603620009a7576002600082815260200190815260200160002060009054906101000a900473ffffffffffffffffffffffffffffffffffffffff1673ffffffffffffffffffffffffffffffffffffffff1663f2fde38b836040518263ffffffff1660e01b81526004016200096d919062000f56565b600060405180830381600087803b1580156200098857600080fd5b505af11580156200099d573d6000803e3d6000fd5b50505050620009bd565b8080620009b49062001343565b9150506200081b565b5050565b6000806000905060005b60015481101562000ad5578373ffffffffffffffffffffffffffffffffffffffff166002600083815260200190815260200160002060009054906101000a900473ffffffffffffffffffffffffffffffffffffffff1673ffffffffffffffffffffffffffffffffffffffff16638da5cb5b6040518163ffffffff1660e01b8152600401602060405180830381865afa15801562000a6c573d6000803e3d6000fd5b505050506040513d601f19601f8201168201806040525081019062000a92919062001299565b73ffffffffffffffffffffffffffffffffffffffff160362000abf57818062000abb9062001343565b9250505b808062000acc9062001343565b915050620009cb565b5080915050919050565b6000600154905090565b60026020528060005260406000206000915054906101000a900473ffffffffffffffffffffffffffffffffffffffff1681565b60006002600083815260200190815260200160002060009054906101000a900473ffffffffffffffffffffffffffffffffffffffff169050919050565b600080600090505b60015481101562000c3957826002600083815260200190815260200160002060009054906101000a900473ffffffffffffffffffffffffffffffffffffffff1673ffffffffffffffffffffffffffffffffffffffff16635d1ca6316040518163ffffffff1660e01b8152600401602060405180830381865afa15801562000bec573d6000803e3d6000fd5b505050506040513d601f19601f8201168201806040525081019062000c129190620012e2565b0362000c2357600191505062000c3f565b808062000c309062001343565b91505062000b61565b50600090505b919050565b818160405162000c549062000d1e565b62000c6192919062001390565b604051809103906000f08015801562000c7e573d6000803e3d6000fd5b50600260006001600081548092919062000c989062001343565b91905055815260200190815260200160002060006101000a81548173ffffffffffffffffffffffffffffffffffffffff021916908373ffffffffffffffffffffffffffffffffffffffff1602179055505050565b60005b8181101562000d195762000d038362000818565b808062000d109062001343565b91505062000cef565b505050565b610cc480620013c583390190565b600081519050919050565b600082825260208201905092915050565b60005b8381101562000d6857808201518184015260208101905062000d4b565b60008484015250505050565b6000601f19601f8301169050919050565b600062000d928262000d2c565b62000d9e818562000d37565b935062000db081856020860162000d48565b62000dbb8162000d74565b840191505092915050565b6000602082019050818103600083015262000de2818462000d85565b905092915050565b6000819050919050565b62000dff8162000dea565b82525050565b600060208201905062000e1c600083018462000df4565b92915050565b6000604051905090565b600080fd5b600080fd5b600073ffffffffffffffffffffffffffffffffffffffff82169050919050565b600062000e638262000e36565b9050919050565b62000e758162000e56565b811462000e8157600080fd5b50565b60008135905062000e958162000e6a565b92915050565b62000ea68162000dea565b811462000eb257600080fd5b50565b60008135905062000ec68162000e9b565b92915050565b6000806040838503121562000ee65762000ee562000e2c565b5b600062000ef68582860162000e84565b925050602062000f098582860162000eb5565b9150509250929050565b60006020828403121562000f2c5762000f2b62000e2c565b5b600062000f3c8482850162000eb5565b91505092915050565b62000f508162000e56565b82525050565b600060208201905062000f6d600083018462000f45565b92915050565b60006020828403121562000f8c5762000f8b62000e2c565b5b600062000f9c8482850162000e84565b91505092915050565b6000819050919050565b600062000fd062000fca62000fc48462000e36565b62000fa5565b62000e36565b9050919050565b600062000fe48262000faf565b9050919050565b600062000ff88262000fd7565b9050919050565b6200100a8162000feb565b82525050565b600060208201905062001027600083018462000fff565b92915050565b60008115159050919050565b62001044816200102d565b82525050565b600060208201905062001061600083018462001039565b92915050565b600080fd5b600080fd5b7f4e487b7100000000000000000000000000000000000000000000000000000000600052604160045260246000fd5b620010ab8262000d74565b810181811067ffffffffffffffff82111715620010cd57620010cc62001071565b5b80604052505050565b6000620010e262000e22565b9050620010f08282620010a0565b919050565b600067ffffffffffffffff82111562001113576200111262001071565b5b6200111e8262000d74565b9050602081019050919050565b82818337600083830152505050565b6000620011516200114b84620010f5565b620010d6565b90508281526020810184848401111562001170576200116f6200106c565b5b6200117d8482856200112b565b509392505050565b600082601f8301126200119d576200119c62001067565b5b8135620011af8482602086016200113a565b91505092915050565b60008060408385031215620011d257620011d162000e2c565b5b6000620011e28582860162000eb5565b925050602083013567ffffffffffffffff81111562001206576200120562000e31565b5b620012148582860162001185565b9150509250929050565b7f4e487b7100000000000000000000000000000000000000000000000000000000600052602260045260246000fd5b600060028204905060018216806200126657607f821691505b6020821081036200127c576200127b6200121e565b5b50919050565b600081519050620012938162000e6a565b92915050565b600060208284031215620012b257620012b162000e2c565b5b6000620012c28482850162001282565b91505092915050565b600081519050620012dc8162000e9b565b92915050565b600060208284031215620012fb57620012fa62000e2c565b5b60006200130b84828501620012cb565b91505092915050565b7f4e487b7100000000000000000000000000000000000000000000000000000000600052601160045260246000fd5b6000620013508262000dea565b91507fffffffffffffffffffffffffffffffffffffffffffffffffffffffffffffffff820362001385576200138462001314565b5b600182019050919050565b6000604082019050620013a7600083018562000df4565b8181036020830152620013bb818462000d85565b9050939250505056fe60806040523480156200001157600080fd5b5060405162000cc438038062000cc4833981810160405281019062000037919062000372565b33600073ffffffffffffffffffffffffffffffffffffffff168173ffffffffffffffffffffffffffffffffffffffff1603620000ad5760006040517f1e4fbdf7000000000000000000000000000000000000000000000000000000008152600401620000a491906200041d565b60405180910390fd5b620000be81620000e060201b60201c565b50816001819055508060029081620000d791906200067b565b50505062000762565b60008060009054906101000a900473ffffffffffffffffffffffffffffffffffffffff169050816000806101000a81548173ffffffffffffffffffffffffffffffffffffffff021916908373ffffffffffffffffffffffffffffffffffffffff1602179055508173ffffffffffffffffffffffffffffffffffffffff168173ffffffffffffffffffffffffffffffffffffffff167f8be0079c531659141344cd1fd0a4f28419497f9722a3daafe3b4186f6b6457e060405160405180910390a35050565b6000604051905090565b600080fd5b600080fd5b6000819050919050565b620001cd81620001b8565b8114620001d957600080fd5b50565b600081519050620001ed81620001c2565b92915050565b600080fd5b600080fd5b6000601f19601f8301169050919050565b7f4e487b7100000000000000000000000000000000000000000000000000000000600052604160045260246000fd5b6200024882620001fd565b810181811067ffffffffffffffff821117156200026a57620002696200020e565b5b80604052505050565b60006200027f620001a4565b90506200028d82826200023d565b919050565b600067ffffffffffffffff821115620002b057620002af6200020e565b5b620002bb82620001fd565b9050602081019050919050565b60005b83811015620002e8578082015181840152602081019050620002cb565b60008484015250505050565b60006200030b620003058462000292565b62000273565b9050828152602081018484840111156200032a5762000329620001f8565b5b62000337848285620002c8565b509392505050565b600082601f830112620003575762000356620001f3565b5b815162000369848260208601620002f4565b91505092915050565b600080604083850312156200038c576200038b620001ae565b5b60006200039c85828601620001dc565b925050602083015167ffffffffffffffff811115620003c057620003bf620001b3565b5b620003ce858286016200033f565b9150509250929050565b600073ffffffffffffffffffffffffffffffffffffffff82169050919050565b60006200040582620003d8565b9050919050565b6200041781620003f8565b82525050565b60006020820190506200043460008301846200040c565b92915050565b600081519050919050565b7f4e487b7100000000000000000000000000000000000000000000000000000000600052602260045260246000fd5b600060028204905060018216806200048d57607f821691505b602082108103620004a357620004a262000445565b5b50919050565b60008190508160005260206000209050919050565b60006020601f8301049050919050565b600082821b905092915050565b6000600883026200050d7fffffffffffffffffffffffffffffffffffffffffffffffffffffffffffffffff82620004ce565b620005198683620004ce565b95508019841693508086168417925050509392505050565b6000819050919050565b60006200055c620005566200055084620001b8565b62000531565b620001b8565b9050919050565b6000819050919050565b62000578836200053b565b62000590620005878262000563565b848454620004db565b825550505050565b600090565b620005a762000598565b620005b48184846200056d565b505050565b5b81811015620005dc57620005d06000826200059d565b600181019050620005ba565b5050565b601f8211156200062b57620005f581620004a9565b6200060084620004be565b8101602085101562000610578190505b620006286200061f85620004be565b830182620005b9565b50505b505050565b600082821c905092915050565b6000620006506000198460080262000630565b1980831691505092915050565b60006200066b83836200063d565b9150826002028217905092915050565b62000686826200043a565b67ffffffffffffffff811115620006a257620006a16200020e565b5b620006ae825462000474565b620006bb828285620005e0565b600060209050601f831160018114620006f35760008415620006de578287015190505b620006ea85826200065d565b8655506200075a565b601f1984166200070386620004a9565b60005b828110156200072d5784890151825560018201915060208501945060208101905062000706565b868310156200074d578489015162000749601f8916826200063d565b8355505b6001600288020188555050505b505050505050565b61055280620007726000396000f3fe608060405234801561001057600080fd5b50600436106100575760003560e01c80635d1ca6311461005c578063715018a61461007a5780637802dff5146100845780638da5cb5b146100a2578063f2fde38b146100c0575b600080fd5b6100646100dc565b6040516100719190610335565b60405180910390f35b6100826100e6565b005b61008c6100fa565b60405161009991906103e0565b60405180910390f35b6100aa61018c565b6040516100b79190610443565b60405180910390f35b6100da60048036038101906100d5919061048f565b6101b5565b005b6000600154905090565b6100ee6101c9565b6100f86000610250565b565b606060028054610109906104eb565b80601f0160208091040260200160405190810160405280929190818152602001828054610135906104eb565b80156101825780601f1061015757610100808354040283529160200191610182565b820191906000526020600020905b81548152906001019060200180831161016557829003601f168201915b5050505050905090565b60008060009054906101000a900473ffffffffffffffffffffffffffffffffffffffff16905090565b6101bd6101c9565b6101c6816101b5565b50565b6101d1610314565b73ffffffffffffffffffffffffffffffffffffffff166101ef61018c565b73ffffffffffffffffffffffffffffffffffffffff161461024e57610212610314565b6040517f118cdaa70000000000000000000000000000000000000000000000000000000081526004016102459190610443565b60405180910390fd5b565b60008060009054906101000a900473ffffffffffffffffffffffffffffffffffffffff169050816000806101000a81548173ffffffffffffffffffffffffffffffffffffffff021916908373ffffffffffffffffffffffffffffffffffffffff1602179055508173ffffffffffffffffffffffffffffffffffffffff168173ffffffffffffffffffffffffffffffffffffffff167f8be0079c531659141344cd1fd0a4f28419497f9722a3daafe3b4186f6b6457e060405160405180910390a35050565b600033905090565b6000819050919050565b61032f8161031c565b82525050565b600060208201905061034a6000830184610326565b92915050565b600081519050919050565b600082825260208201905092915050565b60005b8381101561038a57808201518184015260208101905061036f565b60008484015250505050565b6000601f19601f8301169050919050565b60006103b282610350565b6103bc818561035b565b93506103cc81856020860161036c565b6103d581610396565b840191505092915050565b600060208201905081810360008301526103fa81846103a7565b905092915050565b600073ffffffffffffffffffffffffffffffffffffffff82169050919050565b600061042d82610402565b9050919050565b61043d81610422565b82525050565b60006020820190506104586000830184610434565b92915050565b600080fd5b61046c81610422565b811461047757600080fd5b50565b60008135905061048981610463565b92915050565b6000602082840312156104a5576104a461045e565b5b60006104b38482850161047a565b91505092915050565b7f4e487b7100000000000000000000000000000000000000000000000000000000600052602260045260246000fd5b6000600282049050600182168061050357607f821691505b602082108103610516576105156104bc565b5b5091905056fea2646970667358221220c9055a330222893d1592b6ba51a425feae93b76700fc1cf31e7c593035fd370d64736f6c63430008140033a26469706673582212205d2eff3a6afb4b31ee29993c53541514f33fc14b38083eaf5bce9a1d25c8f49864736f6c63430008140033a2646970667358221220a68c20fa4f75e01907eeed3d4c3fe115c4b573f73205db4dfb6c9b72dde3210b64736f6c63430008140033",
  "linkReferences": {},
  "deployedLinkReferences": {}
}